{
  "contractName": "BRTPOOL",
  "abi": [
    {
      "inputs": [
        {
          "internalType": "address",
          "name": "tokenAddr",
          "type": "address"
        }
      ],
      "stateMutability": "nonpayable",
      "type": "constructor"
    },
    {
      "anonymous": false,
      "inputs": [
        {
          "indexed": true,
          "internalType": "address",
          "name": "owner",
          "type": "address"
        },
        {
          "indexed": true,
          "internalType": "address",
          "name": "approved",
          "type": "address"
        },
        {
          "indexed": true,
          "internalType": "uint256",
          "name": "tokenId",
          "type": "uint256"
        }
      ],
      "name": "Approval",
      "type": "event"
    },
    {
      "anonymous": false,
      "inputs": [
        {
          "indexed": true,
          "internalType": "address",
          "name": "owner",
          "type": "address"
        },
        {
          "indexed": true,
          "internalType": "address",
          "name": "operator",
          "type": "address"
        },
        {
          "indexed": false,
          "internalType": "bool",
          "name": "approved",
          "type": "bool"
        }
      ],
      "name": "ApprovalForAll",
      "type": "event"
    },
    {
      "anonymous": false,
      "inputs": [
        {
          "indexed": true,
          "internalType": "address",
          "name": "borrower",
          "type": "address"
        },
        {
          "indexed": false,
          "internalType": "uint256",
          "name": "loanId",
          "type": "uint256"
        },
        {
          "indexed": false,
          "internalType": "uint256",
          "name": "redemptionPrice",
          "type": "uint256"
        },
        {
          "indexed": false,
          "internalType": "uint256",
          "name": "collateral",
          "type": "uint256"
        },
        {
          "indexed": false,
          "internalType": "uint256",
          "name": "expires",
          "type": "uint256"
        }
      ],
      "name": "Borrowed",
      "type": "event"
    },
    {
      "anonymous": false,
      "inputs": [
        {
          "indexed": true,
          "internalType": "address",
          "name": "borrower",
          "type": "address"
        },
        {
          "indexed": false,
          "internalType": "uint256",
          "name": "loanId",
          "type": "uint256"
        }
      ],
      "name": "Liquidated",
      "type": "event"
    },
    {
      "anonymous": false,
      "inputs": [
        {
          "indexed": false,
          "internalType": "address",
          "name": "spender",
          "type": "address"
        },
        {
          "indexed": false,
          "internalType": "uint256",
          "name": "loanId",
          "type": "uint256"
        }
      ],
      "name": "PayBack",
      "type": "event"
    },
    {
      "anonymous": false,
      "inputs": [
        {
          "indexed": true,
          "internalType": "address",
          "name": "from",
          "type": "address"
        },
        {
          "indexed": true,
          "internalType": "address",
          "name": "to",
          "type": "address"
        },
        {
          "indexed": true,
          "internalType": "uint256",
          "name": "tokenId",
          "type": "uint256"
        }
      ],
      "name": "Transfer",
      "type": "event"
    },
    {
      "inputs": [
        {
          "internalType": "address",
          "name": "owner",
          "type": "address"
        }
      ],
      "name": "balanceOf",
      "outputs": [
        {
          "internalType": "uint256",
          "name": "",
          "type": "uint256"
        }
      ],
      "stateMutability": "view",
      "type": "function",
      "constant": true
    },
    {
      "inputs": [],
      "name": "baseURI",
      "outputs": [
        {
          "internalType": "string",
          "name": "",
          "type": "string"
        }
      ],
      "stateMutability": "view",
      "type": "function",
      "constant": true
    },
    {
      "inputs": [],
      "name": "borrowTime",
      "outputs": [
        {
          "internalType": "uint256",
          "name": "",
          "type": "uint256"
        }
      ],
      "stateMutability": "view",
      "type": "function",
      "constant": true
    },
    {
      "inputs": [
        {
          "internalType": "uint256",
          "name": "_loanInBrt",
          "type": "uint256"
        }
      ],
      "name": "calculateCollateral",
      "outputs": [
        {
          "internalType": "uint256",
          "name": "",
          "type": "uint256"
        }
      ],
      "stateMutability": "view",
      "type": "function",
      "constant": true
    },
    {
      "inputs": [
        {
          "internalType": "uint256",
          "name": "_collateralInEth",
          "type": "uint256"
        }
      ],
      "name": "calculateLoan",
      "outputs": [
        {
          "internalType": "uint256",
          "name": "",
          "type": "uint256"
        }
      ],
      "stateMutability": "view",
      "type": "function",
      "constant": true
    },
    {
      "inputs": [],
      "name": "collaterizationRatio",
      "outputs": [
        {
          "internalType": "uint8",
          "name": "",
          "type": "uint8"
        }
      ],
      "stateMutability": "view",
      "type": "function",
      "constant": true
    },
    {
      "inputs": [
        {
          "internalType": "uint256",
          "name": "priceInEth",
          "type": "uint256"
        }
      ],
      "name": "convertToBrtFromEth",
      "outputs": [
        {
          "internalType": "uint256",
          "name": "",
          "type": "uint256"
        }
      ],
      "stateMutability": "view",
      "type": "function",
      "constant": true
    },
    {
      "inputs": [
        {
          "internalType": "uint256",
          "name": "priceInBrt",
          "type": "uint256"
        }
      ],
      "name": "convertToEthFromBrt",
      "outputs": [
        {
          "internalType": "uint256",
          "name": "",
          "type": "uint256"
        }
      ],
      "stateMutability": "view",
      "type": "function",
      "constant": true
    },
    {
      "inputs": [],
      "name": "feePercent",
      "outputs": [
        {
          "internalType": "uint8",
          "name": "",
          "type": "uint8"
        }
      ],
      "stateMutability": "view",
      "type": "function",
      "constant": true
    },
    {
      "inputs": [
        {
          "internalType": "uint256",
          "name": "tokenId",
          "type": "uint256"
        }
      ],
      "name": "getApproved",
      "outputs": [
        {
          "internalType": "address",
          "name": "",
          "type": "address"
        }
      ],
      "stateMutability": "view",
      "type": "function",
      "constant": true
    },
    {
      "inputs": [
        {
          "internalType": "address",
          "name": "owner",
          "type": "address"
        },
        {
          "internalType": "address",
          "name": "operator",
          "type": "address"
        }
      ],
      "name": "isApprovedForAll",
      "outputs": [
        {
          "internalType": "bool",
          "name": "",
          "type": "bool"
        }
      ],
      "stateMutability": "view",
      "type": "function",
      "constant": true
    },
    {
      "inputs": [],
      "name": "name",
      "outputs": [
        {
          "internalType": "string",
          "name": "",
          "type": "string"
        }
      ],
      "stateMutability": "view",
      "type": "function",
      "constant": true
    },
    {
      "inputs": [
        {
          "internalType": "uint256",
          "name": "tokenId",
          "type": "uint256"
        }
      ],
      "name": "ownerOf",
      "outputs": [
        {
          "internalType": "address",
          "name": "",
          "type": "address"
        }
      ],
      "stateMutability": "view",
      "type": "function",
      "constant": true
    },
    {
      "inputs": [
        {
          "internalType": "address",
          "name": "operator",
          "type": "address"
        },
        {
          "internalType": "bool",
          "name": "approved",
          "type": "bool"
        }
      ],
      "name": "setApprovalForAll",
      "outputs": [],
      "stateMutability": "nonpayable",
      "type": "function"
    },
    {
      "inputs": [
        {
          "internalType": "bytes4",
          "name": "interfaceId",
          "type": "bytes4"
        }
      ],
      "name": "supportsInterface",
      "outputs": [
        {
          "internalType": "bool",
          "name": "",
          "type": "bool"
        }
      ],
      "stateMutability": "view",
      "type": "function",
      "constant": true
    },
    {
      "inputs": [],
      "name": "symbol",
      "outputs": [
        {
          "internalType": "string",
          "name": "",
          "type": "string"
        }
      ],
      "stateMutability": "view",
      "type": "function",
      "constant": true
    },
    {
      "inputs": [
        {
          "internalType": "uint256",
          "name": "index",
          "type": "uint256"
        }
      ],
      "name": "tokenByIndex",
      "outputs": [
        {
          "internalType": "uint256",
          "name": "",
          "type": "uint256"
        }
      ],
      "stateMutability": "view",
      "type": "function",
      "constant": true
    },
    {
      "inputs": [
        {
          "internalType": "address",
          "name": "owner",
          "type": "address"
        },
        {
          "internalType": "uint256",
          "name": "index",
          "type": "uint256"
        }
      ],
      "name": "tokenOfOwnerByIndex",
      "outputs": [
        {
          "internalType": "uint256",
          "name": "",
          "type": "uint256"
        }
      ],
      "stateMutability": "view",
      "type": "function",
      "constant": true
    },
    {
      "inputs": [
        {
          "internalType": "uint256",
          "name": "tokenId",
          "type": "uint256"
        }
      ],
      "name": "tokenURI",
      "outputs": [
        {
          "internalType": "string",
          "name": "",
          "type": "string"
        }
      ],
      "stateMutability": "view",
      "type": "function",
      "constant": true
    },
    {
      "inputs": [],
      "name": "totalSupply",
      "outputs": [
        {
          "internalType": "uint256",
          "name": "",
          "type": "uint256"
        }
      ],
      "stateMutability": "view",
      "type": "function",
      "constant": true
    },
    {
      "inputs": [],
      "name": "borrow",
      "outputs": [
        {
          "internalType": "uint256",
          "name": "",
          "type": "uint256"
        }
      ],
      "stateMutability": "payable",
      "type": "function",
      "payable": true
    },
    {
      "inputs": [
        {
          "internalType": "bytes",
          "name": "_params",
          "type": "bytes"
        }
      ],
      "name": "payback",
      "outputs": [],
      "stateMutability": "nonpayable",
      "type": "function"
    },
    {
      "inputs": [
        {
          "internalType": "uint256",
          "name": "loanId",
          "type": "uint256"
        }
      ],
      "name": "payback",
      "outputs": [],
      "stateMutability": "nonpayable",
      "type": "function"
    },
    {
      "inputs": [
        {
          "internalType": "address",
          "name": "addr",
          "type": "address"
        },
        {
          "internalType": "uint256",
          "name": "unixTimeStamp",
          "type": "uint256"
        }
      ],
      "name": "getActiveLoans",
      "outputs": [
        {
          "internalType": "uint256[]",
          "name": "",
          "type": "uint256[]"
        }
      ],
      "stateMutability": "view",
      "type": "function",
      "constant": true
    },
    {
      "inputs": [
        {
          "internalType": "uint256",
          "name": "loanId",
          "type": "uint256"
        },
        {
          "internalType": "uint256",
          "name": "unixTimeStamp",
          "type": "uint256"
        }
      ],
      "name": "isLoanExpiredAt",
      "outputs": [
        {
          "internalType": "bool",
          "name": "",
          "type": "bool"
        }
      ],
      "stateMutability": "view",
      "type": "function",
      "constant": true
    },
    {
      "inputs": [
        {
          "internalType": "uint256[]",
          "name": "_loanIds",
          "type": "uint256[]"
        },
        {
          "internalType": "uint256",
          "name": "unixTimeStamp",
          "type": "uint256"
        }
      ],
      "name": "isAnyExpired",
      "outputs": [
        {
          "internalType": "bool",
          "name": "",
          "type": "bool"
        }
      ],
      "stateMutability": "view",
      "type": "function",
      "constant": true
    },
    {
      "inputs": [
        {
          "internalType": "uint256",
          "name": "unixTimeStamp",
          "type": "uint256"
        }
      ],
      "name": "getExpiredLoanIds",
      "outputs": [
        {
          "internalType": "uint256[]",
          "name": "",
          "type": "uint256[]"
        }
      ],
      "stateMutability": "view",
      "type": "function",
      "constant": true
    },
    {
      "inputs": [
        {
          "internalType": "bytes",
          "name": "_params",
          "type": "bytes"
        }
      ],
      "name": "liquidate",
      "outputs": [],
      "stateMutability": "nonpayable",
      "type": "function"
    },
    {
      "inputs": [
        {
          "internalType": "uint256",
          "name": "loanId",
          "type": "uint256"
        }
      ],
      "name": "liquidate",
      "outputs": [],
      "stateMutability": "nonpayable",
      "type": "function"
    },
    {
      "inputs": [
        {
          "internalType": "uint256",
          "name": "loanId",
          "type": "uint256"
        },
        {
          "internalType": "address",
          "name": "payer",
          "type": "address"
        }
      ],
      "name": "_liquidate",
      "outputs": [],
      "stateMutability": "nonpayable",
      "type": "function"
    },
    {
      "inputs": [
        {
          "internalType": "uint256",
          "name": "loanId",
          "type": "uint256"
        }
      ],
      "name": "loanInfo",
      "outputs": [
        {
          "components": [
            {
              "internalType": "uint256",
              "name": "redemptionPrice",
              "type": "uint256"
            },
            {
              "internalType": "uint256",
              "name": "collateral",
              "type": "uint256"
            },
            {
              "internalType": "uint256",
              "name": "expires",
              "type": "uint256"
            }
          ],
          "internalType": "struct CollateralRedemptionToken.Collateral",
          "name": "",
          "type": "tuple"
        }
      ],
      "stateMutability": "view",
      "type": "function",
      "constant": true
    },
    {
      "inputs": [],
      "name": "getPoolBalance",
      "outputs": [
        {
          "internalType": "uint256",
          "name": "",
          "type": "uint256"
        }
      ],
      "stateMutability": "view",
      "type": "function",
      "constant": true
    },
    {
      "inputs": [
        {
          "internalType": "address",
          "name": "to",
          "type": "address"
        },
        {
          "internalType": "uint256",
          "name": "tokenId",
          "type": "uint256"
        }
      ],
      "name": "approve",
      "outputs": [],
      "stateMutability": "nonpayable",
      "type": "function"
    },
    {
      "inputs": [
        {
          "internalType": "address",
          "name": "from",
          "type": "address"
        },
        {
          "internalType": "address",
          "name": "to",
          "type": "address"
        },
        {
          "internalType": "uint256",
          "name": "tokenId",
          "type": "uint256"
        }
      ],
      "name": "transferFrom",
      "outputs": [],
      "stateMutability": "nonpayable",
      "type": "function"
    },
    {
      "inputs": [
        {
          "internalType": "address",
          "name": "from",
          "type": "address"
        },
        {
          "internalType": "address",
          "name": "to",
          "type": "address"
        },
        {
          "internalType": "uint256",
          "name": "tokenId",
          "type": "uint256"
        }
      ],
      "name": "safeTransferFrom",
      "outputs": [],
      "stateMutability": "nonpayable",
      "type": "function"
    },
    {
      "inputs": [
        {
          "internalType": "address",
          "name": "from",
          "type": "address"
        },
        {
          "internalType": "address",
          "name": "to",
          "type": "address"
        },
        {
          "internalType": "uint256",
          "name": "tokenId",
          "type": "uint256"
        },
        {
          "internalType": "bytes",
          "name": "_data",
          "type": "bytes"
        }
      ],
      "name": "safeTransferFrom",
      "outputs": [],
      "stateMutability": "nonpayable",
      "type": "function"
    }
  ],
  "bytecode": "0x6080604052607d6000806101000a81548160ff021916908360ff1602179055506096600060016101000a81548160ff021916908360ff1602179055506005600060026101000a81548160ff021916908360ff1602179055506104b0600c553480156200006a57600080fd5b506040516200571e3803806200571e833981810160405281019062000090919062000376565b6040518060400160405280601b81526020017f436f6c6c61746572616c20526564656d7074696f6e20546f6b656e00000000008152506040518060400160405280600381526020017f4352540000000000000000000000000000000000000000000000000000000000815250620001146301ffc9a760e01b620001d860201b60201c565b81600790805190602001906200012c929190620002b0565b50806008908051906020019062000145929190620002b0565b506200015e6380ac58cd60e01b620001d860201b60201c565b62000176635b5e139f60e01b620001d860201b60201c565b6200018e63780e9d6360e01b620001d860201b60201c565b505080600d60006101000a81548173ffffffffffffffffffffffffffffffffffffffff021916908373ffffffffffffffffffffffffffffffffffffffff1602179055505062000465565b63ffffffff60e01b817bffffffffffffffffffffffffffffffffffffffffffffffffffffffff1916141562000244576040517f08c379a00000000000000000000000000000000000000000000000000000000081526004016200023b90620003e4565b60405180910390fd5b6001806000837bffffffffffffffffffffffffffffffffffffffffffffffffffffffff19167bffffffffffffffffffffffffffffffffffffffffffffffffffffffff1916815260200190815260200160002060006101000a81548160ff02191690831515021790555050565b828054600181600116156101000203166002900490600052602060002090601f016020900481019282601f10620002f357805160ff191683800117855562000324565b8280016001018555821562000324579182015b828111156200032357825182559160200191906001019062000306565b5b50905062000333919062000337565b5090565b6200035c91905b80821115620003585760008160009055506001016200033e565b5090565b90565b60008151905062000370816200044b565b92915050565b6000602082840312156200038957600080fd5b600062000399848285016200035f565b91505092915050565b6000620003b1601c8362000406565b91507f4552433136353a20696e76616c696420696e74657266616365206964000000006000830152602082019050919050565b60006020820190508181036000830152620003ff81620003a2565b9050919050565b600082825260208201905092915050565b600062000424826200042b565b9050919050565b600073ffffffffffffffffffffffffffffffffffffffff82169050919050565b620004568162000417565b81146200046257600080fd5b50565b6152a980620004756000396000f3fe60806040526004361061020f5760003560e01c80636c0360eb11610118578063a22cb465116100a0578063c79cbbdc1161006f578063c79cbbdc14610833578063c87b56dd14610870578063e68d3569146108ad578063e97ca204146108cb578063e985e9c5146108f45761020f565b8063a22cb4651461078d578063a846c2fd146107b6578063abd70aa2146107df578063b88d4fde1461080a5761020f565b80638349d6be116100e75780638349d6be1461066e57806392654f6d146106ab578063934dafd7146106e857806395d89b41146107255780639e0f99d3146107505761020f565b80636c0360eb1461059e57806370168174146105c957806370a08231146106065780637fd6f15c146106435761020f565b80632b542cc81161019b57806343baccdb1161016a57806343baccdb1461047f5780634f6ccce7146104bc57806356059339146104f95780635eb6b48d146105365780636352211e146105615761020f565b80632b542cc8146103b35780632f745c59146103f0578063415f12401461042d57806342842e0e146104565761020f565b80631721539b116101e25780631721539b146102e257806318160ddd1461030b5780632187b23a14610336578063225d685f1461035f57806323b872dd1461038a5761020f565b806301ffc9a71461021457806306fdde0314610251578063081812fc1461027c578063095ea7b3146102b9575b600080fd5b34801561022057600080fd5b5061023b60048036038101906102369190613af8565b610931565b6040516102489190614ad9565b60405180910390f35b34801561025d57600080fd5b50610266610999565b6040516102739190614af4565b60405180910390f35b34801561028857600080fd5b506102a3600480360381019061029e9190613b8b565b610a3b565b6040516102b091906149c7565b60405180910390f35b3480156102c557600080fd5b506102e060048036038101906102db9190613a3f565b610ac0565b005b3480156102ee57600080fd5b5061030960048036038101906103049190613b4a565b610c22565b005b34801561031757600080fd5b50610320610c4c565b60405161032d9190614ef1565b60405180910390f35b34801561034257600080fd5b5061035d60048036038101906103589190613b4a565b610c5d565b005b34801561036b57600080fd5b50610374610c87565b6040516103819190614ef1565b60405180910390f35b34801561039657600080fd5b506103b160048036038101906103ac9190613939565b610c8d565b005b3480156103bf57600080fd5b506103da60048036038101906103d59190613a3f565b610d37565b6040516103e79190614ab7565b60405180910390f35b3480156103fc57600080fd5b5061041760048036038101906104129190613a3f565b610e6c565b6040516104249190614ef1565b60405180910390f35b34801561043957600080fd5b50610454600480360381019061044f9190613b8b565b610ec7565b005b34801561046257600080fd5b5061047d60048036038101906104789190613939565b610ed4565b005b34801561048b57600080fd5b506104a660048036038101906104a19190613b8b565b610f3e565b6040516104b39190614ef1565b60405180910390f35b3480156104c857600080fd5b506104e360048036038101906104de9190613b8b565b610f70565b6040516104f09190614ef1565b60405180910390f35b34801561050557600080fd5b50610520600480360381019061051b9190613b8b565b610f93565b60405161052d9190614ef1565b60405180910390f35b34801561054257600080fd5b5061054b610fd4565b6040516105589190614f51565b60405180910390f35b34801561056d57600080fd5b5061058860048036038101906105839190613b8b565b610fe7565b60405161059591906149c7565b60405180910390f35b3480156105aa57600080fd5b506105b361101e565b6040516105c09190614af4565b60405180910390f35b3480156105d557600080fd5b506105f060048036038101906105eb9190613c55565b6110c0565b6040516105fd9190614ad9565b60405180910390f35b34801561061257600080fd5b5061062d600480360381019061062891906138d4565b61117b565b60405161063a9190614ef1565b60405180910390f35b34801561064f57600080fd5b5061065861123a565b6040516106659190614f51565b60405180910390f35b34801561067a57600080fd5b5061069560048036038101906106909190613b8b565b61124d565b6040516106a29190614ed6565b60405180910390f35b3480156106b757600080fd5b506106d260048036038101906106cd9190613a7b565b61132f565b6040516106df9190614ad9565b60405180910390f35b3480156106f457600080fd5b5061070f600480360381019061070a9190613b8b565b6113fd565b60405161071c9190614ef1565b60405180910390f35b34801561073157600080fd5b5061073a61143e565b6040516107479190614af4565b60405180910390f35b34801561075c57600080fd5b5061077760048036038101906107729190613b8b565b6114e0565b6040516107849190614ab7565b60405180910390f35b34801561079957600080fd5b506107b460048036038101906107af9190613a03565b6115da565b005b3480156107c257600080fd5b506107dd60048036038101906107d89190613b8b565b61175b565b005b3480156107eb57600080fd5b506107f4611768565b6040516108019190614ef1565b60405180910390f35b34801561081657600080fd5b50610831600480360381019061082c9190613988565b61181a565b005b34801561083f57600080fd5b5061085a60048036038101906108559190613b8b565b6118c6565b6040516108679190614ef1565b60405180910390f35b34801561087c57600080fd5b5061089760048036038101906108929190613b8b565b6118f8565b6040516108a49190614af4565b60405180910390f35b6108b5611a83565b6040516108c29190614ef1565b60405180910390f35b3480156108d757600080fd5b506108f260048036038101906108ed9190613bdd565b611c4e565b005b34801561090057600080fd5b5061091b600480360381019061091691906138fd565b611e9b565b6040516109289190614ad9565b60405180910390f35b600060016000837bffffffffffffffffffffffffffffffffffffffffffffffffffffffff19167bffffffffffffffffffffffffffffffffffffffffffffffffffffffff1916815260200190815260200160002060009054906101000a900460ff169050919050565b606060078054600181600116156101000203166002900480601f016020809104026020016040519081016040528092919081815260200182805460018160011615610100020316600290048015610a315780601f10610a0657610100808354040283529160200191610a31565b820191906000526020600020905b815481529060010190602001808311610a1457829003601f168201915b5050505050905090565b6000610a4682611f2f565b610a85576040517f08c379a0000000000000000000000000000000000000000000000000000000008152600401610a7c90614d96565b60405180910390fd5b6005600083815260200190815260200160002060009054906101000a900473ffffffffffffffffffffffffffffffffffffffff169050919050565b610aca81426110c0565b15610b0a576040517f08c379a0000000000000000000000000000000000000000000000000000000008152600401610b0190614cf6565b60405180910390fd5b6000610b1582610fe7565b90508073ffffffffffffffffffffffffffffffffffffffff168373ffffffffffffffffffffffffffffffffffffffff161415610b86576040517f08c379a0000000000000000000000000000000000000000000000000000000008152600401610b7d90614df6565b60405180910390fd5b8073ffffffffffffffffffffffffffffffffffffffff16610ba5611f4c565b73ffffffffffffffffffffffffffffffffffffffff161480610bd45750610bd381610bce611f4c565b611e9b565b5b610c13576040517f08c379a0000000000000000000000000000000000000000000000000000000008152600401610c0a90614c76565b60405180910390fd5b610c1d8383611f54565b505050565b60008082806020019051810190610c399190613c19565b91509150610c478282611c4e565b505050565b6000610c58600361200d565b905090565b60008082806020019051810190610c749190613c19565b91509150610c828282612022565b505050565b600c5481565b610c9781426110c0565b15610cd7576040517f08c379a0000000000000000000000000000000000000000000000000000000008152600401610cce90614b76565b60405180910390fd5b610ce8610ce2611f4c565b826122e2565b610d27576040517f08c379a0000000000000000000000000000000000000000000000000000000008152600401610d1e90614e16565b60405180910390fd5b610d328383836123c0565b505050565b606080610d4483856125d7565b67ffffffffffffffff81118015610d5a57600080fd5b50604051908082528060200260200182016040528015610d895781602001602082028036833780820191505090505b50905060006001610d9a85876125d7565b10610e615760008090505b600b80549050811015610e5f576000600b8281548110610dc157fe5b9060005260206000209060030201600201541115610e52578573ffffffffffffffffffffffffffffffffffffffff16610df982610fe7565b73ffffffffffffffffffffffffffffffffffffffff16148015610e29575060001515610e2582876110c0565b1515145b15610e515760018201915080836001840381518110610e4457fe5b6020026020010181815250505b5b8080600101915050610da5565b505b819250505092915050565b6000610ebf82600260008673ffffffffffffffffffffffffffffffffffffffff1673ffffffffffffffffffffffffffffffffffffffff16815260200190815260200160002061268990919063ffffffff16565b905092915050565b610ed18133611c4e565b50565b610ede81426110c0565b15610f1e576040517f08c379a0000000000000000000000000000000000000000000000000000000008152600401610f1590614b76565b60405180910390fd5b610f398383836040518060200160405280600081525061181a565b505050565b600080610f656000809054906101000a900460ff1660ff16846126a390919063ffffffff16565b905080915050919050565b600080610f8783600361271390919063ffffffff16565b50905080915050919050565b600080610f9f836118c6565b90506000610fc8600060019054906101000a900460ff1660ff168361274290919063ffffffff16565b90508092505050919050565b600060019054906101000a900460ff1681565b60006110178260405180606001604052806029815260200161524b6029913960036127729092919063ffffffff16565b9050919050565b6060600a8054600181600116156101000203166002900480601f0160208091040260200160405190810160405280929190818152602001828054600181600116156101000203166002900480156110b65780601f1061108b576101008083540402835291602001916110b6565b820191906000526020600020905b81548152906001019060200180831161109957829003601f168201915b5050505050905090565b6000600b805490508310611109576040517f08c379a000000000000000000000000000000000000000000000000000000000815260040161110090614e96565b60405180910390fd5b61111283611f2f565b611151576040517f08c379a000000000000000000000000000000000000000000000000000000000815260040161114890614e76565b60405180910390fd5b600b838154811061115e57fe5b906000526020600020906003020160020154821015905092915050565b60008073ffffffffffffffffffffffffffffffffffffffff168273ffffffffffffffffffffffffffffffffffffffff1614156111ec576040517f08c379a00000000000000000000000000000000000000000000000000000000081526004016111e390614c96565b60405180910390fd5b611233600260008473ffffffffffffffffffffffffffffffffffffffff1673ffffffffffffffffffffffffffffffffffffffff168152602001908152602001600020612791565b9050919050565b600060029054906101000a900460ff1681565b6112556136c7565b600b80549050821061129c576040517f08c379a000000000000000000000000000000000000000000000000000000000815260040161129390614e96565b60405180910390fd5b6112a582611f2f565b6112e4576040517f08c379a00000000000000000000000000000000000000000000000000000000081526004016112db90614e76565b60405180910390fd5b600b82815481106112f157fe5b906000526020600020906003020160405180606001604052908160008201548152602001600182015481526020016002820154815250509050919050565b6000600b805490508351111561137a576040517f08c379a000000000000000000000000000000000000000000000000000000000815260040161137190614c56565b60405180910390fd5b600080600090505b84518110156113f2576000600b828154811061139a57fe5b90600052602060002090600302016002015411156113e557600115156113d38683815181106113c557fe5b6020026020010151866110c0565b151514156113e457600191506113f2565b5b8080600101915050611382565b508091505092915050565b60008061140983610f3e565b90506000611432600060019054906101000a900460ff1660ff16836127a690919063ffffffff16565b90508092505050919050565b606060088054600181600116156101000203166002900480601f0160208091040260200160405190810160405280929190818152602001828054600181600116156101000203166002900480156114d65780601f106114ab576101008083540402835291602001916114d6565b820191906000526020600020905b8154815290600101906020018083116114b957829003601f168201915b5050505050905090565b606060006114ed836127d6565b905060608167ffffffffffffffff8111801561150857600080fd5b506040519080825280602002602001820160405280156115375781602001602082028036833780820191505090505b5090506000600183106115d15760008090505b600b805490508110156115c5576000600b828154811061156657fe5b90600052602060002090600302016002015411156115b8576001151561158c82886110c0565b151514156115b757600182019150808360018403815181106115aa57fe5b6020026020010181815250505b5b808060010191505061154a565b508193505050506115d5565b5050505b919050565b6115e2611f4c565b73ffffffffffffffffffffffffffffffffffffffff168273ffffffffffffffffffffffffffffffffffffffff161415611650576040517f08c379a000000000000000000000000000000000000000000000000000000000815260040161164790614bf6565b60405180910390fd5b806006600061165d611f4c565b73ffffffffffffffffffffffffffffffffffffffff1673ffffffffffffffffffffffffffffffffffffffff16815260200190815260200160002060008473ffffffffffffffffffffffffffffffffffffffff1673ffffffffffffffffffffffffffffffffffffffff16815260200190815260200160002060006101000a81548160ff0219169083151502179055508173ffffffffffffffffffffffffffffffffffffffff1661170a611f4c565b73ffffffffffffffffffffffffffffffffffffffff167f17307eab39ab6107e8899845ad3d59bd9653f200f220920489ca2b5937696c318360405161174f9190614ad9565b60405180910390a35050565b6117658133612022565b50565b6000600d60009054906101000a900473ffffffffffffffffffffffffffffffffffffffff1673ffffffffffffffffffffffffffffffffffffffff166370a08231306040518263ffffffff1660e01b81526004016117c591906149c7565b60206040518083038186803b1580156117dd57600080fd5b505afa1580156117f1573d6000803e3d6000fd5b505050506040513d601f19601f820116820180604052508101906118159190613bb4565b905090565b61182482426110c0565b15611864576040517f08c379a000000000000000000000000000000000000000000000000000000000815260040161185b90614eb6565b60405180910390fd5b61187561186f611f4c565b836122e2565b6118b4576040517f08c379a00000000000000000000000000000000000000000000000000000000081526004016118ab90614e16565b60405180910390fd5b6118c084848484612848565b50505050565b6000806118ed6000809054906101000a900460ff1660ff16846128a490919063ffffffff16565b905080915050919050565b606061190382611f2f565b611942576040517f08c379a000000000000000000000000000000000000000000000000000000000815260040161193990614dd6565b60405180910390fd5b6060600960008481526020019081526020016000208054600181600116156101000203166002900480601f0160208091040260200160405190810160405280929190818152602001828054600181600116156101000203166002900480156119eb5780601f106119c0576101008083540402835291602001916119eb565b820191906000526020600020905b8154815290600101906020018083116119ce57829003601f168201915b505050505090506000600a8054600181600116156101000203166002900490501415611a1a5780915050611a7e565b600081511115611a4f57600a81604051602001611a389291906149a3565b604051602081830303815290604052915050611a7e565b600a611a5a846128ee565b604051602001611a6b9291906149a3565b6040516020818303038152906040529150505b919050565b600080611a8f346113fd565b9050611a99611768565b8110611ada576040517f08c379a0000000000000000000000000000000000000000000000000000000008152600401611ad190614d16565b60405180910390fd5b6000611b01600060029054906101000a900460ff1660ff168361274290919063ffffffff16565b90506000611b188284612a3590919063ffffffff16565b90506000611b3142600c54612a3590919063ffffffff16565b9050600d60009054906101000a900473ffffffffffffffffffffffffffffffffffffffff1673ffffffffffffffffffffffffffffffffffffffff1663a9059cbb33866040518363ffffffff1660e01b8152600401611b90929190614a2e565b602060405180830381600087803b158015611baa57600080fd5b505af1158015611bbe573d6000803e3d6000fd5b505050506040513d601f19601f82011682018060405250810190611be29190613acf565b506000611bf0833484612a8a565b90503373ffffffffffffffffffffffffffffffffffffffff167f04074d3222dae133379f5d478e841f42f76914bc8ca39d25e0cd120b226710e682853486604051611c3e9493929190614f0c565b60405180910390a2505050505090565b611c5782611f2f565b611c96576040517f08c379a0000000000000000000000000000000000000000000000000000000008152600401611c8d90614c36565b60405180910390fd5b6000611ca183610fe7565b9050611cad83426110c0565b611cec576040517f08c379a0000000000000000000000000000000000000000000000000000000008152600401611ce390614e56565b60405180910390fd5b6000611cf78461124d565b6000015190506000611d088561124d565b602001519050600d60009054906101000a900473ffffffffffffffffffffffffffffffffffffffff1673ffffffffffffffffffffffffffffffffffffffff166323b872dd8530856040518463ffffffff1660e01b8152600401611d6d93929190614a57565b602060405180830381600087803b158015611d8757600080fd5b505af1158015611d9b573d6000803e3d6000fd5b505050506040513d601f19601f82011682018060405250810190611dbf9190613acf565b50600b8581548110611dcd57fe5b9060005260206000209060030201600080820160009055600182016000905560028201600090555050611dff85612b14565b8373ffffffffffffffffffffffffffffffffffffffff166108fc829081150290604051600060405180830381858888f19350505050158015611e45573d6000803e3d6000fd5b508273ffffffffffffffffffffffffffffffffffffffff167fa5ee7a2b0254fce91deed604506790ed7fa072d0b14cba4859c3bc8955b9caac86604051611e8c9190614ef1565b60405180910390a25050505050565b6000600660008473ffffffffffffffffffffffffffffffffffffffff1673ffffffffffffffffffffffffffffffffffffffff16815260200190815260200160002060008373ffffffffffffffffffffffffffffffffffffffff1673ffffffffffffffffffffffffffffffffffffffff16815260200190815260200160002060009054906101000a900460ff16905092915050565b6000611f45826003612c4e90919063ffffffff16565b9050919050565b600033905090565b816005600083815260200190815260200160002060006101000a81548173ffffffffffffffffffffffffffffffffffffffff021916908373ffffffffffffffffffffffffffffffffffffffff160217905550808273ffffffffffffffffffffffffffffffffffffffff16611fc783610fe7565b73ffffffffffffffffffffffffffffffffffffffff167f8c5be1e5ebec7d5bd14f71427d1e84f3dd0314c0f7b2291e5b200ac8c7c3b92560405160405180910390a45050565b600061201b82600001612c68565b9050919050565b61202c81836122e2565b61206b576040517f08c379a000000000000000000000000000000000000000000000000000000000815260040161206290614b56565b60405180910390fd5b61207582426110c0565b156120b5576040517f08c379a00000000000000000000000000000000000000000000000000000000081526004016120ac90614cd6565b60405180910390fd5b60016120c08261117b565b1015612101576040517f08c379a00000000000000000000000000000000000000000000000000000000081526004016120f890614cb6565b60405180910390fd5b61210a82611f2f565b612149576040517f08c379a000000000000000000000000000000000000000000000000000000000815260040161214090614e76565b60405180910390fd5b60006121548361124d565b60000151905060006121658461124d565b602001519050600d60009054906101000a900473ffffffffffffffffffffffffffffffffffffffff1673ffffffffffffffffffffffffffffffffffffffff166323b872dd8430856040518463ffffffff1660e01b81526004016121ca93929190614a57565b602060405180830381600087803b1580156121e457600080fd5b505af11580156121f8573d6000803e3d6000fd5b505050506040513d601f19601f8201168201806040525081019061221c9190613acf565b50600b848154811061222a57fe5b906000526020600020906003020160008082016000905560018201600090556002820160009055505061225c84612b14565b8273ffffffffffffffffffffffffffffffffffffffff166108fc829081150290604051600060405180830381858888f193505050501580156122a2573d6000803e3d6000fd5b507f55092e6cc4938ce9f0acdaa9092b38cd6e54afca1671527784104006f7bcaae430856040516122d4929190614a8e565b60405180910390a150505050565b60006122ed82611f2f565b61232c576040517f08c379a000000000000000000000000000000000000000000000000000000000815260040161232390614c16565b60405180910390fd5b600061233783610fe7565b90508073ffffffffffffffffffffffffffffffffffffffff168473ffffffffffffffffffffffffffffffffffffffff1614806123a657508373ffffffffffffffffffffffffffffffffffffffff1661238e84610a3b565b73ffffffffffffffffffffffffffffffffffffffff16145b806123b757506123b68185611e9b565b5b91505092915050565b8273ffffffffffffffffffffffffffffffffffffffff166123e082610fe7565b73ffffffffffffffffffffffffffffffffffffffff1614612436576040517f08c379a000000000000000000000000000000000000000000000000000000000815260040161242d90614db6565b60405180910390fd5b600073ffffffffffffffffffffffffffffffffffffffff168273ffffffffffffffffffffffffffffffffffffffff1614156124a6576040517f08c379a000000000000000000000000000000000000000000000000000000000815260040161249d90614bd6565b60405180910390fd5b6124b1838383612c79565b6124bc600082611f54565b61250d81600260008673ffffffffffffffffffffffffffffffffffffffff1673ffffffffffffffffffffffffffffffffffffffff168152602001908152602001600020612c7e90919063ffffffff16565b5061255f81600260008573ffffffffffffffffffffffffffffffffffffffff1673ffffffffffffffffffffffffffffffffffffffff168152602001908152602001600020612c9890919063ffffffff16565b5061257681836003612cb29092919063ffffffff16565b50808273ffffffffffffffffffffffffffffffffffffffff168473ffffffffffffffffffffffffffffffffffffffff167fddf252ad1be2c89b69c2b068fc378daa952ba7f163c4a11628f55a4df523b3ef60405160405180910390a4505050565b60008060008090505b600b8054905081101561267e576000600b82815481106125fc57fe5b9060005260206000209060030201600201541115612671578373ffffffffffffffffffffffffffffffffffffffff1661263482610fe7565b73ffffffffffffffffffffffffffffffffffffffff1614801561266457506000151561266082876110c0565b1515145b15612670576001820191505b5b80806001019150506125e0565b508091505092915050565b60006126988360000183612ce7565b60001c905092915050565b6000808314156126b6576000905061270d565b60008284029050828482816126c757fe5b0414612708576040517f08c379a00000000000000000000000000000000000000000000000000000000081526004016126ff90614d76565b60405180910390fd5b809150505b92915050565b6000806000806127268660000186612d54565b915091508160001c8160001c8090509350935050509250929050565b600061276a606461275c84866126a390919063ffffffff16565b6128a490919063ffffffff16565b905092915050565b6000612785846000018460001b84612dd7565b60001c90509392505050565b600061279f82600001612e68565b9050919050565b60006127ce60646127c084866128a490919063ffffffff16565b6126a390919063ffffffff16565b905092915050565b60008060008090505b600b8054905081101561283e576000600b82815481106127fb57fe5b9060005260206000209060030201600201541115612831576001151561282182866110c0565b15151415612830576001820191505b5b80806001019150506127df565b5080915050919050565b6128538484846123c0565b61285f84848484612e79565b61289e576040517f08c379a000000000000000000000000000000000000000000000000000000000815260040161289590614b36565b60405180910390fd5b50505050565b60006128e683836040518060400160405280601a81526020017f536166654d6174683a206469766973696f6e206279207a65726f000000000000815250612fdd565b905092915050565b60606000821415612936576040518060400160405280600181526020017f30000000000000000000000000000000000000000000000000000000000000008152509050612a30565b600082905060005b60008214612960578080600101915050600a828161295857fe5b04915061293e565b60608167ffffffffffffffff8111801561297957600080fd5b506040519080825280601f01601f1916602001820160405280156129ac5781602001600182028036833780820191505090505b50905060006001830390508593505b60008414612a2857600a84816129cd57fe5b0660300160f81b828280600190039350815181106129e757fe5b60200101907effffffffffffffffffffffffffffffffffffffffffffffffffffffffffffff1916908160001a905350600a8481612a2057fe5b0493506129bb565b819450505050505b919050565b600080828401905083811015612a80576040517f08c379a0000000000000000000000000000000000000000000000000000000008152600401612a7790614bb6565b60405180910390fd5b8091505092915050565b6000600b6040518060600160405280868152602001858152602001848152509080600181540180825580915050600190039060005260206000209060030201600090919091909150600082015181600001556020820151816001015560408201518160020155505060006001600b80549050039050612b09338261303e565b809150509392505050565b6000612b1f82610fe7565b9050612b2d81600084612c79565b612b38600083611f54565b60006009600084815260200190815260200160002080546001816001161561010002031660029004905014612b8757600960008381526020019081526020016000206000612b8691906136e8565b5b612bd882600260008473ffffffffffffffffffffffffffffffffffffffff1673ffffffffffffffffffffffffffffffffffffffff168152602001908152602001600020612c7e90919063ffffffff16565b50612bed8260036131cc90919063ffffffff16565b5081600073ffffffffffffffffffffffffffffffffffffffff168273ffffffffffffffffffffffffffffffffffffffff167fddf252ad1be2c89b69c2b068fc378daa952ba7f163c4a11628f55a4df523b3ef60405160405180910390a45050565b6000612c60836000018360001b6131e6565b905092915050565b600081600001805490509050919050565b505050565b6000612c90836000018360001b613209565b905092915050565b6000612caa836000018360001b6132f1565b905092915050565b6000612cde846000018460001b8473ffffffffffffffffffffffffffffffffffffffff1660001b613361565b90509392505050565b600081836000018054905011612d32576040517f08c379a0000000000000000000000000000000000000000000000000000000008152600401612d2990614b16565b60405180910390fd5b826000018281548110612d4157fe5b9060005260206000200154905092915050565b60008082846000018054905011612da0576040517f08c379a0000000000000000000000000000000000000000000000000000000008152600401612d9790614d36565b60405180910390fd5b6000846000018481548110612db157fe5b906000526020600020906002020190508060000154816001015492509250509250929050565b60008084600101600085815260200190815260200160002054905060008114158390612e39576040517f08c379a0000000000000000000000000000000000000000000000000000000008152600401612e309190614af4565b60405180910390fd5b50846000016001820381548110612e4c57fe5b9060005260206000209060020201600101549150509392505050565b600081600001805490509050919050565b6000612e9a8473ffffffffffffffffffffffffffffffffffffffff1661343d565b612ea75760019050612fd5565b6060612f6e63150b7a0260e01b612ebc611f4c565b888787604051602401612ed294939291906149e2565b604051602081830303815290604052907bffffffffffffffffffffffffffffffffffffffffffffffffffffffff19166020820180517bffffffffffffffffffffffffffffffffffffffffffffffffffffffff8381831617835250505050604051806060016040528060328152602001615219603291398773ffffffffffffffffffffffffffffffffffffffff166134509092919063ffffffff16565b9050600081806020019051810190612f869190613b21565b905063150b7a0260e01b7bffffffffffffffffffffffffffffffffffffffffffffffffffffffff1916817bffffffffffffffffffffffffffffffffffffffffffffffffffffffff191614925050505b949350505050565b60008083118290613024576040517f08c379a000000000000000000000000000000000000000000000000000000000815260040161301b9190614af4565b60405180910390fd5b50600083858161303057fe5b049050809150509392505050565b600073ffffffffffffffffffffffffffffffffffffffff168273ffffffffffffffffffffffffffffffffffffffff1614156130ae576040517f08c379a00000000000000000000000000000000000000000000000000000000081526004016130a590614d56565b60405180910390fd5b6130b781611f2f565b156130f7576040517f08c379a00000000000000000000000000000000000000000000000000000000081526004016130ee90614b96565b60405180910390fd5b61310360008383612c79565b61315481600260008573ffffffffffffffffffffffffffffffffffffffff1673ffffffffffffffffffffffffffffffffffffffff168152602001908152602001600020612c9890919063ffffffff16565b5061316b81836003612cb29092919063ffffffff16565b50808273ffffffffffffffffffffffffffffffffffffffff16600073ffffffffffffffffffffffffffffffffffffffff167fddf252ad1be2c89b69c2b068fc378daa952ba7f163c4a11628f55a4df523b3ef60405160405180910390a45050565b60006131de836000018360001b613468565b905092915050565b600080836001016000848152602001908152602001600020541415905092915050565b600080836001016000848152602001908152602001600020549050600081146132e5576000600182039050600060018660000180549050039050600086600001828154811061325457fe5b906000526020600020015490508087600001848154811061327157fe5b90600052602060002001819055506001830187600101600083815260200190815260200160002081905550866000018054806132a957fe5b600190038181906000526020600020016000905590558660010160008781526020019081526020016000206000905560019450505050506132eb565b60009150505b92915050565b60006132fd8383613581565b61335657826000018290806001815401808255809150506001900390600052602060002001600090919091909150558260000180549050836001016000848152602001908152602001600020819055506001905061335b565b600090505b92915050565b600080846001016000858152602001908152602001600020549050600081141561340857846000016040518060400160405280868152602001858152509080600181540180825580915050600190039060005260206000209060020201600090919091909150600082015181600001556020820151816001015550508460000180549050856001016000868152602001908152602001600020819055506001915050613436565b8285600001600183038154811061341b57fe5b90600052602060002090600202016001018190555060009150505b9392505050565b600080823b905060008111915050919050565b606061345f84846000856135a4565b90509392505050565b6000808360010160008481526020019081526020016000205490506000811461357557600060018203905060006001866000018054905003905060008660000182815481106134b357fe5b90600052602060002090600202019050808760000184815481106134d357fe5b906000526020600020906002020160008201548160000155600182015481600101559050506001830187600101600083600001548152602001908152602001600020819055508660000180548061352657fe5b600190038181906000526020600020906002020160008082016000905560018201600090555050905586600101600087815260200190815260200160002060009055600194505050505061357b565b60009150505b92915050565b600080836001016000848152602001908152602001600020541415905092915050565b60606135af8561343d565b6135ee576040517f08c379a00000000000000000000000000000000000000000000000000000000081526004016135e590614e36565b60405180910390fd5b600060608673ffffffffffffffffffffffffffffffffffffffff168587604051613618919061498c565b60006040518083038185875af1925050503d8060008114613655576040519150601f19603f3d011682016040523d82523d6000602084013e61365a565b606091505b5091509150811561366f5780925050506136bf565b6000815111156136825780518082602001fd5b836040517f08c379a00000000000000000000000000000000000000000000000000000000081526004016136b69190614af4565b60405180910390fd5b949350505050565b60405180606001604052806000815260200160008152602001600081525090565b50805460018160011615610100020316600290046000825580601f1061370e575061372d565b601f01602090049060005260206000209081019061372c9190613730565b5b50565b61375291905b8082111561374e576000816000905550600101613736565b5090565b90565b600081359050613764816151a5565b92915050565b600081519050613779816151bc565b92915050565b600082601f83011261379057600080fd5b81356137a361379e82614f99565b614f6c565b915081818352602084019350602081019050838560208402820111156137c857600080fd5b60005b838110156137f857816137de88826138aa565b8452602084019350602083019250506001810190506137cb565b5050505092915050565b600081359050613811816151d3565b92915050565b600081519050613826816151d3565b92915050565b60008135905061383b816151ea565b92915050565b600081519050613850816151ea565b92915050565b600082601f83011261386757600080fd5b813561387a61387582614fc1565b614f6c565b9150808252602083016020830185838301111561389657600080fd5b6138a1838284615152565b50505092915050565b6000813590506138b981615201565b92915050565b6000815190506138ce81615201565b92915050565b6000602082840312156138e657600080fd5b60006138f484828501613755565b91505092915050565b6000806040838503121561391057600080fd5b600061391e85828601613755565b925050602061392f85828601613755565b9150509250929050565b60008060006060848603121561394e57600080fd5b600061395c86828701613755565b935050602061396d86828701613755565b925050604061397e868287016138aa565b9150509250925092565b6000806000806080858703121561399e57600080fd5b60006139ac87828801613755565b94505060206139bd87828801613755565b93505060406139ce878288016138aa565b925050606085013567ffffffffffffffff8111156139eb57600080fd5b6139f787828801613856565b91505092959194509250565b60008060408385031215613a1657600080fd5b6000613a2485828601613755565b9250506020613a3585828601613802565b9150509250929050565b60008060408385031215613a5257600080fd5b6000613a6085828601613755565b9250506020613a71858286016138aa565b9150509250929050565b60008060408385031215613a8e57600080fd5b600083013567ffffffffffffffff811115613aa857600080fd5b613ab48582860161377f565b9250506020613ac5858286016138aa565b9150509250929050565b600060208284031215613ae157600080fd5b6000613aef84828501613817565b91505092915050565b600060208284031215613b0a57600080fd5b6000613b188482850161382c565b91505092915050565b600060208284031215613b3357600080fd5b6000613b4184828501613841565b91505092915050565b600060208284031215613b5c57600080fd5b600082013567ffffffffffffffff811115613b7657600080fd5b613b8284828501613856565b91505092915050565b600060208284031215613b9d57600080fd5b6000613bab848285016138aa565b91505092915050565b600060208284031215613bc657600080fd5b6000613bd4848285016138bf565b91505092915050565b60008060408385031215613bf057600080fd5b6000613bfe858286016138aa565b9250506020613c0f85828601613755565b9150509250929050565b60008060408385031215613c2c57600080fd5b6000613c3a858286016138bf565b9250506020613c4b8582860161376a565b9150509250929050565b60008060408385031215613c6857600080fd5b6000613c76858286016138aa565b9250506020613c87858286016138aa565b9150509250929050565b6000613c9d838361495f565b60208301905092915050565b613cb28161511c565b82525050565b613cc18161509b565b82525050565b613cd081615089565b82525050565b6000613ce182615012565b613ceb8185615040565b9350613cf683614fed565b8060005b83811015613d27578151613d0e8882613c91565b9750613d1983615033565b925050600181019050613cfa565b5085935050505092915050565b613d3d816150ad565b82525050565b6000613d4e8261501d565b613d588185615051565b9350613d68818560208601615161565b613d7181615194565b840191505092915050565b6000613d878261501d565b613d918185615062565b9350613da1818560208601615161565b80840191505092915050565b6000613db882615028565b613dc2818561506d565b9350613dd2818560208601615161565b613ddb81615194565b840191505092915050565b6000613df182615028565b613dfb818561507e565b9350613e0b818560208601615161565b80840191505092915050565b600081546001811660008114613e345760018114613e5957613e9d565b607f6002830416613e45818761507e565b955060ff1983168652808601935050613e9d565b60028204613e67818761507e565b9550613e7285614ffd565b60005b82811015613e9457815481890152600182019150602081019050613e75565b82880195505050505b505092915050565b6000613eb260228361506d565b91507f456e756d657261626c655365743a20696e646578206f7574206f6620626f756e60008301527f64730000000000000000000000000000000000000000000000000000000000006020830152604082019050919050565b6000613f1860328361506d565b91507f4552433732313a207472616e7366657220746f206e6f6e20455243373231526560008301527f63656976657220696d706c656d656e74657200000000000000000000000000006020830152604082019050919050565b6000613f7e602e8361506d565b91507f4572726f7220636f6c6c61746572616c20646f65736e742062656c6f6e67207460008301527f6f207468697320616464726573730000000000000000000000000000000000006020830152604082019050919050565b6000613fe460278361506d565b91507f4572726f723a2063616e74207472616e73666572206578706972656420636f6c60008301527f6c61746572616c000000000000000000000000000000000000000000000000006020830152604082019050919050565b600061404a601c8361506d565b91507f4552433732313a20746f6b656e20616c7265616479206d696e746564000000006000830152602082019050919050565b600061408a601b8361506d565b91507f536166654d6174683a206164646974696f6e206f766572666c6f7700000000006000830152602082019050919050565b60006140ca60248361506d565b91507f4552433732313a207472616e7366657220746f20746865207a65726f2061646460008301527f72657373000000000000000000000000000000000000000000000000000000006020830152604082019050919050565b600061413060198361506d565b91507f4552433732313a20617070726f766520746f2063616c6c6572000000000000006000830152602082019050919050565b6000614170602c8361506d565b91507f4552433732313a206f70657261746f7220717565727920666f72206e6f6e657860008301527f697374656e7420746f6b656e00000000000000000000000000000000000000006020830152604082019050919050565b60006141d6602c8361506d565b91507f4572726f722063616e74206c69717564617465206c6f616e207468617420646f60008301527f6573206e6f7420657869737400000000000000000000000000000000000000006020830152604082019050919050565b600061423c603c8361506d565b91507f4572726f723a206e756d626572206f6620696420706172616d6574657273206560008301527f786365656473206e756d626572206f6620636f6c6c61746572616c73000000006020830152604082019050919050565b60006142a260388361506d565b91507f4552433732313a20617070726f76652063616c6c6572206973206e6f74206f7760008301527f6e6572206e6f7220617070726f76656420666f7220616c6c00000000000000006020830152604082019050919050565b6000614308602a8361506d565b91507f4552433732313a2062616c616e636520717565727920666f7220746865207a6560008301527f726f2061646472657373000000000000000000000000000000000000000000006020830152604082019050919050565b600061436e60208361506d565b91507f796f7520646f206e6f74206861766520616e792065786974696e67206c6f616e6000830152602082019050919050565b60006143ae60168361506d565b91507f4572726f723a6c6f616e206861732065787069726564000000000000000000006000830152602082019050919050565b60006143ee60338361506d565b91507f4572726f723a2063616e7420617070726f7665206578706972656420636f6c6c60008301527f61746572616c20666f72207472616e73666572000000000000000000000000006020830152604082019050919050565b600061445460248361506d565b91507f63616e7420626f72726f77206d6f7265207468616e20706f6f6c206c6971756960008301527f64697479000000000000000000000000000000000000000000000000000000006020830152604082019050919050565b60006144ba60228361506d565b91507f456e756d657261626c654d61703a20696e646578206f7574206f6620626f756e60008301527f64730000000000000000000000000000000000000000000000000000000000006020830152604082019050919050565b600061452060208361506d565b91507f4552433732313a206d696e7420746f20746865207a65726f20616464726573736000830152602082019050919050565b600061456060218361506d565b91507f536166654d6174683a206d756c7469706c69636174696f6e206f766572666c6f60008301527f77000000000000000000000000000000000000000000000000000000000000006020830152604082019050919050565b60006145c6602c8361506d565b91507f4552433732313a20617070726f76656420717565727920666f72206e6f6e657860008301527f697374656e7420746f6b656e00000000000000000000000000000000000000006020830152604082019050919050565b600061462c60298361506d565b91507f4552433732313a207472616e73666572206f6620746f6b656e2074686174206960008301527f73206e6f74206f776e00000000000000000000000000000000000000000000006020830152604082019050919050565b6000614692602f8361506d565b91507f4552433732314d657461646174613a2055524920717565727920666f72206e6f60008301527f6e6578697374656e7420746f6b656e00000000000000000000000000000000006020830152604082019050919050565b60006146f860218361506d565b91507f4552433732313a20617070726f76616c20746f2063757272656e74206f776e6560008301527f72000000000000000000000000000000000000000000000000000000000000006020830152604082019050919050565b600061475e60318361506d565b91507f4552433732313a207472616e736665722063616c6c6572206973206e6f74206f60008301527f776e6572206e6f7220617070726f7665640000000000000000000000000000006020830152604082019050919050565b60006147c4601d8361506d565b91507f416464726573733a2063616c6c20746f206e6f6e2d636f6e74726163740000006000830152602082019050919050565b6000614804601b8361506d565b91507f4572726f723a206c6f616e20686173206e6f74206578706972656400000000006000830152602082019050919050565b6000614844601d8361506d565b91507f4572726f723a206c6f616e20696420646f6573206e6f742065786973740000006000830152602082019050919050565b600061488460168361506d565b91507f4572726f723a20696e76616c6964206c6f616e206964000000000000000000006000830152602082019050919050565b60006148c4602c8361506d565b91507f4572726f723a2063616e74207472616e73666572206578706972656420636f6c60008301527f6c61746572616c20666f722000000000000000000000000000000000000000006020830152604082019050919050565b606082016000820151614933600085018261495f565b506020820151614946602085018261495f565b506040820151614959604085018261495f565b50505050565b61496881615105565b82525050565b61497781615105565b82525050565b6149868161510f565b82525050565b60006149988284613d7c565b915081905092915050565b60006149af8285613e17565b91506149bb8284613de6565b91508190509392505050565b60006020820190506149dc6000830184613cc7565b92915050565b60006080820190506149f76000830187613cb8565b614a046020830186613cc7565b614a11604083018561496e565b8181036060830152614a238184613d43565b905095945050505050565b6000604082019050614a436000830185613ca9565b614a50602083018461496e565b9392505050565b6000606082019050614a6c6000830186613cc7565b614a796020830185613cc7565b614a86604083018461496e565b949350505050565b6000604082019050614aa36000830185613cc7565b614ab0602083018461496e565b9392505050565b60006020820190508181036000830152614ad18184613cd6565b905092915050565b6000602082019050614aee6000830184613d34565b92915050565b60006020820190508181036000830152614b0e8184613dad565b905092915050565b60006020820190508181036000830152614b2f81613ea5565b9050919050565b60006020820190508181036000830152614b4f81613f0b565b9050919050565b60006020820190508181036000830152614b6f81613f71565b9050919050565b60006020820190508181036000830152614b8f81613fd7565b9050919050565b60006020820190508181036000830152614baf8161403d565b9050919050565b60006020820190508181036000830152614bcf8161407d565b9050919050565b60006020820190508181036000830152614bef816140bd565b9050919050565b60006020820190508181036000830152614c0f81614123565b9050919050565b60006020820190508181036000830152614c2f81614163565b9050919050565b60006020820190508181036000830152614c4f816141c9565b9050919050565b60006020820190508181036000830152614c6f8161422f565b9050919050565b60006020820190508181036000830152614c8f81614295565b9050919050565b60006020820190508181036000830152614caf816142fb565b9050919050565b60006020820190508181036000830152614ccf81614361565b9050919050565b60006020820190508181036000830152614cef816143a1565b9050919050565b60006020820190508181036000830152614d0f816143e1565b9050919050565b60006020820190508181036000830152614d2f81614447565b9050919050565b60006020820190508181036000830152614d4f816144ad565b9050919050565b60006020820190508181036000830152614d6f81614513565b9050919050565b60006020820190508181036000830152614d8f81614553565b9050919050565b60006020820190508181036000830152614daf816145b9565b9050919050565b60006020820190508181036000830152614dcf8161461f565b9050919050565b60006020820190508181036000830152614def81614685565b9050919050565b60006020820190508181036000830152614e0f816146eb565b9050919050565b60006020820190508181036000830152614e2f81614751565b9050919050565b60006020820190508181036000830152614e4f816147b7565b9050919050565b60006020820190508181036000830152614e6f816147f7565b9050919050565b60006020820190508181036000830152614e8f81614837565b9050919050565b60006020820190508181036000830152614eaf81614877565b9050919050565b60006020820190508181036000830152614ecf816148b7565b9050919050565b6000606082019050614eeb600083018461491d565b92915050565b6000602082019050614f06600083018461496e565b92915050565b6000608082019050614f21600083018761496e565b614f2e602083018661496e565b614f3b604083018561496e565b614f48606083018461496e565b95945050505050565b6000602082019050614f66600083018461497d565b92915050565b6000604051905081810181811067ffffffffffffffff82111715614f8f57600080fd5b8060405250919050565b600067ffffffffffffffff821115614fb057600080fd5b602082029050602081019050919050565b600067ffffffffffffffff821115614fd857600080fd5b601f19601f8301169050602081019050919050565b6000819050602082019050919050565b60008190508160005260206000209050919050565b600081519050919050565b600081519050919050565b600081519050919050565b6000602082019050919050565b600082825260208201905092915050565b600082825260208201905092915050565b600081905092915050565b600082825260208201905092915050565b600081905092915050565b6000615094826150e5565b9050919050565b60006150a6826150e5565b9050919050565b60008115159050919050565b60007fffffffff0000000000000000000000000000000000000000000000000000000082169050919050565b600073ffffffffffffffffffffffffffffffffffffffff82169050919050565b6000819050919050565b600060ff82169050919050565b60006151278261512e565b9050919050565b600061513982615140565b9050919050565b600061514b826150e5565b9050919050565b82818337600083830152505050565b60005b8381101561517f578082015181840152602081019050615164565b8381111561518e576000848401525b50505050565b6000601f19601f8301169050919050565b6151ae81615089565b81146151b957600080fd5b50565b6151c58161509b565b81146151d057600080fd5b50565b6151dc816150ad565b81146151e757600080fd5b50565b6151f3816150b9565b81146151fe57600080fd5b50565b61520a81615105565b811461521557600080fd5b5056fe4552433732313a207472616e7366657220746f206e6f6e20455243373231526563656976657220696d706c656d656e7465724552433732313a206f776e657220717565727920666f72206e6f6e6578697374656e7420746f6b656ea2646970667358221220428fe3792f9fa74bcfbef7527a25d86ac50de735ca9201ec5f2c3ae9c7afa51464736f6c63430006060033",
  "immutableReferences": {},
  "source": "pragma solidity ^0.6.0;\r\npragma experimental ABIEncoderV2;\r\nimport '@openzeppelin/contracts/math/SafeMath.sol';\r\nimport './libraries/SafePercentage.sol';\r\nimport './BRTPOOLUTILS.sol';\r\nimport './tokens/CollateralRedemptionToken.sol';\r\nimport '@openzeppelin/contracts/token/ERC20/ERC20.sol';\r\nimport '@openzeppelin/contracts/token/ERC20/IERC20.sol';\r\ncontract BRTPOOL is BRTPOOLUTILS ,CollateralRedemptionToken{\r\n    using SafePercentage for uint;\r\n    using SafeMath for uint;\r\n    IERC20 token;\r\n    constructor(address tokenAddr) public{\r\n      token = IERC20(tokenAddr);\r\n    }\r\n    event Borrowed(address indexed borrower,uint loanId,  uint redemptionPrice,uint collateral,uint expires);\r\n    event Liquidated(address indexed borrower,uint  loanId);\r\n    event PayBack(address spender,uint loanId);\r\n    function borrow() public  payable\r\n    returns(uint)\r\n    {\r\n        uint loan = calculateLoan(msg.value);\r\n        require(loan < getPoolBalance(),'cant borrow more than pool liquidity');\r\n        uint fee=loan.percentMul(feePercent);\r\n        uint redemptionPrice =loan.add(fee);\r\n        uint expires=borrowTime.add(block.timestamp);\r\n\r\n       \r\n        token.transfer(msg.sender,loan); \r\n        uint id = _issueCollateralToken(redemptionPrice, msg.value, expires);\r\n        emit Borrowed(msg.sender,id,redemptionPrice,msg.value,expires);\r\n    }\r\n\r\n\r\n\r\n   \r\n    function payback(uint loanId) public{\r\n       \r\n         _payback(loanId, msg.sender);\r\n         \r\n    }  \r\n     function payback(bytes memory _params) public{\r\n       (uint _loanId,address _payer)=abi.decode(_params,(uint,address));\r\n        _payback(_loanId,_payer); \r\n      \r\n    }\r\n     function _payback(uint loanId,address payer) internal{\r\n         require(_isApprovedOrOwner(payer,loanId),'Error collateral doesnt belong to this address');\r\n         require(!isLoanExpiredAt(loanId,block.timestamp),'Error:loan has expired');\r\n         require(balanceOf(payer) >= 1,'you do not have any exiting loan');\r\n         require(_exists(loanId),'Error: loan id does not exist');\r\n        \r\n        \r\n         uint _redemptionPrice= loanInfo(loanId).redemptionPrice;\r\n         uint _collateral= loanInfo(loanId).collateral;\r\n         token.transferFrom(payer,address(this),_redemptionPrice);\r\n         delete _collaterals[loanId];\r\n         _burn(loanId);\r\n         payable(payer).transfer(_collateral);     \r\n         emit PayBack(address(this),loanId);     \r\n         \r\n    }  \r\n\r\n   \r\n\r\n\r\n    function getActiveLoans(address addr,uint unixTimeStamp) public view\r\n    returns(uint[] memory)\r\n    {  \r\n     \r\n       uint[] memory _loans= new uint[](_loanCounter(unixTimeStamp,addr));\r\n       uint loan_i;\r\n       if(_loanCounter(unixTimeStamp,addr) >= 1){\r\n\r\n         for(uint i =0;i < _collaterals.length;i++){\r\n          \r\n              \r\n              if(_collaterals[i].expires > 0){\r\n                  if(ownerOf(i) == addr && isLoanExpiredAt(i,unixTimeStamp) == false){\r\n\r\n                     \r\n                      loan_i =loan_i + 1;\r\n                      _loans[loan_i -1]=i;\r\n                      \r\n                  }\r\n              }\r\n         \r\n        }\r\n     \r\n\r\n       }\r\n        return _loans;\r\n       \r\n    }\r\n\r\n    function _loanCounter(uint unixTimeStamp,address addr) private view\r\n    returns(uint)\r\n    {\r\n       uint _count;\r\n       for(uint i =0;i < _collaterals.length;i++){\r\n           if(_collaterals[i].expires > 0){\r\n                if(ownerOf(i) == addr && isLoanExpiredAt(i,unixTimeStamp) == false){\r\n            _count = _count + 1;\r\n         }\r\n  \r\n           }\r\n        \r\n       }\r\n       return _count;\r\n\r\n    }\r\n\r\n\r\n    function isLoanExpiredAt(uint loanId,uint unixTimeStamp) public view\r\n    returns(bool)\r\n    {  \r\n       \r\n       require(loanId < _collaterals.length,'Error: invalid loan id');\r\n    //    require(_collaterals[loanId].expires != 0,'Error: collateral does not exist');\r\n       require(_exists(loanId),'Error: loan id does not exist');\r\n       \r\n          return unixTimeStamp  >=  _collaterals[loanId].expires;\r\n   \r\n     \r\n     \r\n\r\n    }\r\n\r\n    \r\n\r\n     \r\n\r\n    function isAnyExpired(uint[] memory _loanIds,uint unixTimeStamp) public view\r\n    returns(bool)\r\n    { \r\n      require(_loanIds.length <= _collaterals.length,'Error: number of id parameters exceeds number of collaterals');\r\n      bool _isExpired;\r\n      for(uint i =0;i < _loanIds.length;i++){\r\n        if(_collaterals[i].expires > 0){\r\n          if(isLoanExpiredAt(_loanIds[i],unixTimeStamp) ==true){\r\n              _isExpired =true;\r\n              break;\r\n          }\r\n        }\r\n      }\r\n      return _isExpired;\r\n    } \r\n\r\n    function getExpiredLoanIds(uint unixTimeStamp) public view\r\n    returns(uint[] memory)\r\n    {\r\n       uint _numberOfExpiredLoans =_expiredLoanCounter(unixTimeStamp);\r\n       uint[] memory _expiredLoanIds = new uint[](_numberOfExpiredLoans);\r\n       uint loan_i;\r\n       if( _numberOfExpiredLoans >= 1){\r\n        \r\n                 for(uint i = 0; i < _collaterals.length; i++){\r\n                if(_collaterals[i].expires > 0){\r\n                        if(isLoanExpiredAt(i,unixTimeStamp) == true){\r\n                           \r\n                              loan_i =loan_i + 1;\r\n                              _expiredLoanIds[loan_i -1] = i;\r\n                        }\r\n                }\r\n       }\r\n      \r\n        return _expiredLoanIds;\r\n       }\r\n      \r\n\r\n    }\r\n     function _expiredLoanCounter(uint unixTimeStamp) internal view\r\n    returns(uint)\r\n    {\r\n        uint _count;\r\n        for(uint i = 0; i < _collaterals.length; i++){\r\n          if(_collaterals[i].expires > 0){\r\n           if(isLoanExpiredAt(i,unixTimeStamp) == true){\r\n             _count= _count + 1;\r\n           }\r\n          }\r\n        }\r\n       return _count;\r\n       \r\n   }\r\n   \r\n\r\n   function liquidate(uint loanId) public{\r\n       _liquidate(loanId, msg.sender);\r\n   }\r\n    function liquidate(bytes memory _params) public{\r\n    (uint _loanId,address payer)=abi.decode(_params,(uint,address));\r\n    _liquidate(_loanId,payer);\r\n   }\r\n  \r\n\r\n   function _liquidate(uint loanId,address payer) public {\r\n       require(_exists(loanId),'Error cant liqudate loan that does not exist');\r\n       address _previousOwner=ownerOf(loanId);\r\n       require(isLoanExpiredAt(loanId,block.timestamp),'Error: loan has not expired');\r\n      \r\n     \r\n       uint redemptionPrice=loanInfo(loanId).redemptionPrice;\r\n       uint collateral=loanInfo(loanId).collateral;\r\n       token.transferFrom(payer,address(this),redemptionPrice);\r\n       delete _collaterals[loanId];\r\n       _burn(loanId);\r\n   \r\n       payable(payer).transfer(collateral);\r\n       emit Liquidated(_previousOwner,loanId);\r\n   }\r\n\r\n\r\n   \r\n  \r\n    \r\n    \r\n    function loanInfo(uint loanId) public view\r\n    returns(Collateral memory)\r\n    {  \r\n       require(loanId < _collaterals.length,'Error: invalid loan id');\r\n       require(_exists(loanId),'Error: loan id does not exist');\r\n       return _collaterals[loanId];\r\n    }\r\n    function getPoolBalance() public view\r\n    returns(uint)\r\n    {\r\n    \r\n        return  token.balanceOf(address(this));\r\n    }\r\n    \r\n    \r\n\r\n\r\n\r\n\r\n\r\n\r\n\r\n\r\n\r\n\r\n\r\n\r\n\r\n\r\n\r\n\r\n    //  CUSTOM ERC20 IMPLEMETATION THAT PREVENTS TRANSFER AND APPROVAL OF EXPIRED LOAN\r\n\r\n     function approve(address to, uint256 tokenId) public virtual override {\r\n        require(!isLoanExpiredAt(tokenId,block.timestamp),'Error: cant approve expired collateral for transfer');\r\n        address owner = ownerOf(tokenId);\r\n        require(to != owner, \"ERC721: approval to current owner\");\r\n\r\n        require(_msgSender() == owner || isApprovedForAll(owner, _msgSender()),\r\n            \"ERC721: approve caller is not owner nor approved for all\"\r\n        );\r\n\r\n        _approve(to, tokenId);\r\n       \r\n    }\r\n    function transferFrom(address from, address to, uint256 tokenId) public virtual override {\r\n        require(!isLoanExpiredAt(tokenId,block.timestamp),'Error: cant transfer expired collateral');\r\n        //solhint-disable-next-line max-line-length\r\n        require(_isApprovedOrOwner(_msgSender(), tokenId), \"ERC721: transfer caller is not owner nor approved\");\r\n\r\n        _transfer(from, to, tokenId);\r\n       \r\n    }\r\n     function safeTransferFrom(address from, address to, uint256 tokenId) public virtual override {\r\n        require(!isLoanExpiredAt(tokenId,block.timestamp),'Error: cant transfer expired collateral');\r\n        safeTransferFrom(from, to, tokenId, \"\");\r\n    \r\n    }\r\n\r\n    /**\r\n     * @dev See {IERC721-safeTransferFrom}.\r\n     */\r\n    function safeTransferFrom(address from, address to, uint256 tokenId, bytes memory _data) public virtual override{\r\n        require(!isLoanExpiredAt(tokenId,block.timestamp),'Error: cant transfer expired collateral for ');\r\n        require(_isApprovedOrOwner(_msgSender(), tokenId), \"ERC721: transfer caller is not owner nor approved\");\r\n        _safeTransfer(from, to, tokenId, _data);\r\n\r\n\r\n    }\r\n   \r\n\r\n    \r\n    \r\n}",
  "sourcePath": "C:/Users/osasola/Desktop/js-projects/blockchain/lending-pool/contracts/BRTPOOL.sol",
  "compiler": {
    "name": "solc",
    "version": "0.6.6+commit.6c089d02.Emscripten.clang"
  },
  "schemaVersion": "3.3.2",
  "updatedAt": "2020-12-06T13:34:15.319Z",
  "networkType": "ethereum",
  "devdoc": {
    "methods": {
      "balanceOf(address)": {
        "details": "See {IERC721-balanceOf}."
      },
      "baseURI()": {
        "details": "Returns the base URI set via {_setBaseURI}. This will be automatically added as a prefix in {tokenURI} to each token's URI, or to the token ID if no specific URI is set for that token ID."
      },
      "getApproved(uint256)": {
        "details": "See {IERC721-getApproved}."
      },
      "isApprovedForAll(address,address)": {
        "details": "See {IERC721-isApprovedForAll}."
      },
      "name()": {
        "details": "See {IERC721Metadata-name}."
      },
      "ownerOf(uint256)": {
        "details": "See {IERC721-ownerOf}."
      },
      "safeTransferFrom(address,address,uint256,bytes)": {
        "details": "See {IERC721-safeTransferFrom}."
      },
      "setApprovalForAll(address,bool)": {
        "details": "See {IERC721-setApprovalForAll}."
      },
      "supportsInterface(bytes4)": {
        "details": "See {IERC165-supportsInterface}.     * Time complexity O(1), guaranteed to always use less than 30 000 gas."
      },
      "symbol()": {
        "details": "See {IERC721Metadata-symbol}."
      },
      "tokenByIndex(uint256)": {
        "details": "See {IERC721Enumerable-tokenByIndex}."
      },
      "tokenOfOwnerByIndex(address,uint256)": {
        "details": "See {IERC721Enumerable-tokenOfOwnerByIndex}."
      },
      "tokenURI(uint256)": {
        "details": "See {IERC721Metadata-tokenURI}."
      },
      "totalSupply()": {
        "details": "See {IERC721Enumerable-totalSupply}."
      }
    }
  },
  "userdoc": {
    "methods": {}
  }
}