{
  "contractName": "BRTPOOL",
  "abi": [
    {
      "inputs": [],
      "stateMutability": "nonpayable",
      "type": "constructor"
    },
    {
      "anonymous": false,
      "inputs": [
        {
          "indexed": true,
          "internalType": "address",
          "name": "owner",
          "type": "address"
        },
        {
          "indexed": true,
          "internalType": "address",
          "name": "approved",
          "type": "address"
        },
        {
          "indexed": true,
          "internalType": "uint256",
          "name": "tokenId",
          "type": "uint256"
        }
      ],
      "name": "Approval",
      "type": "event"
    },
    {
      "anonymous": false,
      "inputs": [
        {
          "indexed": true,
          "internalType": "address",
          "name": "owner",
          "type": "address"
        },
        {
          "indexed": true,
          "internalType": "address",
          "name": "operator",
          "type": "address"
        },
        {
          "indexed": false,
          "internalType": "bool",
          "name": "approved",
          "type": "bool"
        }
      ],
      "name": "ApprovalForAll",
      "type": "event"
    },
    {
      "anonymous": false,
      "inputs": [
        {
          "indexed": true,
          "internalType": "address",
          "name": "borrower",
          "type": "address"
        },
        {
          "indexed": false,
          "internalType": "uint256",
          "name": "loanId",
          "type": "uint256"
        },
        {
          "indexed": false,
          "internalType": "uint256",
          "name": "redemptionPrice",
          "type": "uint256"
        },
        {
          "indexed": false,
          "internalType": "uint256",
          "name": "collateral",
          "type": "uint256"
        },
        {
          "indexed": false,
          "internalType": "uint256",
          "name": "expires",
          "type": "uint256"
        }
      ],
      "name": "Borrowed",
      "type": "event"
    },
    {
      "anonymous": false,
      "inputs": [
        {
          "indexed": true,
          "internalType": "address",
          "name": "borrower",
          "type": "address"
        },
        {
          "indexed": false,
          "internalType": "uint256",
          "name": "loanId",
          "type": "uint256"
        }
      ],
      "name": "Liquidated",
      "type": "event"
    },
    {
      "anonymous": false,
      "inputs": [
        {
          "indexed": true,
          "internalType": "address",
          "name": "from",
          "type": "address"
        },
        {
          "indexed": true,
          "internalType": "address",
          "name": "to",
          "type": "address"
        },
        {
          "indexed": true,
          "internalType": "uint256",
          "name": "tokenId",
          "type": "uint256"
        }
      ],
      "name": "Transfer",
      "type": "event"
    },
    {
      "inputs": [
        {
          "internalType": "address",
          "name": "owner",
          "type": "address"
        }
      ],
      "name": "balanceOf",
      "outputs": [
        {
          "internalType": "uint256",
          "name": "",
          "type": "uint256"
        }
      ],
      "stateMutability": "view",
      "type": "function",
      "constant": true
    },
    {
      "inputs": [],
      "name": "baseURI",
      "outputs": [
        {
          "internalType": "string",
          "name": "",
          "type": "string"
        }
      ],
      "stateMutability": "view",
      "type": "function",
      "constant": true
    },
    {
      "inputs": [],
      "name": "borrowTime",
      "outputs": [
        {
          "internalType": "uint256",
          "name": "",
          "type": "uint256"
        }
      ],
      "stateMutability": "view",
      "type": "function",
      "constant": true
    },
    {
      "inputs": [],
      "name": "brtAddr",
      "outputs": [
        {
          "internalType": "address",
          "name": "",
          "type": "address"
        }
      ],
      "stateMutability": "view",
      "type": "function",
      "constant": true
    },
    {
      "inputs": [
        {
          "internalType": "uint256",
          "name": "_loanInBrt",
          "type": "uint256"
        }
      ],
      "name": "calculateCollateral",
      "outputs": [
        {
          "internalType": "uint256",
          "name": "",
          "type": "uint256"
        }
      ],
      "stateMutability": "view",
      "type": "function",
      "constant": true
    },
    {
      "inputs": [
        {
          "internalType": "uint256",
          "name": "_collateralInEth",
          "type": "uint256"
        }
      ],
      "name": "calculateLoan",
      "outputs": [
        {
          "internalType": "uint256",
          "name": "",
          "type": "uint256"
        }
      ],
      "stateMutability": "view",
      "type": "function",
      "constant": true
    },
    {
      "inputs": [],
      "name": "collaterizationRatio",
      "outputs": [
        {
          "internalType": "uint8",
          "name": "",
          "type": "uint8"
        }
      ],
      "stateMutability": "view",
      "type": "function",
      "constant": true
    },
    {
      "inputs": [
        {
          "internalType": "uint256",
          "name": "priceInEth",
          "type": "uint256"
        }
      ],
      "name": "convertToBrtFromEth",
      "outputs": [
        {
          "internalType": "uint256",
          "name": "",
          "type": "uint256"
        }
      ],
      "stateMutability": "view",
      "type": "function",
      "constant": true
    },
    {
      "inputs": [
        {
          "internalType": "uint256",
          "name": "priceInBrt",
          "type": "uint256"
        }
      ],
      "name": "convertToEthFromBrt",
      "outputs": [
        {
          "internalType": "uint256",
          "name": "",
          "type": "uint256"
        }
      ],
      "stateMutability": "view",
      "type": "function",
      "constant": true
    },
    {
      "inputs": [],
      "name": "feePercent",
      "outputs": [
        {
          "internalType": "uint8",
          "name": "",
          "type": "uint8"
        }
      ],
      "stateMutability": "view",
      "type": "function",
      "constant": true
    },
    {
      "inputs": [
        {
          "internalType": "uint256",
          "name": "tokenId",
          "type": "uint256"
        }
      ],
      "name": "getApproved",
      "outputs": [
        {
          "internalType": "address",
          "name": "",
          "type": "address"
        }
      ],
      "stateMutability": "view",
      "type": "function",
      "constant": true
    },
    {
      "inputs": [
        {
          "internalType": "address",
          "name": "owner",
          "type": "address"
        },
        {
          "internalType": "address",
          "name": "operator",
          "type": "address"
        }
      ],
      "name": "isApprovedForAll",
      "outputs": [
        {
          "internalType": "bool",
          "name": "",
          "type": "bool"
        }
      ],
      "stateMutability": "view",
      "type": "function",
      "constant": true
    },
    {
      "inputs": [],
      "name": "name",
      "outputs": [
        {
          "internalType": "string",
          "name": "",
          "type": "string"
        }
      ],
      "stateMutability": "view",
      "type": "function",
      "constant": true
    },
    {
      "inputs": [
        {
          "internalType": "uint256",
          "name": "tokenId",
          "type": "uint256"
        }
      ],
      "name": "ownerOf",
      "outputs": [
        {
          "internalType": "address",
          "name": "",
          "type": "address"
        }
      ],
      "stateMutability": "view",
      "type": "function",
      "constant": true
    },
    {
      "inputs": [
        {
          "internalType": "address",
          "name": "operator",
          "type": "address"
        },
        {
          "internalType": "bool",
          "name": "approved",
          "type": "bool"
        }
      ],
      "name": "setApprovalForAll",
      "outputs": [],
      "stateMutability": "nonpayable",
      "type": "function"
    },
    {
      "inputs": [
        {
          "internalType": "bytes4",
          "name": "interfaceId",
          "type": "bytes4"
        }
      ],
      "name": "supportsInterface",
      "outputs": [
        {
          "internalType": "bool",
          "name": "",
          "type": "bool"
        }
      ],
      "stateMutability": "view",
      "type": "function",
      "constant": true
    },
    {
      "inputs": [],
      "name": "symbol",
      "outputs": [
        {
          "internalType": "string",
          "name": "",
          "type": "string"
        }
      ],
      "stateMutability": "view",
      "type": "function",
      "constant": true
    },
    {
      "inputs": [
        {
          "internalType": "uint256",
          "name": "index",
          "type": "uint256"
        }
      ],
      "name": "tokenByIndex",
      "outputs": [
        {
          "internalType": "uint256",
          "name": "",
          "type": "uint256"
        }
      ],
      "stateMutability": "view",
      "type": "function",
      "constant": true
    },
    {
      "inputs": [],
      "name": "tokenInfo",
      "outputs": [
        {
          "internalType": "uint8",
          "name": "decimals",
          "type": "uint8"
        },
        {
          "internalType": "string",
          "name": "name",
          "type": "string"
        },
        {
          "internalType": "string",
          "name": "symbol",
          "type": "string"
        }
      ],
      "stateMutability": "view",
      "type": "function",
      "constant": true
    },
    {
      "inputs": [
        {
          "internalType": "address",
          "name": "owner",
          "type": "address"
        },
        {
          "internalType": "uint256",
          "name": "index",
          "type": "uint256"
        }
      ],
      "name": "tokenOfOwnerByIndex",
      "outputs": [
        {
          "internalType": "uint256",
          "name": "",
          "type": "uint256"
        }
      ],
      "stateMutability": "view",
      "type": "function",
      "constant": true
    },
    {
      "inputs": [
        {
          "internalType": "uint256",
          "name": "tokenId",
          "type": "uint256"
        }
      ],
      "name": "tokenURI",
      "outputs": [
        {
          "internalType": "string",
          "name": "",
          "type": "string"
        }
      ],
      "stateMutability": "view",
      "type": "function",
      "constant": true
    },
    {
      "inputs": [],
      "name": "totalSupply",
      "outputs": [
        {
          "internalType": "uint256",
          "name": "",
          "type": "uint256"
        }
      ],
      "stateMutability": "view",
      "type": "function",
      "constant": true
    },
    {
      "inputs": [],
      "name": "borrow",
      "outputs": [
        {
          "internalType": "uint256",
          "name": "",
          "type": "uint256"
        }
      ],
      "stateMutability": "payable",
      "type": "function",
      "payable": true
    },
    {
      "inputs": [
        {
          "internalType": "uint256",
          "name": "loanId",
          "type": "uint256"
        }
      ],
      "name": "payback",
      "outputs": [],
      "stateMutability": "nonpayable",
      "type": "function"
    },
    {
      "inputs": [
        {
          "internalType": "bytes",
          "name": "_params",
          "type": "bytes"
        },
        {
          "internalType": "address",
          "name": "_payer",
          "type": "address"
        }
      ],
      "name": "payback",
      "outputs": [],
      "stateMutability": "nonpayable",
      "type": "function"
    },
    {
      "inputs": [
        {
          "internalType": "address",
          "name": "addr",
          "type": "address"
        },
        {
          "internalType": "uint256",
          "name": "unixTimeStamp",
          "type": "uint256"
        }
      ],
      "name": "getActiveLoans",
      "outputs": [
        {
          "internalType": "uint256[]",
          "name": "",
          "type": "uint256[]"
        }
      ],
      "stateMutability": "view",
      "type": "function",
      "constant": true
    },
    {
      "inputs": [
        {
          "internalType": "uint256",
          "name": "loanId",
          "type": "uint256"
        },
        {
          "internalType": "uint256",
          "name": "unixTimeStamp",
          "type": "uint256"
        }
      ],
      "name": "isLoanExpiredAt",
      "outputs": [
        {
          "internalType": "bool",
          "name": "",
          "type": "bool"
        }
      ],
      "stateMutability": "view",
      "type": "function",
      "constant": true
    },
    {
      "inputs": [
        {
          "internalType": "uint256[]",
          "name": "_loanIds",
          "type": "uint256[]"
        },
        {
          "internalType": "uint256",
          "name": "unixTimeStamp",
          "type": "uint256"
        }
      ],
      "name": "isAnyExpired",
      "outputs": [
        {
          "internalType": "bool",
          "name": "",
          "type": "bool"
        }
      ],
      "stateMutability": "view",
      "type": "function",
      "constant": true
    },
    {
      "inputs": [
        {
          "internalType": "uint256",
          "name": "unixTimeStamp",
          "type": "uint256"
        }
      ],
      "name": "getExpiredLoanIds",
      "outputs": [
        {
          "internalType": "uint256[]",
          "name": "",
          "type": "uint256[]"
        }
      ],
      "stateMutability": "view",
      "type": "function",
      "constant": true
    },
    {
      "inputs": [
        {
          "internalType": "bytes",
          "name": "_params",
          "type": "bytes"
        }
      ],
      "name": "liquidate",
      "outputs": [],
      "stateMutability": "nonpayable",
      "type": "function"
    },
    {
      "inputs": [
        {
          "internalType": "uint256",
          "name": "loanId",
          "type": "uint256"
        }
      ],
      "name": "liquidate",
      "outputs": [],
      "stateMutability": "nonpayable",
      "type": "function"
    },
    {
      "inputs": [
        {
          "internalType": "uint256",
          "name": "loanId",
          "type": "uint256"
        }
      ],
      "name": "loanInfo",
      "outputs": [
        {
          "components": [
            {
              "internalType": "uint256",
              "name": "redemptionPrice",
              "type": "uint256"
            },
            {
              "internalType": "uint256",
              "name": "collateral",
              "type": "uint256"
            },
            {
              "internalType": "uint256",
              "name": "expires",
              "type": "uint256"
            }
          ],
          "internalType": "struct CollateralRedemptionToken.Collateral",
          "name": "",
          "type": "tuple"
        }
      ],
      "stateMutability": "view",
      "type": "function",
      "constant": true
    },
    {
      "inputs": [],
      "name": "getPoolBalance",
      "outputs": [
        {
          "internalType": "uint256",
          "name": "",
          "type": "uint256"
        }
      ],
      "stateMutability": "view",
      "type": "function",
      "constant": true
    },
    {
      "inputs": [
        {
          "internalType": "address",
          "name": "to",
          "type": "address"
        },
        {
          "internalType": "uint256",
          "name": "tokenId",
          "type": "uint256"
        }
      ],
      "name": "approve",
      "outputs": [],
      "stateMutability": "nonpayable",
      "type": "function"
    },
    {
      "inputs": [
        {
          "internalType": "address",
          "name": "from",
          "type": "address"
        },
        {
          "internalType": "address",
          "name": "to",
          "type": "address"
        },
        {
          "internalType": "uint256",
          "name": "tokenId",
          "type": "uint256"
        }
      ],
      "name": "transferFrom",
      "outputs": [],
      "stateMutability": "nonpayable",
      "type": "function"
    },
    {
      "inputs": [
        {
          "internalType": "address",
          "name": "from",
          "type": "address"
        },
        {
          "internalType": "address",
          "name": "to",
          "type": "address"
        },
        {
          "internalType": "uint256",
          "name": "tokenId",
          "type": "uint256"
        }
      ],
      "name": "safeTransferFrom",
      "outputs": [],
      "stateMutability": "nonpayable",
      "type": "function"
    },
    {
      "inputs": [
        {
          "internalType": "address",
          "name": "from",
          "type": "address"
        },
        {
          "internalType": "address",
          "name": "to",
          "type": "address"
        },
        {
          "internalType": "uint256",
          "name": "tokenId",
          "type": "uint256"
        },
        {
          "internalType": "bytes",
          "name": "_data",
          "type": "bytes"
        }
      ],
      "name": "safeTransferFrom",
      "outputs": [],
      "stateMutability": "nonpayable",
      "type": "function"
    }
  ],
  "bytecode": "0x6080604052607d6000806101000a81548160ff021916908360ff1602179055506096600060016101000a81548160ff021916908360ff1602179055506005600060026101000a81548160ff021916908360ff1602179055506104b0600c553480156200006a57600080fd5b506040518060400160405280601b81526020017f436f6c6c61746572616c20526564656d7074696f6e20546f6b656e00000000008152506040518060400160405280600381526020017f4352540000000000000000000000000000000000000000000000000000000000815250620000ef6301ffc9a760e01b6200018160201b60201c565b81600790805190602001906200010792919062000523565b5080600890805190602001906200012092919062000523565b50620001396380ac58cd60e01b6200018160201b60201c565b62000151635b5e139f60e01b6200018160201b60201c565b6200016963780e9d6360e01b6200018160201b60201c565b50506200017b6200025960201b60201c565b62000853565b63ffffffff60e01b817bffffffffffffffffffffffffffffffffffffffffffffffffffffffff19161415620001ed576040517f08c379a0000000000000000000000000000000000000000000000000000000008152600401620001e49062000734565b60405180910390fd5b6001806000837bffffffffffffffffffffffffffffffffffffffffffffffffffffffff19167bffffffffffffffffffffffffffffffffffffffffffffffffffffffff1916815260200190815260200160002060006101000a81548160ff02191690831515021790555050565b6000306040516200026a90620005aa565b62000276919062000717565b604051809103906000f08015801562000293573d6000803e3d6000fd5b50905080600d60006101000a81548173ffffffffffffffffffffffffffffffffffffffff021916908373ffffffffffffffffffffffffffffffffffffffff160217905550600d60009054906101000a900473ffffffffffffffffffffffffffffffffffffffff1673ffffffffffffffffffffffffffffffffffffffff166306fdde036040518163ffffffff1660e01b815260040160006040518083038186803b1580156200034057600080fd5b505afa15801562000355573d6000803e3d6000fd5b505050506040513d6000823e3d601f19601f8201168201806040525081019062000380919062000653565b600e60010190805190602001906200039a92919062000523565b50600d60009054906101000a900473ffffffffffffffffffffffffffffffffffffffff1673ffffffffffffffffffffffffffffffffffffffff166395d89b416040518163ffffffff1660e01b815260040160006040518083038186803b1580156200040457600080fd5b505afa15801562000419573d6000803e3d6000fd5b505050506040513d6000823e3d601f19601f8201168201806040525081019062000444919062000653565b600e60020190805190602001906200045e92919062000523565b50600d60009054906101000a900473ffffffffffffffffffffffffffffffffffffffff1673ffffffffffffffffffffffffffffffffffffffff1663313ce5676040518163ffffffff1660e01b815260040160206040518083038186803b158015620004c857600080fd5b505afa158015620004dd573d6000803e3d6000fd5b505050506040513d601f19601f8201168201806040525081019062000503919062000698565b600e60000160006101000a81548160ff021916908360ff16021790555050565b828054600181600116156101000203166002900490600052602060002090601f016020900481019282601f106200056657805160ff191683800117855562000597565b8280016001018555821562000597579182015b828111156200059657825182559160200191906001019062000579565b5b509050620005a69190620005b8565b5090565b61199b8062005b9683390190565b620005dd91905b80821115620005d9576000816000905550600101620005bf565b5090565b90565b600082601f830112620005f257600080fd5b815162000609620006038262000784565b62000756565b915080825260208301602083018583830111156200062657600080fd5b6200063383828462000803565b50505092915050565b6000815190506200064d8162000839565b92915050565b6000602082840312156200066657600080fd5b600082015167ffffffffffffffff8111156200068157600080fd5b6200068f84828501620005e0565b91505092915050565b600060208284031215620006ab57600080fd5b6000620006bb848285016200063c565b91505092915050565b620006cf81620007c2565b82525050565b6000620006e4601c83620007b1565b91507f4552433136353a20696e76616c696420696e74657266616365206964000000006000830152602082019050919050565b60006020820190506200072e6000830184620006c4565b92915050565b600060208201905081810360008301526200074f81620006d5565b9050919050565b6000604051905081810181811067ffffffffffffffff821117156200077a57600080fd5b8060405250919050565b600067ffffffffffffffff8211156200079c57600080fd5b601f19601f8301169050602081019050919050565b600082825260208201905092915050565b6000620007cf82620007d6565b9050919050565b600073ffffffffffffffffffffffffffffffffffffffff82169050919050565b600060ff82169050919050565b60005b838110156200082357808201518184015260208101905062000806565b8381111562000833576000848401525b50505050565b6200084481620007f6565b81146200085057600080fd5b50565b61533380620008636000396000f3fe60806040526004361061021a5760003560e01c80636addb663116101235780639e0f99d3116100ab578063c338f1d11161006f578063c338f1d11461086d578063c79cbbdc14610896578063c87b56dd146108d3578063e68d356914610910578063e985e9c51461092e5761021a565b80639e0f99d31461078a578063a22cb465146107c7578063a846c2fd146107f0578063abd70aa214610819578063b88d4fde146108445761021a565b80637fd6f15c116100f25780637fd6f15c1461067d5780638349d6be146106a857806392654f6d146106e5578063934dafd71461072257806395d89b411461075f5761021a565b80636addb663146105ab5780636c0360eb146105d8578063701681741461060357806370a08231146106405761021a565b80632b542cc8116101a657806343baccdb1161017557806343baccdb1461048c5780634f6ccce7146104c957806356059339146105065780635eb6b48d146105435780636352211e1461056e5761021a565b80632b542cc8146103c05780632f745c59146103fd578063415f12401461043a57806342842e0e146104635761021a565b80631721539b116101ed5780631721539b146102ed57806318160ddd14610316578063225d685f1461034157806323b872dd1461036c57806325845d11146103955761021a565b806301ffc9a71461021f57806306fdde031461025c578063081812fc14610287578063095ea7b3146102c4575b600080fd5b34801561022b57600080fd5b5061024660048036038101906102419190613b6a565b61096b565b6040516102539190614b35565b60405180910390f35b34801561026857600080fd5b506102716109d3565b60405161027e9190614b50565b60405180910390f35b34801561029357600080fd5b506102ae60048036038101906102a99190613c51565b610a75565b6040516102bb9190614a15565b60405180910390f35b3480156102d057600080fd5b506102eb60048036038101906102e69190613ab1565b610afa565b005b3480156102f957600080fd5b50610314600480360381019061030f9190613bbc565b610c5c565b005b34801561032257600080fd5b5061032b610c81565b6040516103389190614f4d565b60405180910390f35b34801561034d57600080fd5b50610356610c92565b6040516103639190614f4d565b60405180910390f35b34801561037857600080fd5b50610393600480360381019061038e91906139ab565b610c98565b005b3480156103a157600080fd5b506103aa610d42565b6040516103b79190614a15565b60405180910390f35b3480156103cc57600080fd5b506103e760048036038101906103e29190613ab1565b610d68565b6040516103f49190614b13565b60405180910390f35b34801561040957600080fd5b50610424600480360381019061041f9190613ab1565b610e67565b6040516104319190614f4d565b60405180910390f35b34801561044657600080fd5b50610461600480360381019061045c9190613c51565b610ec2565b005b34801561046f57600080fd5b5061048a600480360381019061048591906139ab565b61110c565b005b34801561049857600080fd5b506104b360048036038101906104ae9190613c51565b611176565b6040516104c09190614f4d565b60405180910390f35b3480156104d557600080fd5b506104f060048036038101906104eb9190613c51565b6111a8565b6040516104fd9190614f4d565b60405180910390f35b34801561051257600080fd5b5061052d60048036038101906105289190613c51565b6111cb565b60405161053a9190614f4d565b60405180910390f35b34801561054f57600080fd5b5061055861120c565b6040516105659190614fad565b60405180910390f35b34801561057a57600080fd5b5061059560048036038101906105909190613c51565b61121f565b6040516105a29190614a15565b60405180910390f35b3480156105b757600080fd5b506105c0611256565b6040516105cf93929190614fc8565b60405180910390f35b3480156105e457600080fd5b506105ed6113ab565b6040516105fa9190614b50565b60405180910390f35b34801561060f57600080fd5b5061062a60048036038101906106259190613ca3565b61144d565b6040516106379190614b35565b60405180910390f35b34801561064c57600080fd5b5061066760048036038101906106629190613946565b611508565b6040516106749190614f4d565b60405180910390f35b34801561068957600080fd5b506106926115c7565b60405161069f9190614fad565b60405180910390f35b3480156106b457600080fd5b506106cf60048036038101906106ca9190613c51565b6115da565b6040516106dc9190614f32565b60405180910390f35b3480156106f157600080fd5b5061070c60048036038101906107079190613aed565b6116bc565b6040516107199190614b35565b60405180910390f35b34801561072e57600080fd5b5061074960048036038101906107449190613c51565b61175b565b6040516107569190614f4d565b60405180910390f35b34801561076b57600080fd5b5061077461179c565b6040516107819190614b50565b60405180910390f35b34801561079657600080fd5b506107b160048036038101906107ac9190613c51565b61183e565b6040516107be9190614b13565b60405180910390f35b3480156107d357600080fd5b506107ee60048036038101906107e99190613a75565b611902565b005b3480156107fc57600080fd5b5061081760048036038101906108129190613c51565b611a83565b005b34801561082557600080fd5b5061082e611a90565b60405161083b9190614f4d565b60405180910390f35b34801561085057600080fd5b5061086b600480360381019061086691906139fa565b611b47565b005b34801561087957600080fd5b50610894600480360381019061088f9190613bfd565b611bf3565b005b3480156108a257600080fd5b506108bd60048036038101906108b89190613c51565b611c1a565b6040516108ca9190614f4d565b60405180910390f35b3480156108df57600080fd5b506108fa60048036038101906108f59190613c51565b611c4c565b6040516109079190614b50565b60405180910390f35b610918611dd7565b6040516109259190614f4d565b60405180910390f35b34801561093a57600080fd5b506109556004803603810190610950919061396f565b611fa8565b6040516109629190614b35565b60405180910390f35b600060016000837bffffffffffffffffffffffffffffffffffffffffffffffffffffffff19167bffffffffffffffffffffffffffffffffffffffffffffffffffffffff1916815260200190815260200160002060009054906101000a900460ff169050919050565b606060078054600181600116156101000203166002900480601f016020809104026020016040519081016040528092919081815260200182805460018160011615610100020316600290048015610a6b5780601f10610a4057610100808354040283529160200191610a6b565b820191906000526020600020905b815481529060010190602001808311610a4e57829003601f168201915b5050505050905090565b6000610a808261203c565b610abf576040517f08c379a0000000000000000000000000000000000000000000000000000000008152600401610ab690614df2565b60405180910390fd5b6005600083815260200190815260200160002060009054906101000a900473ffffffffffffffffffffffffffffffffffffffff169050919050565b610b04814261144d565b15610b44576040517f08c379a0000000000000000000000000000000000000000000000000000000008152600401610b3b90614d52565b60405180910390fd5b6000610b4f8261121f565b90508073ffffffffffffffffffffffffffffffffffffffff168373ffffffffffffffffffffffffffffffffffffffff161415610bc0576040517f08c379a0000000000000000000000000000000000000000000000000000000008152600401610bb790614e52565b60405180910390fd5b8073ffffffffffffffffffffffffffffffffffffffff16610bdf612059565b73ffffffffffffffffffffffffffffffffffffffff161480610c0e5750610c0d81610c08612059565b611fa8565b5b610c4d576040517f08c379a0000000000000000000000000000000000000000000000000000000008152600401610c4490614cd2565b60405180910390fd5b610c578383612061565b505050565b600081806020019051810190610c729190613c7a565b9050610c7d81610ec2565b5050565b6000610c8d600361211a565b905090565b600c5481565b610ca2814261144d565b15610ce2576040517f08c379a0000000000000000000000000000000000000000000000000000000008152600401610cd990614bd2565b60405180910390fd5b610cf3610ced612059565b8261212f565b610d32576040517f08c379a0000000000000000000000000000000000000000000000000000000008152600401610d2990614e72565b60405180910390fd5b610d3d83838361220d565b505050565b600d60009054906101000a900473ffffffffffffffffffffffffffffffffffffffff1681565b606080610d7483612424565b67ffffffffffffffff81118015610d8a57600080fd5b50604051908082528060200260200182016040528015610db95781602001602082028036833780820191505090505b5090506001610dc784612424565b10610e5d5760008090505b600b80549050811015610e5b578473ffffffffffffffffffffffffffffffffffffffff16610dff8261121f565b73ffffffffffffffffffffffffffffffffffffffff16148015610e2f575060001515610e2b828661144d565b1515145b15610e4e5780828281518110610e4157fe5b6020026020010181815250505b8080600101915050610dd2565b505b8091505092915050565b6000610eba82600260008673ffffffffffffffffffffffffffffffffffffffff1673ffffffffffffffffffffffffffffffffffffffff1681526020019081526020016000206124ad90919063ffffffff16565b905092915050565b610ecb8161203c565b610f0a576040517f08c379a0000000000000000000000000000000000000000000000000000000008152600401610f0190614c92565b60405180910390fd5b6000610f158261121f565b9050610f21824261144d565b610f60576040517f08c379a0000000000000000000000000000000000000000000000000000000008152600401610f5790614eb2565b60405180910390fd5b6000600d60009054906101000a900473ffffffffffffffffffffffffffffffffffffffff169050610f8f61374e565b610f98846115da565b90508173ffffffffffffffffffffffffffffffffffffffff166323b872dd333084600001516040518463ffffffff1660e01b8152600401610fdb93929190614a30565b602060405180830381600087803b158015610ff557600080fd5b505af1158015611009573d6000803e3d6000fd5b505050506040513d601f19601f8201168201806040525081019061102d9190613b41565b50600b848154811061103b57fe5b906000526020600020906003020160008082016000905560018201600090556002820160009055505061106d846124c7565b3373ffffffffffffffffffffffffffffffffffffffff166108fc82602001519081150290604051600060405180830381858888f193505050501580156110b7573d6000803e3d6000fd5b508273ffffffffffffffffffffffffffffffffffffffff167fa5ee7a2b0254fce91deed604506790ed7fa072d0b14cba4859c3bc8955b9caac856040516110fe9190614f4d565b60405180910390a250505050565b611116814261144d565b15611156576040517f08c379a000000000000000000000000000000000000000000000000000000000815260040161114d90614bd2565b60405180910390fd5b61117183838360405180602001604052806000815250611b47565b505050565b60008061119d6000809054906101000a900460ff1660ff168461260190919063ffffffff16565b905080915050919050565b6000806111bf83600361267190919063ffffffff16565b50905080915050919050565b6000806111d783611c1a565b90506000611200600060019054906101000a900460ff1660ff16836126a090919063ffffffff16565b90508092505050919050565b600060019054906101000a900460ff1681565b600061124f826040518060600160405280602981526020016152d56029913960036126d09092919063ffffffff16565b9050919050565b600e8060000160009054906101000a900460ff1690806001018054600181600116156101000203166002900480601f0160208091040260200160405190810160405280929190818152602001828054600181600116156101000203166002900480156113035780601f106112d857610100808354040283529160200191611303565b820191906000526020600020905b8154815290600101906020018083116112e657829003601f168201915b505050505090806002018054600181600116156101000203166002900480601f0160208091040260200160405190810160405280929190818152602001828054600181600116156101000203166002900480156113a15780601f10611376576101008083540402835291602001916113a1565b820191906000526020600020905b81548152906001019060200180831161138457829003601f168201915b5050505050905083565b6060600a8054600181600116156101000203166002900480601f0160208091040260200160405190810160405280929190818152602001828054600181600116156101000203166002900480156114435780601f1061141857610100808354040283529160200191611443565b820191906000526020600020905b81548152906001019060200180831161142657829003601f168201915b5050505050905090565b6000600b805490508310611496576040517f08c379a000000000000000000000000000000000000000000000000000000000815260040161148d90614ef2565b60405180910390fd5b61149f8361203c565b6114de576040517f08c379a00000000000000000000000000000000000000000000000000000000081526004016114d590614ed2565b60405180910390fd5b600b83815481106114eb57fe5b906000526020600020906003020160020154821015905092915050565b60008073ffffffffffffffffffffffffffffffffffffffff168273ffffffffffffffffffffffffffffffffffffffff161415611579576040517f08c379a000000000000000000000000000000000000000000000000000000000815260040161157090614cf2565b60405180910390fd5b6115c0600260008473ffffffffffffffffffffffffffffffffffffffff1673ffffffffffffffffffffffffffffffffffffffff1681526020019081526020016000206126ef565b9050919050565b600060029054906101000a900460ff1681565b6115e261374e565b600b805490508210611629576040517f08c379a000000000000000000000000000000000000000000000000000000000815260040161162090614ef2565b60405180910390fd5b6116328261203c565b611671576040517f08c379a000000000000000000000000000000000000000000000000000000000815260040161166890614ed2565b60405180910390fd5b600b828154811061167e57fe5b906000526020600020906003020160405180606001604052908160008201548152602001600182015481526020016002820154815250509050919050565b6000600b8054905083511115611707576040517f08c379a00000000000000000000000000000000000000000000000000000000081526004016116fe90614cb2565b60405180910390fd5b600080600090505b84518110156117505761173585828151811061172757fe5b60200260200101518561144d565b156117435760019150611750565b808060010191505061170f565b508091505092915050565b60008061176783611176565b90506000611790600060019054906101000a900460ff1660ff168361270490919063ffffffff16565b90508092505050919050565b606060088054600181600116156101000203166002900480601f0160208091040260200160405190810160405280929190818152602001828054600181600116156101000203166002900480156118345780601f1061180957610100808354040283529160200191611834565b820191906000526020600020905b81548152906001019060200180831161181757829003601f168201915b5050505050905090565b6060600061184b83612734565b9050600181106118fb5760608167ffffffffffffffff8111801561186e57600080fd5b5060405190808252806020026020018201604052801561189d5781602001602082028036833780820191505090505b50905060008090505b600b805490508110156118f057600115156118c1828761144d565b151514156118e357808282815181106118d657fe5b6020026020010181815250505b80806001019150506118a6565b5080925050506118fd565b505b919050565b61190a612059565b73ffffffffffffffffffffffffffffffffffffffff168273ffffffffffffffffffffffffffffffffffffffff161415611978576040517f08c379a000000000000000000000000000000000000000000000000000000000815260040161196f90614c52565b60405180910390fd5b8060066000611985612059565b73ffffffffffffffffffffffffffffffffffffffff1673ffffffffffffffffffffffffffffffffffffffff16815260200190815260200160002060008473ffffffffffffffffffffffffffffffffffffffff1673ffffffffffffffffffffffffffffffffffffffff16815260200190815260200160002060006101000a81548160ff0219169083151502179055508173ffffffffffffffffffffffffffffffffffffffff16611a32612059565b73ffffffffffffffffffffffffffffffffffffffff167f17307eab39ab6107e8899845ad3d59bd9653f200f220920489ca2b5937696c3183604051611a779190614b35565b60405180910390a35050565b611a8d813361277e565b50565b600080600d60009054906101000a900473ffffffffffffffffffffffffffffffffffffffff1690508073ffffffffffffffffffffffffffffffffffffffff166370a08231306040518263ffffffff1660e01b8152600401611af19190614a15565b60206040518083038186803b158015611b0957600080fd5b505afa158015611b1d573d6000803e3d6000fd5b505050506040513d601f19601f82011682018060405250810190611b419190613c7a565b91505090565b611b51824261144d565b15611b91576040517f08c379a0000000000000000000000000000000000000000000000000000000008152600401611b8890614f12565b60405180910390fd5b611ba2611b9c612059565b8361212f565b611be1576040517f08c379a0000000000000000000000000000000000000000000000000000000008152600401611bd890614e72565b60405180910390fd5b611bed84848484612a09565b50505050565b600082806020019051810190611c099190613c7a565b9050611c15818361277e565b505050565b600080611c416000809054906101000a900460ff1660ff1684612a6590919063ffffffff16565b905080915050919050565b6060611c578261203c565b611c96576040517f08c379a0000000000000000000000000000000000000000000000000000000008152600401611c8d90614e32565b60405180910390fd5b6060600960008481526020019081526020016000208054600181600116156101000203166002900480601f016020809104026020016040519081016040528092919081815260200182805460018160011615610100020316600290048015611d3f5780601f10611d1457610100808354040283529160200191611d3f565b820191906000526020600020905b815481529060010190602001808311611d2257829003601f168201915b505050505090506000600a8054600181600116156101000203166002900490501415611d6e5780915050611dd2565b600081511115611da357600a81604051602001611d8c9291906149f1565b604051602081830303815290604052915050611dd2565b600a611dae84612aaf565b604051602001611dbf9291906149f1565b6040516020818303038152906040529150505b919050565b600080611de33461175b565b9050611ded611a90565b8110611e2e576040517f08c379a0000000000000000000000000000000000000000000000000000000008152600401611e2590614d72565b60405180910390fd5b6000611e55600060029054906101000a900460ff1660ff16836126a090919063ffffffff16565b90506000611e6c8284612bf690919063ffffffff16565b90506000611e8542600c54612bf690919063ffffffff16565b90506000600d60009054906101000a900473ffffffffffffffffffffffffffffffffffffffff1690508073ffffffffffffffffffffffffffffffffffffffff1663a9059cbb33876040518363ffffffff1660e01b8152600401611ee9929190614ab3565b602060405180830381600087803b158015611f0357600080fd5b505af1158015611f17573d6000803e3d6000fd5b505050506040513d601f19601f82011682018060405250810190611f3b9190613b41565b506000611f49843485612c4b565b90503373ffffffffffffffffffffffffffffffffffffffff167f04074d3222dae133379f5d478e841f42f76914bc8ca39d25e0cd120b226710e682863487604051611f979493929190614f68565b60405180910390a250505050505090565b6000600660008473ffffffffffffffffffffffffffffffffffffffff1673ffffffffffffffffffffffffffffffffffffffff16815260200190815260200160002060008373ffffffffffffffffffffffffffffffffffffffff1673ffffffffffffffffffffffffffffffffffffffff16815260200190815260200160002060009054906101000a900460ff16905092915050565b6000612052826003612cd590919063ffffffff16565b9050919050565b600033905090565b816005600083815260200190815260200160002060006101000a81548173ffffffffffffffffffffffffffffffffffffffff021916908373ffffffffffffffffffffffffffffffffffffffff160217905550808273ffffffffffffffffffffffffffffffffffffffff166120d48361121f565b73ffffffffffffffffffffffffffffffffffffffff167f8c5be1e5ebec7d5bd14f71427d1e84f3dd0314c0f7b2291e5b200ac8c7c3b92560405160405180910390a45050565b600061212882600001612cef565b9050919050565b600061213a8261203c565b612179576040517f08c379a000000000000000000000000000000000000000000000000000000000815260040161217090614c72565b60405180910390fd5b60006121848361121f565b90508073ffffffffffffffffffffffffffffffffffffffff168473ffffffffffffffffffffffffffffffffffffffff1614806121f357508373ffffffffffffffffffffffffffffffffffffffff166121db84610a75565b73ffffffffffffffffffffffffffffffffffffffff16145b8061220457506122038185611fa8565b5b91505092915050565b8273ffffffffffffffffffffffffffffffffffffffff1661222d8261121f565b73ffffffffffffffffffffffffffffffffffffffff1614612283576040517f08c379a000000000000000000000000000000000000000000000000000000000815260040161227a90614e12565b60405180910390fd5b600073ffffffffffffffffffffffffffffffffffffffff168273ffffffffffffffffffffffffffffffffffffffff1614156122f3576040517f08c379a00000000000000000000000000000000000000000000000000000000081526004016122ea90614c32565b60405180910390fd5b6122fe838383612d00565b612309600082612061565b61235a81600260008673ffffffffffffffffffffffffffffffffffffffff1673ffffffffffffffffffffffffffffffffffffffff168152602001908152602001600020612d0590919063ffffffff16565b506123ac81600260008573ffffffffffffffffffffffffffffffffffffffff1673ffffffffffffffffffffffffffffffffffffffff168152602001908152602001600020612d1f90919063ffffffff16565b506123c381836003612d399092919063ffffffff16565b50808273ffffffffffffffffffffffffffffffffffffffff168473ffffffffffffffffffffffffffffffffffffffff167fddf252ad1be2c89b69c2b068fc378daa952ba7f163c4a11628f55a4df523b3ef60405160405180910390a4505050565b60008060008090505b600b805490508110156124a3573373ffffffffffffffffffffffffffffffffffffffff1661245a8261121f565b73ffffffffffffffffffffffffffffffffffffffff1614801561248a575060001515612486828661144d565b1515145b15612496576001820191505b808060010191505061242d565b5080915050919050565b60006124bc8360000183612d6e565b60001c905092915050565b60006124d28261121f565b90506124e081600084612d00565b6124eb600083612061565b6000600960008481526020019081526020016000208054600181600116156101000203166002900490501461253a57600960008381526020019081526020016000206000612539919061376f565b5b61258b82600260008473ffffffffffffffffffffffffffffffffffffffff1673ffffffffffffffffffffffffffffffffffffffff168152602001908152602001600020612d0590919063ffffffff16565b506125a0826003612ddb90919063ffffffff16565b5081600073ffffffffffffffffffffffffffffffffffffffff168273ffffffffffffffffffffffffffffffffffffffff167fddf252ad1be2c89b69c2b068fc378daa952ba7f163c4a11628f55a4df523b3ef60405160405180910390a45050565b600080831415612614576000905061266b565b600082840290508284828161262557fe5b0414612666576040517f08c379a000000000000000000000000000000000000000000000000000000000815260040161265d90614dd2565b60405180910390fd5b809150505b92915050565b6000806000806126848660000186612df5565b915091508160001c8160001c8090509350935050509250929050565b60006126c860646126ba848661260190919063ffffffff16565b612a6590919063ffffffff16565b905092915050565b60006126e3846000018460001b84612e78565b60001c90509392505050565b60006126fd82600001612f09565b9050919050565b600061272c606461271e8486612a6590919063ffffffff16565b61260190919063ffffffff16565b905092915050565b60008060008090505b600b805490508110156127745760011515612758828661144d565b15151415612767576001820191505b808060010191505061273d565b5080915050919050565b612788818361212f565b6127c7576040517f08c379a00000000000000000000000000000000000000000000000000000000081526004016127be90614bb2565b60405180910390fd5b6127d1824261144d565b15612811576040517f08c379a000000000000000000000000000000000000000000000000000000000815260040161280890614d32565b60405180910390fd5b600161281c82611508565b101561285d576040517f08c379a000000000000000000000000000000000000000000000000000000000815260040161285490614d12565b60405180910390fd5b6128668261203c565b6128a5576040517f08c379a000000000000000000000000000000000000000000000000000000000815260040161289c90614ed2565b60405180910390fd5b6000600d60009054906101000a900473ffffffffffffffffffffffffffffffffffffffff1690506128d461374e565b6128dd846115da565b90508173ffffffffffffffffffffffffffffffffffffffff166323b872dd843084600001516040518463ffffffff1660e01b815260040161292093929190614adc565b602060405180830381600087803b15801561293a57600080fd5b505af115801561294e573d6000803e3d6000fd5b505050506040513d601f19601f820116820180604052508101906129729190613b41565b50600b848154811061298057fe5b90600052602060002090600302016000808201600090556001820160009055600282016000905550506129b2846124c7565b60008390508073ffffffffffffffffffffffffffffffffffffffff166108fc83602001519081150290604051600060405180830381858888f19350505050158015612a01573d6000803e3d6000fd5b505050505050565b612a1484848461220d565b612a2084848484612f1a565b612a5f576040517f08c379a0000000000000000000000000000000000000000000000000000000008152600401612a5690614b92565b60405180910390fd5b50505050565b6000612aa783836040518060400160405280601a81526020017f536166654d6174683a206469766973696f6e206279207a65726f00000000000081525061307e565b905092915050565b60606000821415612af7576040518060400160405280600181526020017f30000000000000000000000000000000000000000000000000000000000000008152509050612bf1565b600082905060005b60008214612b21578080600101915050600a8281612b1957fe5b049150612aff565b60608167ffffffffffffffff81118015612b3a57600080fd5b506040519080825280601f01601f191660200182016040528015612b6d5781602001600182028036833780820191505090505b50905060006001830390508593505b60008414612be957600a8481612b8e57fe5b0660300160f81b82828060019003935081518110612ba857fe5b60200101907effffffffffffffffffffffffffffffffffffffffffffffffffffffffffffff1916908160001a905350600a8481612be157fe5b049350612b7c565b819450505050505b919050565b600080828401905083811015612c41576040517f08c379a0000000000000000000000000000000000000000000000000000000008152600401612c3890614c12565b60405180910390fd5b8091505092915050565b6000600b6040518060600160405280868152602001858152602001848152509080600181540180825580915050600190039060005260206000209060030201600090919091909150600082015181600001556020820151816001015560408201518160020155505060006001600b80549050039050612cca33826130df565b809150509392505050565b6000612ce7836000018360001b61326d565b905092915050565b600081600001805490509050919050565b505050565b6000612d17836000018360001b613290565b905092915050565b6000612d31836000018360001b613378565b905092915050565b6000612d65846000018460001b8473ffffffffffffffffffffffffffffffffffffffff1660001b6133e8565b90509392505050565b600081836000018054905011612db9576040517f08c379a0000000000000000000000000000000000000000000000000000000008152600401612db090614b72565b60405180910390fd5b826000018281548110612dc857fe5b9060005260206000200154905092915050565b6000612ded836000018360001b6134c4565b905092915050565b60008082846000018054905011612e41576040517f08c379a0000000000000000000000000000000000000000000000000000000008152600401612e3890614d92565b60405180910390fd5b6000846000018481548110612e5257fe5b906000526020600020906002020190508060000154816001015492509250509250929050565b60008084600101600085815260200190815260200160002054905060008114158390612eda576040517f08c379a0000000000000000000000000000000000000000000000000000000008152600401612ed19190614b50565b60405180910390fd5b50846000016001820381548110612eed57fe5b9060005260206000209060020201600101549150509392505050565b600081600001805490509050919050565b6000612f3b8473ffffffffffffffffffffffffffffffffffffffff166135dd565b612f485760019050613076565b606061300f63150b7a0260e01b612f5d612059565b888787604051602401612f739493929190614a67565b604051602081830303815290604052907bffffffffffffffffffffffffffffffffffffffffffffffffffffffff19166020820180517bffffffffffffffffffffffffffffffffffffffffffffffffffffffff83818316178352505050506040518060600160405280603281526020016152a3603291398773ffffffffffffffffffffffffffffffffffffffff166135f09092919063ffffffff16565b90506000818060200190518101906130279190613b93565b905063150b7a0260e01b7bffffffffffffffffffffffffffffffffffffffffffffffffffffffff1916817bffffffffffffffffffffffffffffffffffffffffffffffffffffffff191614925050505b949350505050565b600080831182906130c5576040517f08c379a00000000000000000000000000000000000000000000000000000000081526004016130bc9190614b50565b60405180910390fd5b5060008385816130d157fe5b049050809150509392505050565b600073ffffffffffffffffffffffffffffffffffffffff168273ffffffffffffffffffffffffffffffffffffffff16141561314f576040517f08c379a000000000000000000000000000000000000000000000000000000000815260040161314690614db2565b60405180910390fd5b6131588161203c565b15613198576040517f08c379a000000000000000000000000000000000000000000000000000000000815260040161318f90614bf2565b60405180910390fd5b6131a460008383612d00565b6131f581600260008573ffffffffffffffffffffffffffffffffffffffff1673ffffffffffffffffffffffffffffffffffffffff168152602001908152602001600020612d1f90919063ffffffff16565b5061320c81836003612d399092919063ffffffff16565b50808273ffffffffffffffffffffffffffffffffffffffff16600073ffffffffffffffffffffffffffffffffffffffff167fddf252ad1be2c89b69c2b068fc378daa952ba7f163c4a11628f55a4df523b3ef60405160405180910390a45050565b600080836001016000848152602001908152602001600020541415905092915050565b6000808360010160008481526020019081526020016000205490506000811461336c57600060018203905060006001866000018054905003905060008660000182815481106132db57fe5b90600052602060002001549050808760000184815481106132f857fe5b906000526020600020018190555060018301876001016000838152602001908152602001600020819055508660000180548061333057fe5b60019003818190600052602060002001600090559055866001016000878152602001908152602001600020600090556001945050505050613372565b60009150505b92915050565b60006133848383613608565b6133dd5782600001829080600181540180825580915050600190039060005260206000200160009091909190915055826000018054905083600101600084815260200190815260200160002081905550600190506133e2565b600090505b92915050565b600080846001016000858152602001908152602001600020549050600081141561348f578460000160405180604001604052808681526020018581525090806001815401808255809150506001900390600052602060002090600202016000909190919091506000820151816000015560208201518160010155505084600001805490508560010160008681526020019081526020016000208190555060019150506134bd565b828560000160018303815481106134a257fe5b90600052602060002090600202016001018190555060009150505b9392505050565b600080836001016000848152602001908152602001600020549050600081146135d1576000600182039050600060018660000180549050039050600086600001828154811061350f57fe5b906000526020600020906002020190508087600001848154811061352f57fe5b906000526020600020906002020160008201548160000155600182015481600101559050506001830187600101600083600001548152602001908152602001600020819055508660000180548061358257fe5b60019003818190600052602060002090600202016000808201600090556001820160009055505090558660010160008781526020019081526020016000206000905560019450505050506135d7565b60009150505b92915050565b600080823b905060008111915050919050565b60606135ff848460008561362b565b90509392505050565b600080836001016000848152602001908152602001600020541415905092915050565b6060613636856135dd565b613675576040517f08c379a000000000000000000000000000000000000000000000000000000000815260040161366c90614e92565b60405180910390fd5b600060608673ffffffffffffffffffffffffffffffffffffffff16858760405161369f91906149da565b60006040518083038185875af1925050503d80600081146136dc576040519150601f19603f3d011682016040523d82523d6000602084013e6136e1565b606091505b509150915081156136f6578092505050613746565b6000815111156137095780518082602001fd5b836040517f08c379a000000000000000000000000000000000000000000000000000000000815260040161373d9190614b50565b60405180910390fd5b949350505050565b60405180606001604052806000815260200160008152602001600081525090565b50805460018160011615610100020316600290046000825580601f1061379557506137b4565b601f0160209004906000526020600020908101906137b391906137b7565b5b50565b6137d991905b808211156137d55760008160009055506001016137bd565b5090565b90565b6000813590506137eb81615246565b92915050565b600082601f83011261380257600080fd5b81356138156138108261503a565b61500d565b9150818183526020840193506020810190508385602084028201111561383a57600080fd5b60005b8381101561386a5781613850888261391c565b84526020840193506020830192505060018101905061383d565b5050505092915050565b6000813590506138838161525d565b92915050565b6000815190506138988161525d565b92915050565b6000813590506138ad81615274565b92915050565b6000815190506138c281615274565b92915050565b600082601f8301126138d957600080fd5b81356138ec6138e782615062565b61500d565b9150808252602083016020830185838301111561390857600080fd5b6139138382846151f3565b50505092915050565b60008135905061392b8161528b565b92915050565b6000815190506139408161528b565b92915050565b60006020828403121561395857600080fd5b6000613966848285016137dc565b91505092915050565b6000806040838503121561398257600080fd5b6000613990858286016137dc565b92505060206139a1858286016137dc565b9150509250929050565b6000806000606084860312156139c057600080fd5b60006139ce868287016137dc565b93505060206139df868287016137dc565b92505060406139f08682870161391c565b9150509250925092565b60008060008060808587031215613a1057600080fd5b6000613a1e878288016137dc565b9450506020613a2f878288016137dc565b9350506040613a408782880161391c565b925050606085013567ffffffffffffffff811115613a5d57600080fd5b613a69878288016138c8565b91505092959194509250565b60008060408385031215613a8857600080fd5b6000613a96858286016137dc565b9250506020613aa785828601613874565b9150509250929050565b60008060408385031215613ac457600080fd5b6000613ad2858286016137dc565b9250506020613ae38582860161391c565b9150509250929050565b60008060408385031215613b0057600080fd5b600083013567ffffffffffffffff811115613b1a57600080fd5b613b26858286016137f1565b9250506020613b378582860161391c565b9150509250929050565b600060208284031215613b5357600080fd5b6000613b6184828501613889565b91505092915050565b600060208284031215613b7c57600080fd5b6000613b8a8482850161389e565b91505092915050565b600060208284031215613ba557600080fd5b6000613bb3848285016138b3565b91505092915050565b600060208284031215613bce57600080fd5b600082013567ffffffffffffffff811115613be857600080fd5b613bf4848285016138c8565b91505092915050565b60008060408385031215613c1057600080fd5b600083013567ffffffffffffffff811115613c2a57600080fd5b613c36858286016138c8565b9250506020613c47858286016137dc565b9150509250929050565b600060208284031215613c6357600080fd5b6000613c718482850161391c565b91505092915050565b600060208284031215613c8c57600080fd5b6000613c9a84828501613931565b91505092915050565b60008060408385031215613cb657600080fd5b6000613cc48582860161391c565b9250506020613cd58582860161391c565b9150509250929050565b6000613ceb83836149ad565b60208301905092915050565b613d00816151bd565b82525050565b613d0f8161513c565b82525050565b613d1e8161512a565b82525050565b6000613d2f826150b3565b613d3981856150e1565b9350613d448361508e565b8060005b83811015613d75578151613d5c8882613cdf565b9750613d67836150d4565b925050600181019050613d48565b5085935050505092915050565b613d8b8161514e565b82525050565b6000613d9c826150be565b613da681856150f2565b9350613db6818560208601615202565b613dbf81615235565b840191505092915050565b6000613dd5826150be565b613ddf8185615103565b9350613def818560208601615202565b80840191505092915050565b6000613e06826150c9565b613e10818561510e565b9350613e20818560208601615202565b613e2981615235565b840191505092915050565b6000613e3f826150c9565b613e49818561511f565b9350613e59818560208601615202565b80840191505092915050565b600081546001811660008114613e825760018114613ea757613eeb565b607f6002830416613e93818761511f565b955060ff1983168652808601935050613eeb565b60028204613eb5818761511f565b9550613ec08561509e565b60005b82811015613ee257815481890152600182019150602081019050613ec3565b82880195505050505b505092915050565b6000613f0060228361510e565b91507f456e756d657261626c655365743a20696e646578206f7574206f6620626f756e60008301527f64730000000000000000000000000000000000000000000000000000000000006020830152604082019050919050565b6000613f6660328361510e565b91507f4552433732313a207472616e7366657220746f206e6f6e20455243373231526560008301527f63656976657220696d706c656d656e74657200000000000000000000000000006020830152604082019050919050565b6000613fcc602e8361510e565b91507f4572726f7220636f6c6c61746572616c20646f65736e742062656c6f6e67207460008301527f6f207468697320616464726573730000000000000000000000000000000000006020830152604082019050919050565b600061403260278361510e565b91507f4572726f723a2063616e74207472616e73666572206578706972656420636f6c60008301527f6c61746572616c000000000000000000000000000000000000000000000000006020830152604082019050919050565b6000614098601c8361510e565b91507f4552433732313a20746f6b656e20616c7265616479206d696e746564000000006000830152602082019050919050565b60006140d8601b8361510e565b91507f536166654d6174683a206164646974696f6e206f766572666c6f7700000000006000830152602082019050919050565b600061411860248361510e565b91507f4552433732313a207472616e7366657220746f20746865207a65726f2061646460008301527f72657373000000000000000000000000000000000000000000000000000000006020830152604082019050919050565b600061417e60198361510e565b91507f4552433732313a20617070726f766520746f2063616c6c6572000000000000006000830152602082019050919050565b60006141be602c8361510e565b91507f4552433732313a206f70657261746f7220717565727920666f72206e6f6e657860008301527f697374656e7420746f6b656e00000000000000000000000000000000000000006020830152604082019050919050565b6000614224602c8361510e565b91507f4572726f722063616e74206c69717564617465206c6f616e207468617420646f60008301527f6573206e6f7420657869737400000000000000000000000000000000000000006020830152604082019050919050565b600061428a603c8361510e565b91507f4572726f723a206e756d626572206f6620696420706172616d6574657273206560008301527f786365656473206e756d626572206f6620636f6c6c61746572616c73000000006020830152604082019050919050565b60006142f060388361510e565b91507f4552433732313a20617070726f76652063616c6c6572206973206e6f74206f7760008301527f6e6572206e6f7220617070726f76656420666f7220616c6c00000000000000006020830152604082019050919050565b6000614356602a8361510e565b91507f4552433732313a2062616c616e636520717565727920666f7220746865207a6560008301527f726f2061646472657373000000000000000000000000000000000000000000006020830152604082019050919050565b60006143bc60208361510e565b91507f796f7520646f206e6f74206861766520616e792065786974696e67206c6f616e6000830152602082019050919050565b60006143fc60168361510e565b91507f4572726f723a6c6f616e206861732065787069726564000000000000000000006000830152602082019050919050565b600061443c60338361510e565b91507f4572726f723a2063616e7420617070726f7665206578706972656420636f6c6c60008301527f61746572616c20666f72207472616e73666572000000000000000000000000006020830152604082019050919050565b60006144a260248361510e565b91507f63616e7420626f72726f77206d6f7265207468616e20706f6f6c206c6971756960008301527f64697479000000000000000000000000000000000000000000000000000000006020830152604082019050919050565b600061450860228361510e565b91507f456e756d657261626c654d61703a20696e646578206f7574206f6620626f756e60008301527f64730000000000000000000000000000000000000000000000000000000000006020830152604082019050919050565b600061456e60208361510e565b91507f4552433732313a206d696e7420746f20746865207a65726f20616464726573736000830152602082019050919050565b60006145ae60218361510e565b91507f536166654d6174683a206d756c7469706c69636174696f6e206f766572666c6f60008301527f77000000000000000000000000000000000000000000000000000000000000006020830152604082019050919050565b6000614614602c8361510e565b91507f4552433732313a20617070726f76656420717565727920666f72206e6f6e657860008301527f697374656e7420746f6b656e00000000000000000000000000000000000000006020830152604082019050919050565b600061467a60298361510e565b91507f4552433732313a207472616e73666572206f6620746f6b656e2074686174206960008301527f73206e6f74206f776e00000000000000000000000000000000000000000000006020830152604082019050919050565b60006146e0602f8361510e565b91507f4552433732314d657461646174613a2055524920717565727920666f72206e6f60008301527f6e6578697374656e7420746f6b656e00000000000000000000000000000000006020830152604082019050919050565b600061474660218361510e565b91507f4552433732313a20617070726f76616c20746f2063757272656e74206f776e6560008301527f72000000000000000000000000000000000000000000000000000000000000006020830152604082019050919050565b60006147ac60318361510e565b91507f4552433732313a207472616e736665722063616c6c6572206973206e6f74206f60008301527f776e6572206e6f7220617070726f7665640000000000000000000000000000006020830152604082019050919050565b6000614812601d8361510e565b91507f416464726573733a2063616c6c20746f206e6f6e2d636f6e74726163740000006000830152602082019050919050565b6000614852601b8361510e565b91507f4572726f723a206c6f616e20686173206e6f74206578706972656400000000006000830152602082019050919050565b6000614892601d8361510e565b91507f4572726f723a206c6f616e20696420646f6573206e6f742065786973740000006000830152602082019050919050565b60006148d260168361510e565b91507f4572726f723a20696e76616c6964206c6f616e206964000000000000000000006000830152602082019050919050565b6000614912602c8361510e565b91507f4572726f723a2063616e74207472616e73666572206578706972656420636f6c60008301527f6c61746572616c20666f722000000000000000000000000000000000000000006020830152604082019050919050565b60608201600082015161498160008501826149ad565b50602082015161499460208501826149ad565b5060408201516149a760408501826149ad565b50505050565b6149b6816151a6565b82525050565b6149c5816151a6565b82525050565b6149d4816151b0565b82525050565b60006149e68284613dca565b915081905092915050565b60006149fd8285613e65565b9150614a098284613e34565b91508190509392505050565b6000602082019050614a2a6000830184613d15565b92915050565b6000606082019050614a456000830186613cf7565b614a526020830185613d15565b614a5f60408301846149bc565b949350505050565b6000608082019050614a7c6000830187613d06565b614a896020830186613d15565b614a9660408301856149bc565b8181036060830152614aa88184613d91565b905095945050505050565b6000604082019050614ac86000830185613cf7565b614ad560208301846149bc565b9392505050565b6000606082019050614af16000830186613d15565b614afe6020830185613d15565b614b0b60408301846149bc565b949350505050565b60006020820190508181036000830152614b2d8184613d24565b905092915050565b6000602082019050614b4a6000830184613d82565b92915050565b60006020820190508181036000830152614b6a8184613dfb565b905092915050565b60006020820190508181036000830152614b8b81613ef3565b9050919050565b60006020820190508181036000830152614bab81613f59565b9050919050565b60006020820190508181036000830152614bcb81613fbf565b9050919050565b60006020820190508181036000830152614beb81614025565b9050919050565b60006020820190508181036000830152614c0b8161408b565b9050919050565b60006020820190508181036000830152614c2b816140cb565b9050919050565b60006020820190508181036000830152614c4b8161410b565b9050919050565b60006020820190508181036000830152614c6b81614171565b9050919050565b60006020820190508181036000830152614c8b816141b1565b9050919050565b60006020820190508181036000830152614cab81614217565b9050919050565b60006020820190508181036000830152614ccb8161427d565b9050919050565b60006020820190508181036000830152614ceb816142e3565b9050919050565b60006020820190508181036000830152614d0b81614349565b9050919050565b60006020820190508181036000830152614d2b816143af565b9050919050565b60006020820190508181036000830152614d4b816143ef565b9050919050565b60006020820190508181036000830152614d6b8161442f565b9050919050565b60006020820190508181036000830152614d8b81614495565b9050919050565b60006020820190508181036000830152614dab816144fb565b9050919050565b60006020820190508181036000830152614dcb81614561565b9050919050565b60006020820190508181036000830152614deb816145a1565b9050919050565b60006020820190508181036000830152614e0b81614607565b9050919050565b60006020820190508181036000830152614e2b8161466d565b9050919050565b60006020820190508181036000830152614e4b816146d3565b9050919050565b60006020820190508181036000830152614e6b81614739565b9050919050565b60006020820190508181036000830152614e8b8161479f565b9050919050565b60006020820190508181036000830152614eab81614805565b9050919050565b60006020820190508181036000830152614ecb81614845565b9050919050565b60006020820190508181036000830152614eeb81614885565b9050919050565b60006020820190508181036000830152614f0b816148c5565b9050919050565b60006020820190508181036000830152614f2b81614905565b9050919050565b6000606082019050614f47600083018461496b565b92915050565b6000602082019050614f6260008301846149bc565b92915050565b6000608082019050614f7d60008301876149bc565b614f8a60208301866149bc565b614f9760408301856149bc565b614fa460608301846149bc565b95945050505050565b6000602082019050614fc260008301846149cb565b92915050565b6000606082019050614fdd60008301866149cb565b8181036020830152614fef8185613dfb565b905081810360408301526150038184613dfb565b9050949350505050565b6000604051905081810181811067ffffffffffffffff8211171561503057600080fd5b8060405250919050565b600067ffffffffffffffff82111561505157600080fd5b602082029050602081019050919050565b600067ffffffffffffffff82111561507957600080fd5b601f19601f8301169050602081019050919050565b6000819050602082019050919050565b60008190508160005260206000209050919050565b600081519050919050565b600081519050919050565b600081519050919050565b6000602082019050919050565b600082825260208201905092915050565b600082825260208201905092915050565b600081905092915050565b600082825260208201905092915050565b600081905092915050565b600061513582615186565b9050919050565b600061514782615186565b9050919050565b60008115159050919050565b60007fffffffff0000000000000000000000000000000000000000000000000000000082169050919050565b600073ffffffffffffffffffffffffffffffffffffffff82169050919050565b6000819050919050565b600060ff82169050919050565b60006151c8826151cf565b9050919050565b60006151da826151e1565b9050919050565b60006151ec82615186565b9050919050565b82818337600083830152505050565b60005b83811015615220578082015181840152602081019050615205565b8381111561522f576000848401525b50505050565b6000601f19601f8301169050919050565b61524f8161512a565b811461525a57600080fd5b50565b6152668161514e565b811461527157600080fd5b50565b61527d8161515a565b811461528857600080fd5b50565b615294816151a6565b811461529f57600080fd5b5056fe4552433732313a207472616e7366657220746f206e6f6e20455243373231526563656976657220696d706c656d656e7465724552433732313a206f776e657220717565727920666f72206e6f6e6578697374656e7420746f6b656ea2646970667358221220c609815c5ac71a30a5b96516f92ed153b43d1b3debf57d34d8831839002a028c64736f6c6343000606003360806040523480156200001157600080fd5b506040516200199b3803806200199b833981810160405260208110156200003757600080fd5b81019080805190602001909291905050506040518060400160405280600e81526020017f426f72726f77656420546f6b656e0000000000000000000000000000000000008152506040518060400160405280600381526020017f42525400000000000000000000000000000000000000000000000000000000008152508160039080519060200190620000cc92919062000397565b508060049080519060200190620000e592919062000397565b506012600560006101000a81548160ff021916908360ff16021790555050506200012481670de0b6b3a7640000633b9aca00026200012b60201b60201c565b5062000446565b600073ffffffffffffffffffffffffffffffffffffffff168273ffffffffffffffffffffffffffffffffffffffff161415620001cf576040517f08c379a000000000000000000000000000000000000000000000000000000000815260040180806020018281038252601f8152602001807f45524332303a206d696e7420746f20746865207a65726f20616464726573730081525060200191505060405180910390fd5b620001e3600083836200030960201b60201c565b620001ff816002546200030e60201b620013811790919060201c565b6002819055506200025d816000808573ffffffffffffffffffffffffffffffffffffffff1673ffffffffffffffffffffffffffffffffffffffff168152602001908152602001600020546200030e60201b620013811790919060201c565b6000808473ffffffffffffffffffffffffffffffffffffffff1673ffffffffffffffffffffffffffffffffffffffff168152602001908152602001600020819055508173ffffffffffffffffffffffffffffffffffffffff16600073ffffffffffffffffffffffffffffffffffffffff167fddf252ad1be2c89b69c2b068fc378daa952ba7f163c4a11628f55a4df523b3ef836040518082815260200191505060405180910390a35050565b505050565b6000808284019050838110156200038d576040517f08c379a000000000000000000000000000000000000000000000000000000000815260040180806020018281038252601b8152602001807f536166654d6174683a206164646974696f6e206f766572666c6f77000000000081525060200191505060405180910390fd5b8091505092915050565b828054600181600116156101000203166002900490600052602060002090601f016020900481019282601f10620003da57805160ff19168380011785556200040b565b828001600101855582156200040b579182015b828111156200040a578251825591602001919060010190620003ed565b5b5090506200041a91906200041e565b5090565b6200044391905b808211156200043f57600081600090555060010162000425565b5090565b90565b61154580620004566000396000f3fe608060405234801561001057600080fd5b50600436106100b45760003560e01c80633f5bdab7116100715780633f5bdab7146102d057806370a082311461046457806395d89b41146104bc578063a457c2d71461053f578063a9059cbb146105a5578063dd62ed3e1461060b576100b4565b806306fdde03146100b9578063095ea7b31461013c57806318160ddd146101a257806323b872dd146101c0578063313ce56714610246578063395093511461026a575b600080fd5b6100c1610683565b6040518080602001828103825283818151815260200191508051906020019080838360005b838110156101015780820151818401526020810190506100e6565b50505050905090810190601f16801561012e5780820380516001836020036101000a031916815260200191505b509250505060405180910390f35b6101886004803603604081101561015257600080fd5b81019080803573ffffffffffffffffffffffffffffffffffffffff16906020019092919080359060200190929190505050610725565b604051808215151515815260200191505060405180910390f35b6101aa610743565b6040518082815260200191505060405180910390f35b61022c600480360360608110156101d657600080fd5b81019080803573ffffffffffffffffffffffffffffffffffffffff169060200190929190803573ffffffffffffffffffffffffffffffffffffffff1690602001909291908035906020019092919050505061074d565b604051808215151515815260200191505060405180910390f35b61024e610826565b604051808260ff1660ff16815260200191505060405180910390f35b6102b66004803603604081101561028057600080fd5b81019080803573ffffffffffffffffffffffffffffffffffffffff1690602001909291908035906020019092919050505061083d565b604051808215151515815260200191505060405180910390f35b61044a600480360360808110156102e657600080fd5b81019080803573ffffffffffffffffffffffffffffffffffffffff169060200190929190803590602001909291908035906020019064010000000081111561032d57600080fd5b82018360208201111561033f57600080fd5b8035906020019184600183028401116401000000008311171561036157600080fd5b91908080601f016020809104026020016040519081016040528093929190818152602001838380828437600081840152601f19601f820116905080830192505050505050509192919290803590602001906401000000008111156103c457600080fd5b8201836020820111156103d657600080fd5b803590602001918460018302840111640100000000831117156103f857600080fd5b91908080601f016020809104026020016040519081016040528093929190818152602001838380828437600081840152601f19601f8201169050808301925050505050505091929192905050506108f0565b604051808215151515815260200191505060405180910390f35b6104a66004803603602081101561047a57600080fd5b81019080803573ffffffffffffffffffffffffffffffffffffffff169060200190929190505050610ba5565b6040518082815260200191505060405180910390f35b6104c4610bed565b6040518080602001828103825283818151815260200191508051906020019080838360005b838110156105045780820151818401526020810190506104e9565b50505050905090810190601f1680156105315780820380516001836020036101000a031916815260200191505b509250505060405180910390f35b61058b6004803603604081101561055557600080fd5b81019080803573ffffffffffffffffffffffffffffffffffffffff16906020019092919080359060200190929190505050610c8f565b604051808215151515815260200191505060405180910390f35b6105f1600480360360408110156105bb57600080fd5b81019080803573ffffffffffffffffffffffffffffffffffffffff16906020019092919080359060200190929190505050610d5c565b604051808215151515815260200191505060405180910390f35b61066d6004803603604081101561062157600080fd5b81019080803573ffffffffffffffffffffffffffffffffffffffff169060200190929190803573ffffffffffffffffffffffffffffffffffffffff169060200190929190505050610d7a565b6040518082815260200191505060405180910390f35b606060038054600181600116156101000203166002900480601f01602080910402602001604051908101604052809291908181526020018280546001816001161561010002031660029004801561071b5780601f106106f05761010080835404028352916020019161071b565b820191906000526020600020905b8154815290600101906020018083116106fe57829003601f168201915b5050505050905090565b6000610739610732610e01565b8484610e09565b6001905092915050565b6000600254905090565b600061075a848484611000565b61081b84610766610e01565b6108168560405180606001604052806028815260200161147a60289139600160008b73ffffffffffffffffffffffffffffffffffffffff1673ffffffffffffffffffffffffffffffffffffffff16815260200190815260200160002060006107cc610e01565b73ffffffffffffffffffffffffffffffffffffffff1673ffffffffffffffffffffffffffffffffffffffff168152602001908152602001600020546112c19092919063ffffffff16565b610e09565b600190509392505050565b6000600560009054906101000a900460ff16905090565b60006108e661084a610e01565b846108e1856001600061085b610e01565b73ffffffffffffffffffffffffffffffffffffffff1673ffffffffffffffffffffffffffffffffffffffff16815260200190815260200160002060008973ffffffffffffffffffffffffffffffffffffffff1673ffffffffffffffffffffffffffffffffffffffff1681526020019081526020016000205461138190919063ffffffff16565b610e09565b6001905092915050565b60006108fc8585610725565b50606083833360405160240180806020018373ffffffffffffffffffffffffffffffffffffffff1673ffffffffffffffffffffffffffffffffffffffff168152602001828103825284818151815260200191508051906020019080838360005b8381101561097757808201518184015260208101905061095c565b50505050905090810190601f1680156109a45780820380516001836020036101000a031916815260200191505b509350505050604051602081830303815290604052906040518082805190602001908083835b602083106109ed57805182526020820191506020810190506020830392506109ca565b6001836020036101000a03801982511681845116808217855250505050505090500191505060405180910390207bffffffffffffffffffffffffffffffffffffffffffffffffffffffff19166020820180517bffffffffffffffffffffffffffffffffffffffffffffffffffffffff83818316178352505050509050600060608773ffffffffffffffffffffffffffffffffffffffff16836040518082805190602001908083835b60208310610ab85780518252602082019150602081019050602083039250610a95565b6001836020036101000a0380198251168184511680821785525050505050509050019150506000604051808303816000865af19150503d8060008114610b1a576040519150601f19603f3d011682016040523d82523d6000602084013e610b1f565b606091505b509150915081610b97576040517f08c379a000000000000000000000000000000000000000000000000000000000815260040180806020018281038252601a8152602001807f4572726f723a636f6e74726163742063616c6c206661696c656400000000000081525060200191505060405180910390fd5b819350505050949350505050565b60008060008373ffffffffffffffffffffffffffffffffffffffff1673ffffffffffffffffffffffffffffffffffffffff168152602001908152602001600020549050919050565b606060048054600181600116156101000203166002900480601f016020809104026020016040519081016040528092919081815260200182805460018160011615610100020316600290048015610c855780601f10610c5a57610100808354040283529160200191610c85565b820191906000526020600020905b815481529060010190602001808311610c6857829003601f168201915b5050505050905090565b6000610d52610c9c610e01565b84610d4d856040518060600160405280602581526020016114eb6025913960016000610cc6610e01565b73ffffffffffffffffffffffffffffffffffffffff1673ffffffffffffffffffffffffffffffffffffffff16815260200190815260200160002060008a73ffffffffffffffffffffffffffffffffffffffff1673ffffffffffffffffffffffffffffffffffffffff168152602001908152602001600020546112c19092919063ffffffff16565b610e09565b6001905092915050565b6000610d70610d69610e01565b8484611000565b6001905092915050565b6000600160008473ffffffffffffffffffffffffffffffffffffffff1673ffffffffffffffffffffffffffffffffffffffff16815260200190815260200160002060008373ffffffffffffffffffffffffffffffffffffffff1673ffffffffffffffffffffffffffffffffffffffff16815260200190815260200160002054905092915050565b600033905090565b600073ffffffffffffffffffffffffffffffffffffffff168373ffffffffffffffffffffffffffffffffffffffff161415610e8f576040517f08c379a00000000000000000000000000000000000000000000000000000000081526004018080602001828103825260248152602001806114c76024913960400191505060405180910390fd5b600073ffffffffffffffffffffffffffffffffffffffff168273ffffffffffffffffffffffffffffffffffffffff161415610f15576040517f08c379a00000000000000000000000000000000000000000000000000000000081526004018080602001828103825260228152602001806114326022913960400191505060405180910390fd5b80600160008573ffffffffffffffffffffffffffffffffffffffff1673ffffffffffffffffffffffffffffffffffffffff16815260200190815260200160002060008473ffffffffffffffffffffffffffffffffffffffff1673ffffffffffffffffffffffffffffffffffffffff168152602001908152602001600020819055508173ffffffffffffffffffffffffffffffffffffffff168373ffffffffffffffffffffffffffffffffffffffff167f8c5be1e5ebec7d5bd14f71427d1e84f3dd0314c0f7b2291e5b200ac8c7c3b925836040518082815260200191505060405180910390a3505050565b600073ffffffffffffffffffffffffffffffffffffffff168373ffffffffffffffffffffffffffffffffffffffff161415611086576040517f08c379a00000000000000000000000000000000000000000000000000000000081526004018080602001828103825260258152602001806114a26025913960400191505060405180910390fd5b600073ffffffffffffffffffffffffffffffffffffffff168273ffffffffffffffffffffffffffffffffffffffff16141561110c576040517f08c379a000000000000000000000000000000000000000000000000000000000815260040180806020018281038252602381526020018061140f6023913960400191505060405180910390fd5b611117838383611409565b61118281604051806060016040528060268152602001611454602691396000808773ffffffffffffffffffffffffffffffffffffffff1673ffffffffffffffffffffffffffffffffffffffff168152602001908152602001600020546112c19092919063ffffffff16565b6000808573ffffffffffffffffffffffffffffffffffffffff1673ffffffffffffffffffffffffffffffffffffffff16815260200190815260200160002081905550611215816000808573ffffffffffffffffffffffffffffffffffffffff1673ffffffffffffffffffffffffffffffffffffffff1681526020019081526020016000205461138190919063ffffffff16565b6000808473ffffffffffffffffffffffffffffffffffffffff1673ffffffffffffffffffffffffffffffffffffffff168152602001908152602001600020819055508173ffffffffffffffffffffffffffffffffffffffff168373ffffffffffffffffffffffffffffffffffffffff167fddf252ad1be2c89b69c2b068fc378daa952ba7f163c4a11628f55a4df523b3ef836040518082815260200191505060405180910390a3505050565b600083831115829061136e576040517f08c379a00000000000000000000000000000000000000000000000000000000081526004018080602001828103825283818151815260200191508051906020019080838360005b83811015611333578082015181840152602081019050611318565b50505050905090810190601f1680156113605780820380516001836020036101000a031916815260200191505b509250505060405180910390fd5b5060008385039050809150509392505050565b6000808284019050838110156113ff576040517f08c379a000000000000000000000000000000000000000000000000000000000815260040180806020018281038252601b8152602001807f536166654d6174683a206164646974696f6e206f766572666c6f77000000000081525060200191505060405180910390fd5b8091505092915050565b50505056fe45524332303a207472616e7366657220746f20746865207a65726f206164647265737345524332303a20617070726f766520746f20746865207a65726f206164647265737345524332303a207472616e7366657220616d6f756e7420657863656564732062616c616e636545524332303a207472616e7366657220616d6f756e74206578636565647320616c6c6f77616e636545524332303a207472616e736665722066726f6d20746865207a65726f206164647265737345524332303a20617070726f76652066726f6d20746865207a65726f206164647265737345524332303a2064656372656173656420616c6c6f77616e63652062656c6f77207a65726fa26469706673582212204b70f7f903bc2bcf4b47f8dae6c444815056c9c0bea2f2cfa8702f222d8ee85064736f6c63430006060033",
  "source": "pragma solidity ^0.6.0;\r\npragma experimental ABIEncoderV2;\r\nimport '@openzeppelin/contracts/math/SafeMath.sol';\r\nimport './tokens/BRT.sol';\r\nimport './libraries/SafePercentage.sol';\r\nimport './BRTPOOLUTILS.SOL';\r\nimport './tokens/CollateralRedemptionToken.sol';\r\ncontract BRTPOOL is BRTPOOLUTILS ,CollateralRedemptionToken{\r\n    address public brtAddr;\r\n    struct BrtTokenInfo{\r\n        uint8 decimals;\r\n        string name;\r\n        string symbol;\r\n\r\n    }\r\n    BrtTokenInfo public tokenInfo;\r\n    using SafePercentage for uint;\r\n    using SafeMath for uint;\r\n\r\n    constructor() public{\r\n      _createBrtTokenAndAddLiquidityToPool();\r\n     \r\n     \r\n    }\r\n    \r\n    event Borrowed(address indexed borrower,uint loanId,  uint redemptionPrice,uint collateral,uint expires);\r\n    event Liquidated(address indexed borrower,uint  loanId);\r\n   \r\n    function borrow() public  payable\r\n    returns(uint)\r\n    {\r\n        uint loan = calculateLoan(msg.value);\r\n        require(loan < getPoolBalance(),'cant borrow more than pool liquidity');\r\n        uint fee=loan.percentMul(feePercent);\r\n        uint redemptionPrice =loan.add(fee);\r\n        uint expires=borrowTime.add(block.timestamp);\r\n\r\n        BRT brtToken=BRT(brtAddr);\r\n        brtToken.transfer(msg.sender,loan); \r\n        uint id = _issueCollateralToken(redemptionPrice, msg.value, expires);\r\n        emit Borrowed(msg.sender,id,redemptionPrice,msg.value,expires);\r\n    }\r\n\r\n//   1603910689\r\n\r\n   \r\n    function payback(uint loanId) public{\r\n         _payback(loanId, msg.sender);\r\n         \r\n    }  \r\n     function _payback(uint loanId,address payer) private{\r\n         require(_isApprovedOrOwner(payer, loanId),'Error collateral doesnt belong to this address');\r\n         require(!isLoanExpiredAt(loanId,block.timestamp),'Error:loan has expired');\r\n         require(balanceOf(payer) >= 1,'you do not have any exiting loan');\r\n         require(_exists(loanId),'Error: loan id does not exist');\r\n         BRT brtToken=BRT(brtAddr);\r\n         Collateral memory _loanInfo= loanInfo(loanId);\r\n         brtToken.transferFrom(payer,address(this),_loanInfo.redemptionPrice);\r\n         delete _collaterals[loanId];\r\n         _burn(loanId);\r\n         address payable _payer =payable(payer);\r\n         _payer.transfer(_loanInfo.collateral);         \r\n         \r\n    }  \r\n\r\n    function payback(bytes memory _params,address _payer) public{\r\n      \r\n      \r\n       (uint _loanId)=abi.decode(_params,(uint256));\r\n       _payback(_loanId,_payer);  \r\n    }\r\n\r\n\r\n    function getActiveLoans(address addr,uint unixTimeStamp) external view\r\n    returns(uint[] memory)\r\n    {  \r\n     \r\n       uint[] memory _loans= new uint[](_loanCounter(unixTimeStamp));\r\n       if(_loanCounter(unixTimeStamp) >= 1){\r\n\r\n         for(uint i =0;i < _collaterals.length;i++){\r\n         if(ownerOf(i) == addr && isLoanExpiredAt(i,unixTimeStamp) == false){\r\n            _loans[i]=i;\r\n         }\r\n\r\n                }\r\n     \r\n\r\n       }\r\n        return _loans;\r\n       \r\n    }\r\n\r\n    function _loanCounter(uint unixTimeStamp) private view\r\n    returns(uint)\r\n    {\r\n       uint _count;\r\n       for(uint i =0;i < _collaterals.length;i++){\r\n         if(ownerOf(i) == msg.sender && isLoanExpiredAt(i,unixTimeStamp) == false){\r\n            _count = _count + 1;\r\n         }\r\n       }\r\n       return _count;\r\n\r\n    }\r\n\r\n\r\n    function isLoanExpiredAt(uint loanId,uint unixTimeStamp) public view\r\n    returns(bool)\r\n    {  \r\n       \r\n       require(loanId < _collaterals.length,'Error: invalid loan id');\r\n    //    require(_collaterals[loanId].expires != 0,'Error: collateral does not exist');\r\n       require(_exists(loanId),'Error: loan id does not exist');\r\n       return unixTimeStamp  >=  _collaterals[loanId].expires;\r\n\r\n    }\r\n\r\n    \r\n\r\n     \r\n\r\n    function isAnyExpired(uint[] memory _loanIds,uint unixTimeStamp) public view\r\n    returns(bool)\r\n    { \r\n      require(_loanIds.length <= _collaterals.length,'Error: number of id parameters exceeds number of collaterals');\r\n      bool _isExpired;\r\n      for(uint i =0;i < _loanIds.length;i++){\r\n          if(isLoanExpiredAt(_loanIds[i],unixTimeStamp)){\r\n              _isExpired =true;\r\n              break;\r\n          }\r\n      }\r\n      return _isExpired;\r\n    } \r\n\r\n    function getExpiredLoanIds(uint unixTimeStamp) public view\r\n    returns(uint[] memory)\r\n    {\r\n       uint _numberOfExpiredLoans =_expiredLoanCounter(unixTimeStamp);\r\n       if( _numberOfExpiredLoans >= 1){\r\n         uint[] memory _expiredLoanIds = new uint[](_numberOfExpiredLoans);\r\n                 for(uint i = 0; i < _collaterals.length; i++){\r\n           if(isLoanExpiredAt(i,unixTimeStamp) == true){\r\n             _expiredLoanIds[i] = i;\r\n           }\r\n       }\r\n       return _expiredLoanIds;\r\n\r\n       }\r\n       \r\n    //    require(_numberOfExpiredLoans >= 1,'Error No Expired loans found');\r\n      \r\n\r\n    }\r\n   \r\n\r\n   function liquidate(uint loanId) public {\r\n       require(_exists(loanId),'Error cant liqudate loan that does not exist');\r\n       address _previousOwner=ownerOf(loanId);\r\n       require(isLoanExpiredAt(loanId,block.timestamp),'Error: loan has not expired');\r\n      \r\n     \r\n       BRT brtToken =BRT(brtAddr);\r\n       Collateral memory _loanInfo=loanInfo(loanId);\r\n       brtToken.transferFrom(msg.sender,address(this),_loanInfo.redemptionPrice);\r\n       delete _collaterals[loanId];\r\n       _burn(loanId);\r\n   \r\n       msg.sender.transfer(_loanInfo.collateral);\r\n       emit Liquidated(_previousOwner,loanId);\r\n   }\r\n   \r\n   function liquidate(bytes memory _params) public{\r\n \r\n    (uint _loanId)=abi.decode(_params,(uint));\r\n    liquidate(_loanId);\r\n   }\r\n  \r\n    \r\n\r\n    function loanInfo(uint loanId) public view\r\n    returns(Collateral memory)\r\n    {  \r\n       require(loanId < _collaterals.length,'Error: invalid loan id');\r\n       require(_exists(loanId),'Error: loan id does not exist');\r\n       return _collaterals[loanId];\r\n    }\r\n    function getPoolBalance() public view\r\n    returns(uint)\r\n    {\r\n        BRT brtToken  = BRT(brtAddr);\r\n        return brtToken.balanceOf(address(this));\r\n    }\r\n    \r\n     function _expiredLoanCounter(uint unixTimeStamp) internal view\r\n    returns(uint)\r\n    {\r\n        uint _count;\r\n        for(uint i = 0; i < _collaterals.length; i++){\r\n           if(isLoanExpiredAt(i,unixTimeStamp) == true){\r\n             _count= _count + 1;\r\n           }\r\n        }\r\n       return _count;\r\n       \r\n   }\r\n\r\n    function _createBrtTokenAndAddLiquidityToPool ()private{\r\n        BRT brtToken = new BRT(address(this));\r\n        brtAddr = address(brtToken);\r\n        tokenInfo.name = BRT(brtAddr).name();\r\n        tokenInfo.symbol = BRT(brtAddr).symbol();\r\n        tokenInfo.decimals = BRT(brtAddr).decimals();\r\n    }\r\n     \r\n\r\n\r\n\r\n\r\n\r\n\r\n\r\n\r\n\r\n\r\n\r\n\r\n\r\n\r\n    //  CUSTOM ERC20 IMPLEMETATION THAT PREVENTS TRANSFER AND APPROVAL OF EXPIRED LOAN\r\n\r\n     function approve(address to, uint256 tokenId) public virtual override {\r\n        require(!isLoanExpiredAt(tokenId,block.timestamp),'Error: cant approve expired collateral for transfer');\r\n        address owner = ownerOf(tokenId);\r\n        require(to != owner, \"ERC721: approval to current owner\");\r\n\r\n        require(_msgSender() == owner || isApprovedForAll(owner, _msgSender()),\r\n            \"ERC721: approve caller is not owner nor approved for all\"\r\n        );\r\n\r\n        _approve(to, tokenId);\r\n       \r\n    }\r\n    function transferFrom(address from, address to, uint256 tokenId) public virtual override {\r\n        require(!isLoanExpiredAt(tokenId,block.timestamp),'Error: cant transfer expired collateral');\r\n        //solhint-disable-next-line max-line-length\r\n        require(_isApprovedOrOwner(_msgSender(), tokenId), \"ERC721: transfer caller is not owner nor approved\");\r\n\r\n        _transfer(from, to, tokenId);\r\n       \r\n    }\r\n     function safeTransferFrom(address from, address to, uint256 tokenId) public virtual override {\r\n        require(!isLoanExpiredAt(tokenId,block.timestamp),'Error: cant transfer expired collateral');\r\n        safeTransferFrom(from, to, tokenId, \"\");\r\n    \r\n    }\r\n\r\n    /**\r\n     * @dev See {IERC721-safeTransferFrom}.\r\n     */\r\n    function safeTransferFrom(address from, address to, uint256 tokenId, bytes memory _data) public virtual override{\r\n        require(!isLoanExpiredAt(tokenId,block.timestamp),'Error: cant transfer expired collateral for ');\r\n        require(_isApprovedOrOwner(_msgSender(), tokenId), \"ERC721: transfer caller is not owner nor approved\");\r\n        _safeTransfer(from, to, tokenId, _data);\r\n\r\n\r\n    }\r\n   \r\n\r\n    \r\n    \r\n}",
  "sourcePath": "C:/Users/osasola/Desktop/js-projects/blockchain/lending-pool/contracts/BRTPOOL.sol",
  "compiler": {
    "name": "solc",
    "version": "0.6.6+commit.6c089d02.Emscripten.clang"
  },
  "schemaVersion": "3.0.22",
  "updatedAt": "2020-11-25T15:57:23.169Z",
  "networkType": "ethereum",
  "devdoc": {
    "methods": {
      "balanceOf(address)": {
        "details": "See {IERC721-balanceOf}."
      },
      "baseURI()": {
        "details": "Returns the base URI set via {_setBaseURI}. This will be automatically added as a prefix in {tokenURI} to each token's URI, or to the token ID if no specific URI is set for that token ID."
      },
      "getApproved(uint256)": {
        "details": "See {IERC721-getApproved}."
      },
      "isApprovedForAll(address,address)": {
        "details": "See {IERC721-isApprovedForAll}."
      },
      "name()": {
        "details": "See {IERC721Metadata-name}."
      },
      "ownerOf(uint256)": {
        "details": "See {IERC721-ownerOf}."
      },
      "safeTransferFrom(address,address,uint256,bytes)": {
        "details": "See {IERC721-safeTransferFrom}."
      },
      "setApprovalForAll(address,bool)": {
        "details": "See {IERC721-setApprovalForAll}."
      },
      "supportsInterface(bytes4)": {
        "details": "See {IERC165-supportsInterface}.     * Time complexity O(1), guaranteed to always use less than 30 000 gas."
      },
      "symbol()": {
        "details": "See {IERC721Metadata-symbol}."
      },
      "tokenByIndex(uint256)": {
        "details": "See {IERC721Enumerable-tokenByIndex}."
      },
      "tokenOfOwnerByIndex(address,uint256)": {
        "details": "See {IERC721Enumerable-tokenOfOwnerByIndex}."
      },
      "tokenURI(uint256)": {
        "details": "See {IERC721Metadata-tokenURI}."
      },
      "totalSupply()": {
        "details": "See {IERC721Enumerable-totalSupply}."
      }
    }
  },
  "userdoc": {
    "methods": {}
  }
}