{
  "contractName": "BRTPOOL",
  "abi": [
    {
      "inputs": [
        {
          "internalType": "address",
          "name": "tokenAddr",
          "type": "address"
        }
      ],
      "stateMutability": "nonpayable",
      "type": "constructor"
    },
    {
      "anonymous": false,
      "inputs": [
        {
          "indexed": true,
          "internalType": "address",
          "name": "owner",
          "type": "address"
        },
        {
          "indexed": true,
          "internalType": "address",
          "name": "approved",
          "type": "address"
        },
        {
          "indexed": true,
          "internalType": "uint256",
          "name": "tokenId",
          "type": "uint256"
        }
      ],
      "name": "Approval",
      "type": "event"
    },
    {
      "anonymous": false,
      "inputs": [
        {
          "indexed": true,
          "internalType": "address",
          "name": "owner",
          "type": "address"
        },
        {
          "indexed": true,
          "internalType": "address",
          "name": "operator",
          "type": "address"
        },
        {
          "indexed": false,
          "internalType": "bool",
          "name": "approved",
          "type": "bool"
        }
      ],
      "name": "ApprovalForAll",
      "type": "event"
    },
    {
      "anonymous": false,
      "inputs": [
        {
          "indexed": true,
          "internalType": "address",
          "name": "borrower",
          "type": "address"
        },
        {
          "indexed": false,
          "internalType": "uint256",
          "name": "loanId",
          "type": "uint256"
        },
        {
          "indexed": false,
          "internalType": "uint256",
          "name": "redemptionPrice",
          "type": "uint256"
        },
        {
          "indexed": false,
          "internalType": "uint256",
          "name": "collateral",
          "type": "uint256"
        },
        {
          "indexed": false,
          "internalType": "uint256",
          "name": "expires",
          "type": "uint256"
        }
      ],
      "name": "Borrowed",
      "type": "event"
    },
    {
      "anonymous": false,
      "inputs": [
        {
          "indexed": true,
          "internalType": "address",
          "name": "borrower",
          "type": "address"
        },
        {
          "indexed": false,
          "internalType": "uint256",
          "name": "loanId",
          "type": "uint256"
        }
      ],
      "name": "Liquidated",
      "type": "event"
    },
    {
      "anonymous": false,
      "inputs": [
        {
          "indexed": false,
          "internalType": "address",
          "name": "spender",
          "type": "address"
        },
        {
          "indexed": false,
          "internalType": "uint256",
          "name": "loanId",
          "type": "uint256"
        }
      ],
      "name": "PayBack",
      "type": "event"
    },
    {
      "anonymous": false,
      "inputs": [
        {
          "indexed": true,
          "internalType": "address",
          "name": "from",
          "type": "address"
        },
        {
          "indexed": true,
          "internalType": "address",
          "name": "to",
          "type": "address"
        },
        {
          "indexed": true,
          "internalType": "uint256",
          "name": "tokenId",
          "type": "uint256"
        }
      ],
      "name": "Transfer",
      "type": "event"
    },
    {
      "inputs": [
        {
          "internalType": "address",
          "name": "owner",
          "type": "address"
        }
      ],
      "name": "balanceOf",
      "outputs": [
        {
          "internalType": "uint256",
          "name": "",
          "type": "uint256"
        }
      ],
      "stateMutability": "view",
      "type": "function",
      "constant": true
    },
    {
      "inputs": [],
      "name": "baseURI",
      "outputs": [
        {
          "internalType": "string",
          "name": "",
          "type": "string"
        }
      ],
      "stateMutability": "view",
      "type": "function",
      "constant": true
    },
    {
      "inputs": [],
      "name": "borrowTime",
      "outputs": [
        {
          "internalType": "uint256",
          "name": "",
          "type": "uint256"
        }
      ],
      "stateMutability": "view",
      "type": "function",
      "constant": true
    },
    {
      "inputs": [
        {
          "internalType": "uint256",
          "name": "_loanInBrt",
          "type": "uint256"
        }
      ],
      "name": "calculateCollateral",
      "outputs": [
        {
          "internalType": "uint256",
          "name": "",
          "type": "uint256"
        }
      ],
      "stateMutability": "view",
      "type": "function",
      "constant": true
    },
    {
      "inputs": [
        {
          "internalType": "uint256",
          "name": "_collateralInEth",
          "type": "uint256"
        }
      ],
      "name": "calculateLoan",
      "outputs": [
        {
          "internalType": "uint256",
          "name": "",
          "type": "uint256"
        }
      ],
      "stateMutability": "view",
      "type": "function",
      "constant": true
    },
    {
      "inputs": [],
      "name": "collaterizationRatio",
      "outputs": [
        {
          "internalType": "uint8",
          "name": "",
          "type": "uint8"
        }
      ],
      "stateMutability": "view",
      "type": "function",
      "constant": true
    },
    {
      "inputs": [
        {
          "internalType": "uint256",
          "name": "priceInEth",
          "type": "uint256"
        }
      ],
      "name": "convertToBrtFromEth",
      "outputs": [
        {
          "internalType": "uint256",
          "name": "",
          "type": "uint256"
        }
      ],
      "stateMutability": "view",
      "type": "function",
      "constant": true
    },
    {
      "inputs": [
        {
          "internalType": "uint256",
          "name": "priceInBrt",
          "type": "uint256"
        }
      ],
      "name": "convertToEthFromBrt",
      "outputs": [
        {
          "internalType": "uint256",
          "name": "",
          "type": "uint256"
        }
      ],
      "stateMutability": "view",
      "type": "function",
      "constant": true
    },
    {
      "inputs": [],
      "name": "feePercent",
      "outputs": [
        {
          "internalType": "uint8",
          "name": "",
          "type": "uint8"
        }
      ],
      "stateMutability": "view",
      "type": "function",
      "constant": true
    },
    {
      "inputs": [
        {
          "internalType": "uint256",
          "name": "tokenId",
          "type": "uint256"
        }
      ],
      "name": "getApproved",
      "outputs": [
        {
          "internalType": "address",
          "name": "",
          "type": "address"
        }
      ],
      "stateMutability": "view",
      "type": "function",
      "constant": true
    },
    {
      "inputs": [
        {
          "internalType": "address",
          "name": "owner",
          "type": "address"
        },
        {
          "internalType": "address",
          "name": "operator",
          "type": "address"
        }
      ],
      "name": "isApprovedForAll",
      "outputs": [
        {
          "internalType": "bool",
          "name": "",
          "type": "bool"
        }
      ],
      "stateMutability": "view",
      "type": "function",
      "constant": true
    },
    {
      "inputs": [],
      "name": "name",
      "outputs": [
        {
          "internalType": "string",
          "name": "",
          "type": "string"
        }
      ],
      "stateMutability": "view",
      "type": "function",
      "constant": true
    },
    {
      "inputs": [
        {
          "internalType": "uint256",
          "name": "tokenId",
          "type": "uint256"
        }
      ],
      "name": "ownerOf",
      "outputs": [
        {
          "internalType": "address",
          "name": "",
          "type": "address"
        }
      ],
      "stateMutability": "view",
      "type": "function",
      "constant": true
    },
    {
      "inputs": [
        {
          "internalType": "address",
          "name": "operator",
          "type": "address"
        },
        {
          "internalType": "bool",
          "name": "approved",
          "type": "bool"
        }
      ],
      "name": "setApprovalForAll",
      "outputs": [],
      "stateMutability": "nonpayable",
      "type": "function"
    },
    {
      "inputs": [
        {
          "internalType": "bytes4",
          "name": "interfaceId",
          "type": "bytes4"
        }
      ],
      "name": "supportsInterface",
      "outputs": [
        {
          "internalType": "bool",
          "name": "",
          "type": "bool"
        }
      ],
      "stateMutability": "view",
      "type": "function",
      "constant": true
    },
    {
      "inputs": [],
      "name": "symbol",
      "outputs": [
        {
          "internalType": "string",
          "name": "",
          "type": "string"
        }
      ],
      "stateMutability": "view",
      "type": "function",
      "constant": true
    },
    {
      "inputs": [
        {
          "internalType": "uint256",
          "name": "index",
          "type": "uint256"
        }
      ],
      "name": "tokenByIndex",
      "outputs": [
        {
          "internalType": "uint256",
          "name": "",
          "type": "uint256"
        }
      ],
      "stateMutability": "view",
      "type": "function",
      "constant": true
    },
    {
      "inputs": [
        {
          "internalType": "address",
          "name": "owner",
          "type": "address"
        },
        {
          "internalType": "uint256",
          "name": "index",
          "type": "uint256"
        }
      ],
      "name": "tokenOfOwnerByIndex",
      "outputs": [
        {
          "internalType": "uint256",
          "name": "",
          "type": "uint256"
        }
      ],
      "stateMutability": "view",
      "type": "function",
      "constant": true
    },
    {
      "inputs": [
        {
          "internalType": "uint256",
          "name": "tokenId",
          "type": "uint256"
        }
      ],
      "name": "tokenURI",
      "outputs": [
        {
          "internalType": "string",
          "name": "",
          "type": "string"
        }
      ],
      "stateMutability": "view",
      "type": "function",
      "constant": true
    },
    {
      "inputs": [],
      "name": "totalSupply",
      "outputs": [
        {
          "internalType": "uint256",
          "name": "",
          "type": "uint256"
        }
      ],
      "stateMutability": "view",
      "type": "function",
      "constant": true
    },
    {
      "inputs": [],
      "name": "borrow",
      "outputs": [
        {
          "internalType": "uint256",
          "name": "",
          "type": "uint256"
        }
      ],
      "stateMutability": "payable",
      "type": "function",
      "payable": true
    },
    {
      "inputs": [
        {
          "internalType": "bytes",
          "name": "_params",
          "type": "bytes"
        }
      ],
      "name": "payback",
      "outputs": [],
      "stateMutability": "nonpayable",
      "type": "function"
    },
    {
      "inputs": [
        {
          "internalType": "uint256",
          "name": "loanId",
          "type": "uint256"
        }
      ],
      "name": "payback",
      "outputs": [],
      "stateMutability": "nonpayable",
      "type": "function"
    },
    {
      "inputs": [
        {
          "internalType": "address",
          "name": "addr",
          "type": "address"
        },
        {
          "internalType": "uint256",
          "name": "unixTimeStamp",
          "type": "uint256"
        }
      ],
      "name": "getActiveLoans",
      "outputs": [
        {
          "internalType": "uint256[]",
          "name": "",
          "type": "uint256[]"
        }
      ],
      "stateMutability": "view",
      "type": "function",
      "constant": true
    },
    {
      "inputs": [
        {
          "internalType": "uint256",
          "name": "loanId",
          "type": "uint256"
        },
        {
          "internalType": "uint256",
          "name": "unixTimeStamp",
          "type": "uint256"
        }
      ],
      "name": "isLoanExpiredAt",
      "outputs": [
        {
          "internalType": "bool",
          "name": "",
          "type": "bool"
        }
      ],
      "stateMutability": "view",
      "type": "function",
      "constant": true
    },
    {
      "inputs": [
        {
          "internalType": "uint256[]",
          "name": "_loanIds",
          "type": "uint256[]"
        },
        {
          "internalType": "uint256",
          "name": "unixTimeStamp",
          "type": "uint256"
        }
      ],
      "name": "isAnyExpired",
      "outputs": [
        {
          "internalType": "bool",
          "name": "",
          "type": "bool"
        }
      ],
      "stateMutability": "view",
      "type": "function",
      "constant": true
    },
    {
      "inputs": [
        {
          "internalType": "uint256",
          "name": "unixTimeStamp",
          "type": "uint256"
        }
      ],
      "name": "getExpiredLoanIds",
      "outputs": [
        {
          "internalType": "uint256[]",
          "name": "",
          "type": "uint256[]"
        }
      ],
      "stateMutability": "view",
      "type": "function",
      "constant": true
    },
    {
      "inputs": [
        {
          "internalType": "bytes",
          "name": "_params",
          "type": "bytes"
        }
      ],
      "name": "liquidate",
      "outputs": [],
      "stateMutability": "nonpayable",
      "type": "function"
    },
    {
      "inputs": [
        {
          "internalType": "uint256",
          "name": "loanId",
          "type": "uint256"
        }
      ],
      "name": "liquidate",
      "outputs": [],
      "stateMutability": "nonpayable",
      "type": "function"
    },
    {
      "inputs": [
        {
          "internalType": "uint256",
          "name": "loanId",
          "type": "uint256"
        }
      ],
      "name": "loanInfo",
      "outputs": [
        {
          "components": [
            {
              "internalType": "uint256",
              "name": "redemptionPrice",
              "type": "uint256"
            },
            {
              "internalType": "uint256",
              "name": "collateral",
              "type": "uint256"
            },
            {
              "internalType": "uint256",
              "name": "expires",
              "type": "uint256"
            }
          ],
          "internalType": "struct CollateralRedemptionToken.Collateral",
          "name": "",
          "type": "tuple"
        }
      ],
      "stateMutability": "view",
      "type": "function",
      "constant": true
    },
    {
      "inputs": [],
      "name": "getPoolBalance",
      "outputs": [
        {
          "internalType": "uint256",
          "name": "",
          "type": "uint256"
        }
      ],
      "stateMutability": "view",
      "type": "function",
      "constant": true
    },
    {
      "inputs": [
        {
          "internalType": "address",
          "name": "to",
          "type": "address"
        },
        {
          "internalType": "uint256",
          "name": "tokenId",
          "type": "uint256"
        }
      ],
      "name": "approve",
      "outputs": [],
      "stateMutability": "nonpayable",
      "type": "function"
    },
    {
      "inputs": [
        {
          "internalType": "address",
          "name": "from",
          "type": "address"
        },
        {
          "internalType": "address",
          "name": "to",
          "type": "address"
        },
        {
          "internalType": "uint256",
          "name": "tokenId",
          "type": "uint256"
        }
      ],
      "name": "transferFrom",
      "outputs": [],
      "stateMutability": "nonpayable",
      "type": "function"
    },
    {
      "inputs": [
        {
          "internalType": "address",
          "name": "from",
          "type": "address"
        },
        {
          "internalType": "address",
          "name": "to",
          "type": "address"
        },
        {
          "internalType": "uint256",
          "name": "tokenId",
          "type": "uint256"
        }
      ],
      "name": "safeTransferFrom",
      "outputs": [],
      "stateMutability": "nonpayable",
      "type": "function"
    },
    {
      "inputs": [
        {
          "internalType": "address",
          "name": "from",
          "type": "address"
        },
        {
          "internalType": "address",
          "name": "to",
          "type": "address"
        },
        {
          "internalType": "uint256",
          "name": "tokenId",
          "type": "uint256"
        },
        {
          "internalType": "bytes",
          "name": "_data",
          "type": "bytes"
        }
      ],
      "name": "safeTransferFrom",
      "outputs": [],
      "stateMutability": "nonpayable",
      "type": "function"
    }
  ],
  "bytecode": "0x6080604052607d6000806101000a81548160ff021916908360ff1602179055506096600060016101000a81548160ff021916908360ff1602179055506005600060026101000a81548160ff021916908360ff1602179055506104b0600c553480156200006a57600080fd5b506040516200561538038062005615833981810160405281019062000090919062000376565b6040518060400160405280601b81526020017f436f6c6c61746572616c20526564656d7074696f6e20546f6b656e00000000008152506040518060400160405280600381526020017f4352540000000000000000000000000000000000000000000000000000000000815250620001146301ffc9a760e01b620001d860201b60201c565b81600790805190602001906200012c929190620002b0565b50806008908051906020019062000145929190620002b0565b506200015e6380ac58cd60e01b620001d860201b60201c565b62000176635b5e139f60e01b620001d860201b60201c565b6200018e63780e9d6360e01b620001d860201b60201c565b505080600d60006101000a81548173ffffffffffffffffffffffffffffffffffffffff021916908373ffffffffffffffffffffffffffffffffffffffff1602179055505062000465565b63ffffffff60e01b817bffffffffffffffffffffffffffffffffffffffffffffffffffffffff1916141562000244576040517f08c379a00000000000000000000000000000000000000000000000000000000081526004016200023b90620003e4565b60405180910390fd5b6001806000837bffffffffffffffffffffffffffffffffffffffffffffffffffffffff19167bffffffffffffffffffffffffffffffffffffffffffffffffffffffff1916815260200190815260200160002060006101000a81548160ff02191690831515021790555050565b828054600181600116156101000203166002900490600052602060002090601f016020900481019282601f10620002f357805160ff191683800117855562000324565b8280016001018555821562000324579182015b828111156200032357825182559160200191906001019062000306565b5b50905062000333919062000337565b5090565b6200035c91905b80821115620003585760008160009055506001016200033e565b5090565b90565b60008151905062000370816200044b565b92915050565b6000602082840312156200038957600080fd5b600062000399848285016200035f565b91505092915050565b6000620003b1601c8362000406565b91507f4552433136353a20696e76616c696420696e74657266616365206964000000006000830152602082019050919050565b60006020820190508181036000830152620003ff81620003a2565b9050919050565b600082825260208201905092915050565b600062000424826200042b565b9050919050565b600073ffffffffffffffffffffffffffffffffffffffff82169050919050565b620004568162000417565b81146200046257600080fd5b50565b6151a080620004756000396000f3fe6080604052600436106102045760003560e01c80636352211e116101185780639e0f99d3116100a0578063b88d4fde1161006f578063b88d4fde146107ff578063c79cbbdc14610828578063c87b56dd14610865578063e68d3569146108a2578063e985e9c5146108c057610204565b80639e0f99d314610745578063a22cb46514610782578063a846c2fd146107ab578063abd70aa2146107d457610204565b80637fd6f15c116100e75780637fd6f15c146106385780638349d6be1461066357806392654f6d146106a0578063934dafd7146106dd57806395d89b411461071a57610204565b80636352211e146105565780636c0360eb1461059357806370168174146105be57806370a08231146105fb57610204565b806323b872dd1161019b57806342842e0e1161016a57806342842e0e1461044b57806343baccdb146104745780634f6ccce7146104b157806356059339146104ee5780635eb6b48d1461052b57610204565b806323b872dd1461037f5780632b542cc8146103a85780632f745c59146103e5578063415f12401461042257610204565b80631721539b116101d75780631721539b146102d757806318160ddd146103005780632187b23a1461032b578063225d685f1461035457610204565b806301ffc9a71461020957806306fdde0314610246578063081812fc14610271578063095ea7b3146102ae575b600080fd5b34801561021557600080fd5b50610230600480360381019061022b91906139f4565b6108fd565b60405161023d91906149d0565b60405180910390f35b34801561025257600080fd5b5061025b610965565b60405161026891906149eb565b60405180910390f35b34801561027d57600080fd5b5061029860048036038101906102939190613a87565b610a07565b6040516102a59190614887565b60405180910390f35b3480156102ba57600080fd5b506102d560048036038101906102d0919061393b565b610a8c565b005b3480156102e357600080fd5b506102fe60048036038101906102f99190613a46565b610bee565b005b34801561030c57600080fd5b50610315610c13565b6040516103229190614de8565b60405180910390f35b34801561033757600080fd5b50610352600480360381019061034d9190613a46565b610c24565b005b34801561036057600080fd5b50610369610c7d565b6040516103769190614de8565b60405180910390f35b34801561038b57600080fd5b506103a660048036038101906103a19190613835565b610c83565b005b3480156103b457600080fd5b506103cf60048036038101906103ca919061393b565b610d2d565b6040516103dc91906149ae565b60405180910390f35b3480156103f157600080fd5b5061040c6004803603810190610407919061393b565b610e2c565b6040516104199190614de8565b60405180910390f35b34801561042e57600080fd5b5061044960048036038101906104449190613a87565b610e87565b005b34801561045757600080fd5b50610472600480360381019061046d9190613835565b6110d3565b005b34801561048057600080fd5b5061049b60048036038101906104969190613a87565b61113d565b6040516104a89190614de8565b60405180910390f35b3480156104bd57600080fd5b506104d860048036038101906104d39190613a87565b61116f565b6040516104e59190614de8565b60405180910390f35b3480156104fa57600080fd5b5061051560048036038101906105109190613a87565b611192565b6040516105229190614de8565b60405180910390f35b34801561053757600080fd5b506105406111d3565b60405161054d9190614e48565b60405180910390f35b34801561056257600080fd5b5061057d60048036038101906105789190613a87565b6111e6565b60405161058a9190614887565b60405180910390f35b34801561059f57600080fd5b506105a861121d565b6040516105b591906149eb565b60405180910390f35b3480156105ca57600080fd5b506105e560048036038101906105e09190613b15565b6112bf565b6040516105f291906149d0565b60405180910390f35b34801561060757600080fd5b50610622600480360381019061061d91906137d0565b61137a565b60405161062f9190614de8565b60405180910390f35b34801561064457600080fd5b5061064d611439565b60405161065a9190614e48565b60405180910390f35b34801561066f57600080fd5b5061068a60048036038101906106859190613a87565b61144c565b6040516106979190614dcd565b60405180910390f35b3480156106ac57600080fd5b506106c760048036038101906106c29190613977565b61152e565b6040516106d491906149d0565b60405180910390f35b3480156106e957600080fd5b5061070460048036038101906106ff9190613a87565b6115cd565b6040516107119190614de8565b60405180910390f35b34801561072657600080fd5b5061072f61160e565b60405161073c91906149eb565b60405180910390f35b34801561075157600080fd5b5061076c60048036038101906107679190613a87565b6116b0565b60405161077991906149ae565b60405180910390f35b34801561078e57600080fd5b506107a960048036038101906107a491906138ff565b611774565b005b3480156107b757600080fd5b506107d260048036038101906107cd9190613a87565b6118f5565b005b3480156107e057600080fd5b506107e9611902565b6040516107f69190614de8565b60405180910390f35b34801561080b57600080fd5b5061082660048036038101906108219190613884565b6119b4565b005b34801561083457600080fd5b5061084f600480360381019061084a9190613a87565b611a60565b60405161085c9190614de8565b60405180910390f35b34801561087157600080fd5b5061088c60048036038101906108879190613a87565b611a92565b60405161089991906149eb565b60405180910390f35b6108aa611c1d565b6040516108b79190614de8565b60405180910390f35b3480156108cc57600080fd5b506108e760048036038101906108e291906137f9565b611de8565b6040516108f491906149d0565b60405180910390f35b600060016000837bffffffffffffffffffffffffffffffffffffffffffffffffffffffff19167bffffffffffffffffffffffffffffffffffffffffffffffffffffffff1916815260200190815260200160002060009054906101000a900460ff169050919050565b606060078054600181600116156101000203166002900480601f0160208091040260200160405190810160405280929190818152602001828054600181600116156101000203166002900480156109fd5780601f106109d2576101008083540402835291602001916109fd565b820191906000526020600020905b8154815290600101906020018083116109e057829003601f168201915b5050505050905090565b6000610a1282611e7c565b610a51576040517f08c379a0000000000000000000000000000000000000000000000000000000008152600401610a4890614c8d565b60405180910390fd5b6005600083815260200190815260200160002060009054906101000a900473ffffffffffffffffffffffffffffffffffffffff169050919050565b610a9681426112bf565b15610ad6576040517f08c379a0000000000000000000000000000000000000000000000000000000008152600401610acd90614bed565b60405180910390fd5b6000610ae1826111e6565b90508073ffffffffffffffffffffffffffffffffffffffff168373ffffffffffffffffffffffffffffffffffffffff161415610b52576040517f08c379a0000000000000000000000000000000000000000000000000000000008152600401610b4990614ced565b60405180910390fd5b8073ffffffffffffffffffffffffffffffffffffffff16610b71611e99565b73ffffffffffffffffffffffffffffffffffffffff161480610ba05750610b9f81610b9a611e99565b611de8565b5b610bdf576040517f08c379a0000000000000000000000000000000000000000000000000000000008152600401610bd690614b6d565b60405180910390fd5b610be98383611ea1565b505050565b600081806020019051810190610c049190613ab0565b9050610c0f81610e87565b5050565b6000610c1f6003611f5a565b905090565b60008082806020019051810190610c3b9190613ad9565b915091507f55092e6cc4938ce9f0acdaa9092b38cd6e54afca1671527784104006f7bcaae48183604051610c70929190614985565b60405180910390a1505050565b600c5481565b610c8d81426112bf565b15610ccd576040517f08c379a0000000000000000000000000000000000000000000000000000000008152600401610cc490614a6d565b60405180910390fd5b610cde610cd8611e99565b82611f6f565b610d1d576040517f08c379a0000000000000000000000000000000000000000000000000000000008152600401610d1490614d0d565b60405180910390fd5b610d2883838361204d565b505050565b606080610d3983612264565b67ffffffffffffffff81118015610d4f57600080fd5b50604051908082528060200260200182016040528015610d7e5781602001602082028036833780820191505090505b5090506001610d8c84612264565b10610e225760008090505b600b80549050811015610e20578473ffffffffffffffffffffffffffffffffffffffff16610dc4826111e6565b73ffffffffffffffffffffffffffffffffffffffff16148015610df4575060001515610df082866112bf565b1515145b15610e135780828281518110610e0657fe5b6020026020010181815250505b8080600101915050610d97565b505b8091505092915050565b6000610e7f82600260008673ffffffffffffffffffffffffffffffffffffffff1673ffffffffffffffffffffffffffffffffffffffff1681526020019081526020016000206122ed90919063ffffffff16565b905092915050565b610e9081611e7c565b610ecf576040517f08c379a0000000000000000000000000000000000000000000000000000000008152600401610ec690614b2d565b60405180910390fd5b6000610eda826111e6565b9050610ee682426112bf565b610f25576040517f08c379a0000000000000000000000000000000000000000000000000000000008152600401610f1c90614d4d565b60405180910390fd5b6000610f308361144c565b6000015190506000610f418461144c565b602001519050600d60009054906101000a900473ffffffffffffffffffffffffffffffffffffffff1673ffffffffffffffffffffffffffffffffffffffff166323b872dd3330856040518463ffffffff1660e01b8152600401610fa6939291906148a2565b602060405180830381600087803b158015610fc057600080fd5b505af1158015610fd4573d6000803e3d6000fd5b505050506040513d601f19601f82011682018060405250810190610ff891906139cb565b50600b848154811061100657fe5b906000526020600020906003020160008082016000905560018201600090556002820160009055505061103884612307565b3373ffffffffffffffffffffffffffffffffffffffff166108fc829081150290604051600060405180830381858888f1935050505015801561107e573d6000803e3d6000fd5b508273ffffffffffffffffffffffffffffffffffffffff167fa5ee7a2b0254fce91deed604506790ed7fa072d0b14cba4859c3bc8955b9caac856040516110c59190614de8565b60405180910390a250505050565b6110dd81426112bf565b1561111d576040517f08c379a000000000000000000000000000000000000000000000000000000000815260040161111490614a6d565b60405180910390fd5b611138838383604051806020016040528060008152506119b4565b505050565b6000806111646000809054906101000a900460ff1660ff168461244190919063ffffffff16565b905080915050919050565b6000806111868360036124b190919063ffffffff16565b50905080915050919050565b60008061119e83611a60565b905060006111c7600060019054906101000a900460ff1660ff16836124e090919063ffffffff16565b90508092505050919050565b600060019054906101000a900460ff1681565b6000611216826040518060600160405280602981526020016151426029913960036125109092919063ffffffff16565b9050919050565b6060600a8054600181600116156101000203166002900480601f0160208091040260200160405190810160405280929190818152602001828054600181600116156101000203166002900480156112b55780601f1061128a576101008083540402835291602001916112b5565b820191906000526020600020905b81548152906001019060200180831161129857829003601f168201915b5050505050905090565b6000600b805490508310611308576040517f08c379a00000000000000000000000000000000000000000000000000000000081526004016112ff90614d8d565b60405180910390fd5b61131183611e7c565b611350576040517f08c379a000000000000000000000000000000000000000000000000000000000815260040161134790614d6d565b60405180910390fd5b600b838154811061135d57fe5b906000526020600020906003020160020154821015905092915050565b60008073ffffffffffffffffffffffffffffffffffffffff168273ffffffffffffffffffffffffffffffffffffffff1614156113eb576040517f08c379a00000000000000000000000000000000000000000000000000000000081526004016113e290614b8d565b60405180910390fd5b611432600260008473ffffffffffffffffffffffffffffffffffffffff1673ffffffffffffffffffffffffffffffffffffffff16815260200190815260200160002061252f565b9050919050565b600060029054906101000a900460ff1681565b6114546135c3565b600b80549050821061149b576040517f08c379a000000000000000000000000000000000000000000000000000000000815260040161149290614d8d565b60405180910390fd5b6114a482611e7c565b6114e3576040517f08c379a00000000000000000000000000000000000000000000000000000000081526004016114da90614d6d565b60405180910390fd5b600b82815481106114f057fe5b906000526020600020906003020160405180606001604052908160008201548152602001600182015481526020016002820154815250509050919050565b6000600b8054905083511115611579576040517f08c379a000000000000000000000000000000000000000000000000000000000815260040161157090614b4d565b60405180910390fd5b600080600090505b84518110156115c2576115a785828151811061159957fe5b6020026020010151856112bf565b156115b557600191506115c2565b8080600101915050611581565b508091505092915050565b6000806115d98361113d565b90506000611602600060019054906101000a900460ff1660ff168361254490919063ffffffff16565b90508092505050919050565b606060088054600181600116156101000203166002900480601f0160208091040260200160405190810160405280929190818152602001828054600181600116156101000203166002900480156116a65780601f1061167b576101008083540402835291602001916116a6565b820191906000526020600020905b81548152906001019060200180831161168957829003601f168201915b5050505050905090565b606060006116bd83612574565b90506001811061176d5760608167ffffffffffffffff811180156116e057600080fd5b5060405190808252806020026020018201604052801561170f5781602001602082028036833780820191505090505b50905060008090505b600b80549050811015611762576001151561173382876112bf565b15151415611755578082828151811061174857fe5b6020026020010181815250505b8080600101915050611718565b50809250505061176f565b505b919050565b61177c611e99565b73ffffffffffffffffffffffffffffffffffffffff168273ffffffffffffffffffffffffffffffffffffffff1614156117ea576040517f08c379a00000000000000000000000000000000000000000000000000000000081526004016117e190614aed565b60405180910390fd5b80600660006117f7611e99565b73ffffffffffffffffffffffffffffffffffffffff1673ffffffffffffffffffffffffffffffffffffffff16815260200190815260200160002060008473ffffffffffffffffffffffffffffffffffffffff1673ffffffffffffffffffffffffffffffffffffffff16815260200190815260200160002060006101000a81548160ff0219169083151502179055508173ffffffffffffffffffffffffffffffffffffffff166118a4611e99565b73ffffffffffffffffffffffffffffffffffffffff167f17307eab39ab6107e8899845ad3d59bd9653f200f220920489ca2b5937696c31836040516118e991906149d0565b60405180910390a35050565b6118ff81336125be565b50565b6000600d60009054906101000a900473ffffffffffffffffffffffffffffffffffffffff1673ffffffffffffffffffffffffffffffffffffffff166370a08231306040518263ffffffff1660e01b815260040161195f9190614887565b60206040518083038186803b15801561197757600080fd5b505afa15801561198b573d6000803e3d6000fd5b505050506040513d601f19601f820116820180604052508101906119af9190613ab0565b905090565b6119be82426112bf565b156119fe576040517f08c379a00000000000000000000000000000000000000000000000000000000081526004016119f590614dad565b60405180910390fd5b611a0f611a09611e99565b83611f6f565b611a4e576040517f08c379a0000000000000000000000000000000000000000000000000000000008152600401611a4590614d0d565b60405180910390fd5b611a5a8484848461287e565b50505050565b600080611a876000809054906101000a900460ff1660ff16846128da90919063ffffffff16565b905080915050919050565b6060611a9d82611e7c565b611adc576040517f08c379a0000000000000000000000000000000000000000000000000000000008152600401611ad390614ccd565b60405180910390fd5b6060600960008481526020019081526020016000208054600181600116156101000203166002900480601f016020809104026020016040519081016040528092919081815260200182805460018160011615610100020316600290048015611b855780601f10611b5a57610100808354040283529160200191611b85565b820191906000526020600020905b815481529060010190602001808311611b6857829003601f168201915b505050505090506000600a8054600181600116156101000203166002900490501415611bb45780915050611c18565b600081511115611be957600a81604051602001611bd2929190614863565b604051602081830303815290604052915050611c18565b600a611bf484612924565b604051602001611c05929190614863565b6040516020818303038152906040529150505b919050565b600080611c29346115cd565b9050611c33611902565b8110611c74576040517f08c379a0000000000000000000000000000000000000000000000000000000008152600401611c6b90614c0d565b60405180910390fd5b6000611c9b600060029054906101000a900460ff1660ff16836124e090919063ffffffff16565b90506000611cb28284612a6b90919063ffffffff16565b90506000611ccb42600c54612a6b90919063ffffffff16565b9050600d60009054906101000a900473ffffffffffffffffffffffffffffffffffffffff1673ffffffffffffffffffffffffffffffffffffffff1663a9059cbb33866040518363ffffffff1660e01b8152600401611d2a929190614925565b602060405180830381600087803b158015611d4457600080fd5b505af1158015611d58573d6000803e3d6000fd5b505050506040513d601f19601f82011682018060405250810190611d7c91906139cb565b506000611d8a833484612ac0565b90503373ffffffffffffffffffffffffffffffffffffffff167f04074d3222dae133379f5d478e841f42f76914bc8ca39d25e0cd120b226710e682853486604051611dd89493929190614e03565b60405180910390a2505050505090565b6000600660008473ffffffffffffffffffffffffffffffffffffffff1673ffffffffffffffffffffffffffffffffffffffff16815260200190815260200160002060008373ffffffffffffffffffffffffffffffffffffffff1673ffffffffffffffffffffffffffffffffffffffff16815260200190815260200160002060009054906101000a900460ff16905092915050565b6000611e92826003612b4a90919063ffffffff16565b9050919050565b600033905090565b816005600083815260200190815260200160002060006101000a81548173ffffffffffffffffffffffffffffffffffffffff021916908373ffffffffffffffffffffffffffffffffffffffff160217905550808273ffffffffffffffffffffffffffffffffffffffff16611f14836111e6565b73ffffffffffffffffffffffffffffffffffffffff167f8c5be1e5ebec7d5bd14f71427d1e84f3dd0314c0f7b2291e5b200ac8c7c3b92560405160405180910390a45050565b6000611f6882600001612b64565b9050919050565b6000611f7a82611e7c565b611fb9576040517f08c379a0000000000000000000000000000000000000000000000000000000008152600401611fb090614b0d565b60405180910390fd5b6000611fc4836111e6565b90508073ffffffffffffffffffffffffffffffffffffffff168473ffffffffffffffffffffffffffffffffffffffff16148061203357508373ffffffffffffffffffffffffffffffffffffffff1661201b84610a07565b73ffffffffffffffffffffffffffffffffffffffff16145b8061204457506120438185611de8565b5b91505092915050565b8273ffffffffffffffffffffffffffffffffffffffff1661206d826111e6565b73ffffffffffffffffffffffffffffffffffffffff16146120c3576040517f08c379a00000000000000000000000000000000000000000000000000000000081526004016120ba90614cad565b60405180910390fd5b600073ffffffffffffffffffffffffffffffffffffffff168273ffffffffffffffffffffffffffffffffffffffff161415612133576040517f08c379a000000000000000000000000000000000000000000000000000000000815260040161212a90614acd565b60405180910390fd5b61213e838383612b75565b612149600082611ea1565b61219a81600260008673ffffffffffffffffffffffffffffffffffffffff1673ffffffffffffffffffffffffffffffffffffffff168152602001908152602001600020612b7a90919063ffffffff16565b506121ec81600260008573ffffffffffffffffffffffffffffffffffffffff1673ffffffffffffffffffffffffffffffffffffffff168152602001908152602001600020612b9490919063ffffffff16565b5061220381836003612bae9092919063ffffffff16565b50808273ffffffffffffffffffffffffffffffffffffffff168473ffffffffffffffffffffffffffffffffffffffff167fddf252ad1be2c89b69c2b068fc378daa952ba7f163c4a11628f55a4df523b3ef60405160405180910390a4505050565b60008060008090505b600b805490508110156122e3573373ffffffffffffffffffffffffffffffffffffffff1661229a826111e6565b73ffffffffffffffffffffffffffffffffffffffff161480156122ca5750600015156122c682866112bf565b1515145b156122d6576001820191505b808060010191505061226d565b5080915050919050565b60006122fc8360000183612be3565b60001c905092915050565b6000612312826111e6565b905061232081600084612b75565b61232b600083611ea1565b6000600960008481526020019081526020016000208054600181600116156101000203166002900490501461237a5760096000838152602001908152602001600020600061237991906135e4565b5b6123cb82600260008473ffffffffffffffffffffffffffffffffffffffff1673ffffffffffffffffffffffffffffffffffffffff168152602001908152602001600020612b7a90919063ffffffff16565b506123e0826003612c5090919063ffffffff16565b5081600073ffffffffffffffffffffffffffffffffffffffff168273ffffffffffffffffffffffffffffffffffffffff167fddf252ad1be2c89b69c2b068fc378daa952ba7f163c4a11628f55a4df523b3ef60405160405180910390a45050565b60008083141561245457600090506124ab565b600082840290508284828161246557fe5b04146124a6576040517f08c379a000000000000000000000000000000000000000000000000000000000815260040161249d90614c6d565b60405180910390fd5b809150505b92915050565b6000806000806124c48660000186612c6a565b915091508160001c8160001c8090509350935050509250929050565b600061250860646124fa848661244190919063ffffffff16565b6128da90919063ffffffff16565b905092915050565b6000612523846000018460001b84612ced565b60001c90509392505050565b600061253d82600001612d7e565b9050919050565b600061256c606461255e84866128da90919063ffffffff16565b61244190919063ffffffff16565b905092915050565b60008060008090505b600b805490508110156125b4576001151561259882866112bf565b151514156125a7576001820191505b808060010191505061257d565b5080915050919050565b6125c88183611f6f565b612607576040517f08c379a00000000000000000000000000000000000000000000000000000000081526004016125fe90614a4d565b60405180910390fd5b61261182426112bf565b15612651576040517f08c379a000000000000000000000000000000000000000000000000000000000815260040161264890614bcd565b60405180910390fd5b600161265c8261137a565b101561269d576040517f08c379a000000000000000000000000000000000000000000000000000000000815260040161269490614bad565b60405180910390fd5b6126a682611e7c565b6126e5576040517f08c379a00000000000000000000000000000000000000000000000000000000081526004016126dc90614d6d565b60405180910390fd5b60006126f08361144c565b60000151905060006127018461144c565b600001519050600d60009054906101000a900473ffffffffffffffffffffffffffffffffffffffff1673ffffffffffffffffffffffffffffffffffffffff166323b872dd8430856040518463ffffffff1660e01b81526004016127669392919061494e565b602060405180830381600087803b15801561278057600080fd5b505af1158015612794573d6000803e3d6000fd5b505050506040513d601f19601f820116820180604052508101906127b891906139cb565b50600b84815481106127c657fe5b90600052602060002090600302016000808201600090556001820160009055600282016000905550506127f884612307565b8273ffffffffffffffffffffffffffffffffffffffff166108fc829081150290604051600060405180830381858888f1935050505015801561283e573d6000803e3d6000fd5b507f55092e6cc4938ce9f0acdaa9092b38cd6e54afca1671527784104006f7bcaae43085604051612870929190614985565b60405180910390a150505050565b61288984848461204d565b61289584848484612d8f565b6128d4576040517f08c379a00000000000000000000000000000000000000000000000000000000081526004016128cb90614a2d565b60405180910390fd5b50505050565b600061291c83836040518060400160405280601a81526020017f536166654d6174683a206469766973696f6e206279207a65726f000000000000815250612ef3565b905092915050565b6060600082141561296c576040518060400160405280600181526020017f30000000000000000000000000000000000000000000000000000000000000008152509050612a66565b600082905060005b60008214612996578080600101915050600a828161298e57fe5b049150612974565b60608167ffffffffffffffff811180156129af57600080fd5b506040519080825280601f01601f1916602001820160405280156129e25781602001600182028036833780820191505090505b50905060006001830390508593505b60008414612a5e57600a8481612a0357fe5b0660300160f81b82828060019003935081518110612a1d57fe5b60200101907effffffffffffffffffffffffffffffffffffffffffffffffffffffffffffff1916908160001a905350600a8481612a5657fe5b0493506129f1565b819450505050505b919050565b600080828401905083811015612ab6576040517f08c379a0000000000000000000000000000000000000000000000000000000008152600401612aad90614aad565b60405180910390fd5b8091505092915050565b6000600b6040518060600160405280868152602001858152602001848152509080600181540180825580915050600190039060005260206000209060030201600090919091909150600082015181600001556020820151816001015560408201518160020155505060006001600b80549050039050612b3f3382612f54565b809150509392505050565b6000612b5c836000018360001b6130e2565b905092915050565b600081600001805490509050919050565b505050565b6000612b8c836000018360001b613105565b905092915050565b6000612ba6836000018360001b6131ed565b905092915050565b6000612bda846000018460001b8473ffffffffffffffffffffffffffffffffffffffff1660001b61325d565b90509392505050565b600081836000018054905011612c2e576040517f08c379a0000000000000000000000000000000000000000000000000000000008152600401612c2590614a0d565b60405180910390fd5b826000018281548110612c3d57fe5b9060005260206000200154905092915050565b6000612c62836000018360001b613339565b905092915050565b60008082846000018054905011612cb6576040517f08c379a0000000000000000000000000000000000000000000000000000000008152600401612cad90614c2d565b60405180910390fd5b6000846000018481548110612cc757fe5b906000526020600020906002020190508060000154816001015492509250509250929050565b60008084600101600085815260200190815260200160002054905060008114158390612d4f576040517f08c379a0000000000000000000000000000000000000000000000000000000008152600401612d4691906149eb565b60405180910390fd5b50846000016001820381548110612d6257fe5b9060005260206000209060020201600101549150509392505050565b600081600001805490509050919050565b6000612db08473ffffffffffffffffffffffffffffffffffffffff16613452565b612dbd5760019050612eeb565b6060612e8463150b7a0260e01b612dd2611e99565b888787604051602401612de894939291906148d9565b604051602081830303815290604052907bffffffffffffffffffffffffffffffffffffffffffffffffffffffff19166020820180517bffffffffffffffffffffffffffffffffffffffffffffffffffffffff8381831617835250505050604051806060016040528060328152602001615110603291398773ffffffffffffffffffffffffffffffffffffffff166134659092919063ffffffff16565b9050600081806020019051810190612e9c9190613a1d565b905063150b7a0260e01b7bffffffffffffffffffffffffffffffffffffffffffffffffffffffff1916817bffffffffffffffffffffffffffffffffffffffffffffffffffffffff191614925050505b949350505050565b60008083118290612f3a576040517f08c379a0000000000000000000000000000000000000000000000000000000008152600401612f3191906149eb565b60405180910390fd5b506000838581612f4657fe5b049050809150509392505050565b600073ffffffffffffffffffffffffffffffffffffffff168273ffffffffffffffffffffffffffffffffffffffff161415612fc4576040517f08c379a0000000000000000000000000000000000000000000000000000000008152600401612fbb90614c4d565b60405180910390fd5b612fcd81611e7c565b1561300d576040517f08c379a000000000000000000000000000000000000000000000000000000000815260040161300490614a8d565b60405180910390fd5b61301960008383612b75565b61306a81600260008573ffffffffffffffffffffffffffffffffffffffff1673ffffffffffffffffffffffffffffffffffffffff168152602001908152602001600020612b9490919063ffffffff16565b5061308181836003612bae9092919063ffffffff16565b50808273ffffffffffffffffffffffffffffffffffffffff16600073ffffffffffffffffffffffffffffffffffffffff167fddf252ad1be2c89b69c2b068fc378daa952ba7f163c4a11628f55a4df523b3ef60405160405180910390a45050565b600080836001016000848152602001908152602001600020541415905092915050565b600080836001016000848152602001908152602001600020549050600081146131e1576000600182039050600060018660000180549050039050600086600001828154811061315057fe5b906000526020600020015490508087600001848154811061316d57fe5b90600052602060002001819055506001830187600101600083815260200190815260200160002081905550866000018054806131a557fe5b600190038181906000526020600020016000905590558660010160008781526020019081526020016000206000905560019450505050506131e7565b60009150505b92915050565b60006131f9838361347d565b613252578260000182908060018154018082558091505060019003906000526020600020016000909190919091505582600001805490508360010160008481526020019081526020016000208190555060019050613257565b600090505b92915050565b600080846001016000858152602001908152602001600020549050600081141561330457846000016040518060400160405280868152602001858152509080600181540180825580915050600190039060005260206000209060020201600090919091909150600082015181600001556020820151816001015550508460000180549050856001016000868152602001908152602001600020819055506001915050613332565b8285600001600183038154811061331757fe5b90600052602060002090600202016001018190555060009150505b9392505050565b60008083600101600084815260200190815260200160002054905060008114613446576000600182039050600060018660000180549050039050600086600001828154811061338457fe5b90600052602060002090600202019050808760000184815481106133a457fe5b90600052602060002090600202016000820154816000015560018201548160010155905050600183018760010160008360000154815260200190815260200160002081905550866000018054806133f757fe5b600190038181906000526020600020906002020160008082016000905560018201600090555050905586600101600087815260200190815260200160002060009055600194505050505061344c565b60009150505b92915050565b600080823b905060008111915050919050565b606061347484846000856134a0565b90509392505050565b600080836001016000848152602001908152602001600020541415905092915050565b60606134ab85613452565b6134ea576040517f08c379a00000000000000000000000000000000000000000000000000000000081526004016134e190614d2d565b60405180910390fd5b600060608673ffffffffffffffffffffffffffffffffffffffff168587604051613514919061484c565b60006040518083038185875af1925050503d8060008114613551576040519150601f19603f3d011682016040523d82523d6000602084013e613556565b606091505b5091509150811561356b5780925050506135bb565b60008151111561357e5780518082602001fd5b836040517f08c379a00000000000000000000000000000000000000000000000000000000081526004016135b291906149eb565b60405180910390fd5b949350505050565b60405180606001604052806000815260200160008152602001600081525090565b50805460018160011615610100020316600290046000825580601f1061360a5750613629565b601f016020900490600052602060002090810190613628919061362c565b5b50565b61364e91905b8082111561364a576000816000905550600101613632565b5090565b90565b6000813590506136608161509c565b92915050565b600081519050613675816150b3565b92915050565b600082601f83011261368c57600080fd5b813561369f61369a82614e90565b614e63565b915081818352602084019350602081019050838560208402820111156136c457600080fd5b60005b838110156136f457816136da88826137a6565b8452602084019350602083019250506001810190506136c7565b5050505092915050565b60008135905061370d816150ca565b92915050565b600081519050613722816150ca565b92915050565b600081359050613737816150e1565b92915050565b60008151905061374c816150e1565b92915050565b600082601f83011261376357600080fd5b813561377661377182614eb8565b614e63565b9150808252602083016020830185838301111561379257600080fd5b61379d838284615049565b50505092915050565b6000813590506137b5816150f8565b92915050565b6000815190506137ca816150f8565b92915050565b6000602082840312156137e257600080fd5b60006137f084828501613651565b91505092915050565b6000806040838503121561380c57600080fd5b600061381a85828601613651565b925050602061382b85828601613651565b9150509250929050565b60008060006060848603121561384a57600080fd5b600061385886828701613651565b935050602061386986828701613651565b925050604061387a868287016137a6565b9150509250925092565b6000806000806080858703121561389a57600080fd5b60006138a887828801613651565b94505060206138b987828801613651565b93505060406138ca878288016137a6565b925050606085013567ffffffffffffffff8111156138e757600080fd5b6138f387828801613752565b91505092959194509250565b6000806040838503121561391257600080fd5b600061392085828601613651565b9250506020613931858286016136fe565b9150509250929050565b6000806040838503121561394e57600080fd5b600061395c85828601613651565b925050602061396d858286016137a6565b9150509250929050565b6000806040838503121561398a57600080fd5b600083013567ffffffffffffffff8111156139a457600080fd5b6139b08582860161367b565b92505060206139c1858286016137a6565b9150509250929050565b6000602082840312156139dd57600080fd5b60006139eb84828501613713565b91505092915050565b600060208284031215613a0657600080fd5b6000613a1484828501613728565b91505092915050565b600060208284031215613a2f57600080fd5b6000613a3d8482850161373d565b91505092915050565b600060208284031215613a5857600080fd5b600082013567ffffffffffffffff811115613a7257600080fd5b613a7e84828501613752565b91505092915050565b600060208284031215613a9957600080fd5b6000613aa7848285016137a6565b91505092915050565b600060208284031215613ac257600080fd5b6000613ad0848285016137bb565b91505092915050565b60008060408385031215613aec57600080fd5b6000613afa858286016137bb565b9250506020613b0b85828601613666565b9150509250929050565b60008060408385031215613b2857600080fd5b6000613b36858286016137a6565b9250506020613b47858286016137a6565b9150509250929050565b6000613b5d838361481f565b60208301905092915050565b613b7281615013565b82525050565b613b8181614f92565b82525050565b613b9081614f80565b82525050565b6000613ba182614f09565b613bab8185614f37565b9350613bb683614ee4565b8060005b83811015613be7578151613bce8882613b51565b9750613bd983614f2a565b925050600181019050613bba565b5085935050505092915050565b613bfd81614fa4565b82525050565b6000613c0e82614f14565b613c188185614f48565b9350613c28818560208601615058565b613c318161508b565b840191505092915050565b6000613c4782614f14565b613c518185614f59565b9350613c61818560208601615058565b80840191505092915050565b6000613c7882614f1f565b613c828185614f64565b9350613c92818560208601615058565b613c9b8161508b565b840191505092915050565b6000613cb182614f1f565b613cbb8185614f75565b9350613ccb818560208601615058565b80840191505092915050565b600081546001811660008114613cf45760018114613d1957613d5d565b607f6002830416613d058187614f75565b955060ff1983168652808601935050613d5d565b60028204613d278187614f75565b9550613d3285614ef4565b60005b82811015613d5457815481890152600182019150602081019050613d35565b82880195505050505b505092915050565b6000613d72602283614f64565b91507f456e756d657261626c655365743a20696e646578206f7574206f6620626f756e60008301527f64730000000000000000000000000000000000000000000000000000000000006020830152604082019050919050565b6000613dd8603283614f64565b91507f4552433732313a207472616e7366657220746f206e6f6e20455243373231526560008301527f63656976657220696d706c656d656e74657200000000000000000000000000006020830152604082019050919050565b6000613e3e602e83614f64565b91507f4572726f7220636f6c6c61746572616c20646f65736e742062656c6f6e67207460008301527f6f207468697320616464726573730000000000000000000000000000000000006020830152604082019050919050565b6000613ea4602783614f64565b91507f4572726f723a2063616e74207472616e73666572206578706972656420636f6c60008301527f6c61746572616c000000000000000000000000000000000000000000000000006020830152604082019050919050565b6000613f0a601c83614f64565b91507f4552433732313a20746f6b656e20616c7265616479206d696e746564000000006000830152602082019050919050565b6000613f4a601b83614f64565b91507f536166654d6174683a206164646974696f6e206f766572666c6f7700000000006000830152602082019050919050565b6000613f8a602483614f64565b91507f4552433732313a207472616e7366657220746f20746865207a65726f2061646460008301527f72657373000000000000000000000000000000000000000000000000000000006020830152604082019050919050565b6000613ff0601983614f64565b91507f4552433732313a20617070726f766520746f2063616c6c6572000000000000006000830152602082019050919050565b6000614030602c83614f64565b91507f4552433732313a206f70657261746f7220717565727920666f72206e6f6e657860008301527f697374656e7420746f6b656e00000000000000000000000000000000000000006020830152604082019050919050565b6000614096602c83614f64565b91507f4572726f722063616e74206c69717564617465206c6f616e207468617420646f60008301527f6573206e6f7420657869737400000000000000000000000000000000000000006020830152604082019050919050565b60006140fc603c83614f64565b91507f4572726f723a206e756d626572206f6620696420706172616d6574657273206560008301527f786365656473206e756d626572206f6620636f6c6c61746572616c73000000006020830152604082019050919050565b6000614162603883614f64565b91507f4552433732313a20617070726f76652063616c6c6572206973206e6f74206f7760008301527f6e6572206e6f7220617070726f76656420666f7220616c6c00000000000000006020830152604082019050919050565b60006141c8602a83614f64565b91507f4552433732313a2062616c616e636520717565727920666f7220746865207a6560008301527f726f2061646472657373000000000000000000000000000000000000000000006020830152604082019050919050565b600061422e602083614f64565b91507f796f7520646f206e6f74206861766520616e792065786974696e67206c6f616e6000830152602082019050919050565b600061426e601683614f64565b91507f4572726f723a6c6f616e206861732065787069726564000000000000000000006000830152602082019050919050565b60006142ae603383614f64565b91507f4572726f723a2063616e7420617070726f7665206578706972656420636f6c6c60008301527f61746572616c20666f72207472616e73666572000000000000000000000000006020830152604082019050919050565b6000614314602483614f64565b91507f63616e7420626f72726f77206d6f7265207468616e20706f6f6c206c6971756960008301527f64697479000000000000000000000000000000000000000000000000000000006020830152604082019050919050565b600061437a602283614f64565b91507f456e756d657261626c654d61703a20696e646578206f7574206f6620626f756e60008301527f64730000000000000000000000000000000000000000000000000000000000006020830152604082019050919050565b60006143e0602083614f64565b91507f4552433732313a206d696e7420746f20746865207a65726f20616464726573736000830152602082019050919050565b6000614420602183614f64565b91507f536166654d6174683a206d756c7469706c69636174696f6e206f766572666c6f60008301527f77000000000000000000000000000000000000000000000000000000000000006020830152604082019050919050565b6000614486602c83614f64565b91507f4552433732313a20617070726f76656420717565727920666f72206e6f6e657860008301527f697374656e7420746f6b656e00000000000000000000000000000000000000006020830152604082019050919050565b60006144ec602983614f64565b91507f4552433732313a207472616e73666572206f6620746f6b656e2074686174206960008301527f73206e6f74206f776e00000000000000000000000000000000000000000000006020830152604082019050919050565b6000614552602f83614f64565b91507f4552433732314d657461646174613a2055524920717565727920666f72206e6f60008301527f6e6578697374656e7420746f6b656e00000000000000000000000000000000006020830152604082019050919050565b60006145b8602183614f64565b91507f4552433732313a20617070726f76616c20746f2063757272656e74206f776e6560008301527f72000000000000000000000000000000000000000000000000000000000000006020830152604082019050919050565b600061461e603183614f64565b91507f4552433732313a207472616e736665722063616c6c6572206973206e6f74206f60008301527f776e6572206e6f7220617070726f7665640000000000000000000000000000006020830152604082019050919050565b6000614684601d83614f64565b91507f416464726573733a2063616c6c20746f206e6f6e2d636f6e74726163740000006000830152602082019050919050565b60006146c4601b83614f64565b91507f4572726f723a206c6f616e20686173206e6f74206578706972656400000000006000830152602082019050919050565b6000614704601d83614f64565b91507f4572726f723a206c6f616e20696420646f6573206e6f742065786973740000006000830152602082019050919050565b6000614744601683614f64565b91507f4572726f723a20696e76616c6964206c6f616e206964000000000000000000006000830152602082019050919050565b6000614784602c83614f64565b91507f4572726f723a2063616e74207472616e73666572206578706972656420636f6c60008301527f6c61746572616c20666f722000000000000000000000000000000000000000006020830152604082019050919050565b6060820160008201516147f3600085018261481f565b506020820151614806602085018261481f565b506040820151614819604085018261481f565b50505050565b61482881614ffc565b82525050565b61483781614ffc565b82525050565b61484681615006565b82525050565b60006148588284613c3c565b915081905092915050565b600061486f8285613cd7565b915061487b8284613ca6565b91508190509392505050565b600060208201905061489c6000830184613b87565b92915050565b60006060820190506148b76000830186613b69565b6148c46020830185613b87565b6148d1604083018461482e565b949350505050565b60006080820190506148ee6000830187613b78565b6148fb6020830186613b87565b614908604083018561482e565b818103606083015261491a8184613c03565b905095945050505050565b600060408201905061493a6000830185613b69565b614947602083018461482e565b9392505050565b60006060820190506149636000830186613b87565b6149706020830185613b87565b61497d604083018461482e565b949350505050565b600060408201905061499a6000830185613b87565b6149a7602083018461482e565b9392505050565b600060208201905081810360008301526149c88184613b96565b905092915050565b60006020820190506149e56000830184613bf4565b92915050565b60006020820190508181036000830152614a058184613c6d565b905092915050565b60006020820190508181036000830152614a2681613d65565b9050919050565b60006020820190508181036000830152614a4681613dcb565b9050919050565b60006020820190508181036000830152614a6681613e31565b9050919050565b60006020820190508181036000830152614a8681613e97565b9050919050565b60006020820190508181036000830152614aa681613efd565b9050919050565b60006020820190508181036000830152614ac681613f3d565b9050919050565b60006020820190508181036000830152614ae681613f7d565b9050919050565b60006020820190508181036000830152614b0681613fe3565b9050919050565b60006020820190508181036000830152614b2681614023565b9050919050565b60006020820190508181036000830152614b4681614089565b9050919050565b60006020820190508181036000830152614b66816140ef565b9050919050565b60006020820190508181036000830152614b8681614155565b9050919050565b60006020820190508181036000830152614ba6816141bb565b9050919050565b60006020820190508181036000830152614bc681614221565b9050919050565b60006020820190508181036000830152614be681614261565b9050919050565b60006020820190508181036000830152614c06816142a1565b9050919050565b60006020820190508181036000830152614c2681614307565b9050919050565b60006020820190508181036000830152614c468161436d565b9050919050565b60006020820190508181036000830152614c66816143d3565b9050919050565b60006020820190508181036000830152614c8681614413565b9050919050565b60006020820190508181036000830152614ca681614479565b9050919050565b60006020820190508181036000830152614cc6816144df565b9050919050565b60006020820190508181036000830152614ce681614545565b9050919050565b60006020820190508181036000830152614d06816145ab565b9050919050565b60006020820190508181036000830152614d2681614611565b9050919050565b60006020820190508181036000830152614d4681614677565b9050919050565b60006020820190508181036000830152614d66816146b7565b9050919050565b60006020820190508181036000830152614d86816146f7565b9050919050565b60006020820190508181036000830152614da681614737565b9050919050565b60006020820190508181036000830152614dc681614777565b9050919050565b6000606082019050614de260008301846147dd565b92915050565b6000602082019050614dfd600083018461482e565b92915050565b6000608082019050614e18600083018761482e565b614e25602083018661482e565b614e32604083018561482e565b614e3f606083018461482e565b95945050505050565b6000602082019050614e5d600083018461483d565b92915050565b6000604051905081810181811067ffffffffffffffff82111715614e8657600080fd5b8060405250919050565b600067ffffffffffffffff821115614ea757600080fd5b602082029050602081019050919050565b600067ffffffffffffffff821115614ecf57600080fd5b601f19601f8301169050602081019050919050565b6000819050602082019050919050565b60008190508160005260206000209050919050565b600081519050919050565b600081519050919050565b600081519050919050565b6000602082019050919050565b600082825260208201905092915050565b600082825260208201905092915050565b600081905092915050565b600082825260208201905092915050565b600081905092915050565b6000614f8b82614fdc565b9050919050565b6000614f9d82614fdc565b9050919050565b60008115159050919050565b60007fffffffff0000000000000000000000000000000000000000000000000000000082169050919050565b600073ffffffffffffffffffffffffffffffffffffffff82169050919050565b6000819050919050565b600060ff82169050919050565b600061501e82615025565b9050919050565b600061503082615037565b9050919050565b600061504282614fdc565b9050919050565b82818337600083830152505050565b60005b8381101561507657808201518184015260208101905061505b565b83811115615085576000848401525b50505050565b6000601f19601f8301169050919050565b6150a581614f80565b81146150b057600080fd5b50565b6150bc81614f92565b81146150c757600080fd5b50565b6150d381614fa4565b81146150de57600080fd5b50565b6150ea81614fb0565b81146150f557600080fd5b50565b61510181614ffc565b811461510c57600080fd5b5056fe4552433732313a207472616e7366657220746f206e6f6e20455243373231526563656976657220696d706c656d656e7465724552433732313a206f776e657220717565727920666f72206e6f6e6578697374656e7420746f6b656ea2646970667358221220003a17b7f4f4e4f2a5e3c80033c7f11cdbf33849eaa97ae1356756cb06cc6a7c64736f6c63430006060033",
  "immutableReferences": {},
  "source": "pragma solidity ^0.6.0;\r\npragma experimental ABIEncoderV2;\r\nimport '@openzeppelin/contracts/math/SafeMath.sol';\r\nimport './libraries/SafePercentage.sol';\r\nimport './BRTPOOLUTILS.sol';\r\nimport './tokens/CollateralRedemptionToken.sol';\r\nimport '@openzeppelin/contracts/token/ERC20/ERC20.sol';\r\nimport '@openzeppelin/contracts/token/ERC20/IERC20.sol';\r\ncontract BRTPOOL is BRTPOOLUTILS ,CollateralRedemptionToken{\r\n    using SafePercentage for uint;\r\n    using SafeMath for uint;\r\n    IERC20 token;\r\n    constructor(address tokenAddr) public{\r\n      token = IERC20(tokenAddr);\r\n    }\r\n    event Borrowed(address indexed borrower,uint loanId,  uint redemptionPrice,uint collateral,uint expires);\r\n    event Liquidated(address indexed borrower,uint  loanId);\r\n    event PayBack(address spender,uint loanId);\r\n    function borrow() public  payable\r\n    returns(uint)\r\n    {\r\n        uint loan = calculateLoan(msg.value);\r\n        require(loan < getPoolBalance(),'cant borrow more than pool liquidity');\r\n        uint fee=loan.percentMul(feePercent);\r\n        uint redemptionPrice =loan.add(fee);\r\n        uint expires=borrowTime.add(block.timestamp);\r\n\r\n       \r\n        token.transfer(msg.sender,loan); \r\n        uint id = _issueCollateralToken(redemptionPrice, msg.value, expires);\r\n        emit Borrowed(msg.sender,id,redemptionPrice,msg.value,expires);\r\n    }\r\n\r\n//   1603910689\r\n\r\n   \r\n    function payback(uint loanId) public{\r\n         _payback(loanId, msg.sender);\r\n         \r\n    }  \r\n     function _payback(uint loanId,address payer) internal{\r\n         require(_isApprovedOrOwner(payer, loanId),'Error collateral doesnt belong to this address');\r\n         require(!isLoanExpiredAt(loanId,block.timestamp),'Error:loan has expired');\r\n         require(balanceOf(payer) >= 1,'you do not have any exiting loan');\r\n         require(_exists(loanId),'Error: loan id does not exist');\r\n        \r\n        \r\n         uint _redemptionPrice= loanInfo(loanId).redemptionPrice;\r\n         uint _collateral= loanInfo(loanId).redemptionPrice;\r\n         token.transferFrom(payer,address(this),_redemptionPrice);\r\n         delete _collaterals[loanId];\r\n         _burn(loanId);\r\n         payable(payer).transfer(_collateral);     \r\n         emit PayBack(address(this),loanId);     \r\n         \r\n    }  \r\n\r\n    function payback(bytes memory _params) public{\r\n\r\n      \r\n       (uint _loanId,address _payer)=abi.decode(_params,(uint,address));\r\n       emit PayBack(_payer,_loanId);  \r\n    \r\n    //    _payback(_loanId,_payer); \r\n      \r\n    }\r\n\r\n\r\n    function getActiveLoans(address addr,uint unixTimeStamp) external view\r\n    returns(uint[] memory)\r\n    {  \r\n     \r\n       uint[] memory _loans= new uint[](_loanCounter(unixTimeStamp));\r\n       if(_loanCounter(unixTimeStamp) >= 1){\r\n\r\n         for(uint i =0;i < _collaterals.length;i++){\r\n         if(ownerOf(i) == addr && isLoanExpiredAt(i,unixTimeStamp) == false){\r\n            _loans[i]=i;\r\n         }\r\n\r\n                }\r\n     \r\n\r\n       }\r\n        return _loans;\r\n       \r\n    }\r\n\r\n    function _loanCounter(uint unixTimeStamp) private view\r\n    returns(uint)\r\n    {\r\n       uint _count;\r\n       for(uint i =0;i < _collaterals.length;i++){\r\n         if(ownerOf(i) == msg.sender && isLoanExpiredAt(i,unixTimeStamp) == false){\r\n            _count = _count + 1;\r\n         }\r\n       }\r\n       return _count;\r\n\r\n    }\r\n\r\n\r\n    function isLoanExpiredAt(uint loanId,uint unixTimeStamp) public view\r\n    returns(bool)\r\n    {  \r\n       \r\n       require(loanId < _collaterals.length,'Error: invalid loan id');\r\n    //    require(_collaterals[loanId].expires != 0,'Error: collateral does not exist');\r\n       require(_exists(loanId),'Error: loan id does not exist');\r\n       return unixTimeStamp  >=  _collaterals[loanId].expires;\r\n\r\n    }\r\n\r\n    \r\n\r\n     \r\n\r\n    function isAnyExpired(uint[] memory _loanIds,uint unixTimeStamp) public view\r\n    returns(bool)\r\n    { \r\n      require(_loanIds.length <= _collaterals.length,'Error: number of id parameters exceeds number of collaterals');\r\n      bool _isExpired;\r\n      for(uint i =0;i < _loanIds.length;i++){\r\n          if(isLoanExpiredAt(_loanIds[i],unixTimeStamp)){\r\n              _isExpired =true;\r\n              break;\r\n          }\r\n      }\r\n      return _isExpired;\r\n    } \r\n\r\n    function getExpiredLoanIds(uint unixTimeStamp) public view\r\n    returns(uint[] memory)\r\n    {\r\n       uint _numberOfExpiredLoans =_expiredLoanCounter(unixTimeStamp);\r\n       if( _numberOfExpiredLoans >= 1){\r\n         uint[] memory _expiredLoanIds = new uint[](_numberOfExpiredLoans);\r\n                 for(uint i = 0; i < _collaterals.length; i++){\r\n           if(isLoanExpiredAt(i,unixTimeStamp) == true){\r\n             _expiredLoanIds[i] = i;\r\n           }\r\n       }\r\n       return _expiredLoanIds;\r\n\r\n       }\r\n       \r\n    //    require(_numberOfExpiredLoans >= 1,'Error No Expired loans found');\r\n      \r\n\r\n    }\r\n   \r\n\r\n   function liquidate(uint loanId) public {\r\n       require(_exists(loanId),'Error cant liqudate loan that does not exist');\r\n       address _previousOwner=ownerOf(loanId);\r\n       require(isLoanExpiredAt(loanId,block.timestamp),'Error: loan has not expired');\r\n      \r\n     \r\n       uint redemptionPrice=loanInfo(loanId).redemptionPrice;\r\n       uint collateral=loanInfo(loanId).collateral;\r\n       token.transferFrom(msg.sender,address(this),redemptionPrice);\r\n       delete _collaterals[loanId];\r\n       _burn(loanId);\r\n   \r\n       msg.sender.transfer(collateral);\r\n       emit Liquidated(_previousOwner,loanId);\r\n   }\r\n   \r\n   function liquidate(bytes memory _params) public{\r\n \r\n    (uint _loanId)=abi.decode(_params,(uint));\r\n    liquidate(_loanId);\r\n   }\r\n  \r\n    \r\n    \r\n    function loanInfo(uint loanId) public view\r\n    returns(Collateral memory)\r\n    {  \r\n       require(loanId < _collaterals.length,'Error: invalid loan id');\r\n       require(_exists(loanId),'Error: loan id does not exist');\r\n       return _collaterals[loanId];\r\n    }\r\n    function getPoolBalance() public view\r\n    returns(uint)\r\n    {\r\n    \r\n        return  token.balanceOf(address(this));\r\n    }\r\n    \r\n     function _expiredLoanCounter(uint unixTimeStamp) internal view\r\n    returns(uint)\r\n    {\r\n        uint _count;\r\n        for(uint i = 0; i < _collaterals.length; i++){\r\n           if(isLoanExpiredAt(i,unixTimeStamp) == true){\r\n             _count= _count + 1;\r\n           }\r\n        }\r\n       return _count;\r\n       \r\n   }\r\n\r\n\r\n\r\n\r\n\r\n\r\n\r\n\r\n\r\n\r\n\r\n\r\n\r\n\r\n\r\n\r\n    //  CUSTOM ERC20 IMPLEMETATION THAT PREVENTS TRANSFER AND APPROVAL OF EXPIRED LOAN\r\n\r\n     function approve(address to, uint256 tokenId) public virtual override {\r\n        require(!isLoanExpiredAt(tokenId,block.timestamp),'Error: cant approve expired collateral for transfer');\r\n        address owner = ownerOf(tokenId);\r\n        require(to != owner, \"ERC721: approval to current owner\");\r\n\r\n        require(_msgSender() == owner || isApprovedForAll(owner, _msgSender()),\r\n            \"ERC721: approve caller is not owner nor approved for all\"\r\n        );\r\n\r\n        _approve(to, tokenId);\r\n       \r\n    }\r\n    function transferFrom(address from, address to, uint256 tokenId) public virtual override {\r\n        require(!isLoanExpiredAt(tokenId,block.timestamp),'Error: cant transfer expired collateral');\r\n        //solhint-disable-next-line max-line-length\r\n        require(_isApprovedOrOwner(_msgSender(), tokenId), \"ERC721: transfer caller is not owner nor approved\");\r\n\r\n        _transfer(from, to, tokenId);\r\n       \r\n    }\r\n     function safeTransferFrom(address from, address to, uint256 tokenId) public virtual override {\r\n        require(!isLoanExpiredAt(tokenId,block.timestamp),'Error: cant transfer expired collateral');\r\n        safeTransferFrom(from, to, tokenId, \"\");\r\n    \r\n    }\r\n\r\n    /**\r\n     * @dev See {IERC721-safeTransferFrom}.\r\n     */\r\n    function safeTransferFrom(address from, address to, uint256 tokenId, bytes memory _data) public virtual override{\r\n        require(!isLoanExpiredAt(tokenId,block.timestamp),'Error: cant transfer expired collateral for ');\r\n        require(_isApprovedOrOwner(_msgSender(), tokenId), \"ERC721: transfer caller is not owner nor approved\");\r\n        _safeTransfer(from, to, tokenId, _data);\r\n\r\n\r\n    }\r\n   \r\n\r\n    \r\n    \r\n}",
  "sourcePath": "C:/Users/osasola/Desktop/js-projects/blockchain/lending-pool/contracts/BRTPOOL.sol",
  "compiler": {
    "name": "solc",
    "version": "0.6.6+commit.6c089d02.Emscripten.clang"
  },
  "schemaVersion": "3.3.2",
  "updatedAt": "2020-12-02T21:20:31.004Z",
  "networkType": "ethereum",
  "devdoc": {
    "methods": {
      "balanceOf(address)": {
        "details": "See {IERC721-balanceOf}."
      },
      "baseURI()": {
        "details": "Returns the base URI set via {_setBaseURI}. This will be automatically added as a prefix in {tokenURI} to each token's URI, or to the token ID if no specific URI is set for that token ID."
      },
      "getApproved(uint256)": {
        "details": "See {IERC721-getApproved}."
      },
      "isApprovedForAll(address,address)": {
        "details": "See {IERC721-isApprovedForAll}."
      },
      "name()": {
        "details": "See {IERC721Metadata-name}."
      },
      "ownerOf(uint256)": {
        "details": "See {IERC721-ownerOf}."
      },
      "safeTransferFrom(address,address,uint256,bytes)": {
        "details": "See {IERC721-safeTransferFrom}."
      },
      "setApprovalForAll(address,bool)": {
        "details": "See {IERC721-setApprovalForAll}."
      },
      "supportsInterface(bytes4)": {
        "details": "See {IERC165-supportsInterface}.     * Time complexity O(1), guaranteed to always use less than 30 000 gas."
      },
      "symbol()": {
        "details": "See {IERC721Metadata-symbol}."
      },
      "tokenByIndex(uint256)": {
        "details": "See {IERC721Enumerable-tokenByIndex}."
      },
      "tokenOfOwnerByIndex(address,uint256)": {
        "details": "See {IERC721Enumerable-tokenOfOwnerByIndex}."
      },
      "tokenURI(uint256)": {
        "details": "See {IERC721Metadata-tokenURI}."
      },
      "totalSupply()": {
        "details": "See {IERC721Enumerable-totalSupply}."
      }
    }
  },
  "userdoc": {
    "methods": {}
  }
}