{
  "contractName": "BRTPOOLUTILS",
  "abi": [
    {
      "inputs": [],
      "name": "collaterizationRatio",
      "outputs": [
        {
          "internalType": "uint8",
          "name": "",
          "type": "uint8"
        }
      ],
      "stateMutability": "view",
      "type": "function"
    },
    {
      "inputs": [],
      "name": "feePercent",
      "outputs": [
        {
          "internalType": "uint8",
          "name": "",
          "type": "uint8"
        }
      ],
      "stateMutability": "view",
      "type": "function"
    },
    {
      "inputs": [
        {
          "internalType": "uint256",
          "name": "priceInEth",
          "type": "uint256"
        }
      ],
      "name": "convertToBrtFromEth",
      "outputs": [
        {
          "internalType": "uint256",
          "name": "",
          "type": "uint256"
        }
      ],
      "stateMutability": "view",
      "type": "function"
    },
    {
      "inputs": [
        {
          "internalType": "uint256",
          "name": "priceInBrt",
          "type": "uint256"
        }
      ],
      "name": "convertToEthFromBrt",
      "outputs": [
        {
          "internalType": "uint256",
          "name": "",
          "type": "uint256"
        }
      ],
      "stateMutability": "view",
      "type": "function"
    },
    {
      "inputs": [
        {
          "internalType": "uint256",
          "name": "_loanInBrt",
          "type": "uint256"
        }
      ],
      "name": "calculateCollateral",
      "outputs": [
        {
          "internalType": "uint256",
          "name": "",
          "type": "uint256"
        }
      ],
      "stateMutability": "view",
      "type": "function"
    },
    {
      "inputs": [
        {
          "internalType": "uint256",
          "name": "_collateralInEth",
          "type": "uint256"
        }
      ],
      "name": "calculateLoan",
      "outputs": [
        {
          "internalType": "uint256",
          "name": "",
          "type": "uint256"
        }
      ],
      "stateMutability": "view",
      "type": "function"
    }
  ],
  "bytecode": "0x6080604052607d6000806101000a81548160ff021916908360ff1602179055506096600060016101000a81548160ff021916908360ff1602179055506005600060026101000a81548160ff021916908360ff16021790555034801561006357600080fd5b50610510806100736000396000f3fe608060405234801561001057600080fd5b50600436106100625760003560e01c806343baccdb1461006757806356059339146100a95780635eb6b48d146100eb5780637fd6f15c1461010f578063934dafd714610133578063c79cbbdc14610175575b600080fd5b6100936004803603602081101561007d57600080fd5b81019080803590602001909291905050506101b7565b6040518082815260200191505060405180910390f35b6100d5600480360360208110156100bf57600080fd5b81019080803590602001909291905050506101e9565b6040518082815260200191505060405180910390f35b6100f361022a565b604051808260ff1660ff16815260200191505060405180910390f35b61011761023d565b604051808260ff1660ff16815260200191505060405180910390f35b61015f6004803603602081101561014957600080fd5b8101908080359060200190929190505050610250565b6040518082815260200191505060405180910390f35b6101a16004803603602081101561018b57600080fd5b8101908080359060200190929190505050610291565b6040518082815260200191505060405180910390f35b6000806101de6000809054906101000a900460ff1660ff16846102c390919063ffffffff16565b905080915050919050565b6000806101f583610291565b9050600061021e600060019054906101000a900460ff1660ff168361034990919063ffffffff16565b90508092505050919050565b600060019054906101000a900460ff1681565b600060029054906101000a900460ff1681565b60008061025c836101b7565b90506000610285600060019054906101000a900460ff1660ff168361037990919063ffffffff16565b90508092505050919050565b6000806102b86000809054906101000a900460ff1660ff16846103a990919063ffffffff16565b905080915050919050565b6000808314156102d65760009050610343565b60008284029050828482816102e757fe5b041461033e576040517f08c379a00000000000000000000000000000000000000000000000000000000081526004018080602001828103825260218152602001806104ba6021913960400191505060405180910390fd5b809150505b92915050565b6000610371606461036384866102c390919063ffffffff16565b6103a990919063ffffffff16565b905092915050565b60006103a1606461039384866103a990919063ffffffff16565b6102c390919063ffffffff16565b905092915050565b60006103eb83836040518060400160405280601a81526020017f536166654d6174683a206469766973696f6e206279207a65726f0000000000008152506103f3565b905092915050565b6000808311829061049f576040517f08c379a00000000000000000000000000000000000000000000000000000000081526004018080602001828103825283818151815260200191508051906020019080838360005b83811015610464578082015181840152602081019050610449565b50505050905090810190601f1680156104915780820380516001836020036101000a031916815260200191505b509250505060405180910390fd5b5060008385816104ab57fe5b04905080915050939250505056fe536166654d6174683a206d756c7469706c69636174696f6e206f766572666c6f77a2646970667358221220a74d0050c40a3d13acc0960092bed246aad3b2c0859802925111f58f288d89d464736f6c63430006060033",
  "source": "pragma solidity ^ 0.6.0;\r\nimport '@openzeppelin/contracts/math/SafeMath.sol';\r\nimport './libraries/SafePercentage.sol';\r\ncontract BRTPOOLUTILS{\r\n     uint8 internal _ethBrtExchangeRate =125;\r\n     uint8 public collaterizationRatio =150;\r\n     uint8 public feePercent=5;\r\n     using SafeMath for uint;\r\n     using SafePercentage for uint;\r\n\r\n      function convertToBrtFromEth(uint priceInEth) public view\r\n    returns(uint)\r\n    {   \r\n        uint priceInBrt = priceInEth.mul(uint(_ethBrtExchangeRate));\r\n        return  priceInBrt;\r\n    }\r\n\r\n    function convertToEthFromBrt(uint priceInBrt) public view \r\n    returns(uint)\r\n    {\r\n        uint priceInEth =priceInBrt.div(uint(_ethBrtExchangeRate));\r\n        return priceInEth;\r\n    }\r\n\r\n\r\n    function calculateCollateral(uint _loanInBrt) public view\r\n    returns(uint)\r\n    {\r\n       uint _loan = convertToEthFromBrt(_loanInBrt);\r\n       uint collateral = _loan.percentMul(collaterizationRatio);\r\n       return collateral;\r\n    }\r\n\r\n    function calculateLoan(uint _collateralInEth) public view\r\n    returns(uint)\r\n    {\r\n\r\n        uint _collateral = convertToBrtFromEth(_collateralInEth); \r\n        uint loan =_collateral.percentDiv(collaterizationRatio);\r\n        return loan;\r\n\r\n    }\r\n\r\n\r\n}",
  "sourcePath": "C:/Users/osasola/Desktop/js-projects/blockchain/lending-pool/contracts/BRTPOOLUTILS.sol",
  "compiler": {
    "name": "solc",
    "version": "0.6.6+commit.6c089d02.Emscripten.clang"
  },
  "schemaVersion": "3.0.22",
  "updatedAt": "2020-11-13T22:41:13.206Z",
  "devdoc": {
    "methods": {}
  },
  "userdoc": {
    "methods": {}
  }
}