{
  "contractName": "BRTPOOL",
  "abi": [
    {
      "inputs": [
        {
          "internalType": "address",
          "name": "tokenAddr",
          "type": "address"
        }
      ],
      "stateMutability": "nonpayable",
      "type": "constructor"
    },
    {
      "anonymous": false,
      "inputs": [
        {
          "indexed": true,
          "internalType": "address",
          "name": "owner",
          "type": "address"
        },
        {
          "indexed": true,
          "internalType": "address",
          "name": "approved",
          "type": "address"
        },
        {
          "indexed": true,
          "internalType": "uint256",
          "name": "tokenId",
          "type": "uint256"
        }
      ],
      "name": "Approval",
      "type": "event"
    },
    {
      "anonymous": false,
      "inputs": [
        {
          "indexed": true,
          "internalType": "address",
          "name": "owner",
          "type": "address"
        },
        {
          "indexed": true,
          "internalType": "address",
          "name": "operator",
          "type": "address"
        },
        {
          "indexed": false,
          "internalType": "bool",
          "name": "approved",
          "type": "bool"
        }
      ],
      "name": "ApprovalForAll",
      "type": "event"
    },
    {
      "anonymous": false,
      "inputs": [
        {
          "indexed": true,
          "internalType": "address",
          "name": "borrower",
          "type": "address"
        },
        {
          "indexed": false,
          "internalType": "uint256",
          "name": "loanId",
          "type": "uint256"
        },
        {
          "indexed": false,
          "internalType": "uint256",
          "name": "redemptionPrice",
          "type": "uint256"
        },
        {
          "indexed": false,
          "internalType": "uint256",
          "name": "collateral",
          "type": "uint256"
        },
        {
          "indexed": false,
          "internalType": "uint256",
          "name": "expires",
          "type": "uint256"
        }
      ],
      "name": "Borrowed",
      "type": "event"
    },
    {
      "anonymous": false,
      "inputs": [
        {
          "indexed": true,
          "internalType": "address",
          "name": "borrower",
          "type": "address"
        },
        {
          "indexed": false,
          "internalType": "uint256",
          "name": "loanId",
          "type": "uint256"
        }
      ],
      "name": "Liquidated",
      "type": "event"
    },
    {
      "anonymous": false,
      "inputs": [
        {
          "indexed": false,
          "internalType": "address",
          "name": "spender",
          "type": "address"
        },
        {
          "indexed": false,
          "internalType": "uint256",
          "name": "loanId",
          "type": "uint256"
        }
      ],
      "name": "PayBack",
      "type": "event"
    },
    {
      "anonymous": false,
      "inputs": [
        {
          "indexed": true,
          "internalType": "address",
          "name": "from",
          "type": "address"
        },
        {
          "indexed": true,
          "internalType": "address",
          "name": "to",
          "type": "address"
        },
        {
          "indexed": true,
          "internalType": "uint256",
          "name": "tokenId",
          "type": "uint256"
        }
      ],
      "name": "Transfer",
      "type": "event"
    },
    {
      "inputs": [
        {
          "internalType": "address",
          "name": "owner",
          "type": "address"
        }
      ],
      "name": "balanceOf",
      "outputs": [
        {
          "internalType": "uint256",
          "name": "",
          "type": "uint256"
        }
      ],
      "stateMutability": "view",
      "type": "function",
      "constant": true
    },
    {
      "inputs": [],
      "name": "baseURI",
      "outputs": [
        {
          "internalType": "string",
          "name": "",
          "type": "string"
        }
      ],
      "stateMutability": "view",
      "type": "function",
      "constant": true
    },
    {
      "inputs": [],
      "name": "borrowTime",
      "outputs": [
        {
          "internalType": "uint256",
          "name": "",
          "type": "uint256"
        }
      ],
      "stateMutability": "view",
      "type": "function",
      "constant": true
    },
    {
      "inputs": [
        {
          "internalType": "uint256",
          "name": "_loanInBrt",
          "type": "uint256"
        }
      ],
      "name": "calculateCollateral",
      "outputs": [
        {
          "internalType": "uint256",
          "name": "",
          "type": "uint256"
        }
      ],
      "stateMutability": "view",
      "type": "function",
      "constant": true
    },
    {
      "inputs": [
        {
          "internalType": "uint256",
          "name": "_collateralInEth",
          "type": "uint256"
        }
      ],
      "name": "calculateLoan",
      "outputs": [
        {
          "internalType": "uint256",
          "name": "",
          "type": "uint256"
        }
      ],
      "stateMutability": "view",
      "type": "function",
      "constant": true
    },
    {
      "inputs": [],
      "name": "collaterizationRatio",
      "outputs": [
        {
          "internalType": "uint8",
          "name": "",
          "type": "uint8"
        }
      ],
      "stateMutability": "view",
      "type": "function",
      "constant": true
    },
    {
      "inputs": [
        {
          "internalType": "uint256",
          "name": "priceInEth",
          "type": "uint256"
        }
      ],
      "name": "convertToBrtFromEth",
      "outputs": [
        {
          "internalType": "uint256",
          "name": "",
          "type": "uint256"
        }
      ],
      "stateMutability": "view",
      "type": "function",
      "constant": true
    },
    {
      "inputs": [
        {
          "internalType": "uint256",
          "name": "priceInBrt",
          "type": "uint256"
        }
      ],
      "name": "convertToEthFromBrt",
      "outputs": [
        {
          "internalType": "uint256",
          "name": "",
          "type": "uint256"
        }
      ],
      "stateMutability": "view",
      "type": "function",
      "constant": true
    },
    {
      "inputs": [],
      "name": "feePercent",
      "outputs": [
        {
          "internalType": "uint8",
          "name": "",
          "type": "uint8"
        }
      ],
      "stateMutability": "view",
      "type": "function",
      "constant": true
    },
    {
      "inputs": [
        {
          "internalType": "uint256",
          "name": "tokenId",
          "type": "uint256"
        }
      ],
      "name": "getApproved",
      "outputs": [
        {
          "internalType": "address",
          "name": "",
          "type": "address"
        }
      ],
      "stateMutability": "view",
      "type": "function",
      "constant": true
    },
    {
      "inputs": [
        {
          "internalType": "address",
          "name": "owner",
          "type": "address"
        },
        {
          "internalType": "address",
          "name": "operator",
          "type": "address"
        }
      ],
      "name": "isApprovedForAll",
      "outputs": [
        {
          "internalType": "bool",
          "name": "",
          "type": "bool"
        }
      ],
      "stateMutability": "view",
      "type": "function",
      "constant": true
    },
    {
      "inputs": [],
      "name": "name",
      "outputs": [
        {
          "internalType": "string",
          "name": "",
          "type": "string"
        }
      ],
      "stateMutability": "view",
      "type": "function",
      "constant": true
    },
    {
      "inputs": [
        {
          "internalType": "uint256",
          "name": "tokenId",
          "type": "uint256"
        }
      ],
      "name": "ownerOf",
      "outputs": [
        {
          "internalType": "address",
          "name": "",
          "type": "address"
        }
      ],
      "stateMutability": "view",
      "type": "function",
      "constant": true
    },
    {
      "inputs": [
        {
          "internalType": "address",
          "name": "operator",
          "type": "address"
        },
        {
          "internalType": "bool",
          "name": "approved",
          "type": "bool"
        }
      ],
      "name": "setApprovalForAll",
      "outputs": [],
      "stateMutability": "nonpayable",
      "type": "function"
    },
    {
      "inputs": [
        {
          "internalType": "bytes4",
          "name": "interfaceId",
          "type": "bytes4"
        }
      ],
      "name": "supportsInterface",
      "outputs": [
        {
          "internalType": "bool",
          "name": "",
          "type": "bool"
        }
      ],
      "stateMutability": "view",
      "type": "function",
      "constant": true
    },
    {
      "inputs": [],
      "name": "symbol",
      "outputs": [
        {
          "internalType": "string",
          "name": "",
          "type": "string"
        }
      ],
      "stateMutability": "view",
      "type": "function",
      "constant": true
    },
    {
      "inputs": [
        {
          "internalType": "uint256",
          "name": "index",
          "type": "uint256"
        }
      ],
      "name": "tokenByIndex",
      "outputs": [
        {
          "internalType": "uint256",
          "name": "",
          "type": "uint256"
        }
      ],
      "stateMutability": "view",
      "type": "function",
      "constant": true
    },
    {
      "inputs": [
        {
          "internalType": "address",
          "name": "owner",
          "type": "address"
        },
        {
          "internalType": "uint256",
          "name": "index",
          "type": "uint256"
        }
      ],
      "name": "tokenOfOwnerByIndex",
      "outputs": [
        {
          "internalType": "uint256",
          "name": "",
          "type": "uint256"
        }
      ],
      "stateMutability": "view",
      "type": "function",
      "constant": true
    },
    {
      "inputs": [
        {
          "internalType": "uint256",
          "name": "tokenId",
          "type": "uint256"
        }
      ],
      "name": "tokenURI",
      "outputs": [
        {
          "internalType": "string",
          "name": "",
          "type": "string"
        }
      ],
      "stateMutability": "view",
      "type": "function",
      "constant": true
    },
    {
      "inputs": [],
      "name": "totalSupply",
      "outputs": [
        {
          "internalType": "uint256",
          "name": "",
          "type": "uint256"
        }
      ],
      "stateMutability": "view",
      "type": "function",
      "constant": true
    },
    {
      "inputs": [],
      "name": "borrow",
      "outputs": [
        {
          "internalType": "uint256",
          "name": "",
          "type": "uint256"
        }
      ],
      "stateMutability": "payable",
      "type": "function",
      "payable": true
    },
    {
      "inputs": [
        {
          "internalType": "bytes",
          "name": "_params",
          "type": "bytes"
        }
      ],
      "name": "payback",
      "outputs": [],
      "stateMutability": "nonpayable",
      "type": "function"
    },
    {
      "inputs": [
        {
          "internalType": "uint256",
          "name": "loanId",
          "type": "uint256"
        }
      ],
      "name": "payback",
      "outputs": [],
      "stateMutability": "nonpayable",
      "type": "function"
    },
    {
      "inputs": [
        {
          "internalType": "address",
          "name": "addr",
          "type": "address"
        },
        {
          "internalType": "uint256",
          "name": "unixTimeStamp",
          "type": "uint256"
        }
      ],
      "name": "getActiveLoans",
      "outputs": [
        {
          "internalType": "uint256[]",
          "name": "",
          "type": "uint256[]"
        }
      ],
      "stateMutability": "view",
      "type": "function",
      "constant": true
    },
    {
      "inputs": [
        {
          "internalType": "uint256",
          "name": "loanId",
          "type": "uint256"
        },
        {
          "internalType": "uint256",
          "name": "unixTimeStamp",
          "type": "uint256"
        }
      ],
      "name": "isLoanExpiredAt",
      "outputs": [
        {
          "internalType": "bool",
          "name": "",
          "type": "bool"
        }
      ],
      "stateMutability": "view",
      "type": "function",
      "constant": true
    },
    {
      "inputs": [
        {
          "internalType": "uint256[]",
          "name": "_loanIds",
          "type": "uint256[]"
        },
        {
          "internalType": "uint256",
          "name": "unixTimeStamp",
          "type": "uint256"
        }
      ],
      "name": "isAnyExpired",
      "outputs": [
        {
          "internalType": "bool",
          "name": "",
          "type": "bool"
        }
      ],
      "stateMutability": "view",
      "type": "function",
      "constant": true
    },
    {
      "inputs": [
        {
          "internalType": "uint256",
          "name": "unixTimeStamp",
          "type": "uint256"
        }
      ],
      "name": "getExpiredLoanIds",
      "outputs": [
        {
          "internalType": "uint256[]",
          "name": "",
          "type": "uint256[]"
        }
      ],
      "stateMutability": "view",
      "type": "function",
      "constant": true
    },
    {
      "inputs": [
        {
          "internalType": "bytes",
          "name": "_params",
          "type": "bytes"
        }
      ],
      "name": "liquidate",
      "outputs": [],
      "stateMutability": "nonpayable",
      "type": "function"
    },
    {
      "inputs": [
        {
          "internalType": "uint256",
          "name": "loanId",
          "type": "uint256"
        }
      ],
      "name": "liquidate",
      "outputs": [],
      "stateMutability": "nonpayable",
      "type": "function"
    },
    {
      "inputs": [
        {
          "internalType": "uint256",
          "name": "loanId",
          "type": "uint256"
        }
      ],
      "name": "loanInfo",
      "outputs": [
        {
          "components": [
            {
              "internalType": "uint256",
              "name": "redemptionPrice",
              "type": "uint256"
            },
            {
              "internalType": "uint256",
              "name": "collateral",
              "type": "uint256"
            },
            {
              "internalType": "uint256",
              "name": "expires",
              "type": "uint256"
            }
          ],
          "internalType": "struct CollateralRedemptionToken.Collateral",
          "name": "",
          "type": "tuple"
        }
      ],
      "stateMutability": "view",
      "type": "function",
      "constant": true
    },
    {
      "inputs": [],
      "name": "getPoolBalance",
      "outputs": [
        {
          "internalType": "uint256",
          "name": "",
          "type": "uint256"
        }
      ],
      "stateMutability": "view",
      "type": "function",
      "constant": true
    },
    {
      "inputs": [
        {
          "internalType": "address",
          "name": "to",
          "type": "address"
        },
        {
          "internalType": "uint256",
          "name": "tokenId",
          "type": "uint256"
        }
      ],
      "name": "approve",
      "outputs": [],
      "stateMutability": "nonpayable",
      "type": "function"
    },
    {
      "inputs": [
        {
          "internalType": "address",
          "name": "from",
          "type": "address"
        },
        {
          "internalType": "address",
          "name": "to",
          "type": "address"
        },
        {
          "internalType": "uint256",
          "name": "tokenId",
          "type": "uint256"
        }
      ],
      "name": "transferFrom",
      "outputs": [],
      "stateMutability": "nonpayable",
      "type": "function"
    },
    {
      "inputs": [
        {
          "internalType": "address",
          "name": "from",
          "type": "address"
        },
        {
          "internalType": "address",
          "name": "to",
          "type": "address"
        },
        {
          "internalType": "uint256",
          "name": "tokenId",
          "type": "uint256"
        }
      ],
      "name": "safeTransferFrom",
      "outputs": [],
      "stateMutability": "nonpayable",
      "type": "function"
    },
    {
      "inputs": [
        {
          "internalType": "address",
          "name": "from",
          "type": "address"
        },
        {
          "internalType": "address",
          "name": "to",
          "type": "address"
        },
        {
          "internalType": "uint256",
          "name": "tokenId",
          "type": "uint256"
        },
        {
          "internalType": "bytes",
          "name": "_data",
          "type": "bytes"
        }
      ],
      "name": "safeTransferFrom",
      "outputs": [],
      "stateMutability": "nonpayable",
      "type": "function"
    }
  ],
  "bytecode": "0x6080604052607d6000806101000a81548160ff021916908360ff1602179055506096600060016101000a81548160ff021916908360ff1602179055506005600060026101000a81548160ff021916908360ff1602179055506104b0600c553480156200006a57600080fd5b506040516200561f3803806200561f833981810160405281019062000090919062000376565b6040518060400160405280601b81526020017f436f6c6c61746572616c20526564656d7074696f6e20546f6b656e00000000008152506040518060400160405280600381526020017f4352540000000000000000000000000000000000000000000000000000000000815250620001146301ffc9a760e01b620001d860201b60201c565b81600790805190602001906200012c929190620002b0565b50806008908051906020019062000145929190620002b0565b506200015e6380ac58cd60e01b620001d860201b60201c565b62000176635b5e139f60e01b620001d860201b60201c565b6200018e63780e9d6360e01b620001d860201b60201c565b505080600d60006101000a81548173ffffffffffffffffffffffffffffffffffffffff021916908373ffffffffffffffffffffffffffffffffffffffff1602179055505062000465565b63ffffffff60e01b817bffffffffffffffffffffffffffffffffffffffffffffffffffffffff1916141562000244576040517f08c379a00000000000000000000000000000000000000000000000000000000081526004016200023b90620003e4565b60405180910390fd5b6001806000837bffffffffffffffffffffffffffffffffffffffffffffffffffffffff19167bffffffffffffffffffffffffffffffffffffffffffffffffffffffff1916815260200190815260200160002060006101000a81548160ff02191690831515021790555050565b828054600181600116156101000203166002900490600052602060002090601f016020900481019282601f10620002f357805160ff191683800117855562000324565b8280016001018555821562000324579182015b828111156200032357825182559160200191906001019062000306565b5b50905062000333919062000337565b5090565b6200035c91905b80821115620003585760008160009055506001016200033e565b5090565b90565b60008151905062000370816200044b565b92915050565b6000602082840312156200038957600080fd5b600062000399848285016200035f565b91505092915050565b6000620003b1601c8362000406565b91507f4552433136353a20696e76616c696420696e74657266616365206964000000006000830152602082019050919050565b60006020820190508181036000830152620003ff81620003a2565b9050919050565b600082825260208201905092915050565b600062000424826200042b565b9050919050565b600073ffffffffffffffffffffffffffffffffffffffff82169050919050565b620004568162000417565b81146200046257600080fd5b50565b6151aa80620004756000396000f3fe6080604052600436106102045760003560e01c80636352211e116101185780639e0f99d3116100a0578063b88d4fde1161006f578063b88d4fde146107ff578063c79cbbdc14610828578063c87b56dd14610865578063e68d3569146108a2578063e985e9c5146108c057610204565b80639e0f99d314610745578063a22cb46514610782578063a846c2fd146107ab578063abd70aa2146107d457610204565b80637fd6f15c116100e75780637fd6f15c146106385780638349d6be1461066357806392654f6d146106a0578063934dafd7146106dd57806395d89b411461071a57610204565b80636352211e146105565780636c0360eb1461059357806370168174146105be57806370a08231146105fb57610204565b806323b872dd1161019b57806342842e0e1161016a57806342842e0e1461044b57806343baccdb146104745780634f6ccce7146104b157806356059339146104ee5780635eb6b48d1461052b57610204565b806323b872dd1461037f5780632b542cc8146103a85780632f745c59146103e5578063415f12401461042257610204565b80631721539b116101d75780631721539b146102d757806318160ddd146103005780632187b23a1461032b578063225d685f1461035457610204565b806301ffc9a71461020957806306fdde0314610246578063081812fc14610271578063095ea7b3146102ae575b600080fd5b34801561021557600080fd5b50610230600480360381019061022b91906139fe565b6108fd565b60405161023d91906149da565b60405180910390f35b34801561025257600080fd5b5061025b610965565b60405161026891906149f5565b60405180910390f35b34801561027d57600080fd5b5061029860048036038101906102939190613a91565b610a07565b6040516102a59190614891565b60405180910390f35b3480156102ba57600080fd5b506102d560048036038101906102d09190613945565b610a8c565b005b3480156102e357600080fd5b506102fe60048036038101906102f99190613a50565b610bee565b005b34801561030c57600080fd5b50610315610c13565b6040516103229190614df2565b60405180910390f35b34801561033757600080fd5b50610352600480360381019061034d9190613a50565b610c24565b005b34801561036057600080fd5b50610369610c87565b6040516103769190614df2565b60405180910390f35b34801561038b57600080fd5b506103a660048036038101906103a1919061383f565b610c8d565b005b3480156103b457600080fd5b506103cf60048036038101906103ca9190613945565b610d37565b6040516103dc91906149b8565b60405180910390f35b3480156103f157600080fd5b5061040c60048036038101906104079190613945565b610e36565b6040516104199190614df2565b60405180910390f35b34801561042e57600080fd5b5061044960048036038101906104449190613a91565b610e91565b005b34801561045757600080fd5b50610472600480360381019061046d919061383f565b6110dd565b005b34801561048057600080fd5b5061049b60048036038101906104969190613a91565b611147565b6040516104a89190614df2565b60405180910390f35b3480156104bd57600080fd5b506104d860048036038101906104d39190613a91565b611179565b6040516104e59190614df2565b60405180910390f35b3480156104fa57600080fd5b5061051560048036038101906105109190613a91565b61119c565b6040516105229190614df2565b60405180910390f35b34801561053757600080fd5b506105406111dd565b60405161054d9190614e52565b60405180910390f35b34801561056257600080fd5b5061057d60048036038101906105789190613a91565b6111f0565b60405161058a9190614891565b60405180910390f35b34801561059f57600080fd5b506105a8611227565b6040516105b591906149f5565b60405180910390f35b3480156105ca57600080fd5b506105e560048036038101906105e09190613b1f565b6112c9565b6040516105f291906149da565b60405180910390f35b34801561060757600080fd5b50610622600480360381019061061d91906137da565b611384565b60405161062f9190614df2565b60405180910390f35b34801561064457600080fd5b5061064d611443565b60405161065a9190614e52565b60405180910390f35b34801561066f57600080fd5b5061068a60048036038101906106859190613a91565b611456565b6040516106979190614dd7565b60405180910390f35b3480156106ac57600080fd5b506106c760048036038101906106c29190613981565b611538565b6040516106d491906149da565b60405180910390f35b3480156106e957600080fd5b5061070460048036038101906106ff9190613a91565b6115d7565b6040516107119190614df2565b60405180910390f35b34801561072657600080fd5b5061072f611618565b60405161073c91906149f5565b60405180910390f35b34801561075157600080fd5b5061076c60048036038101906107679190613a91565b6116ba565b60405161077991906149b8565b60405180910390f35b34801561078e57600080fd5b506107a960048036038101906107a49190613909565b61177e565b005b3480156107b757600080fd5b506107d260048036038101906107cd9190613a91565b6118ff565b005b3480156107e057600080fd5b506107e961190c565b6040516107f69190614df2565b60405180910390f35b34801561080b57600080fd5b506108266004803603810190610821919061388e565b6119be565b005b34801561083457600080fd5b5061084f600480360381019061084a9190613a91565b611a6a565b60405161085c9190614df2565b60405180910390f35b34801561087157600080fd5b5061088c60048036038101906108879190613a91565b611a9c565b60405161089991906149f5565b60405180910390f35b6108aa611c27565b6040516108b79190614df2565b60405180910390f35b3480156108cc57600080fd5b506108e760048036038101906108e29190613803565b611df2565b6040516108f491906149da565b60405180910390f35b600060016000837bffffffffffffffffffffffffffffffffffffffffffffffffffffffff19167bffffffffffffffffffffffffffffffffffffffffffffffffffffffff1916815260200190815260200160002060009054906101000a900460ff169050919050565b606060078054600181600116156101000203166002900480601f0160208091040260200160405190810160405280929190818152602001828054600181600116156101000203166002900480156109fd5780601f106109d2576101008083540402835291602001916109fd565b820191906000526020600020905b8154815290600101906020018083116109e057829003601f168201915b5050505050905090565b6000610a1282611e86565b610a51576040517f08c379a0000000000000000000000000000000000000000000000000000000008152600401610a4890614c97565b60405180910390fd5b6005600083815260200190815260200160002060009054906101000a900473ffffffffffffffffffffffffffffffffffffffff169050919050565b610a9681426112c9565b15610ad6576040517f08c379a0000000000000000000000000000000000000000000000000000000008152600401610acd90614bf7565b60405180910390fd5b6000610ae1826111f0565b90508073ffffffffffffffffffffffffffffffffffffffff168373ffffffffffffffffffffffffffffffffffffffff161415610b52576040517f08c379a0000000000000000000000000000000000000000000000000000000008152600401610b4990614cf7565b60405180910390fd5b8073ffffffffffffffffffffffffffffffffffffffff16610b71611ea3565b73ffffffffffffffffffffffffffffffffffffffff161480610ba05750610b9f81610b9a611ea3565b611df2565b5b610bdf576040517f08c379a0000000000000000000000000000000000000000000000000000000008152600401610bd690614b77565b60405180910390fd5b610be98383611eab565b505050565b600081806020019051810190610c049190613aba565b9050610c0f81610e91565b5050565b6000610c1f6003611f64565b905090565b60008082806020019051810190610c3b9190613ae3565b91509150610c498282611f79565b7f55092e6cc4938ce9f0acdaa9092b38cd6e54afca1671527784104006f7bcaae48183604051610c7a92919061498f565b60405180910390a1505050565b600c5481565b610c9781426112c9565b15610cd7576040517f08c379a0000000000000000000000000000000000000000000000000000000008152600401610cce90614a77565b60405180910390fd5b610ce8610ce2611ea3565b82612239565b610d27576040517f08c379a0000000000000000000000000000000000000000000000000000000008152600401610d1e90614d17565b60405180910390fd5b610d32838383612317565b505050565b606080610d438361252e565b67ffffffffffffffff81118015610d5957600080fd5b50604051908082528060200260200182016040528015610d885781602001602082028036833780820191505090505b5090506001610d968461252e565b10610e2c5760008090505b600b80549050811015610e2a578473ffffffffffffffffffffffffffffffffffffffff16610dce826111f0565b73ffffffffffffffffffffffffffffffffffffffff16148015610dfe575060001515610dfa82866112c9565b1515145b15610e1d5780828281518110610e1057fe5b6020026020010181815250505b8080600101915050610da1565b505b8091505092915050565b6000610e8982600260008673ffffffffffffffffffffffffffffffffffffffff1673ffffffffffffffffffffffffffffffffffffffff1681526020019081526020016000206125b790919063ffffffff16565b905092915050565b610e9a81611e86565b610ed9576040517f08c379a0000000000000000000000000000000000000000000000000000000008152600401610ed090614b37565b60405180910390fd5b6000610ee4826111f0565b9050610ef082426112c9565b610f2f576040517f08c379a0000000000000000000000000000000000000000000000000000000008152600401610f2690614d57565b60405180910390fd5b6000610f3a83611456565b6000015190506000610f4b84611456565b602001519050600d60009054906101000a900473ffffffffffffffffffffffffffffffffffffffff1673ffffffffffffffffffffffffffffffffffffffff166323b872dd3330856040518463ffffffff1660e01b8152600401610fb0939291906148ac565b602060405180830381600087803b158015610fca57600080fd5b505af1158015610fde573d6000803e3d6000fd5b505050506040513d601f19601f8201168201806040525081019061100291906139d5565b50600b848154811061101057fe5b9060005260206000209060030201600080820160009055600182016000905560028201600090555050611042846125d1565b3373ffffffffffffffffffffffffffffffffffffffff166108fc829081150290604051600060405180830381858888f19350505050158015611088573d6000803e3d6000fd5b508273ffffffffffffffffffffffffffffffffffffffff167fa5ee7a2b0254fce91deed604506790ed7fa072d0b14cba4859c3bc8955b9caac856040516110cf9190614df2565b60405180910390a250505050565b6110e781426112c9565b15611127576040517f08c379a000000000000000000000000000000000000000000000000000000000815260040161111e90614a77565b60405180910390fd5b611142838383604051806020016040528060008152506119be565b505050565b60008061116e6000809054906101000a900460ff1660ff168461270b90919063ffffffff16565b905080915050919050565b60008061119083600361277b90919063ffffffff16565b50905080915050919050565b6000806111a883611a6a565b905060006111d1600060019054906101000a900460ff1660ff16836127aa90919063ffffffff16565b90508092505050919050565b600060019054906101000a900460ff1681565b60006112208260405180606001604052806029815260200161514c6029913960036127da9092919063ffffffff16565b9050919050565b6060600a8054600181600116156101000203166002900480601f0160208091040260200160405190810160405280929190818152602001828054600181600116156101000203166002900480156112bf5780601f10611294576101008083540402835291602001916112bf565b820191906000526020600020905b8154815290600101906020018083116112a257829003601f168201915b5050505050905090565b6000600b805490508310611312576040517f08c379a000000000000000000000000000000000000000000000000000000000815260040161130990614d97565b60405180910390fd5b61131b83611e86565b61135a576040517f08c379a000000000000000000000000000000000000000000000000000000000815260040161135190614d77565b60405180910390fd5b600b838154811061136757fe5b906000526020600020906003020160020154821015905092915050565b60008073ffffffffffffffffffffffffffffffffffffffff168273ffffffffffffffffffffffffffffffffffffffff1614156113f5576040517f08c379a00000000000000000000000000000000000000000000000000000000081526004016113ec90614b97565b60405180910390fd5b61143c600260008473ffffffffffffffffffffffffffffffffffffffff1673ffffffffffffffffffffffffffffffffffffffff1681526020019081526020016000206127f9565b9050919050565b600060029054906101000a900460ff1681565b61145e6135cd565b600b8054905082106114a5576040517f08c379a000000000000000000000000000000000000000000000000000000000815260040161149c90614d97565b60405180910390fd5b6114ae82611e86565b6114ed576040517f08c379a00000000000000000000000000000000000000000000000000000000081526004016114e490614d77565b60405180910390fd5b600b82815481106114fa57fe5b906000526020600020906003020160405180606001604052908160008201548152602001600182015481526020016002820154815250509050919050565b6000600b8054905083511115611583576040517f08c379a000000000000000000000000000000000000000000000000000000000815260040161157a90614b57565b60405180910390fd5b600080600090505b84518110156115cc576115b18582815181106115a357fe5b6020026020010151856112c9565b156115bf57600191506115cc565b808060010191505061158b565b508091505092915050565b6000806115e383611147565b9050600061160c600060019054906101000a900460ff1660ff168361280e90919063ffffffff16565b90508092505050919050565b606060088054600181600116156101000203166002900480601f0160208091040260200160405190810160405280929190818152602001828054600181600116156101000203166002900480156116b05780601f10611685576101008083540402835291602001916116b0565b820191906000526020600020905b81548152906001019060200180831161169357829003601f168201915b5050505050905090565b606060006116c78361283e565b9050600181106117775760608167ffffffffffffffff811180156116ea57600080fd5b506040519080825280602002602001820160405280156117195781602001602082028036833780820191505090505b50905060008090505b600b8054905081101561176c576001151561173d82876112c9565b1515141561175f578082828151811061175257fe5b6020026020010181815250505b8080600101915050611722565b508092505050611779565b505b919050565b611786611ea3565b73ffffffffffffffffffffffffffffffffffffffff168273ffffffffffffffffffffffffffffffffffffffff1614156117f4576040517f08c379a00000000000000000000000000000000000000000000000000000000081526004016117eb90614af7565b60405180910390fd5b8060066000611801611ea3565b73ffffffffffffffffffffffffffffffffffffffff1673ffffffffffffffffffffffffffffffffffffffff16815260200190815260200160002060008473ffffffffffffffffffffffffffffffffffffffff1673ffffffffffffffffffffffffffffffffffffffff16815260200190815260200160002060006101000a81548160ff0219169083151502179055508173ffffffffffffffffffffffffffffffffffffffff166118ae611ea3565b73ffffffffffffffffffffffffffffffffffffffff167f17307eab39ab6107e8899845ad3d59bd9653f200f220920489ca2b5937696c31836040516118f391906149da565b60405180910390a35050565b6119098133611f79565b50565b6000600d60009054906101000a900473ffffffffffffffffffffffffffffffffffffffff1673ffffffffffffffffffffffffffffffffffffffff166370a08231306040518263ffffffff1660e01b81526004016119699190614891565b60206040518083038186803b15801561198157600080fd5b505afa158015611995573d6000803e3d6000fd5b505050506040513d601f19601f820116820180604052508101906119b99190613aba565b905090565b6119c882426112c9565b15611a08576040517f08c379a00000000000000000000000000000000000000000000000000000000081526004016119ff90614db7565b60405180910390fd5b611a19611a13611ea3565b83612239565b611a58576040517f08c379a0000000000000000000000000000000000000000000000000000000008152600401611a4f90614d17565b60405180910390fd5b611a6484848484612888565b50505050565b600080611a916000809054906101000a900460ff1660ff16846128e490919063ffffffff16565b905080915050919050565b6060611aa782611e86565b611ae6576040517f08c379a0000000000000000000000000000000000000000000000000000000008152600401611add90614cd7565b60405180910390fd5b6060600960008481526020019081526020016000208054600181600116156101000203166002900480601f016020809104026020016040519081016040528092919081815260200182805460018160011615610100020316600290048015611b8f5780601f10611b6457610100808354040283529160200191611b8f565b820191906000526020600020905b815481529060010190602001808311611b7257829003601f168201915b505050505090506000600a8054600181600116156101000203166002900490501415611bbe5780915050611c22565b600081511115611bf357600a81604051602001611bdc92919061486d565b604051602081830303815290604052915050611c22565b600a611bfe8461292e565b604051602001611c0f92919061486d565b6040516020818303038152906040529150505b919050565b600080611c33346115d7565b9050611c3d61190c565b8110611c7e576040517f08c379a0000000000000000000000000000000000000000000000000000000008152600401611c7590614c17565b60405180910390fd5b6000611ca5600060029054906101000a900460ff1660ff16836127aa90919063ffffffff16565b90506000611cbc8284612a7590919063ffffffff16565b90506000611cd542600c54612a7590919063ffffffff16565b9050600d60009054906101000a900473ffffffffffffffffffffffffffffffffffffffff1673ffffffffffffffffffffffffffffffffffffffff1663a9059cbb33866040518363ffffffff1660e01b8152600401611d3492919061492f565b602060405180830381600087803b158015611d4e57600080fd5b505af1158015611d62573d6000803e3d6000fd5b505050506040513d601f19601f82011682018060405250810190611d8691906139d5565b506000611d94833484612aca565b90503373ffffffffffffffffffffffffffffffffffffffff167f04074d3222dae133379f5d478e841f42f76914bc8ca39d25e0cd120b226710e682853486604051611de29493929190614e0d565b60405180910390a2505050505090565b6000600660008473ffffffffffffffffffffffffffffffffffffffff1673ffffffffffffffffffffffffffffffffffffffff16815260200190815260200160002060008373ffffffffffffffffffffffffffffffffffffffff1673ffffffffffffffffffffffffffffffffffffffff16815260200190815260200160002060009054906101000a900460ff16905092915050565b6000611e9c826003612b5490919063ffffffff16565b9050919050565b600033905090565b816005600083815260200190815260200160002060006101000a81548173ffffffffffffffffffffffffffffffffffffffff021916908373ffffffffffffffffffffffffffffffffffffffff160217905550808273ffffffffffffffffffffffffffffffffffffffff16611f1e836111f0565b73ffffffffffffffffffffffffffffffffffffffff167f8c5be1e5ebec7d5bd14f71427d1e84f3dd0314c0f7b2291e5b200ac8c7c3b92560405160405180910390a45050565b6000611f7282600001612b6e565b9050919050565b611f838183612239565b611fc2576040517f08c379a0000000000000000000000000000000000000000000000000000000008152600401611fb990614a57565b60405180910390fd5b611fcc82426112c9565b1561200c576040517f08c379a000000000000000000000000000000000000000000000000000000000815260040161200390614bd7565b60405180910390fd5b600161201782611384565b1015612058576040517f08c379a000000000000000000000000000000000000000000000000000000000815260040161204f90614bb7565b60405180910390fd5b61206182611e86565b6120a0576040517f08c379a000000000000000000000000000000000000000000000000000000000815260040161209790614d77565b60405180910390fd5b60006120ab83611456565b60000151905060006120bc84611456565b602001519050600d60009054906101000a900473ffffffffffffffffffffffffffffffffffffffff1673ffffffffffffffffffffffffffffffffffffffff166323b872dd8430856040518463ffffffff1660e01b815260040161212193929190614958565b602060405180830381600087803b15801561213b57600080fd5b505af115801561214f573d6000803e3d6000fd5b505050506040513d601f19601f8201168201806040525081019061217391906139d5565b50600b848154811061218157fe5b90600052602060002090600302016000808201600090556001820160009055600282016000905550506121b3846125d1565b8273ffffffffffffffffffffffffffffffffffffffff166108fc829081150290604051600060405180830381858888f193505050501580156121f9573d6000803e3d6000fd5b507f55092e6cc4938ce9f0acdaa9092b38cd6e54afca1671527784104006f7bcaae4308560405161222b92919061498f565b60405180910390a150505050565b600061224482611e86565b612283576040517f08c379a000000000000000000000000000000000000000000000000000000000815260040161227a90614b17565b60405180910390fd5b600061228e836111f0565b90508073ffffffffffffffffffffffffffffffffffffffff168473ffffffffffffffffffffffffffffffffffffffff1614806122fd57508373ffffffffffffffffffffffffffffffffffffffff166122e584610a07565b73ffffffffffffffffffffffffffffffffffffffff16145b8061230e575061230d8185611df2565b5b91505092915050565b8273ffffffffffffffffffffffffffffffffffffffff16612337826111f0565b73ffffffffffffffffffffffffffffffffffffffff161461238d576040517f08c379a000000000000000000000000000000000000000000000000000000000815260040161238490614cb7565b60405180910390fd5b600073ffffffffffffffffffffffffffffffffffffffff168273ffffffffffffffffffffffffffffffffffffffff1614156123fd576040517f08c379a00000000000000000000000000000000000000000000000000000000081526004016123f490614ad7565b60405180910390fd5b612408838383612b7f565b612413600082611eab565b61246481600260008673ffffffffffffffffffffffffffffffffffffffff1673ffffffffffffffffffffffffffffffffffffffff168152602001908152602001600020612b8490919063ffffffff16565b506124b681600260008573ffffffffffffffffffffffffffffffffffffffff1673ffffffffffffffffffffffffffffffffffffffff168152602001908152602001600020612b9e90919063ffffffff16565b506124cd81836003612bb89092919063ffffffff16565b50808273ffffffffffffffffffffffffffffffffffffffff168473ffffffffffffffffffffffffffffffffffffffff167fddf252ad1be2c89b69c2b068fc378daa952ba7f163c4a11628f55a4df523b3ef60405160405180910390a4505050565b60008060008090505b600b805490508110156125ad573373ffffffffffffffffffffffffffffffffffffffff16612564826111f0565b73ffffffffffffffffffffffffffffffffffffffff1614801561259457506000151561259082866112c9565b1515145b156125a0576001820191505b8080600101915050612537565b5080915050919050565b60006125c68360000183612bed565b60001c905092915050565b60006125dc826111f0565b90506125ea81600084612b7f565b6125f5600083611eab565b600060096000848152602001908152602001600020805460018160011615610100020316600290049050146126445760096000838152602001908152602001600020600061264391906135ee565b5b61269582600260008473ffffffffffffffffffffffffffffffffffffffff1673ffffffffffffffffffffffffffffffffffffffff168152602001908152602001600020612b8490919063ffffffff16565b506126aa826003612c5a90919063ffffffff16565b5081600073ffffffffffffffffffffffffffffffffffffffff168273ffffffffffffffffffffffffffffffffffffffff167fddf252ad1be2c89b69c2b068fc378daa952ba7f163c4a11628f55a4df523b3ef60405160405180910390a45050565b60008083141561271e5760009050612775565b600082840290508284828161272f57fe5b0414612770576040517f08c379a000000000000000000000000000000000000000000000000000000000815260040161276790614c77565b60405180910390fd5b809150505b92915050565b60008060008061278e8660000186612c74565b915091508160001c8160001c8090509350935050509250929050565b60006127d260646127c4848661270b90919063ffffffff16565b6128e490919063ffffffff16565b905092915050565b60006127ed846000018460001b84612cf7565b60001c90509392505050565b600061280782600001612d88565b9050919050565b6000612836606461282884866128e490919063ffffffff16565b61270b90919063ffffffff16565b905092915050565b60008060008090505b600b8054905081101561287e576001151561286282866112c9565b15151415612871576001820191505b8080600101915050612847565b5080915050919050565b612893848484612317565b61289f84848484612d99565b6128de576040517f08c379a00000000000000000000000000000000000000000000000000000000081526004016128d590614a37565b60405180910390fd5b50505050565b600061292683836040518060400160405280601a81526020017f536166654d6174683a206469766973696f6e206279207a65726f000000000000815250612efd565b905092915050565b60606000821415612976576040518060400160405280600181526020017f30000000000000000000000000000000000000000000000000000000000000008152509050612a70565b600082905060005b600082146129a0578080600101915050600a828161299857fe5b04915061297e565b60608167ffffffffffffffff811180156129b957600080fd5b506040519080825280601f01601f1916602001820160405280156129ec5781602001600182028036833780820191505090505b50905060006001830390508593505b60008414612a6857600a8481612a0d57fe5b0660300160f81b82828060019003935081518110612a2757fe5b60200101907effffffffffffffffffffffffffffffffffffffffffffffffffffffffffffff1916908160001a905350600a8481612a6057fe5b0493506129fb565b819450505050505b919050565b600080828401905083811015612ac0576040517f08c379a0000000000000000000000000000000000000000000000000000000008152600401612ab790614ab7565b60405180910390fd5b8091505092915050565b6000600b6040518060600160405280868152602001858152602001848152509080600181540180825580915050600190039060005260206000209060030201600090919091909150600082015181600001556020820151816001015560408201518160020155505060006001600b80549050039050612b493382612f5e565b809150509392505050565b6000612b66836000018360001b6130ec565b905092915050565b600081600001805490509050919050565b505050565b6000612b96836000018360001b61310f565b905092915050565b6000612bb0836000018360001b6131f7565b905092915050565b6000612be4846000018460001b8473ffffffffffffffffffffffffffffffffffffffff1660001b613267565b90509392505050565b600081836000018054905011612c38576040517f08c379a0000000000000000000000000000000000000000000000000000000008152600401612c2f90614a17565b60405180910390fd5b826000018281548110612c4757fe5b9060005260206000200154905092915050565b6000612c6c836000018360001b613343565b905092915050565b60008082846000018054905011612cc0576040517f08c379a0000000000000000000000000000000000000000000000000000000008152600401612cb790614c37565b60405180910390fd5b6000846000018481548110612cd157fe5b906000526020600020906002020190508060000154816001015492509250509250929050565b60008084600101600085815260200190815260200160002054905060008114158390612d59576040517f08c379a0000000000000000000000000000000000000000000000000000000008152600401612d5091906149f5565b60405180910390fd5b50846000016001820381548110612d6c57fe5b9060005260206000209060020201600101549150509392505050565b600081600001805490509050919050565b6000612dba8473ffffffffffffffffffffffffffffffffffffffff1661345c565b612dc75760019050612ef5565b6060612e8e63150b7a0260e01b612ddc611ea3565b888787604051602401612df294939291906148e3565b604051602081830303815290604052907bffffffffffffffffffffffffffffffffffffffffffffffffffffffff19166020820180517bffffffffffffffffffffffffffffffffffffffffffffffffffffffff838183161783525050505060405180606001604052806032815260200161511a603291398773ffffffffffffffffffffffffffffffffffffffff1661346f9092919063ffffffff16565b9050600081806020019051810190612ea69190613a27565b905063150b7a0260e01b7bffffffffffffffffffffffffffffffffffffffffffffffffffffffff1916817bffffffffffffffffffffffffffffffffffffffffffffffffffffffff191614925050505b949350505050565b60008083118290612f44576040517f08c379a0000000000000000000000000000000000000000000000000000000008152600401612f3b91906149f5565b60405180910390fd5b506000838581612f5057fe5b049050809150509392505050565b600073ffffffffffffffffffffffffffffffffffffffff168273ffffffffffffffffffffffffffffffffffffffff161415612fce576040517f08c379a0000000000000000000000000000000000000000000000000000000008152600401612fc590614c57565b60405180910390fd5b612fd781611e86565b15613017576040517f08c379a000000000000000000000000000000000000000000000000000000000815260040161300e90614a97565b60405180910390fd5b61302360008383612b7f565b61307481600260008573ffffffffffffffffffffffffffffffffffffffff1673ffffffffffffffffffffffffffffffffffffffff168152602001908152602001600020612b9e90919063ffffffff16565b5061308b81836003612bb89092919063ffffffff16565b50808273ffffffffffffffffffffffffffffffffffffffff16600073ffffffffffffffffffffffffffffffffffffffff167fddf252ad1be2c89b69c2b068fc378daa952ba7f163c4a11628f55a4df523b3ef60405160405180910390a45050565b600080836001016000848152602001908152602001600020541415905092915050565b600080836001016000848152602001908152602001600020549050600081146131eb576000600182039050600060018660000180549050039050600086600001828154811061315a57fe5b906000526020600020015490508087600001848154811061317757fe5b90600052602060002001819055506001830187600101600083815260200190815260200160002081905550866000018054806131af57fe5b600190038181906000526020600020016000905590558660010160008781526020019081526020016000206000905560019450505050506131f1565b60009150505b92915050565b60006132038383613487565b61325c578260000182908060018154018082558091505060019003906000526020600020016000909190919091505582600001805490508360010160008481526020019081526020016000208190555060019050613261565b600090505b92915050565b600080846001016000858152602001908152602001600020549050600081141561330e5784600001604051806040016040528086815260200185815250908060018154018082558091505060019003906000526020600020906002020160009091909190915060008201518160000155602082015181600101555050846000018054905085600101600086815260200190815260200160002081905550600191505061333c565b8285600001600183038154811061332157fe5b90600052602060002090600202016001018190555060009150505b9392505050565b60008083600101600084815260200190815260200160002054905060008114613450576000600182039050600060018660000180549050039050600086600001828154811061338e57fe5b90600052602060002090600202019050808760000184815481106133ae57fe5b906000526020600020906002020160008201548160000155600182015481600101559050506001830187600101600083600001548152602001908152602001600020819055508660000180548061340157fe5b6001900381819060005260206000209060020201600080820160009055600182016000905550509055866001016000878152602001908152602001600020600090556001945050505050613456565b60009150505b92915050565b600080823b905060008111915050919050565b606061347e84846000856134aa565b90509392505050565b600080836001016000848152602001908152602001600020541415905092915050565b60606134b58561345c565b6134f4576040517f08c379a00000000000000000000000000000000000000000000000000000000081526004016134eb90614d37565b60405180910390fd5b600060608673ffffffffffffffffffffffffffffffffffffffff16858760405161351e9190614856565b60006040518083038185875af1925050503d806000811461355b576040519150601f19603f3d011682016040523d82523d6000602084013e613560565b606091505b509150915081156135755780925050506135c5565b6000815111156135885780518082602001fd5b836040517f08c379a00000000000000000000000000000000000000000000000000000000081526004016135bc91906149f5565b60405180910390fd5b949350505050565b60405180606001604052806000815260200160008152602001600081525090565b50805460018160011615610100020316600290046000825580601f106136145750613633565b601f0160209004906000526020600020908101906136329190613636565b5b50565b61365891905b8082111561365457600081600090555060010161363c565b5090565b90565b60008135905061366a816150a6565b92915050565b60008151905061367f816150bd565b92915050565b600082601f83011261369657600080fd5b81356136a96136a482614e9a565b614e6d565b915081818352602084019350602081019050838560208402820111156136ce57600080fd5b60005b838110156136fe57816136e488826137b0565b8452602084019350602083019250506001810190506136d1565b5050505092915050565b600081359050613717816150d4565b92915050565b60008151905061372c816150d4565b92915050565b600081359050613741816150eb565b92915050565b600081519050613756816150eb565b92915050565b600082601f83011261376d57600080fd5b813561378061377b82614ec2565b614e6d565b9150808252602083016020830185838301111561379c57600080fd5b6137a7838284615053565b50505092915050565b6000813590506137bf81615102565b92915050565b6000815190506137d481615102565b92915050565b6000602082840312156137ec57600080fd5b60006137fa8482850161365b565b91505092915050565b6000806040838503121561381657600080fd5b60006138248582860161365b565b92505060206138358582860161365b565b9150509250929050565b60008060006060848603121561385457600080fd5b60006138628682870161365b565b93505060206138738682870161365b565b9250506040613884868287016137b0565b9150509250925092565b600080600080608085870312156138a457600080fd5b60006138b28782880161365b565b94505060206138c38782880161365b565b93505060406138d4878288016137b0565b925050606085013567ffffffffffffffff8111156138f157600080fd5b6138fd8782880161375c565b91505092959194509250565b6000806040838503121561391c57600080fd5b600061392a8582860161365b565b925050602061393b85828601613708565b9150509250929050565b6000806040838503121561395857600080fd5b60006139668582860161365b565b9250506020613977858286016137b0565b9150509250929050565b6000806040838503121561399457600080fd5b600083013567ffffffffffffffff8111156139ae57600080fd5b6139ba85828601613685565b92505060206139cb858286016137b0565b9150509250929050565b6000602082840312156139e757600080fd5b60006139f58482850161371d565b91505092915050565b600060208284031215613a1057600080fd5b6000613a1e84828501613732565b91505092915050565b600060208284031215613a3957600080fd5b6000613a4784828501613747565b91505092915050565b600060208284031215613a6257600080fd5b600082013567ffffffffffffffff811115613a7c57600080fd5b613a888482850161375c565b91505092915050565b600060208284031215613aa357600080fd5b6000613ab1848285016137b0565b91505092915050565b600060208284031215613acc57600080fd5b6000613ada848285016137c5565b91505092915050565b60008060408385031215613af657600080fd5b6000613b04858286016137c5565b9250506020613b1585828601613670565b9150509250929050565b60008060408385031215613b3257600080fd5b6000613b40858286016137b0565b9250506020613b51858286016137b0565b9150509250929050565b6000613b678383614829565b60208301905092915050565b613b7c8161501d565b82525050565b613b8b81614f9c565b82525050565b613b9a81614f8a565b82525050565b6000613bab82614f13565b613bb58185614f41565b9350613bc083614eee565b8060005b83811015613bf1578151613bd88882613b5b565b9750613be383614f34565b925050600181019050613bc4565b5085935050505092915050565b613c0781614fae565b82525050565b6000613c1882614f1e565b613c228185614f52565b9350613c32818560208601615062565b613c3b81615095565b840191505092915050565b6000613c5182614f1e565b613c5b8185614f63565b9350613c6b818560208601615062565b80840191505092915050565b6000613c8282614f29565b613c8c8185614f6e565b9350613c9c818560208601615062565b613ca581615095565b840191505092915050565b6000613cbb82614f29565b613cc58185614f7f565b9350613cd5818560208601615062565b80840191505092915050565b600081546001811660008114613cfe5760018114613d2357613d67565b607f6002830416613d0f8187614f7f565b955060ff1983168652808601935050613d67565b60028204613d318187614f7f565b9550613d3c85614efe565b60005b82811015613d5e57815481890152600182019150602081019050613d3f565b82880195505050505b505092915050565b6000613d7c602283614f6e565b91507f456e756d657261626c655365743a20696e646578206f7574206f6620626f756e60008301527f64730000000000000000000000000000000000000000000000000000000000006020830152604082019050919050565b6000613de2603283614f6e565b91507f4552433732313a207472616e7366657220746f206e6f6e20455243373231526560008301527f63656976657220696d706c656d656e74657200000000000000000000000000006020830152604082019050919050565b6000613e48602e83614f6e565b91507f4572726f7220636f6c6c61746572616c20646f65736e742062656c6f6e67207460008301527f6f207468697320616464726573730000000000000000000000000000000000006020830152604082019050919050565b6000613eae602783614f6e565b91507f4572726f723a2063616e74207472616e73666572206578706972656420636f6c60008301527f6c61746572616c000000000000000000000000000000000000000000000000006020830152604082019050919050565b6000613f14601c83614f6e565b91507f4552433732313a20746f6b656e20616c7265616479206d696e746564000000006000830152602082019050919050565b6000613f54601b83614f6e565b91507f536166654d6174683a206164646974696f6e206f766572666c6f7700000000006000830152602082019050919050565b6000613f94602483614f6e565b91507f4552433732313a207472616e7366657220746f20746865207a65726f2061646460008301527f72657373000000000000000000000000000000000000000000000000000000006020830152604082019050919050565b6000613ffa601983614f6e565b91507f4552433732313a20617070726f766520746f2063616c6c6572000000000000006000830152602082019050919050565b600061403a602c83614f6e565b91507f4552433732313a206f70657261746f7220717565727920666f72206e6f6e657860008301527f697374656e7420746f6b656e00000000000000000000000000000000000000006020830152604082019050919050565b60006140a0602c83614f6e565b91507f4572726f722063616e74206c69717564617465206c6f616e207468617420646f60008301527f6573206e6f7420657869737400000000000000000000000000000000000000006020830152604082019050919050565b6000614106603c83614f6e565b91507f4572726f723a206e756d626572206f6620696420706172616d6574657273206560008301527f786365656473206e756d626572206f6620636f6c6c61746572616c73000000006020830152604082019050919050565b600061416c603883614f6e565b91507f4552433732313a20617070726f76652063616c6c6572206973206e6f74206f7760008301527f6e6572206e6f7220617070726f76656420666f7220616c6c00000000000000006020830152604082019050919050565b60006141d2602a83614f6e565b91507f4552433732313a2062616c616e636520717565727920666f7220746865207a6560008301527f726f2061646472657373000000000000000000000000000000000000000000006020830152604082019050919050565b6000614238602083614f6e565b91507f796f7520646f206e6f74206861766520616e792065786974696e67206c6f616e6000830152602082019050919050565b6000614278601683614f6e565b91507f4572726f723a6c6f616e206861732065787069726564000000000000000000006000830152602082019050919050565b60006142b8603383614f6e565b91507f4572726f723a2063616e7420617070726f7665206578706972656420636f6c6c60008301527f61746572616c20666f72207472616e73666572000000000000000000000000006020830152604082019050919050565b600061431e602483614f6e565b91507f63616e7420626f72726f77206d6f7265207468616e20706f6f6c206c6971756960008301527f64697479000000000000000000000000000000000000000000000000000000006020830152604082019050919050565b6000614384602283614f6e565b91507f456e756d657261626c654d61703a20696e646578206f7574206f6620626f756e60008301527f64730000000000000000000000000000000000000000000000000000000000006020830152604082019050919050565b60006143ea602083614f6e565b91507f4552433732313a206d696e7420746f20746865207a65726f20616464726573736000830152602082019050919050565b600061442a602183614f6e565b91507f536166654d6174683a206d756c7469706c69636174696f6e206f766572666c6f60008301527f77000000000000000000000000000000000000000000000000000000000000006020830152604082019050919050565b6000614490602c83614f6e565b91507f4552433732313a20617070726f76656420717565727920666f72206e6f6e657860008301527f697374656e7420746f6b656e00000000000000000000000000000000000000006020830152604082019050919050565b60006144f6602983614f6e565b91507f4552433732313a207472616e73666572206f6620746f6b656e2074686174206960008301527f73206e6f74206f776e00000000000000000000000000000000000000000000006020830152604082019050919050565b600061455c602f83614f6e565b91507f4552433732314d657461646174613a2055524920717565727920666f72206e6f60008301527f6e6578697374656e7420746f6b656e00000000000000000000000000000000006020830152604082019050919050565b60006145c2602183614f6e565b91507f4552433732313a20617070726f76616c20746f2063757272656e74206f776e6560008301527f72000000000000000000000000000000000000000000000000000000000000006020830152604082019050919050565b6000614628603183614f6e565b91507f4552433732313a207472616e736665722063616c6c6572206973206e6f74206f60008301527f776e6572206e6f7220617070726f7665640000000000000000000000000000006020830152604082019050919050565b600061468e601d83614f6e565b91507f416464726573733a2063616c6c20746f206e6f6e2d636f6e74726163740000006000830152602082019050919050565b60006146ce601b83614f6e565b91507f4572726f723a206c6f616e20686173206e6f74206578706972656400000000006000830152602082019050919050565b600061470e601d83614f6e565b91507f4572726f723a206c6f616e20696420646f6573206e6f742065786973740000006000830152602082019050919050565b600061474e601683614f6e565b91507f4572726f723a20696e76616c6964206c6f616e206964000000000000000000006000830152602082019050919050565b600061478e602c83614f6e565b91507f4572726f723a2063616e74207472616e73666572206578706972656420636f6c60008301527f6c61746572616c20666f722000000000000000000000000000000000000000006020830152604082019050919050565b6060820160008201516147fd6000850182614829565b5060208201516148106020850182614829565b5060408201516148236040850182614829565b50505050565b61483281615006565b82525050565b61484181615006565b82525050565b61485081615010565b82525050565b60006148628284613c46565b915081905092915050565b60006148798285613ce1565b91506148858284613cb0565b91508190509392505050565b60006020820190506148a66000830184613b91565b92915050565b60006060820190506148c16000830186613b73565b6148ce6020830185613b91565b6148db6040830184614838565b949350505050565b60006080820190506148f86000830187613b82565b6149056020830186613b91565b6149126040830185614838565b81810360608301526149248184613c0d565b905095945050505050565b60006040820190506149446000830185613b73565b6149516020830184614838565b9392505050565b600060608201905061496d6000830186613b91565b61497a6020830185613b91565b6149876040830184614838565b949350505050565b60006040820190506149a46000830185613b91565b6149b16020830184614838565b9392505050565b600060208201905081810360008301526149d28184613ba0565b905092915050565b60006020820190506149ef6000830184613bfe565b92915050565b60006020820190508181036000830152614a0f8184613c77565b905092915050565b60006020820190508181036000830152614a3081613d6f565b9050919050565b60006020820190508181036000830152614a5081613dd5565b9050919050565b60006020820190508181036000830152614a7081613e3b565b9050919050565b60006020820190508181036000830152614a9081613ea1565b9050919050565b60006020820190508181036000830152614ab081613f07565b9050919050565b60006020820190508181036000830152614ad081613f47565b9050919050565b60006020820190508181036000830152614af081613f87565b9050919050565b60006020820190508181036000830152614b1081613fed565b9050919050565b60006020820190508181036000830152614b308161402d565b9050919050565b60006020820190508181036000830152614b5081614093565b9050919050565b60006020820190508181036000830152614b70816140f9565b9050919050565b60006020820190508181036000830152614b908161415f565b9050919050565b60006020820190508181036000830152614bb0816141c5565b9050919050565b60006020820190508181036000830152614bd08161422b565b9050919050565b60006020820190508181036000830152614bf08161426b565b9050919050565b60006020820190508181036000830152614c10816142ab565b9050919050565b60006020820190508181036000830152614c3081614311565b9050919050565b60006020820190508181036000830152614c5081614377565b9050919050565b60006020820190508181036000830152614c70816143dd565b9050919050565b60006020820190508181036000830152614c908161441d565b9050919050565b60006020820190508181036000830152614cb081614483565b9050919050565b60006020820190508181036000830152614cd0816144e9565b9050919050565b60006020820190508181036000830152614cf08161454f565b9050919050565b60006020820190508181036000830152614d10816145b5565b9050919050565b60006020820190508181036000830152614d308161461b565b9050919050565b60006020820190508181036000830152614d5081614681565b9050919050565b60006020820190508181036000830152614d70816146c1565b9050919050565b60006020820190508181036000830152614d9081614701565b9050919050565b60006020820190508181036000830152614db081614741565b9050919050565b60006020820190508181036000830152614dd081614781565b9050919050565b6000606082019050614dec60008301846147e7565b92915050565b6000602082019050614e076000830184614838565b92915050565b6000608082019050614e226000830187614838565b614e2f6020830186614838565b614e3c6040830185614838565b614e496060830184614838565b95945050505050565b6000602082019050614e676000830184614847565b92915050565b6000604051905081810181811067ffffffffffffffff82111715614e9057600080fd5b8060405250919050565b600067ffffffffffffffff821115614eb157600080fd5b602082029050602081019050919050565b600067ffffffffffffffff821115614ed957600080fd5b601f19601f8301169050602081019050919050565b6000819050602082019050919050565b60008190508160005260206000209050919050565b600081519050919050565b600081519050919050565b600081519050919050565b6000602082019050919050565b600082825260208201905092915050565b600082825260208201905092915050565b600081905092915050565b600082825260208201905092915050565b600081905092915050565b6000614f9582614fe6565b9050919050565b6000614fa782614fe6565b9050919050565b60008115159050919050565b60007fffffffff0000000000000000000000000000000000000000000000000000000082169050919050565b600073ffffffffffffffffffffffffffffffffffffffff82169050919050565b6000819050919050565b600060ff82169050919050565b60006150288261502f565b9050919050565b600061503a82615041565b9050919050565b600061504c82614fe6565b9050919050565b82818337600083830152505050565b60005b83811015615080578082015181840152602081019050615065565b8381111561508f576000848401525b50505050565b6000601f19601f8301169050919050565b6150af81614f8a565b81146150ba57600080fd5b50565b6150c681614f9c565b81146150d157600080fd5b50565b6150dd81614fae565b81146150e857600080fd5b50565b6150f481614fba565b81146150ff57600080fd5b50565b61510b81615006565b811461511657600080fd5b5056fe4552433732313a207472616e7366657220746f206e6f6e20455243373231526563656976657220696d706c656d656e7465724552433732313a206f776e657220717565727920666f72206e6f6e6578697374656e7420746f6b656ea26469706673582212209e5802679fc4792543e990ddc5676a4717212818e2d0d0a015f93525b346782364736f6c63430006060033",
  "immutableReferences": {},
  "source": "pragma solidity ^0.6.0;\r\npragma experimental ABIEncoderV2;\r\nimport '@openzeppelin/contracts/math/SafeMath.sol';\r\nimport './libraries/SafePercentage.sol';\r\nimport './BRTPOOLUTILS.sol';\r\nimport './tokens/CollateralRedemptionToken.sol';\r\nimport '@openzeppelin/contracts/token/ERC20/ERC20.sol';\r\nimport '@openzeppelin/contracts/token/ERC20/IERC20.sol';\r\ncontract BRTPOOL is BRTPOOLUTILS ,CollateralRedemptionToken{\r\n    using SafePercentage for uint;\r\n    using SafeMath for uint;\r\n    IERC20 token;\r\n    constructor(address tokenAddr) public{\r\n      token = IERC20(tokenAddr);\r\n    }\r\n    event Borrowed(address indexed borrower,uint loanId,  uint redemptionPrice,uint collateral,uint expires);\r\n    event Liquidated(address indexed borrower,uint  loanId);\r\n    event PayBack(address spender,uint loanId);\r\n    function borrow() public  payable\r\n    returns(uint)\r\n    {\r\n        uint loan = calculateLoan(msg.value);\r\n        require(loan < getPoolBalance(),'cant borrow more than pool liquidity');\r\n        uint fee=loan.percentMul(feePercent);\r\n        uint redemptionPrice =loan.add(fee);\r\n        uint expires=borrowTime.add(block.timestamp);\r\n\r\n       \r\n        token.transfer(msg.sender,loan); \r\n        uint id = _issueCollateralToken(redemptionPrice, msg.value, expires);\r\n        emit Borrowed(msg.sender,id,redemptionPrice,msg.value,expires);\r\n    }\r\n\r\n\r\n\r\n   \r\n    function payback(uint loanId) public{\r\n       \r\n         _payback(loanId, msg.sender);\r\n         \r\n    }  \r\n     function _payback(uint loanId,address payer) internal{\r\n         require(_isApprovedOrOwner(payer,loanId),'Error collateral doesnt belong to this address');\r\n         require(!isLoanExpiredAt(loanId,block.timestamp),'Error:loan has expired');\r\n         require(balanceOf(payer) >= 1,'you do not have any exiting loan');\r\n         require(_exists(loanId),'Error: loan id does not exist');\r\n        \r\n        \r\n         uint _redemptionPrice= loanInfo(loanId).redemptionPrice;\r\n         uint _collateral= loanInfo(loanId).collateral;\r\n         token.transferFrom(payer,address(this),_redemptionPrice);\r\n         delete _collaterals[loanId];\r\n         _burn(loanId);\r\n         payable(payer).transfer(_collateral);     \r\n         emit PayBack(address(this),loanId);     \r\n         \r\n    }  \r\n\r\n    function payback(bytes memory _params) public{\r\n\r\n      \r\n       (uint _loanId,address _payer)=abi.decode(_params,(uint,address));\r\n        _payback(_loanId,_payer); \r\n       emit PayBack(_payer,_loanId);  \r\n    \r\n   \r\n      \r\n    }\r\n\r\n\r\n    function getActiveLoans(address addr,uint unixTimeStamp) external view\r\n    returns(uint[] memory)\r\n    {  \r\n     \r\n       uint[] memory _loans= new uint[](_loanCounter(unixTimeStamp));\r\n       if(_loanCounter(unixTimeStamp) >= 1){\r\n\r\n         for(uint i =0;i < _collaterals.length;i++){\r\n         if(ownerOf(i) == addr && isLoanExpiredAt(i,unixTimeStamp) == false){\r\n            _loans[i]=i;\r\n         }\r\n\r\n                }\r\n     \r\n\r\n       }\r\n        return _loans;\r\n       \r\n    }\r\n\r\n    function _loanCounter(uint unixTimeStamp) private view\r\n    returns(uint)\r\n    {\r\n       uint _count;\r\n       for(uint i =0;i < _collaterals.length;i++){\r\n         if(ownerOf(i) == msg.sender && isLoanExpiredAt(i,unixTimeStamp) == false){\r\n            _count = _count + 1;\r\n         }\r\n       }\r\n       return _count;\r\n\r\n    }\r\n\r\n\r\n    function isLoanExpiredAt(uint loanId,uint unixTimeStamp) public view\r\n    returns(bool)\r\n    {  \r\n       \r\n       require(loanId < _collaterals.length,'Error: invalid loan id');\r\n    //    require(_collaterals[loanId].expires != 0,'Error: collateral does not exist');\r\n       require(_exists(loanId),'Error: loan id does not exist');\r\n       return unixTimeStamp  >=  _collaterals[loanId].expires;\r\n\r\n    }\r\n\r\n    \r\n\r\n     \r\n\r\n    function isAnyExpired(uint[] memory _loanIds,uint unixTimeStamp) public view\r\n    returns(bool)\r\n    { \r\n      require(_loanIds.length <= _collaterals.length,'Error: number of id parameters exceeds number of collaterals');\r\n      bool _isExpired;\r\n      for(uint i =0;i < _loanIds.length;i++){\r\n          if(isLoanExpiredAt(_loanIds[i],unixTimeStamp)){\r\n              _isExpired =true;\r\n              break;\r\n          }\r\n      }\r\n      return _isExpired;\r\n    } \r\n\r\n    function getExpiredLoanIds(uint unixTimeStamp) public view\r\n    returns(uint[] memory)\r\n    {\r\n       uint _numberOfExpiredLoans =_expiredLoanCounter(unixTimeStamp);\r\n       if( _numberOfExpiredLoans >= 1){\r\n         uint[] memory _expiredLoanIds = new uint[](_numberOfExpiredLoans);\r\n                 for(uint i = 0; i < _collaterals.length; i++){\r\n           if(isLoanExpiredAt(i,unixTimeStamp) == true){\r\n             _expiredLoanIds[i] = i;\r\n           }\r\n       }\r\n       return _expiredLoanIds;\r\n\r\n       }\r\n       \r\n    //    require(_numberOfExpiredLoans >= 1,'Error No Expired loans found');\r\n      \r\n\r\n    }\r\n   \r\n\r\n   function liquidate(uint loanId) public {\r\n       require(_exists(loanId),'Error cant liqudate loan that does not exist');\r\n       address _previousOwner=ownerOf(loanId);\r\n       require(isLoanExpiredAt(loanId,block.timestamp),'Error: loan has not expired');\r\n      \r\n     \r\n       uint redemptionPrice=loanInfo(loanId).redemptionPrice;\r\n       uint collateral=loanInfo(loanId).collateral;\r\n       token.transferFrom(msg.sender,address(this),redemptionPrice);\r\n       delete _collaterals[loanId];\r\n       _burn(loanId);\r\n   \r\n       msg.sender.transfer(collateral);\r\n       emit Liquidated(_previousOwner,loanId);\r\n   }\r\n   \r\n   function liquidate(bytes memory _params) public{\r\n \r\n    (uint _loanId)=abi.decode(_params,(uint));\r\n    liquidate(_loanId);\r\n   }\r\n  \r\n    \r\n    \r\n    function loanInfo(uint loanId) public view\r\n    returns(Collateral memory)\r\n    {  \r\n       require(loanId < _collaterals.length,'Error: invalid loan id');\r\n       require(_exists(loanId),'Error: loan id does not exist');\r\n       return _collaterals[loanId];\r\n    }\r\n    function getPoolBalance() public view\r\n    returns(uint)\r\n    {\r\n    \r\n        return  token.balanceOf(address(this));\r\n    }\r\n    \r\n     function _expiredLoanCounter(uint unixTimeStamp) internal view\r\n    returns(uint)\r\n    {\r\n        uint _count;\r\n        for(uint i = 0; i < _collaterals.length; i++){\r\n           if(isLoanExpiredAt(i,unixTimeStamp) == true){\r\n             _count= _count + 1;\r\n           }\r\n        }\r\n       return _count;\r\n       \r\n   }\r\n\r\n\r\n\r\n\r\n\r\n\r\n\r\n\r\n\r\n\r\n\r\n\r\n\r\n\r\n\r\n\r\n    //  CUSTOM ERC20 IMPLEMETATION THAT PREVENTS TRANSFER AND APPROVAL OF EXPIRED LOAN\r\n\r\n     function approve(address to, uint256 tokenId) public virtual override {\r\n        require(!isLoanExpiredAt(tokenId,block.timestamp),'Error: cant approve expired collateral for transfer');\r\n        address owner = ownerOf(tokenId);\r\n        require(to != owner, \"ERC721: approval to current owner\");\r\n\r\n        require(_msgSender() == owner || isApprovedForAll(owner, _msgSender()),\r\n            \"ERC721: approve caller is not owner nor approved for all\"\r\n        );\r\n\r\n        _approve(to, tokenId);\r\n       \r\n    }\r\n    function transferFrom(address from, address to, uint256 tokenId) public virtual override {\r\n        require(!isLoanExpiredAt(tokenId,block.timestamp),'Error: cant transfer expired collateral');\r\n        //solhint-disable-next-line max-line-length\r\n        require(_isApprovedOrOwner(_msgSender(), tokenId), \"ERC721: transfer caller is not owner nor approved\");\r\n\r\n        _transfer(from, to, tokenId);\r\n       \r\n    }\r\n     function safeTransferFrom(address from, address to, uint256 tokenId) public virtual override {\r\n        require(!isLoanExpiredAt(tokenId,block.timestamp),'Error: cant transfer expired collateral');\r\n        safeTransferFrom(from, to, tokenId, \"\");\r\n    \r\n    }\r\n\r\n    /**\r\n     * @dev See {IERC721-safeTransferFrom}.\r\n     */\r\n    function safeTransferFrom(address from, address to, uint256 tokenId, bytes memory _data) public virtual override{\r\n        require(!isLoanExpiredAt(tokenId,block.timestamp),'Error: cant transfer expired collateral for ');\r\n        require(_isApprovedOrOwner(_msgSender(), tokenId), \"ERC721: transfer caller is not owner nor approved\");\r\n        _safeTransfer(from, to, tokenId, _data);\r\n\r\n\r\n    }\r\n   \r\n\r\n    \r\n    \r\n}",
  "sourcePath": "C:/Users/osasola/Desktop/js-projects/blockchain/lending-pool/contracts/BRTPOOL.sol",
  "compiler": {
    "name": "solc",
    "version": "0.6.6+commit.6c089d02.Emscripten.clang"
  },
  "schemaVersion": "3.3.2",
  "updatedAt": "2020-12-03T14:39:19.303Z",
  "networkType": "ethereum",
  "devdoc": {
    "methods": {
      "balanceOf(address)": {
        "details": "See {IERC721-balanceOf}."
      },
      "baseURI()": {
        "details": "Returns the base URI set via {_setBaseURI}. This will be automatically added as a prefix in {tokenURI} to each token's URI, or to the token ID if no specific URI is set for that token ID."
      },
      "getApproved(uint256)": {
        "details": "See {IERC721-getApproved}."
      },
      "isApprovedForAll(address,address)": {
        "details": "See {IERC721-isApprovedForAll}."
      },
      "name()": {
        "details": "See {IERC721Metadata-name}."
      },
      "ownerOf(uint256)": {
        "details": "See {IERC721-ownerOf}."
      },
      "safeTransferFrom(address,address,uint256,bytes)": {
        "details": "See {IERC721-safeTransferFrom}."
      },
      "setApprovalForAll(address,bool)": {
        "details": "See {IERC721-setApprovalForAll}."
      },
      "supportsInterface(bytes4)": {
        "details": "See {IERC165-supportsInterface}.     * Time complexity O(1), guaranteed to always use less than 30 000 gas."
      },
      "symbol()": {
        "details": "See {IERC721Metadata-symbol}."
      },
      "tokenByIndex(uint256)": {
        "details": "See {IERC721Enumerable-tokenByIndex}."
      },
      "tokenOfOwnerByIndex(address,uint256)": {
        "details": "See {IERC721Enumerable-tokenOfOwnerByIndex}."
      },
      "tokenURI(uint256)": {
        "details": "See {IERC721Metadata-tokenURI}."
      },
      "totalSupply()": {
        "details": "See {IERC721Enumerable-totalSupply}."
      }
    }
  },
  "userdoc": {
    "methods": {}
  }
}