{
  "contractName": "BRTPOOL",
  "abi": [
    {
      "inputs": [],
      "stateMutability": "nonpayable",
      "type": "constructor"
    },
    {
      "anonymous": false,
      "inputs": [
        {
          "indexed": true,
          "internalType": "address",
          "name": "owner",
          "type": "address"
        },
        {
          "indexed": true,
          "internalType": "address",
          "name": "approved",
          "type": "address"
        },
        {
          "indexed": true,
          "internalType": "uint256",
          "name": "tokenId",
          "type": "uint256"
        }
      ],
      "name": "Approval",
      "type": "event"
    },
    {
      "anonymous": false,
      "inputs": [
        {
          "indexed": true,
          "internalType": "address",
          "name": "owner",
          "type": "address"
        },
        {
          "indexed": true,
          "internalType": "address",
          "name": "operator",
          "type": "address"
        },
        {
          "indexed": false,
          "internalType": "bool",
          "name": "approved",
          "type": "bool"
        }
      ],
      "name": "ApprovalForAll",
      "type": "event"
    },
    {
      "anonymous": false,
      "inputs": [
        {
          "indexed": true,
          "internalType": "address",
          "name": "borrower",
          "type": "address"
        },
        {
          "indexed": false,
          "internalType": "uint256",
          "name": "loanId",
          "type": "uint256"
        },
        {
          "indexed": false,
          "internalType": "uint256",
          "name": "redemptionPrice",
          "type": "uint256"
        },
        {
          "indexed": false,
          "internalType": "uint256",
          "name": "collateral",
          "type": "uint256"
        },
        {
          "indexed": false,
          "internalType": "uint256",
          "name": "expires",
          "type": "uint256"
        }
      ],
      "name": "Borrowed",
      "type": "event"
    },
    {
      "anonymous": false,
      "inputs": [
        {
          "indexed": true,
          "internalType": "address",
          "name": "borrower",
          "type": "address"
        },
        {
          "indexed": false,
          "internalType": "uint256",
          "name": "loanId",
          "type": "uint256"
        }
      ],
      "name": "Liquidated",
      "type": "event"
    },
    {
      "anonymous": false,
      "inputs": [
        {
          "indexed": true,
          "internalType": "address",
          "name": "from",
          "type": "address"
        },
        {
          "indexed": true,
          "internalType": "address",
          "name": "to",
          "type": "address"
        },
        {
          "indexed": true,
          "internalType": "uint256",
          "name": "tokenId",
          "type": "uint256"
        }
      ],
      "name": "Transfer",
      "type": "event"
    },
    {
      "inputs": [
        {
          "internalType": "address",
          "name": "owner",
          "type": "address"
        }
      ],
      "name": "balanceOf",
      "outputs": [
        {
          "internalType": "uint256",
          "name": "",
          "type": "uint256"
        }
      ],
      "stateMutability": "view",
      "type": "function",
      "constant": true
    },
    {
      "inputs": [],
      "name": "baseURI",
      "outputs": [
        {
          "internalType": "string",
          "name": "",
          "type": "string"
        }
      ],
      "stateMutability": "view",
      "type": "function",
      "constant": true
    },
    {
      "inputs": [],
      "name": "borrowTime",
      "outputs": [
        {
          "internalType": "uint256",
          "name": "",
          "type": "uint256"
        }
      ],
      "stateMutability": "view",
      "type": "function",
      "constant": true
    },
    {
      "inputs": [],
      "name": "brtAddr",
      "outputs": [
        {
          "internalType": "address",
          "name": "",
          "type": "address"
        }
      ],
      "stateMutability": "view",
      "type": "function",
      "constant": true
    },
    {
      "inputs": [
        {
          "internalType": "uint256",
          "name": "_loanInBrt",
          "type": "uint256"
        }
      ],
      "name": "calculateCollateral",
      "outputs": [
        {
          "internalType": "uint256",
          "name": "",
          "type": "uint256"
        }
      ],
      "stateMutability": "view",
      "type": "function",
      "constant": true
    },
    {
      "inputs": [
        {
          "internalType": "uint256",
          "name": "_collateralInEth",
          "type": "uint256"
        }
      ],
      "name": "calculateLoan",
      "outputs": [
        {
          "internalType": "uint256",
          "name": "",
          "type": "uint256"
        }
      ],
      "stateMutability": "view",
      "type": "function",
      "constant": true
    },
    {
      "inputs": [],
      "name": "collaterizationRatio",
      "outputs": [
        {
          "internalType": "uint8",
          "name": "",
          "type": "uint8"
        }
      ],
      "stateMutability": "view",
      "type": "function",
      "constant": true
    },
    {
      "inputs": [
        {
          "internalType": "uint256",
          "name": "priceInEth",
          "type": "uint256"
        }
      ],
      "name": "convertToBrtFromEth",
      "outputs": [
        {
          "internalType": "uint256",
          "name": "",
          "type": "uint256"
        }
      ],
      "stateMutability": "view",
      "type": "function",
      "constant": true
    },
    {
      "inputs": [
        {
          "internalType": "uint256",
          "name": "priceInBrt",
          "type": "uint256"
        }
      ],
      "name": "convertToEthFromBrt",
      "outputs": [
        {
          "internalType": "uint256",
          "name": "",
          "type": "uint256"
        }
      ],
      "stateMutability": "view",
      "type": "function",
      "constant": true
    },
    {
      "inputs": [],
      "name": "feePercent",
      "outputs": [
        {
          "internalType": "uint8",
          "name": "",
          "type": "uint8"
        }
      ],
      "stateMutability": "view",
      "type": "function",
      "constant": true
    },
    {
      "inputs": [
        {
          "internalType": "uint256",
          "name": "tokenId",
          "type": "uint256"
        }
      ],
      "name": "getApproved",
      "outputs": [
        {
          "internalType": "address",
          "name": "",
          "type": "address"
        }
      ],
      "stateMutability": "view",
      "type": "function",
      "constant": true
    },
    {
      "inputs": [
        {
          "internalType": "address",
          "name": "owner",
          "type": "address"
        },
        {
          "internalType": "address",
          "name": "operator",
          "type": "address"
        }
      ],
      "name": "isApprovedForAll",
      "outputs": [
        {
          "internalType": "bool",
          "name": "",
          "type": "bool"
        }
      ],
      "stateMutability": "view",
      "type": "function",
      "constant": true
    },
    {
      "inputs": [],
      "name": "name",
      "outputs": [
        {
          "internalType": "string",
          "name": "",
          "type": "string"
        }
      ],
      "stateMutability": "view",
      "type": "function",
      "constant": true
    },
    {
      "inputs": [
        {
          "internalType": "uint256",
          "name": "tokenId",
          "type": "uint256"
        }
      ],
      "name": "ownerOf",
      "outputs": [
        {
          "internalType": "address",
          "name": "",
          "type": "address"
        }
      ],
      "stateMutability": "view",
      "type": "function",
      "constant": true
    },
    {
      "inputs": [
        {
          "internalType": "address",
          "name": "operator",
          "type": "address"
        },
        {
          "internalType": "bool",
          "name": "approved",
          "type": "bool"
        }
      ],
      "name": "setApprovalForAll",
      "outputs": [],
      "stateMutability": "nonpayable",
      "type": "function"
    },
    {
      "inputs": [
        {
          "internalType": "bytes4",
          "name": "interfaceId",
          "type": "bytes4"
        }
      ],
      "name": "supportsInterface",
      "outputs": [
        {
          "internalType": "bool",
          "name": "",
          "type": "bool"
        }
      ],
      "stateMutability": "view",
      "type": "function",
      "constant": true
    },
    {
      "inputs": [],
      "name": "symbol",
      "outputs": [
        {
          "internalType": "string",
          "name": "",
          "type": "string"
        }
      ],
      "stateMutability": "view",
      "type": "function",
      "constant": true
    },
    {
      "inputs": [
        {
          "internalType": "uint256",
          "name": "index",
          "type": "uint256"
        }
      ],
      "name": "tokenByIndex",
      "outputs": [
        {
          "internalType": "uint256",
          "name": "",
          "type": "uint256"
        }
      ],
      "stateMutability": "view",
      "type": "function",
      "constant": true
    },
    {
      "inputs": [],
      "name": "tokenInfo",
      "outputs": [
        {
          "internalType": "uint8",
          "name": "decimals",
          "type": "uint8"
        },
        {
          "internalType": "string",
          "name": "name",
          "type": "string"
        },
        {
          "internalType": "string",
          "name": "symbol",
          "type": "string"
        }
      ],
      "stateMutability": "view",
      "type": "function",
      "constant": true
    },
    {
      "inputs": [
        {
          "internalType": "address",
          "name": "owner",
          "type": "address"
        },
        {
          "internalType": "uint256",
          "name": "index",
          "type": "uint256"
        }
      ],
      "name": "tokenOfOwnerByIndex",
      "outputs": [
        {
          "internalType": "uint256",
          "name": "",
          "type": "uint256"
        }
      ],
      "stateMutability": "view",
      "type": "function",
      "constant": true
    },
    {
      "inputs": [
        {
          "internalType": "uint256",
          "name": "tokenId",
          "type": "uint256"
        }
      ],
      "name": "tokenURI",
      "outputs": [
        {
          "internalType": "string",
          "name": "",
          "type": "string"
        }
      ],
      "stateMutability": "view",
      "type": "function",
      "constant": true
    },
    {
      "inputs": [],
      "name": "totalSupply",
      "outputs": [
        {
          "internalType": "uint256",
          "name": "",
          "type": "uint256"
        }
      ],
      "stateMutability": "view",
      "type": "function",
      "constant": true
    },
    {
      "inputs": [],
      "name": "borrow",
      "outputs": [
        {
          "internalType": "uint256",
          "name": "",
          "type": "uint256"
        }
      ],
      "stateMutability": "payable",
      "type": "function",
      "payable": true
    },
    {
      "inputs": [
        {
          "internalType": "uint256",
          "name": "loanId",
          "type": "uint256"
        }
      ],
      "name": "payback",
      "outputs": [],
      "stateMutability": "nonpayable",
      "type": "function"
    },
    {
      "inputs": [
        {
          "internalType": "address",
          "name": "addr",
          "type": "address"
        },
        {
          "internalType": "uint256",
          "name": "unixTimeStamp",
          "type": "uint256"
        }
      ],
      "name": "getActiveLoans",
      "outputs": [
        {
          "internalType": "uint256[]",
          "name": "",
          "type": "uint256[]"
        }
      ],
      "stateMutability": "view",
      "type": "function",
      "constant": true
    },
    {
      "inputs": [
        {
          "internalType": "uint256",
          "name": "loanId",
          "type": "uint256"
        },
        {
          "internalType": "uint256",
          "name": "unixTimeStamp",
          "type": "uint256"
        }
      ],
      "name": "isLoanExpiredAt",
      "outputs": [
        {
          "internalType": "bool",
          "name": "",
          "type": "bool"
        }
      ],
      "stateMutability": "view",
      "type": "function",
      "constant": true
    },
    {
      "inputs": [
        {
          "internalType": "uint256[]",
          "name": "_loanIds",
          "type": "uint256[]"
        },
        {
          "internalType": "uint256",
          "name": "unixTimeStamp",
          "type": "uint256"
        }
      ],
      "name": "isAnyExpired",
      "outputs": [
        {
          "internalType": "bool",
          "name": "",
          "type": "bool"
        }
      ],
      "stateMutability": "view",
      "type": "function",
      "constant": true
    },
    {
      "inputs": [
        {
          "internalType": "uint256",
          "name": "unixTimeStamp",
          "type": "uint256"
        }
      ],
      "name": "getExpiredLoanIds",
      "outputs": [
        {
          "internalType": "uint256[]",
          "name": "",
          "type": "uint256[]"
        }
      ],
      "stateMutability": "view",
      "type": "function",
      "constant": true
    },
    {
      "inputs": [
        {
          "internalType": "uint256",
          "name": "loanId",
          "type": "uint256"
        }
      ],
      "name": "liquidate",
      "outputs": [],
      "stateMutability": "nonpayable",
      "type": "function"
    },
    {
      "inputs": [
        {
          "internalType": "uint256",
          "name": "loanId",
          "type": "uint256"
        }
      ],
      "name": "loanInfo",
      "outputs": [
        {
          "components": [
            {
              "internalType": "uint256",
              "name": "redemptionPrice",
              "type": "uint256"
            },
            {
              "internalType": "uint256",
              "name": "collateral",
              "type": "uint256"
            },
            {
              "internalType": "uint256",
              "name": "expires",
              "type": "uint256"
            }
          ],
          "internalType": "struct CollateralRedemptionToken.Collateral",
          "name": "",
          "type": "tuple"
        }
      ],
      "stateMutability": "view",
      "type": "function",
      "constant": true
    },
    {
      "inputs": [],
      "name": "getPoolBalance",
      "outputs": [
        {
          "internalType": "uint256",
          "name": "",
          "type": "uint256"
        }
      ],
      "stateMutability": "view",
      "type": "function",
      "constant": true
    },
    {
      "inputs": [
        {
          "internalType": "address",
          "name": "to",
          "type": "address"
        },
        {
          "internalType": "uint256",
          "name": "tokenId",
          "type": "uint256"
        }
      ],
      "name": "approve",
      "outputs": [],
      "stateMutability": "nonpayable",
      "type": "function"
    },
    {
      "inputs": [
        {
          "internalType": "address",
          "name": "from",
          "type": "address"
        },
        {
          "internalType": "address",
          "name": "to",
          "type": "address"
        },
        {
          "internalType": "uint256",
          "name": "tokenId",
          "type": "uint256"
        }
      ],
      "name": "transferFrom",
      "outputs": [],
      "stateMutability": "nonpayable",
      "type": "function"
    },
    {
      "inputs": [
        {
          "internalType": "address",
          "name": "from",
          "type": "address"
        },
        {
          "internalType": "address",
          "name": "to",
          "type": "address"
        },
        {
          "internalType": "uint256",
          "name": "tokenId",
          "type": "uint256"
        }
      ],
      "name": "safeTransferFrom",
      "outputs": [],
      "stateMutability": "nonpayable",
      "type": "function"
    },
    {
      "inputs": [
        {
          "internalType": "address",
          "name": "from",
          "type": "address"
        },
        {
          "internalType": "address",
          "name": "to",
          "type": "address"
        },
        {
          "internalType": "uint256",
          "name": "tokenId",
          "type": "uint256"
        },
        {
          "internalType": "bytes",
          "name": "_data",
          "type": "bytes"
        }
      ],
      "name": "safeTransferFrom",
      "outputs": [],
      "stateMutability": "nonpayable",
      "type": "function"
    }
  ],
  "bytecode": "0x6080604052607d6000806101000a81548160ff021916908360ff1602179055506096600060016101000a81548160ff021916908360ff1602179055506005600060026101000a81548160ff021916908360ff160217905550603c600c553480156200006957600080fd5b506040518060400160405280601b81526020017f436f6c6c61746572616c20526564656d7074696f6e20546f6b656e00000000008152506040518060400160405280600381526020017f4352540000000000000000000000000000000000000000000000000000000000815250620000ee6301ffc9a760e01b6200018060201b60201c565b81600790805190602001906200010692919062000522565b5080600890805190602001906200011f92919062000522565b50620001386380ac58cd60e01b6200018060201b60201c565b62000150635b5e139f60e01b6200018060201b60201c565b6200016863780e9d6360e01b6200018060201b60201c565b50506200017a6200025860201b60201c565b62000852565b63ffffffff60e01b817bffffffffffffffffffffffffffffffffffffffffffffffffffffffff19161415620001ec576040517f08c379a0000000000000000000000000000000000000000000000000000000008152600401620001e39062000733565b60405180910390fd5b6001806000837bffffffffffffffffffffffffffffffffffffffffffffffffffffffff19167bffffffffffffffffffffffffffffffffffffffffffffffffffffffff1916815260200190815260200160002060006101000a81548160ff02191690831515021790555050565b6000306040516200026990620005a9565b62000275919062000716565b604051809103906000f08015801562000292573d6000803e3d6000fd5b50905080600d60006101000a81548173ffffffffffffffffffffffffffffffffffffffff021916908373ffffffffffffffffffffffffffffffffffffffff160217905550600d60009054906101000a900473ffffffffffffffffffffffffffffffffffffffff1673ffffffffffffffffffffffffffffffffffffffff166306fdde036040518163ffffffff1660e01b815260040160006040518083038186803b1580156200033f57600080fd5b505afa15801562000354573d6000803e3d6000fd5b505050506040513d6000823e3d601f19601f820116820180604052508101906200037f919062000652565b600e60010190805190602001906200039992919062000522565b50600d60009054906101000a900473ffffffffffffffffffffffffffffffffffffffff1673ffffffffffffffffffffffffffffffffffffffff166395d89b416040518163ffffffff1660e01b815260040160006040518083038186803b1580156200040357600080fd5b505afa15801562000418573d6000803e3d6000fd5b505050506040513d6000823e3d601f19601f8201168201806040525081019062000443919062000652565b600e60020190805190602001906200045d92919062000522565b50600d60009054906101000a900473ffffffffffffffffffffffffffffffffffffffff1673ffffffffffffffffffffffffffffffffffffffff1663313ce5676040518163ffffffff1660e01b815260040160206040518083038186803b158015620004c757600080fd5b505afa158015620004dc573d6000803e3d6000fd5b505050506040513d601f19601f8201168201806040525081019062000502919062000697565b600e60000160006101000a81548160ff021916908360ff16021790555050565b828054600181600116156101000203166002900490600052602060002090601f016020900481019282601f106200056557805160ff191683800117855562000596565b8280016001018555821562000596579182015b828111156200059557825182559160200191906001019062000578565b5b509050620005a59190620005b7565b5090565b6115478062005a0183390190565b620005dc91905b80821115620005d8576000816000905550600101620005be565b5090565b90565b600082601f830112620005f157600080fd5b815162000608620006028262000783565b62000755565b915080825260208301602083018583830111156200062557600080fd5b6200063283828462000802565b50505092915050565b6000815190506200064c8162000838565b92915050565b6000602082840312156200066557600080fd5b600082015167ffffffffffffffff8111156200068057600080fd5b6200068e84828501620005df565b91505092915050565b600060208284031215620006aa57600080fd5b6000620006ba848285016200063b565b91505092915050565b620006ce81620007c1565b82525050565b6000620006e3601c83620007b0565b91507f4552433136353a20696e76616c696420696e74657266616365206964000000006000830152602082019050919050565b60006020820190506200072d6000830184620006c3565b92915050565b600060208201905081810360008301526200074e81620006d4565b9050919050565b6000604051905081810181811067ffffffffffffffff821117156200077957600080fd5b8060405250919050565b600067ffffffffffffffff8211156200079b57600080fd5b601f19601f8301169050602081019050919050565b600082825260208201905092915050565b6000620007ce82620007d5565b9050919050565b600073ffffffffffffffffffffffffffffffffffffffff82169050919050565b600060ff82169050919050565b60005b838110156200082257808201518184015260208101905062000805565b8381111562000832576000848401525b50505050565b6200084381620007f5565b81146200084f57600080fd5b50565b61519f80620008626000396000f3fe6080604052600436106102045760003560e01c80636addb663116101185780639e0f99d3116100a0578063b88d4fde1161006f578063b88d4fde14610805578063c79cbbdc1461082e578063c87b56dd1461086b578063e68d3569146108a8578063e985e9c5146108c657610204565b80639e0f99d31461074b578063a22cb46514610788578063a846c2fd146107b1578063abd70aa2146107da57610204565b80637fd6f15c116100e75780637fd6f15c1461063e5780638349d6be1461066957806392654f6d146106a6578063934dafd7146106e357806395d89b411461072057610204565b80636addb6631461056c5780636c0360eb1461059957806370168174146105c457806370a082311461060157610204565b80632b542cc81161019b57806343baccdb1161016a57806343baccdb1461044d5780634f6ccce71461048a57806356059339146104c75780635eb6b48d146105045780636352211e1461052f57610204565b80632b542cc8146103815780632f745c59146103be578063415f1240146103fb57806342842e0e1461042457610204565b806318160ddd116101d757806318160ddd146102d7578063225d685f1461030257806323b872dd1461032d57806325845d111461035657610204565b806301ffc9a71461020957806306fdde0314610246578063081812fc14610271578063095ea7b3146102ae575b600080fd5b34801561021557600080fd5b50610230600480360381019061022b9190613aa2565b610903565b60405161023d91906149a1565b60405180910390f35b34801561025257600080fd5b5061025b61096b565b60405161026891906149bc565b60405180910390f35b34801561027d57600080fd5b5061029860048036038101906102939190613af4565b610a0d565b6040516102a591906148b8565b60405180910390f35b3480156102ba57600080fd5b506102d560048036038101906102d091906139e9565b610a92565b005b3480156102e357600080fd5b506102ec610bf4565b6040516102f99190614db9565b60405180910390f35b34801561030e57600080fd5b50610317610c05565b6040516103249190614db9565b60405180910390f35b34801561033957600080fd5b50610354600480360381019061034f91906138e3565b610c0b565b005b34801561036257600080fd5b5061036b610cb5565b60405161037891906148b8565b60405180910390f35b34801561038d57600080fd5b506103a860048036038101906103a391906139e9565b610cdb565b6040516103b5919061497f565b60405180910390f35b3480156103ca57600080fd5b506103e560048036038101906103e091906139e9565b610dda565b6040516103f29190614db9565b60405180910390f35b34801561040757600080fd5b50610422600480360381019061041d9190613af4565b610e35565b005b34801561043057600080fd5b5061044b600480360381019061044691906138e3565b61107f565b005b34801561045957600080fd5b50610474600480360381019061046f9190613af4565b6110e9565b6040516104819190614db9565b60405180910390f35b34801561049657600080fd5b506104b160048036038101906104ac9190613af4565b61111b565b6040516104be9190614db9565b60405180910390f35b3480156104d357600080fd5b506104ee60048036038101906104e99190613af4565b61113e565b6040516104fb9190614db9565b60405180910390f35b34801561051057600080fd5b5061051961117f565b6040516105269190614e19565b60405180910390f35b34801561053b57600080fd5b5061055660048036038101906105519190613af4565b611192565b60405161056391906148b8565b60405180910390f35b34801561057857600080fd5b506105816111c9565b60405161059093929190614e34565b60405180910390f35b3480156105a557600080fd5b506105ae61131e565b6040516105bb91906149bc565b60405180910390f35b3480156105d057600080fd5b506105eb60048036038101906105e69190613b46565b6113c0565b6040516105f891906149a1565b60405180910390f35b34801561060d57600080fd5b506106286004803603810190610623919061387e565b61147b565b6040516106359190614db9565b60405180910390f35b34801561064a57600080fd5b5061065361153a565b6040516106609190614e19565b60405180910390f35b34801561067557600080fd5b50610690600480360381019061068b9190613af4565b61154d565b60405161069d9190614d9e565b60405180910390f35b3480156106b257600080fd5b506106cd60048036038101906106c89190613a25565b61162f565b6040516106da91906149a1565b60405180910390f35b3480156106ef57600080fd5b5061070a60048036038101906107059190613af4565b6116ce565b6040516107179190614db9565b60405180910390f35b34801561072c57600080fd5b5061073561170f565b60405161074291906149bc565b60405180910390f35b34801561075757600080fd5b50610772600480360381019061076d9190613af4565b6117b1565b60405161077f919061497f565b60405180910390f35b34801561079457600080fd5b506107af60048036038101906107aa91906139ad565b611875565b005b3480156107bd57600080fd5b506107d860048036038101906107d39190613af4565b6119f6565b005b3480156107e657600080fd5b506107ef611c7a565b6040516107fc9190614db9565b60405180910390f35b34801561081157600080fd5b5061082c60048036038101906108279190613932565b611d31565b005b34801561083a57600080fd5b5061085560048036038101906108509190613af4565b611ddd565b6040516108629190614db9565b60405180910390f35b34801561087757600080fd5b50610892600480360381019061088d9190613af4565b611e0f565b60405161089f91906149bc565b60405180910390f35b6108b0611f9a565b6040516108bd9190614db9565b60405180910390f35b3480156108d257600080fd5b506108ed60048036038101906108e891906138a7565b61216b565b6040516108fa91906149a1565b60405180910390f35b600060016000837bffffffffffffffffffffffffffffffffffffffffffffffffffffffff19167bffffffffffffffffffffffffffffffffffffffffffffffffffffffff1916815260200190815260200160002060009054906101000a900460ff169050919050565b606060078054600181600116156101000203166002900480601f016020809104026020016040519081016040528092919081815260200182805460018160011615610100020316600290048015610a035780601f106109d857610100808354040283529160200191610a03565b820191906000526020600020905b8154815290600101906020018083116109e657829003601f168201915b5050505050905090565b6000610a18826121ff565b610a57576040517f08c379a0000000000000000000000000000000000000000000000000000000008152600401610a4e90614c5e565b60405180910390fd5b6005600083815260200190815260200160002060009054906101000a900473ffffffffffffffffffffffffffffffffffffffff169050919050565b610a9c81426113c0565b15610adc576040517f08c379a0000000000000000000000000000000000000000000000000000000008152600401610ad390614bbe565b60405180910390fd5b6000610ae782611192565b90508073ffffffffffffffffffffffffffffffffffffffff168373ffffffffffffffffffffffffffffffffffffffff161415610b58576040517f08c379a0000000000000000000000000000000000000000000000000000000008152600401610b4f90614cbe565b60405180910390fd5b8073ffffffffffffffffffffffffffffffffffffffff16610b7761221c565b73ffffffffffffffffffffffffffffffffffffffff161480610ba65750610ba581610ba061221c565b61216b565b5b610be5576040517f08c379a0000000000000000000000000000000000000000000000000000000008152600401610bdc90614b3e565b60405180910390fd5b610bef8383612224565b505050565b6000610c0060036122dd565b905090565b600c5481565b610c1581426113c0565b15610c55576040517f08c379a0000000000000000000000000000000000000000000000000000000008152600401610c4c90614a3e565b60405180910390fd5b610c66610c6061221c565b826122f2565b610ca5576040517f08c379a0000000000000000000000000000000000000000000000000000000008152600401610c9c90614cde565b60405180910390fd5b610cb08383836123d0565b505050565b600d60009054906101000a900473ffffffffffffffffffffffffffffffffffffffff1681565b606080610ce7836125e7565b67ffffffffffffffff81118015610cfd57600080fd5b50604051908082528060200260200182016040528015610d2c5781602001602082028036833780820191505090505b5090506001610d3a846125e7565b10610dd05760008090505b600b80549050811015610dce578473ffffffffffffffffffffffffffffffffffffffff16610d7282611192565b73ffffffffffffffffffffffffffffffffffffffff16148015610da2575060001515610d9e82866113c0565b1515145b15610dc15780828281518110610db457fe5b6020026020010181815250505b8080600101915050610d45565b505b8091505092915050565b6000610e2d82600260008673ffffffffffffffffffffffffffffffffffffffff1673ffffffffffffffffffffffffffffffffffffffff16815260200190815260200160002061267090919063ffffffff16565b905092915050565b610e3e816121ff565b610e7d576040517f08c379a0000000000000000000000000000000000000000000000000000000008152600401610e7490614afe565b60405180910390fd5b6000610e8882611192565b9050610e9482426113c0565b610ed3576040517f08c379a0000000000000000000000000000000000000000000000000000000008152600401610eca90614d1e565b60405180910390fd5b6000600d60009054906101000a900473ffffffffffffffffffffffffffffffffffffffff169050610f02613686565b610f0b8461154d565b90508173ffffffffffffffffffffffffffffffffffffffff166323b872dd333084600001516040518463ffffffff1660e01b8152600401610f4e939291906148d3565b602060405180830381600087803b158015610f6857600080fd5b505af1158015610f7c573d6000803e3d6000fd5b505050506040513d601f19601f82011682018060405250810190610fa09190613a79565b50600b8481548110610fae57fe5b9060005260206000209060030201600080820160009055600182016000905560028201600090555050610fe08461268a565b3373ffffffffffffffffffffffffffffffffffffffff166108fc82602001519081150290604051600060405180830381858888f1935050505015801561102a573d6000803e3d6000fd5b508273ffffffffffffffffffffffffffffffffffffffff167fa5ee7a2b0254fce91deed604506790ed7fa072d0b14cba4859c3bc8955b9caac856040516110719190614db9565b60405180910390a250505050565b61108981426113c0565b156110c9576040517f08c379a00000000000000000000000000000000000000000000000000000000081526004016110c090614a3e565b60405180910390fd5b6110e483838360405180602001604052806000815250611d31565b505050565b6000806111106000809054906101000a900460ff1660ff16846127c490919063ffffffff16565b905080915050919050565b60008061113283600361283490919063ffffffff16565b50905080915050919050565b60008061114a83611ddd565b90506000611173600060019054906101000a900460ff1660ff168361286390919063ffffffff16565b90508092505050919050565b600060019054906101000a900460ff1681565b60006111c2826040518060600160405280602981526020016151416029913960036128939092919063ffffffff16565b9050919050565b600e8060000160009054906101000a900460ff1690806001018054600181600116156101000203166002900480601f0160208091040260200160405190810160405280929190818152602001828054600181600116156101000203166002900480156112765780601f1061124b57610100808354040283529160200191611276565b820191906000526020600020905b81548152906001019060200180831161125957829003601f168201915b505050505090806002018054600181600116156101000203166002900480601f0160208091040260200160405190810160405280929190818152602001828054600181600116156101000203166002900480156113145780601f106112e957610100808354040283529160200191611314565b820191906000526020600020905b8154815290600101906020018083116112f757829003601f168201915b5050505050905083565b6060600a8054600181600116156101000203166002900480601f0160208091040260200160405190810160405280929190818152602001828054600181600116156101000203166002900480156113b65780601f1061138b576101008083540402835291602001916113b6565b820191906000526020600020905b81548152906001019060200180831161139957829003601f168201915b5050505050905090565b6000600b805490508310611409576040517f08c379a000000000000000000000000000000000000000000000000000000000815260040161140090614d5e565b60405180910390fd5b611412836121ff565b611451576040517f08c379a000000000000000000000000000000000000000000000000000000000815260040161144890614d3e565b60405180910390fd5b600b838154811061145e57fe5b906000526020600020906003020160020154821015905092915050565b60008073ffffffffffffffffffffffffffffffffffffffff168273ffffffffffffffffffffffffffffffffffffffff1614156114ec576040517f08c379a00000000000000000000000000000000000000000000000000000000081526004016114e390614b5e565b60405180910390fd5b611533600260008473ffffffffffffffffffffffffffffffffffffffff1673ffffffffffffffffffffffffffffffffffffffff1681526020019081526020016000206128b2565b9050919050565b600060029054906101000a900460ff1681565b611555613686565b600b80549050821061159c576040517f08c379a000000000000000000000000000000000000000000000000000000000815260040161159390614d5e565b60405180910390fd5b6115a5826121ff565b6115e4576040517f08c379a00000000000000000000000000000000000000000000000000000000081526004016115db90614d3e565b60405180910390fd5b600b82815481106115f157fe5b906000526020600020906003020160405180606001604052908160008201548152602001600182015481526020016002820154815250509050919050565b6000600b805490508351111561167a576040517f08c379a000000000000000000000000000000000000000000000000000000000815260040161167190614b1e565b60405180910390fd5b600080600090505b84518110156116c3576116a885828151811061169a57fe5b6020026020010151856113c0565b156116b657600191506116c3565b8080600101915050611682565b508091505092915050565b6000806116da836110e9565b90506000611703600060019054906101000a900460ff1660ff16836128c790919063ffffffff16565b90508092505050919050565b606060088054600181600116156101000203166002900480601f0160208091040260200160405190810160405280929190818152602001828054600181600116156101000203166002900480156117a75780601f1061177c576101008083540402835291602001916117a7565b820191906000526020600020905b81548152906001019060200180831161178a57829003601f168201915b5050505050905090565b606060006117be836128f7565b90506001811061186e5760608167ffffffffffffffff811180156117e157600080fd5b506040519080825280602002602001820160405280156118105781602001602082028036833780820191505090505b50905060008090505b600b80549050811015611863576001151561183482876113c0565b15151415611856578082828151811061184957fe5b6020026020010181815250505b8080600101915050611819565b508092505050611870565b505b919050565b61187d61221c565b73ffffffffffffffffffffffffffffffffffffffff168273ffffffffffffffffffffffffffffffffffffffff1614156118eb576040517f08c379a00000000000000000000000000000000000000000000000000000000081526004016118e290614abe565b60405180910390fd5b80600660006118f861221c565b73ffffffffffffffffffffffffffffffffffffffff1673ffffffffffffffffffffffffffffffffffffffff16815260200190815260200160002060008473ffffffffffffffffffffffffffffffffffffffff1673ffffffffffffffffffffffffffffffffffffffff16815260200190815260200160002060006101000a81548160ff0219169083151502179055508173ffffffffffffffffffffffffffffffffffffffff166119a561221c565b73ffffffffffffffffffffffffffffffffffffffff167f17307eab39ab6107e8899845ad3d59bd9653f200f220920489ca2b5937696c31836040516119ea91906149a1565b60405180910390a35050565b611a0033826122f2565b611a3f576040517f08c379a0000000000000000000000000000000000000000000000000000000008152600401611a3690614a1e565b60405180910390fd5b611a4981426113c0565b15611a89576040517f08c379a0000000000000000000000000000000000000000000000000000000008152600401611a8090614b9e565b60405180910390fd5b6001611a943361147b565b1015611ad5576040517f08c379a0000000000000000000000000000000000000000000000000000000008152600401611acc90614b7e565b60405180910390fd5b611ade816121ff565b611b1d576040517f08c379a0000000000000000000000000000000000000000000000000000000008152600401611b1490614d3e565b60405180910390fd5b6000600d60009054906101000a900473ffffffffffffffffffffffffffffffffffffffff169050611b4c613686565b611b558361154d565b90508173ffffffffffffffffffffffffffffffffffffffff166323b872dd333084600001516040518463ffffffff1660e01b8152600401611b98939291906148d3565b602060405180830381600087803b158015611bb257600080fd5b505af1158015611bc6573d6000803e3d6000fd5b505050506040513d601f19601f82011682018060405250810190611bea9190613a79565b50600b8381548110611bf857fe5b9060005260206000209060030201600080820160009055600182016000905560028201600090555050611c2a8361268a565b3373ffffffffffffffffffffffffffffffffffffffff166108fc82602001519081150290604051600060405180830381858888f19350505050158015611c74573d6000803e3d6000fd5b50505050565b600080600d60009054906101000a900473ffffffffffffffffffffffffffffffffffffffff1690508073ffffffffffffffffffffffffffffffffffffffff166370a08231306040518263ffffffff1660e01b8152600401611cdb91906148b8565b60206040518083038186803b158015611cf357600080fd5b505afa158015611d07573d6000803e3d6000fd5b505050506040513d601f19601f82011682018060405250810190611d2b9190613b1d565b91505090565b611d3b82426113c0565b15611d7b576040517f08c379a0000000000000000000000000000000000000000000000000000000008152600401611d7290614d7e565b60405180910390fd5b611d8c611d8661221c565b836122f2565b611dcb576040517f08c379a0000000000000000000000000000000000000000000000000000000008152600401611dc290614cde565b60405180910390fd5b611dd784848484612941565b50505050565b600080611e046000809054906101000a900460ff1660ff168461299d90919063ffffffff16565b905080915050919050565b6060611e1a826121ff565b611e59576040517f08c379a0000000000000000000000000000000000000000000000000000000008152600401611e5090614c9e565b60405180910390fd5b6060600960008481526020019081526020016000208054600181600116156101000203166002900480601f016020809104026020016040519081016040528092919081815260200182805460018160011615610100020316600290048015611f025780601f10611ed757610100808354040283529160200191611f02565b820191906000526020600020905b815481529060010190602001808311611ee557829003601f168201915b505050505090506000600a8054600181600116156101000203166002900490501415611f315780915050611f95565b600081511115611f6657600a81604051602001611f4f929190614894565b604051602081830303815290604052915050611f95565b600a611f71846129e7565b604051602001611f82929190614894565b6040516020818303038152906040529150505b919050565b600080611fa6346116ce565b9050611fb0611c7a565b8110611ff1576040517f08c379a0000000000000000000000000000000000000000000000000000000008152600401611fe890614bde565b60405180910390fd5b6000612018600060029054906101000a900460ff1660ff168361286390919063ffffffff16565b9050600061202f8284612b2e90919063ffffffff16565b9050600061204842600c54612b2e90919063ffffffff16565b90506000600d60009054906101000a900473ffffffffffffffffffffffffffffffffffffffff1690508073ffffffffffffffffffffffffffffffffffffffff1663a9059cbb33876040518363ffffffff1660e01b81526004016120ac929190614956565b602060405180830381600087803b1580156120c657600080fd5b505af11580156120da573d6000803e3d6000fd5b505050506040513d601f19601f820116820180604052508101906120fe9190613a79565b50600061210c843485612b83565b90503373ffffffffffffffffffffffffffffffffffffffff167f04074d3222dae133379f5d478e841f42f76914bc8ca39d25e0cd120b226710e68286348760405161215a9493929190614dd4565b60405180910390a250505050505090565b6000600660008473ffffffffffffffffffffffffffffffffffffffff1673ffffffffffffffffffffffffffffffffffffffff16815260200190815260200160002060008373ffffffffffffffffffffffffffffffffffffffff1673ffffffffffffffffffffffffffffffffffffffff16815260200190815260200160002060009054906101000a900460ff16905092915050565b6000612215826003612c0d90919063ffffffff16565b9050919050565b600033905090565b816005600083815260200190815260200160002060006101000a81548173ffffffffffffffffffffffffffffffffffffffff021916908373ffffffffffffffffffffffffffffffffffffffff160217905550808273ffffffffffffffffffffffffffffffffffffffff1661229783611192565b73ffffffffffffffffffffffffffffffffffffffff167f8c5be1e5ebec7d5bd14f71427d1e84f3dd0314c0f7b2291e5b200ac8c7c3b92560405160405180910390a45050565b60006122eb82600001612c27565b9050919050565b60006122fd826121ff565b61233c576040517f08c379a000000000000000000000000000000000000000000000000000000000815260040161233390614ade565b60405180910390fd5b600061234783611192565b90508073ffffffffffffffffffffffffffffffffffffffff168473ffffffffffffffffffffffffffffffffffffffff1614806123b657508373ffffffffffffffffffffffffffffffffffffffff1661239e84610a0d565b73ffffffffffffffffffffffffffffffffffffffff16145b806123c757506123c6818561216b565b5b91505092915050565b8273ffffffffffffffffffffffffffffffffffffffff166123f082611192565b73ffffffffffffffffffffffffffffffffffffffff1614612446576040517f08c379a000000000000000000000000000000000000000000000000000000000815260040161243d90614c7e565b60405180910390fd5b600073ffffffffffffffffffffffffffffffffffffffff168273ffffffffffffffffffffffffffffffffffffffff1614156124b6576040517f08c379a00000000000000000000000000000000000000000000000000000000081526004016124ad90614a9e565b60405180910390fd5b6124c1838383612c38565b6124cc600082612224565b61251d81600260008673ffffffffffffffffffffffffffffffffffffffff1673ffffffffffffffffffffffffffffffffffffffff168152602001908152602001600020612c3d90919063ffffffff16565b5061256f81600260008573ffffffffffffffffffffffffffffffffffffffff1673ffffffffffffffffffffffffffffffffffffffff168152602001908152602001600020612c5790919063ffffffff16565b5061258681836003612c719092919063ffffffff16565b50808273ffffffffffffffffffffffffffffffffffffffff168473ffffffffffffffffffffffffffffffffffffffff167fddf252ad1be2c89b69c2b068fc378daa952ba7f163c4a11628f55a4df523b3ef60405160405180910390a4505050565b60008060008090505b600b80549050811015612666573373ffffffffffffffffffffffffffffffffffffffff1661261d82611192565b73ffffffffffffffffffffffffffffffffffffffff1614801561264d57506000151561264982866113c0565b1515145b15612659576001820191505b80806001019150506125f0565b5080915050919050565b600061267f8360000183612ca6565b60001c905092915050565b600061269582611192565b90506126a381600084612c38565b6126ae600083612224565b600060096000848152602001908152602001600020805460018160011615610100020316600290049050146126fd576009600083815260200190815260200160002060006126fc91906136a7565b5b61274e82600260008473ffffffffffffffffffffffffffffffffffffffff1673ffffffffffffffffffffffffffffffffffffffff168152602001908152602001600020612c3d90919063ffffffff16565b50612763826003612d1390919063ffffffff16565b5081600073ffffffffffffffffffffffffffffffffffffffff168273ffffffffffffffffffffffffffffffffffffffff167fddf252ad1be2c89b69c2b068fc378daa952ba7f163c4a11628f55a4df523b3ef60405160405180910390a45050565b6000808314156127d7576000905061282e565b60008284029050828482816127e857fe5b0414612829576040517f08c379a000000000000000000000000000000000000000000000000000000000815260040161282090614c3e565b60405180910390fd5b809150505b92915050565b6000806000806128478660000186612d2d565b915091508160001c8160001c8090509350935050509250929050565b600061288b606461287d84866127c490919063ffffffff16565b61299d90919063ffffffff16565b905092915050565b60006128a6846000018460001b84612db0565b60001c90509392505050565b60006128c082600001612e41565b9050919050565b60006128ef60646128e1848661299d90919063ffffffff16565b6127c490919063ffffffff16565b905092915050565b60008060008090505b600b80549050811015612937576001151561291b82866113c0565b1515141561292a576001820191505b8080600101915050612900565b5080915050919050565b61294c8484846123d0565b61295884848484612e52565b612997576040517f08c379a000000000000000000000000000000000000000000000000000000000815260040161298e906149fe565b60405180910390fd5b50505050565b60006129df83836040518060400160405280601a81526020017f536166654d6174683a206469766973696f6e206279207a65726f000000000000815250612fb6565b905092915050565b60606000821415612a2f576040518060400160405280600181526020017f30000000000000000000000000000000000000000000000000000000000000008152509050612b29565b600082905060005b60008214612a59578080600101915050600a8281612a5157fe5b049150612a37565b60608167ffffffffffffffff81118015612a7257600080fd5b506040519080825280601f01601f191660200182016040528015612aa55781602001600182028036833780820191505090505b50905060006001830390508593505b60008414612b2157600a8481612ac657fe5b0660300160f81b82828060019003935081518110612ae057fe5b60200101907effffffffffffffffffffffffffffffffffffffffffffffffffffffffffffff1916908160001a905350600a8481612b1957fe5b049350612ab4565b819450505050505b919050565b600080828401905083811015612b79576040517f08c379a0000000000000000000000000000000000000000000000000000000008152600401612b7090614a7e565b60405180910390fd5b8091505092915050565b6000600b6040518060600160405280868152602001858152602001848152509080600181540180825580915050600190039060005260206000209060030201600090919091909150600082015181600001556020820151816001015560408201518160020155505060006001600b80549050039050612c023382613017565b809150509392505050565b6000612c1f836000018360001b6131a5565b905092915050565b600081600001805490509050919050565b505050565b6000612c4f836000018360001b6131c8565b905092915050565b6000612c69836000018360001b6132b0565b905092915050565b6000612c9d846000018460001b8473ffffffffffffffffffffffffffffffffffffffff1660001b613320565b90509392505050565b600081836000018054905011612cf1576040517f08c379a0000000000000000000000000000000000000000000000000000000008152600401612ce8906149de565b60405180910390fd5b826000018281548110612d0057fe5b9060005260206000200154905092915050565b6000612d25836000018360001b6133fc565b905092915050565b60008082846000018054905011612d79576040517f08c379a0000000000000000000000000000000000000000000000000000000008152600401612d7090614bfe565b60405180910390fd5b6000846000018481548110612d8a57fe5b906000526020600020906002020190508060000154816001015492509250509250929050565b60008084600101600085815260200190815260200160002054905060008114158390612e12576040517f08c379a0000000000000000000000000000000000000000000000000000000008152600401612e0991906149bc565b60405180910390fd5b50846000016001820381548110612e2557fe5b9060005260206000209060020201600101549150509392505050565b600081600001805490509050919050565b6000612e738473ffffffffffffffffffffffffffffffffffffffff16613515565b612e805760019050612fae565b6060612f4763150b7a0260e01b612e9561221c565b888787604051602401612eab949392919061490a565b604051602081830303815290604052907bffffffffffffffffffffffffffffffffffffffffffffffffffffffff19166020820180517bffffffffffffffffffffffffffffffffffffffffffffffffffffffff838183161783525050505060405180606001604052806032815260200161510f603291398773ffffffffffffffffffffffffffffffffffffffff166135289092919063ffffffff16565b9050600081806020019051810190612f5f9190613acb565b905063150b7a0260e01b7bffffffffffffffffffffffffffffffffffffffffffffffffffffffff1916817bffffffffffffffffffffffffffffffffffffffffffffffffffffffff191614925050505b949350505050565b60008083118290612ffd576040517f08c379a0000000000000000000000000000000000000000000000000000000008152600401612ff491906149bc565b60405180910390fd5b50600083858161300957fe5b049050809150509392505050565b600073ffffffffffffffffffffffffffffffffffffffff168273ffffffffffffffffffffffffffffffffffffffff161415613087576040517f08c379a000000000000000000000000000000000000000000000000000000000815260040161307e90614c1e565b60405180910390fd5b613090816121ff565b156130d0576040517f08c379a00000000000000000000000000000000000000000000000000000000081526004016130c790614a5e565b60405180910390fd5b6130dc60008383612c38565b61312d81600260008573ffffffffffffffffffffffffffffffffffffffff1673ffffffffffffffffffffffffffffffffffffffff168152602001908152602001600020612c5790919063ffffffff16565b5061314481836003612c719092919063ffffffff16565b50808273ffffffffffffffffffffffffffffffffffffffff16600073ffffffffffffffffffffffffffffffffffffffff167fddf252ad1be2c89b69c2b068fc378daa952ba7f163c4a11628f55a4df523b3ef60405160405180910390a45050565b600080836001016000848152602001908152602001600020541415905092915050565b600080836001016000848152602001908152602001600020549050600081146132a4576000600182039050600060018660000180549050039050600086600001828154811061321357fe5b906000526020600020015490508087600001848154811061323057fe5b906000526020600020018190555060018301876001016000838152602001908152602001600020819055508660000180548061326857fe5b600190038181906000526020600020016000905590558660010160008781526020019081526020016000206000905560019450505050506132aa565b60009150505b92915050565b60006132bc8383613540565b61331557826000018290806001815401808255809150506001900390600052602060002001600090919091909150558260000180549050836001016000848152602001908152602001600020819055506001905061331a565b600090505b92915050565b60008084600101600085815260200190815260200160002054905060008114156133c7578460000160405180604001604052808681526020018581525090806001815401808255809150506001900390600052602060002090600202016000909190919091506000820151816000015560208201518160010155505084600001805490508560010160008681526020019081526020016000208190555060019150506133f5565b828560000160018303815481106133da57fe5b90600052602060002090600202016001018190555060009150505b9392505050565b60008083600101600084815260200190815260200160002054905060008114613509576000600182039050600060018660000180549050039050600086600001828154811061344757fe5b906000526020600020906002020190508087600001848154811061346757fe5b90600052602060002090600202016000820154816000015560018201548160010155905050600183018760010160008360000154815260200190815260200160002081905550866000018054806134ba57fe5b600190038181906000526020600020906002020160008082016000905560018201600090555050905586600101600087815260200190815260200160002060009055600194505050505061350f565b60009150505b92915050565b600080823b905060008111915050919050565b60606135378484600085613563565b90509392505050565b600080836001016000848152602001908152602001600020541415905092915050565b606061356e85613515565b6135ad576040517f08c379a00000000000000000000000000000000000000000000000000000000081526004016135a490614cfe565b60405180910390fd5b600060608673ffffffffffffffffffffffffffffffffffffffff1685876040516135d7919061487d565b60006040518083038185875af1925050503d8060008114613614576040519150601f19603f3d011682016040523d82523d6000602084013e613619565b606091505b5091509150811561362e57809250505061367e565b6000815111156136415780518082602001fd5b836040517f08c379a000000000000000000000000000000000000000000000000000000000815260040161367591906149bc565b60405180910390fd5b949350505050565b60405180606001604052806000815260200160008152602001600081525090565b50805460018160011615610100020316600290046000825580601f106136cd57506136ec565b601f0160209004906000526020600020908101906136eb91906136ef565b5b50565b61371191905b8082111561370d5760008160009055506001016136f5565b5090565b90565b600081359050613723816150b2565b92915050565b600082601f83011261373a57600080fd5b813561374d61374882614ea6565b614e79565b9150818183526020840193506020810190508385602084028201111561377257600080fd5b60005b838110156137a257816137888882613854565b845260208401935060208301925050600181019050613775565b5050505092915050565b6000813590506137bb816150c9565b92915050565b6000815190506137d0816150c9565b92915050565b6000813590506137e5816150e0565b92915050565b6000815190506137fa816150e0565b92915050565b600082601f83011261381157600080fd5b813561382461381f82614ece565b614e79565b9150808252602083016020830185838301111561384057600080fd5b61384b83828461505f565b50505092915050565b600081359050613863816150f7565b92915050565b600081519050613878816150f7565b92915050565b60006020828403121561389057600080fd5b600061389e84828501613714565b91505092915050565b600080604083850312156138ba57600080fd5b60006138c885828601613714565b92505060206138d985828601613714565b9150509250929050565b6000806000606084860312156138f857600080fd5b600061390686828701613714565b935050602061391786828701613714565b925050604061392886828701613854565b9150509250925092565b6000806000806080858703121561394857600080fd5b600061395687828801613714565b945050602061396787828801613714565b935050604061397887828801613854565b925050606085013567ffffffffffffffff81111561399557600080fd5b6139a187828801613800565b91505092959194509250565b600080604083850312156139c057600080fd5b60006139ce85828601613714565b92505060206139df858286016137ac565b9150509250929050565b600080604083850312156139fc57600080fd5b6000613a0a85828601613714565b9250506020613a1b85828601613854565b9150509250929050565b60008060408385031215613a3857600080fd5b600083013567ffffffffffffffff811115613a5257600080fd5b613a5e85828601613729565b9250506020613a6f85828601613854565b9150509250929050565b600060208284031215613a8b57600080fd5b6000613a99848285016137c1565b91505092915050565b600060208284031215613ab457600080fd5b6000613ac2848285016137d6565b91505092915050565b600060208284031215613add57600080fd5b6000613aeb848285016137eb565b91505092915050565b600060208284031215613b0657600080fd5b6000613b1484828501613854565b91505092915050565b600060208284031215613b2f57600080fd5b6000613b3d84828501613869565b91505092915050565b60008060408385031215613b5957600080fd5b6000613b6785828601613854565b9250506020613b7885828601613854565b9150509250929050565b6000613b8e8383614850565b60208301905092915050565b613ba381615029565b82525050565b613bb281614fa8565b82525050565b613bc181614f96565b82525050565b6000613bd282614f1f565b613bdc8185614f4d565b9350613be783614efa565b8060005b83811015613c18578151613bff8882613b82565b9750613c0a83614f40565b925050600181019050613beb565b5085935050505092915050565b613c2e81614fba565b82525050565b6000613c3f82614f2a565b613c498185614f5e565b9350613c5981856020860161506e565b613c62816150a1565b840191505092915050565b6000613c7882614f2a565b613c828185614f6f565b9350613c9281856020860161506e565b80840191505092915050565b6000613ca982614f35565b613cb38185614f7a565b9350613cc381856020860161506e565b613ccc816150a1565b840191505092915050565b6000613ce282614f35565b613cec8185614f8b565b9350613cfc81856020860161506e565b80840191505092915050565b600081546001811660008114613d255760018114613d4a57613d8e565b607f6002830416613d368187614f8b565b955060ff1983168652808601935050613d8e565b60028204613d588187614f8b565b9550613d6385614f0a565b60005b82811015613d8557815481890152600182019150602081019050613d66565b82880195505050505b505092915050565b6000613da3602283614f7a565b91507f456e756d657261626c655365743a20696e646578206f7574206f6620626f756e60008301527f64730000000000000000000000000000000000000000000000000000000000006020830152604082019050919050565b6000613e09603283614f7a565b91507f4552433732313a207472616e7366657220746f206e6f6e20455243373231526560008301527f63656976657220696d706c656d656e74657200000000000000000000000000006020830152604082019050919050565b6000613e6f602e83614f7a565b91507f4572726f7220636f6c6c61746572616c20646f65736e742062656c6f6e67207460008301527f6f207468697320616464726573730000000000000000000000000000000000006020830152604082019050919050565b6000613ed5602783614f7a565b91507f4572726f723a2063616e74207472616e73666572206578706972656420636f6c60008301527f6c61746572616c000000000000000000000000000000000000000000000000006020830152604082019050919050565b6000613f3b601c83614f7a565b91507f4552433732313a20746f6b656e20616c7265616479206d696e746564000000006000830152602082019050919050565b6000613f7b601b83614f7a565b91507f536166654d6174683a206164646974696f6e206f766572666c6f7700000000006000830152602082019050919050565b6000613fbb602483614f7a565b91507f4552433732313a207472616e7366657220746f20746865207a65726f2061646460008301527f72657373000000000000000000000000000000000000000000000000000000006020830152604082019050919050565b6000614021601983614f7a565b91507f4552433732313a20617070726f766520746f2063616c6c6572000000000000006000830152602082019050919050565b6000614061602c83614f7a565b91507f4552433732313a206f70657261746f7220717565727920666f72206e6f6e657860008301527f697374656e7420746f6b656e00000000000000000000000000000000000000006020830152604082019050919050565b60006140c7602c83614f7a565b91507f4572726f722063616e74206c69717564617465206c6f616e207468617420646f60008301527f6573206e6f7420657869737400000000000000000000000000000000000000006020830152604082019050919050565b600061412d603c83614f7a565b91507f4572726f723a206e756d626572206f6620696420706172616d6574657273206560008301527f786365656473206e756d626572206f6620636f6c6c61746572616c73000000006020830152604082019050919050565b6000614193603883614f7a565b91507f4552433732313a20617070726f76652063616c6c6572206973206e6f74206f7760008301527f6e6572206e6f7220617070726f76656420666f7220616c6c00000000000000006020830152604082019050919050565b60006141f9602a83614f7a565b91507f4552433732313a2062616c616e636520717565727920666f7220746865207a6560008301527f726f2061646472657373000000000000000000000000000000000000000000006020830152604082019050919050565b600061425f602083614f7a565b91507f796f7520646f206e6f74206861766520616e792065786974696e67206c6f616e6000830152602082019050919050565b600061429f601683614f7a565b91507f4572726f723a6c6f616e206861732065787069726564000000000000000000006000830152602082019050919050565b60006142df603383614f7a565b91507f4572726f723a2063616e7420617070726f7665206578706972656420636f6c6c60008301527f61746572616c20666f72207472616e73666572000000000000000000000000006020830152604082019050919050565b6000614345602483614f7a565b91507f63616e7420626f72726f77206d6f7265207468616e20706f6f6c206c6971756960008301527f64697479000000000000000000000000000000000000000000000000000000006020830152604082019050919050565b60006143ab602283614f7a565b91507f456e756d657261626c654d61703a20696e646578206f7574206f6620626f756e60008301527f64730000000000000000000000000000000000000000000000000000000000006020830152604082019050919050565b6000614411602083614f7a565b91507f4552433732313a206d696e7420746f20746865207a65726f20616464726573736000830152602082019050919050565b6000614451602183614f7a565b91507f536166654d6174683a206d756c7469706c69636174696f6e206f766572666c6f60008301527f77000000000000000000000000000000000000000000000000000000000000006020830152604082019050919050565b60006144b7602c83614f7a565b91507f4552433732313a20617070726f76656420717565727920666f72206e6f6e657860008301527f697374656e7420746f6b656e00000000000000000000000000000000000000006020830152604082019050919050565b600061451d602983614f7a565b91507f4552433732313a207472616e73666572206f6620746f6b656e2074686174206960008301527f73206e6f74206f776e00000000000000000000000000000000000000000000006020830152604082019050919050565b6000614583602f83614f7a565b91507f4552433732314d657461646174613a2055524920717565727920666f72206e6f60008301527f6e6578697374656e7420746f6b656e00000000000000000000000000000000006020830152604082019050919050565b60006145e9602183614f7a565b91507f4552433732313a20617070726f76616c20746f2063757272656e74206f776e6560008301527f72000000000000000000000000000000000000000000000000000000000000006020830152604082019050919050565b600061464f603183614f7a565b91507f4552433732313a207472616e736665722063616c6c6572206973206e6f74206f60008301527f776e6572206e6f7220617070726f7665640000000000000000000000000000006020830152604082019050919050565b60006146b5601d83614f7a565b91507f416464726573733a2063616c6c20746f206e6f6e2d636f6e74726163740000006000830152602082019050919050565b60006146f5601b83614f7a565b91507f4572726f723a206c6f616e20686173206e6f74206578706972656400000000006000830152602082019050919050565b6000614735601d83614f7a565b91507f4572726f723a206c6f616e20696420646f6573206e6f742065786973740000006000830152602082019050919050565b6000614775601683614f7a565b91507f4572726f723a20696e76616c6964206c6f616e206964000000000000000000006000830152602082019050919050565b60006147b5602c83614f7a565b91507f4572726f723a2063616e74207472616e73666572206578706972656420636f6c60008301527f6c61746572616c20666f722000000000000000000000000000000000000000006020830152604082019050919050565b6060820160008201516148246000850182614850565b5060208201516148376020850182614850565b50604082015161484a6040850182614850565b50505050565b61485981615012565b82525050565b61486881615012565b82525050565b6148778161501c565b82525050565b60006148898284613c6d565b915081905092915050565b60006148a08285613d08565b91506148ac8284613cd7565b91508190509392505050565b60006020820190506148cd6000830184613bb8565b92915050565b60006060820190506148e86000830186613b9a565b6148f56020830185613bb8565b614902604083018461485f565b949350505050565b600060808201905061491f6000830187613ba9565b61492c6020830186613bb8565b614939604083018561485f565b818103606083015261494b8184613c34565b905095945050505050565b600060408201905061496b6000830185613b9a565b614978602083018461485f565b9392505050565b600060208201905081810360008301526149998184613bc7565b905092915050565b60006020820190506149b66000830184613c25565b92915050565b600060208201905081810360008301526149d68184613c9e565b905092915050565b600060208201905081810360008301526149f781613d96565b9050919050565b60006020820190508181036000830152614a1781613dfc565b9050919050565b60006020820190508181036000830152614a3781613e62565b9050919050565b60006020820190508181036000830152614a5781613ec8565b9050919050565b60006020820190508181036000830152614a7781613f2e565b9050919050565b60006020820190508181036000830152614a9781613f6e565b9050919050565b60006020820190508181036000830152614ab781613fae565b9050919050565b60006020820190508181036000830152614ad781614014565b9050919050565b60006020820190508181036000830152614af781614054565b9050919050565b60006020820190508181036000830152614b17816140ba565b9050919050565b60006020820190508181036000830152614b3781614120565b9050919050565b60006020820190508181036000830152614b5781614186565b9050919050565b60006020820190508181036000830152614b77816141ec565b9050919050565b60006020820190508181036000830152614b9781614252565b9050919050565b60006020820190508181036000830152614bb781614292565b9050919050565b60006020820190508181036000830152614bd7816142d2565b9050919050565b60006020820190508181036000830152614bf781614338565b9050919050565b60006020820190508181036000830152614c178161439e565b9050919050565b60006020820190508181036000830152614c3781614404565b9050919050565b60006020820190508181036000830152614c5781614444565b9050919050565b60006020820190508181036000830152614c77816144aa565b9050919050565b60006020820190508181036000830152614c9781614510565b9050919050565b60006020820190508181036000830152614cb781614576565b9050919050565b60006020820190508181036000830152614cd7816145dc565b9050919050565b60006020820190508181036000830152614cf781614642565b9050919050565b60006020820190508181036000830152614d17816146a8565b9050919050565b60006020820190508181036000830152614d37816146e8565b9050919050565b60006020820190508181036000830152614d5781614728565b9050919050565b60006020820190508181036000830152614d7781614768565b9050919050565b60006020820190508181036000830152614d97816147a8565b9050919050565b6000606082019050614db3600083018461480e565b92915050565b6000602082019050614dce600083018461485f565b92915050565b6000608082019050614de9600083018761485f565b614df6602083018661485f565b614e03604083018561485f565b614e10606083018461485f565b95945050505050565b6000602082019050614e2e600083018461486e565b92915050565b6000606082019050614e49600083018661486e565b8181036020830152614e5b8185613c9e565b90508181036040830152614e6f8184613c9e565b9050949350505050565b6000604051905081810181811067ffffffffffffffff82111715614e9c57600080fd5b8060405250919050565b600067ffffffffffffffff821115614ebd57600080fd5b602082029050602081019050919050565b600067ffffffffffffffff821115614ee557600080fd5b601f19601f8301169050602081019050919050565b6000819050602082019050919050565b60008190508160005260206000209050919050565b600081519050919050565b600081519050919050565b600081519050919050565b6000602082019050919050565b600082825260208201905092915050565b600082825260208201905092915050565b600081905092915050565b600082825260208201905092915050565b600081905092915050565b6000614fa182614ff2565b9050919050565b6000614fb382614ff2565b9050919050565b60008115159050919050565b60007fffffffff0000000000000000000000000000000000000000000000000000000082169050919050565b600073ffffffffffffffffffffffffffffffffffffffff82169050919050565b6000819050919050565b600060ff82169050919050565b60006150348261503b565b9050919050565b60006150468261504d565b9050919050565b600061505882614ff2565b9050919050565b82818337600083830152505050565b60005b8381101561508c578082015181840152602081019050615071565b8381111561509b576000848401525b50505050565b6000601f19601f8301169050919050565b6150bb81614f96565b81146150c657600080fd5b50565b6150d281614fba565b81146150dd57600080fd5b50565b6150e981614fc6565b81146150f457600080fd5b50565b61510081615012565b811461510b57600080fd5b5056fe4552433732313a207472616e7366657220746f206e6f6e20455243373231526563656976657220696d706c656d656e7465724552433732313a206f776e657220717565727920666f72206e6f6e6578697374656e7420746f6b656ea2646970667358221220d0f3eeaeb0e1ee3ce26c92ea0d5a5b37e05c8444fbf44cdb06c48632b7c41c9164736f6c6343000606003360806040523480156200001157600080fd5b506040516200154738038062001547833981810160405260208110156200003757600080fd5b81019080805190602001909291905050506040518060400160405280600e81526020017f426f72726f77656420546f6b656e0000000000000000000000000000000000008152506040518060400160405280600381526020017f42525400000000000000000000000000000000000000000000000000000000008152508160039080519060200190620000cc92919062000397565b508060049080519060200190620000e592919062000397565b506012600560006101000a81548160ff021916908360ff16021790555050506200012481670de0b6b3a7640000633b9aca00026200012b60201b60201c565b5062000446565b600073ffffffffffffffffffffffffffffffffffffffff168273ffffffffffffffffffffffffffffffffffffffff161415620001cf576040517f08c379a000000000000000000000000000000000000000000000000000000000815260040180806020018281038252601f8152602001807f45524332303a206d696e7420746f20746865207a65726f20616464726573730081525060200191505060405180910390fd5b620001e3600083836200030960201b60201c565b620001ff816002546200030e60201b62000f2d1790919060201c565b6002819055506200025d816000808573ffffffffffffffffffffffffffffffffffffffff1673ffffffffffffffffffffffffffffffffffffffff168152602001908152602001600020546200030e60201b62000f2d1790919060201c565b6000808473ffffffffffffffffffffffffffffffffffffffff1673ffffffffffffffffffffffffffffffffffffffff168152602001908152602001600020819055508173ffffffffffffffffffffffffffffffffffffffff16600073ffffffffffffffffffffffffffffffffffffffff167fddf252ad1be2c89b69c2b068fc378daa952ba7f163c4a11628f55a4df523b3ef836040518082815260200191505060405180910390a35050565b505050565b6000808284019050838110156200038d576040517f08c379a000000000000000000000000000000000000000000000000000000000815260040180806020018281038252601b8152602001807f536166654d6174683a206164646974696f6e206f766572666c6f77000000000081525060200191505060405180910390fd5b8091505092915050565b828054600181600116156101000203166002900490600052602060002090601f016020900481019282601f10620003da57805160ff19168380011785556200040b565b828001600101855582156200040b579182015b828111156200040a578251825591602001919060010190620003ed565b5b5090506200041a91906200041e565b5090565b6200044391905b808211156200043f57600081600090555060010162000425565b5090565b90565b6110f180620004566000396000f3fe608060405234801561001057600080fd5b50600436106100a95760003560e01c80633950935111610071578063395093511461025f57806370a08231146102c557806395d89b411461031d578063a457c2d7146103a0578063a9059cbb14610406578063dd62ed3e1461046c576100a9565b806306fdde03146100ae578063095ea7b31461013157806318160ddd1461019757806323b872dd146101b5578063313ce5671461023b575b600080fd5b6100b66104e4565b6040518080602001828103825283818151815260200191508051906020019080838360005b838110156100f65780820151818401526020810190506100db565b50505050905090810190601f1680156101235780820380516001836020036101000a031916815260200191505b509250505060405180910390f35b61017d6004803603604081101561014757600080fd5b81019080803573ffffffffffffffffffffffffffffffffffffffff16906020019092919080359060200190929190505050610586565b604051808215151515815260200191505060405180910390f35b61019f6105a4565b6040518082815260200191505060405180910390f35b610221600480360360608110156101cb57600080fd5b81019080803573ffffffffffffffffffffffffffffffffffffffff169060200190929190803573ffffffffffffffffffffffffffffffffffffffff169060200190929190803590602001909291905050506105ae565b604051808215151515815260200191505060405180910390f35b610243610687565b604051808260ff1660ff16815260200191505060405180910390f35b6102ab6004803603604081101561027557600080fd5b81019080803573ffffffffffffffffffffffffffffffffffffffff1690602001909291908035906020019092919050505061069e565b604051808215151515815260200191505060405180910390f35b610307600480360360208110156102db57600080fd5b81019080803573ffffffffffffffffffffffffffffffffffffffff169060200190929190505050610751565b6040518082815260200191505060405180910390f35b610325610799565b6040518080602001828103825283818151815260200191508051906020019080838360005b8381101561036557808201518184015260208101905061034a565b50505050905090810190601f1680156103925780820380516001836020036101000a031916815260200191505b509250505060405180910390f35b6103ec600480360360408110156103b657600080fd5b81019080803573ffffffffffffffffffffffffffffffffffffffff1690602001909291908035906020019092919050505061083b565b604051808215151515815260200191505060405180910390f35b6104526004803603604081101561041c57600080fd5b81019080803573ffffffffffffffffffffffffffffffffffffffff16906020019092919080359060200190929190505050610908565b604051808215151515815260200191505060405180910390f35b6104ce6004803603604081101561048257600080fd5b81019080803573ffffffffffffffffffffffffffffffffffffffff169060200190929190803573ffffffffffffffffffffffffffffffffffffffff169060200190929190505050610926565b6040518082815260200191505060405180910390f35b606060038054600181600116156101000203166002900480601f01602080910402602001604051908101604052809291908181526020018280546001816001161561010002031660029004801561057c5780601f106105515761010080835404028352916020019161057c565b820191906000526020600020905b81548152906001019060200180831161055f57829003601f168201915b5050505050905090565b600061059a6105936109ad565b84846109b5565b6001905092915050565b6000600254905090565b60006105bb848484610bac565b61067c846105c76109ad565b6106778560405180606001604052806028815260200161102660289139600160008b73ffffffffffffffffffffffffffffffffffffffff1673ffffffffffffffffffffffffffffffffffffffff168152602001908152602001600020600061062d6109ad565b73ffffffffffffffffffffffffffffffffffffffff1673ffffffffffffffffffffffffffffffffffffffff16815260200190815260200160002054610e6d9092919063ffffffff16565b6109b5565b600190509392505050565b6000600560009054906101000a900460ff16905090565b60006107476106ab6109ad565b8461074285600160006106bc6109ad565b73ffffffffffffffffffffffffffffffffffffffff1673ffffffffffffffffffffffffffffffffffffffff16815260200190815260200160002060008973ffffffffffffffffffffffffffffffffffffffff1673ffffffffffffffffffffffffffffffffffffffff16815260200190815260200160002054610f2d90919063ffffffff16565b6109b5565b6001905092915050565b60008060008373ffffffffffffffffffffffffffffffffffffffff1673ffffffffffffffffffffffffffffffffffffffff168152602001908152602001600020549050919050565b606060048054600181600116156101000203166002900480601f0160208091040260200160405190810160405280929190818152602001828054600181600116156101000203166002900480156108315780601f1061080657610100808354040283529160200191610831565b820191906000526020600020905b81548152906001019060200180831161081457829003601f168201915b5050505050905090565b60006108fe6108486109ad565b846108f98560405180606001604052806025815260200161109760259139600160006108726109ad565b73ffffffffffffffffffffffffffffffffffffffff1673ffffffffffffffffffffffffffffffffffffffff16815260200190815260200160002060008a73ffffffffffffffffffffffffffffffffffffffff1673ffffffffffffffffffffffffffffffffffffffff16815260200190815260200160002054610e6d9092919063ffffffff16565b6109b5565b6001905092915050565b600061091c6109156109ad565b8484610bac565b6001905092915050565b6000600160008473ffffffffffffffffffffffffffffffffffffffff1673ffffffffffffffffffffffffffffffffffffffff16815260200190815260200160002060008373ffffffffffffffffffffffffffffffffffffffff1673ffffffffffffffffffffffffffffffffffffffff16815260200190815260200160002054905092915050565b600033905090565b600073ffffffffffffffffffffffffffffffffffffffff168373ffffffffffffffffffffffffffffffffffffffff161415610a3b576040517f08c379a00000000000000000000000000000000000000000000000000000000081526004018080602001828103825260248152602001806110736024913960400191505060405180910390fd5b600073ffffffffffffffffffffffffffffffffffffffff168273ffffffffffffffffffffffffffffffffffffffff161415610ac1576040517f08c379a0000000000000000000000000000000000000000000000000000000008152600401808060200182810382526022815260200180610fde6022913960400191505060405180910390fd5b80600160008573ffffffffffffffffffffffffffffffffffffffff1673ffffffffffffffffffffffffffffffffffffffff16815260200190815260200160002060008473ffffffffffffffffffffffffffffffffffffffff1673ffffffffffffffffffffffffffffffffffffffff168152602001908152602001600020819055508173ffffffffffffffffffffffffffffffffffffffff168373ffffffffffffffffffffffffffffffffffffffff167f8c5be1e5ebec7d5bd14f71427d1e84f3dd0314c0f7b2291e5b200ac8c7c3b925836040518082815260200191505060405180910390a3505050565b600073ffffffffffffffffffffffffffffffffffffffff168373ffffffffffffffffffffffffffffffffffffffff161415610c32576040517f08c379a000000000000000000000000000000000000000000000000000000000815260040180806020018281038252602581526020018061104e6025913960400191505060405180910390fd5b600073ffffffffffffffffffffffffffffffffffffffff168273ffffffffffffffffffffffffffffffffffffffff161415610cb8576040517f08c379a0000000000000000000000000000000000000000000000000000000008152600401808060200182810382526023815260200180610fbb6023913960400191505060405180910390fd5b610cc3838383610fb5565b610d2e81604051806060016040528060268152602001611000602691396000808773ffffffffffffffffffffffffffffffffffffffff1673ffffffffffffffffffffffffffffffffffffffff16815260200190815260200160002054610e6d9092919063ffffffff16565b6000808573ffffffffffffffffffffffffffffffffffffffff1673ffffffffffffffffffffffffffffffffffffffff16815260200190815260200160002081905550610dc1816000808573ffffffffffffffffffffffffffffffffffffffff1673ffffffffffffffffffffffffffffffffffffffff16815260200190815260200160002054610f2d90919063ffffffff16565b6000808473ffffffffffffffffffffffffffffffffffffffff1673ffffffffffffffffffffffffffffffffffffffff168152602001908152602001600020819055508173ffffffffffffffffffffffffffffffffffffffff168373ffffffffffffffffffffffffffffffffffffffff167fddf252ad1be2c89b69c2b068fc378daa952ba7f163c4a11628f55a4df523b3ef836040518082815260200191505060405180910390a3505050565b6000838311158290610f1a576040517f08c379a00000000000000000000000000000000000000000000000000000000081526004018080602001828103825283818151815260200191508051906020019080838360005b83811015610edf578082015181840152602081019050610ec4565b50505050905090810190601f168015610f0c5780820380516001836020036101000a031916815260200191505b509250505060405180910390fd5b5060008385039050809150509392505050565b600080828401905083811015610fab576040517f08c379a000000000000000000000000000000000000000000000000000000000815260040180806020018281038252601b8152602001807f536166654d6174683a206164646974696f6e206f766572666c6f77000000000081525060200191505060405180910390fd5b8091505092915050565b50505056fe45524332303a207472616e7366657220746f20746865207a65726f206164647265737345524332303a20617070726f766520746f20746865207a65726f206164647265737345524332303a207472616e7366657220616d6f756e7420657863656564732062616c616e636545524332303a207472616e7366657220616d6f756e74206578636565647320616c6c6f77616e636545524332303a207472616e736665722066726f6d20746865207a65726f206164647265737345524332303a20617070726f76652066726f6d20746865207a65726f206164647265737345524332303a2064656372656173656420616c6c6f77616e63652062656c6f77207a65726fa2646970667358221220aea2ad1c636222207e6ccb9492e16c0864fda1579db073e9fbb4b1c041df477b64736f6c63430006060033",
  "source": "pragma solidity ^0.6.0;\r\npragma experimental ABIEncoderV2;\r\nimport '@openzeppelin/contracts/math/SafeMath.sol';\r\nimport './tokens/BRT.sol';\r\nimport './libraries/SafePercentage.sol';\r\nimport './BRTPOOLUTILS.SOL';\r\nimport './tokens/CollateralRedemptionToken.sol';\r\ncontract BRTPOOL is BRTPOOLUTILS ,CollateralRedemptionToken{\r\n    address public brtAddr;\r\n    struct BrtTokenInfo{\r\n        uint8 decimals;\r\n        string name;\r\n        string symbol;\r\n\r\n    }\r\n    BrtTokenInfo public tokenInfo;\r\n    using SafePercentage for uint;\r\n    using SafeMath for uint;\r\n\r\n    constructor() public{\r\n      _createBrtTokenAndAddLiquidityToPool();\r\n     \r\n\r\n    }\r\n    \r\n    event Borrowed(address indexed borrower,uint loanId,  uint redemptionPrice,uint collateral,uint expires);\r\n    event Liquidated(address indexed borrower,uint  loanId);\r\n   \r\n    function borrow() public  payable\r\n    returns(uint)\r\n    {\r\n        uint loan = calculateLoan(msg.value);\r\n        require(loan < getPoolBalance(),'cant borrow more than pool liquidity');\r\n        uint fee=loan.percentMul(feePercent);\r\n        uint redemptionPrice =loan.add(fee);\r\n        uint expires=borrowTime.add(block.timestamp);\r\n\r\n        BRT brtToken=BRT(brtAddr);\r\n        brtToken.transfer(msg.sender,loan); \r\n        uint id = _issueCollateralToken(redemptionPrice, msg.value, expires);\r\n        emit Borrowed(msg.sender,id,redemptionPrice,msg.value,expires);\r\n    }\r\n\r\n//   1603910689\r\n\r\n   \r\n    function payback(uint loanId) external{\r\n         require(_isApprovedOrOwner(msg.sender, loanId),'Error collateral doesnt belong to this address');\r\n         require(!isLoanExpiredAt(loanId,block.timestamp),'Error:loan has expired');\r\n         require(balanceOf(msg.sender) >= 1,'you do not have any exiting loan');\r\n         require(_exists(loanId),'Error: loan id does not exist');\r\n         BRT brtToken=BRT(brtAddr);\r\n         Collateral memory _loanInfo= loanInfo(loanId);\r\n         brtToken.transferFrom(msg.sender,address(this),_loanInfo.redemptionPrice);\r\n         delete _collaterals[loanId];\r\n         _burn(loanId);\r\n         msg.sender.transfer(_loanInfo.collateral);\r\n         \r\n    }  \r\n\r\n\r\n\r\n    function getActiveLoans(address addr,uint unixTimeStamp) external view\r\n    returns(uint[] memory)\r\n    {  \r\n     \r\n       uint[] memory _loans= new uint[](_loanCounter(unixTimeStamp));\r\n       if(_loanCounter(unixTimeStamp) >= 1){\r\n\r\n         for(uint i =0;i < _collaterals.length;i++){\r\n         if(ownerOf(i) == addr && isLoanExpiredAt(i,unixTimeStamp) == false){\r\n            _loans[i]=i;\r\n         }\r\n\r\n                }\r\n     \r\n\r\n       }\r\n        return _loans;\r\n       \r\n    }\r\n\r\n    function _loanCounter(uint unixTimeStamp) private view\r\n    returns(uint)\r\n    {\r\n       uint _count;\r\n       for(uint i =0;i < _collaterals.length;i++){\r\n         if(ownerOf(i) == msg.sender && isLoanExpiredAt(i,unixTimeStamp) == false){\r\n            _count = _count + 1;\r\n         }\r\n       }\r\n       return _count;\r\n\r\n    }\r\n\r\n\r\n    function isLoanExpiredAt(uint loanId,uint unixTimeStamp) public view\r\n    returns(bool)\r\n    {  \r\n       \r\n       require(loanId < _collaterals.length,'Error: invalid loan id');\r\n    //    require(_collaterals[loanId].expires != 0,'Error: collateral does not exist');\r\n       require(_exists(loanId),'Error: loan id does not exist');\r\n       return unixTimeStamp  >=  _collaterals[loanId].expires;\r\n\r\n    }\r\n\r\n    \r\n\r\n     \r\n\r\n    function isAnyExpired(uint[] memory _loanIds,uint unixTimeStamp) public view\r\n    returns(bool)\r\n    { \r\n      require(_loanIds.length <= _collaterals.length,'Error: number of id parameters exceeds number of collaterals');\r\n      bool _isExpired;\r\n      for(uint i =0;i < _loanIds.length;i++){\r\n          if(isLoanExpiredAt(_loanIds[i],unixTimeStamp)){\r\n              _isExpired =true;\r\n              break;\r\n          }\r\n      }\r\n      return _isExpired;\r\n    } \r\n\r\n    function getExpiredLoanIds(uint unixTimeStamp) public view\r\n    returns(uint[] memory)\r\n    {\r\n       uint _numberOfExpiredLoans =_expiredLoanCounter(unixTimeStamp);\r\n       if( _numberOfExpiredLoans >= 1){\r\n         uint[] memory _expiredLoanIds = new uint[](_numberOfExpiredLoans);\r\n                 for(uint i = 0; i < _collaterals.length; i++){\r\n           if(isLoanExpiredAt(i,unixTimeStamp) == true){\r\n             _expiredLoanIds[i] = i;\r\n           }\r\n       }\r\n       return _expiredLoanIds;\r\n\r\n       }\r\n       \r\n    //    require(_numberOfExpiredLoans >= 1,'Error No Expired loans found');\r\n      \r\n\r\n    }\r\n   \r\n\r\n   function liquidate(uint loanId) external {\r\n       require(_exists(loanId),'Error cant liqudate loan that does not exist');\r\n       address _previousOwner=ownerOf(loanId);\r\n       require(isLoanExpiredAt(loanId,block.timestamp),'Error: loan has not expired');\r\n      \r\n     \r\n       BRT brtToken =BRT(brtAddr);\r\n       Collateral memory _loanInfo=loanInfo(loanId);\r\n       brtToken.transferFrom(msg.sender,address(this),_loanInfo.redemptionPrice);\r\n       delete _collaterals[loanId];\r\n       _burn(loanId);\r\n   \r\n       msg.sender.transfer(_loanInfo.collateral);\r\n       emit Liquidated(_previousOwner,loanId);\r\n   }\r\n\r\n    \r\n\r\n    function loanInfo(uint loanId) public view\r\n    returns(Collateral memory)\r\n    {  \r\n       require(loanId < _collaterals.length,'Error: invalid loan id');\r\n       require(_exists(loanId),'Error: loan id does not exist');\r\n       return _collaterals[loanId];\r\n    }\r\n    function getPoolBalance() public view\r\n    returns(uint)\r\n    {\r\n        BRT brtToken  = BRT(brtAddr);\r\n        return brtToken.balanceOf(address(this));\r\n    }\r\n    \r\n     function _expiredLoanCounter(uint unixTimeStamp) internal view\r\n    returns(uint)\r\n    {\r\n        uint _count;\r\n        for(uint i = 0; i < _collaterals.length; i++){\r\n           if(isLoanExpiredAt(i,unixTimeStamp) == true){\r\n             _count= _count + 1;\r\n           }\r\n        }\r\n       return _count;\r\n       \r\n   }\r\n\r\n    function _createBrtTokenAndAddLiquidityToPool ()private{\r\n        BRT brtToken = new BRT(address(this));\r\n        brtAddr = address(brtToken);\r\n        tokenInfo.name = BRT(brtAddr).name();\r\n        tokenInfo.symbol = BRT(brtAddr).symbol();\r\n        tokenInfo.decimals = BRT(brtAddr).decimals();\r\n    }\r\n     \r\n\r\n\r\n\r\n\r\n\r\n\r\n\r\n\r\n\r\n\r\n\r\n\r\n\r\n\r\n    //  CUSTOM ERC20 IMPLEMETATION THAT PREVENTS TRANSFER AND APPROVAL OF EXPIRED LOAN\r\n\r\n     function approve(address to, uint256 tokenId) public virtual override {\r\n        require(!isLoanExpiredAt(tokenId,block.timestamp),'Error: cant approve expired collateral for transfer');\r\n        address owner = ownerOf(tokenId);\r\n        require(to != owner, \"ERC721: approval to current owner\");\r\n\r\n        require(_msgSender() == owner || isApprovedForAll(owner, _msgSender()),\r\n            \"ERC721: approve caller is not owner nor approved for all\"\r\n        );\r\n\r\n        _approve(to, tokenId);\r\n       \r\n    }\r\n    function transferFrom(address from, address to, uint256 tokenId) public virtual override {\r\n        require(!isLoanExpiredAt(tokenId,block.timestamp),'Error: cant transfer expired collateral');\r\n        //solhint-disable-next-line max-line-length\r\n        require(_isApprovedOrOwner(_msgSender(), tokenId), \"ERC721: transfer caller is not owner nor approved\");\r\n\r\n        _transfer(from, to, tokenId);\r\n       \r\n    }\r\n     function safeTransferFrom(address from, address to, uint256 tokenId) public virtual override {\r\n        require(!isLoanExpiredAt(tokenId,block.timestamp),'Error: cant transfer expired collateral');\r\n        safeTransferFrom(from, to, tokenId, \"\");\r\n    \r\n    }\r\n\r\n    /**\r\n     * @dev See {IERC721-safeTransferFrom}.\r\n     */\r\n    function safeTransferFrom(address from, address to, uint256 tokenId, bytes memory _data) public virtual override{\r\n        require(!isLoanExpiredAt(tokenId,block.timestamp),'Error: cant transfer expired collateral for ');\r\n        require(_isApprovedOrOwner(_msgSender(), tokenId), \"ERC721: transfer caller is not owner nor approved\");\r\n        _safeTransfer(from, to, tokenId, _data);\r\n\r\n\r\n    }\r\n   \r\n\r\n    \r\n    \r\n}",
  "sourcePath": "C:/Users/osasola/Desktop/js-projects/blockchain/lending-pool/contracts/BRTPOOL.sol",
  "compiler": {
    "name": "solc",
    "version": "0.6.6+commit.6c089d02.Emscripten.clang"
  },
  "schemaVersion": "3.0.22",
  "updatedAt": "2020-11-15T14:04:04.736Z",
  "networkType": "ethereum",
  "devdoc": {
    "methods": {
      "balanceOf(address)": {
        "details": "See {IERC721-balanceOf}."
      },
      "baseURI()": {
        "details": "Returns the base URI set via {_setBaseURI}. This will be automatically added as a prefix in {tokenURI} to each token's URI, or to the token ID if no specific URI is set for that token ID."
      },
      "getApproved(uint256)": {
        "details": "See {IERC721-getApproved}."
      },
      "isApprovedForAll(address,address)": {
        "details": "See {IERC721-isApprovedForAll}."
      },
      "name()": {
        "details": "See {IERC721Metadata-name}."
      },
      "ownerOf(uint256)": {
        "details": "See {IERC721-ownerOf}."
      },
      "safeTransferFrom(address,address,uint256,bytes)": {
        "details": "See {IERC721-safeTransferFrom}."
      },
      "setApprovalForAll(address,bool)": {
        "details": "See {IERC721-setApprovalForAll}."
      },
      "supportsInterface(bytes4)": {
        "details": "See {IERC165-supportsInterface}.     * Time complexity O(1), guaranteed to always use less than 30 000 gas."
      },
      "symbol()": {
        "details": "See {IERC721Metadata-symbol}."
      },
      "tokenByIndex(uint256)": {
        "details": "See {IERC721Enumerable-tokenByIndex}."
      },
      "tokenOfOwnerByIndex(address,uint256)": {
        "details": "See {IERC721Enumerable-tokenOfOwnerByIndex}."
      },
      "tokenURI(uint256)": {
        "details": "See {IERC721Metadata-tokenURI}."
      },
      "totalSupply()": {
        "details": "See {IERC721Enumerable-totalSupply}."
      }
    }
  },
  "userdoc": {
    "methods": {}
  }
}