{
  "contractName": "BRTPOOL",
  "abi": [
    {
      "inputs": [],
      "stateMutability": "nonpayable",
      "type": "constructor"
    },
    {
      "anonymous": false,
      "inputs": [
        {
          "indexed": true,
          "internalType": "address",
          "name": "owner",
          "type": "address"
        },
        {
          "indexed": true,
          "internalType": "address",
          "name": "approved",
          "type": "address"
        },
        {
          "indexed": true,
          "internalType": "uint256",
          "name": "tokenId",
          "type": "uint256"
        }
      ],
      "name": "Approval",
      "type": "event"
    },
    {
      "anonymous": false,
      "inputs": [
        {
          "indexed": true,
          "internalType": "address",
          "name": "owner",
          "type": "address"
        },
        {
          "indexed": true,
          "internalType": "address",
          "name": "operator",
          "type": "address"
        },
        {
          "indexed": false,
          "internalType": "bool",
          "name": "approved",
          "type": "bool"
        }
      ],
      "name": "ApprovalForAll",
      "type": "event"
    },
    {
      "anonymous": false,
      "inputs": [
        {
          "indexed": true,
          "internalType": "address",
          "name": "borrower",
          "type": "address"
        },
        {
          "indexed": false,
          "internalType": "uint256",
          "name": "loanId",
          "type": "uint256"
        },
        {
          "indexed": false,
          "internalType": "uint256",
          "name": "redemptionPrice",
          "type": "uint256"
        },
        {
          "indexed": false,
          "internalType": "uint256",
          "name": "collateral",
          "type": "uint256"
        },
        {
          "indexed": false,
          "internalType": "uint256",
          "name": "expires",
          "type": "uint256"
        }
      ],
      "name": "Borrowed",
      "type": "event"
    },
    {
      "anonymous": false,
      "inputs": [
        {
          "indexed": true,
          "internalType": "address",
          "name": "borrower",
          "type": "address"
        },
        {
          "indexed": false,
          "internalType": "uint256",
          "name": "loanId",
          "type": "uint256"
        }
      ],
      "name": "Liquidated",
      "type": "event"
    },
    {
      "anonymous": false,
      "inputs": [
        {
          "indexed": true,
          "internalType": "address",
          "name": "from",
          "type": "address"
        },
        {
          "indexed": true,
          "internalType": "address",
          "name": "to",
          "type": "address"
        },
        {
          "indexed": true,
          "internalType": "uint256",
          "name": "tokenId",
          "type": "uint256"
        }
      ],
      "name": "Transfer",
      "type": "event"
    },
    {
      "inputs": [
        {
          "internalType": "address",
          "name": "owner",
          "type": "address"
        }
      ],
      "name": "balanceOf",
      "outputs": [
        {
          "internalType": "uint256",
          "name": "",
          "type": "uint256"
        }
      ],
      "stateMutability": "view",
      "type": "function"
    },
    {
      "inputs": [],
      "name": "baseURI",
      "outputs": [
        {
          "internalType": "string",
          "name": "",
          "type": "string"
        }
      ],
      "stateMutability": "view",
      "type": "function"
    },
    {
      "inputs": [],
      "name": "brtAddr",
      "outputs": [
        {
          "internalType": "address",
          "name": "",
          "type": "address"
        }
      ],
      "stateMutability": "view",
      "type": "function"
    },
    {
      "inputs": [
        {
          "internalType": "uint256",
          "name": "_loanInBrt",
          "type": "uint256"
        }
      ],
      "name": "calculateCollateral",
      "outputs": [
        {
          "internalType": "uint256",
          "name": "",
          "type": "uint256"
        }
      ],
      "stateMutability": "view",
      "type": "function"
    },
    {
      "inputs": [
        {
          "internalType": "uint256",
          "name": "_collateralInEth",
          "type": "uint256"
        }
      ],
      "name": "calculateLoan",
      "outputs": [
        {
          "internalType": "uint256",
          "name": "",
          "type": "uint256"
        }
      ],
      "stateMutability": "view",
      "type": "function"
    },
    {
      "inputs": [],
      "name": "collaterizationRatio",
      "outputs": [
        {
          "internalType": "uint8",
          "name": "",
          "type": "uint8"
        }
      ],
      "stateMutability": "view",
      "type": "function"
    },
    {
      "inputs": [
        {
          "internalType": "uint256",
          "name": "priceInEth",
          "type": "uint256"
        }
      ],
      "name": "convertToBrtFromEth",
      "outputs": [
        {
          "internalType": "uint256",
          "name": "",
          "type": "uint256"
        }
      ],
      "stateMutability": "view",
      "type": "function"
    },
    {
      "inputs": [
        {
          "internalType": "uint256",
          "name": "priceInBrt",
          "type": "uint256"
        }
      ],
      "name": "convertToEthFromBrt",
      "outputs": [
        {
          "internalType": "uint256",
          "name": "",
          "type": "uint256"
        }
      ],
      "stateMutability": "view",
      "type": "function"
    },
    {
      "inputs": [
        {
          "internalType": "uint256",
          "name": "tokenId",
          "type": "uint256"
        }
      ],
      "name": "getApproved",
      "outputs": [
        {
          "internalType": "address",
          "name": "",
          "type": "address"
        }
      ],
      "stateMutability": "view",
      "type": "function"
    },
    {
      "inputs": [
        {
          "internalType": "address",
          "name": "owner",
          "type": "address"
        },
        {
          "internalType": "address",
          "name": "operator",
          "type": "address"
        }
      ],
      "name": "isApprovedForAll",
      "outputs": [
        {
          "internalType": "bool",
          "name": "",
          "type": "bool"
        }
      ],
      "stateMutability": "view",
      "type": "function"
    },
    {
      "inputs": [],
      "name": "name",
      "outputs": [
        {
          "internalType": "string",
          "name": "",
          "type": "string"
        }
      ],
      "stateMutability": "view",
      "type": "function"
    },
    {
      "inputs": [
        {
          "internalType": "uint256",
          "name": "tokenId",
          "type": "uint256"
        }
      ],
      "name": "ownerOf",
      "outputs": [
        {
          "internalType": "address",
          "name": "",
          "type": "address"
        }
      ],
      "stateMutability": "view",
      "type": "function"
    },
    {
      "inputs": [
        {
          "internalType": "address",
          "name": "operator",
          "type": "address"
        },
        {
          "internalType": "bool",
          "name": "approved",
          "type": "bool"
        }
      ],
      "name": "setApprovalForAll",
      "outputs": [],
      "stateMutability": "nonpayable",
      "type": "function"
    },
    {
      "inputs": [
        {
          "internalType": "bytes4",
          "name": "interfaceId",
          "type": "bytes4"
        }
      ],
      "name": "supportsInterface",
      "outputs": [
        {
          "internalType": "bool",
          "name": "",
          "type": "bool"
        }
      ],
      "stateMutability": "view",
      "type": "function"
    },
    {
      "inputs": [],
      "name": "symbol",
      "outputs": [
        {
          "internalType": "string",
          "name": "",
          "type": "string"
        }
      ],
      "stateMutability": "view",
      "type": "function"
    },
    {
      "inputs": [
        {
          "internalType": "uint256",
          "name": "index",
          "type": "uint256"
        }
      ],
      "name": "tokenByIndex",
      "outputs": [
        {
          "internalType": "uint256",
          "name": "",
          "type": "uint256"
        }
      ],
      "stateMutability": "view",
      "type": "function"
    },
    {
      "inputs": [],
      "name": "tokenInfo",
      "outputs": [
        {
          "internalType": "uint8",
          "name": "decimals",
          "type": "uint8"
        },
        {
          "internalType": "string",
          "name": "name",
          "type": "string"
        },
        {
          "internalType": "string",
          "name": "symbol",
          "type": "string"
        }
      ],
      "stateMutability": "view",
      "type": "function"
    },
    {
      "inputs": [
        {
          "internalType": "address",
          "name": "owner",
          "type": "address"
        },
        {
          "internalType": "uint256",
          "name": "index",
          "type": "uint256"
        }
      ],
      "name": "tokenOfOwnerByIndex",
      "outputs": [
        {
          "internalType": "uint256",
          "name": "",
          "type": "uint256"
        }
      ],
      "stateMutability": "view",
      "type": "function"
    },
    {
      "inputs": [
        {
          "internalType": "uint256",
          "name": "tokenId",
          "type": "uint256"
        }
      ],
      "name": "tokenURI",
      "outputs": [
        {
          "internalType": "string",
          "name": "",
          "type": "string"
        }
      ],
      "stateMutability": "view",
      "type": "function"
    },
    {
      "inputs": [],
      "name": "totalSupply",
      "outputs": [
        {
          "internalType": "uint256",
          "name": "",
          "type": "uint256"
        }
      ],
      "stateMutability": "view",
      "type": "function"
    },
    {
      "inputs": [],
      "name": "borrow",
      "outputs": [
        {
          "internalType": "uint256",
          "name": "",
          "type": "uint256"
        }
      ],
      "stateMutability": "payable",
      "type": "function"
    },
    {
      "inputs": [
        {
          "internalType": "uint256",
          "name": "loanId",
          "type": "uint256"
        }
      ],
      "name": "payback",
      "outputs": [],
      "stateMutability": "nonpayable",
      "type": "function"
    },
    {
      "inputs": [],
      "name": "getActiveLoans",
      "outputs": [
        {
          "internalType": "uint256[]",
          "name": "",
          "type": "uint256[]"
        }
      ],
      "stateMutability": "view",
      "type": "function"
    },
    {
      "inputs": [
        {
          "internalType": "uint256",
          "name": "loanId",
          "type": "uint256"
        }
      ],
      "name": "isExpired",
      "outputs": [
        {
          "internalType": "bool",
          "name": "",
          "type": "bool"
        }
      ],
      "stateMutability": "view",
      "type": "function"
    },
    {
      "inputs": [
        {
          "internalType": "uint256[]",
          "name": "_loanIds",
          "type": "uint256[]"
        }
      ],
      "name": "isAnyExpired",
      "outputs": [
        {
          "internalType": "bool",
          "name": "",
          "type": "bool"
        }
      ],
      "stateMutability": "view",
      "type": "function"
    },
    {
      "inputs": [],
      "name": "getExpiredLoanIds",
      "outputs": [
        {
          "internalType": "uint256[]",
          "name": "",
          "type": "uint256[]"
        }
      ],
      "stateMutability": "view",
      "type": "function"
    },
    {
      "inputs": [
        {
          "internalType": "uint256",
          "name": "loanId",
          "type": "uint256"
        }
      ],
      "name": "liquidate",
      "outputs": [],
      "stateMutability": "nonpayable",
      "type": "function"
    },
    {
      "inputs": [
        {
          "internalType": "uint256",
          "name": "loanId",
          "type": "uint256"
        }
      ],
      "name": "loanInfo",
      "outputs": [
        {
          "components": [
            {
              "internalType": "uint256",
              "name": "redemptionPrice",
              "type": "uint256"
            },
            {
              "internalType": "uint256",
              "name": "collateral",
              "type": "uint256"
            },
            {
              "internalType": "uint256",
              "name": "expires",
              "type": "uint256"
            }
          ],
          "internalType": "struct CollateralRedemptionToken.Collateral",
          "name": "",
          "type": "tuple"
        }
      ],
      "stateMutability": "view",
      "type": "function"
    },
    {
      "inputs": [],
      "name": "getPoolBalance",
      "outputs": [
        {
          "internalType": "uint256",
          "name": "",
          "type": "uint256"
        }
      ],
      "stateMutability": "view",
      "type": "function"
    },
    {
      "inputs": [
        {
          "internalType": "address",
          "name": "to",
          "type": "address"
        },
        {
          "internalType": "uint256",
          "name": "tokenId",
          "type": "uint256"
        }
      ],
      "name": "approve",
      "outputs": [],
      "stateMutability": "nonpayable",
      "type": "function"
    },
    {
      "inputs": [
        {
          "internalType": "address",
          "name": "from",
          "type": "address"
        },
        {
          "internalType": "address",
          "name": "to",
          "type": "address"
        },
        {
          "internalType": "uint256",
          "name": "tokenId",
          "type": "uint256"
        }
      ],
      "name": "transferFrom",
      "outputs": [],
      "stateMutability": "nonpayable",
      "type": "function"
    },
    {
      "inputs": [
        {
          "internalType": "address",
          "name": "from",
          "type": "address"
        },
        {
          "internalType": "address",
          "name": "to",
          "type": "address"
        },
        {
          "internalType": "uint256",
          "name": "tokenId",
          "type": "uint256"
        }
      ],
      "name": "safeTransferFrom",
      "outputs": [],
      "stateMutability": "nonpayable",
      "type": "function"
    },
    {
      "inputs": [
        {
          "internalType": "address",
          "name": "from",
          "type": "address"
        },
        {
          "internalType": "address",
          "name": "to",
          "type": "address"
        },
        {
          "internalType": "uint256",
          "name": "tokenId",
          "type": "uint256"
        },
        {
          "internalType": "bytes",
          "name": "_data",
          "type": "bytes"
        }
      ],
      "name": "safeTransferFrom",
      "outputs": [],
      "stateMutability": "nonpayable",
      "type": "function"
    }
  ],
  "bytecode": "0x6080604052607d6000806101000a81548160ff021916908360ff1602179055506096600060016101000a81548160ff021916908360ff1602179055506078600c553480156200004d57600080fd5b506040518060400160405280601b81526020017f436f6c6c61746572616c20526564656d7074696f6e20546f6b656e00000000008152506040518060400160405280600381526020017f4352540000000000000000000000000000000000000000000000000000000000815250620000d26301ffc9a760e01b6200016460201b60201c565b8160079080519060200190620000ea92919062000506565b5080600890805190602001906200010392919062000506565b506200011c6380ac58cd60e01b6200016460201b60201c565b62000134635b5e139f60e01b6200016460201b60201c565b6200014c63780e9d6360e01b6200016460201b60201c565b50506200015e6200023c60201b60201c565b62000836565b63ffffffff60e01b817bffffffffffffffffffffffffffffffffffffffffffffffffffffffff19161415620001d0576040517f08c379a0000000000000000000000000000000000000000000000000000000008152600401620001c79062000717565b60405180910390fd5b6001806000837bffffffffffffffffffffffffffffffffffffffffffffffffffffffff19167bffffffffffffffffffffffffffffffffffffffffffffffffffffffff1916815260200190815260200160002060006101000a81548160ff02191690831515021790555050565b6000306040516200024d906200058d565b620002599190620006fa565b604051809103906000f08015801562000276573d6000803e3d6000fd5b50905080600d60006101000a81548173ffffffffffffffffffffffffffffffffffffffff021916908373ffffffffffffffffffffffffffffffffffffffff160217905550600d60009054906101000a900473ffffffffffffffffffffffffffffffffffffffff1673ffffffffffffffffffffffffffffffffffffffff166306fdde036040518163ffffffff1660e01b815260040160006040518083038186803b1580156200032357600080fd5b505afa15801562000338573d6000803e3d6000fd5b505050506040513d6000823e3d601f19601f8201168201806040525081019062000363919062000636565b600e60010190805190602001906200037d92919062000506565b50600d60009054906101000a900473ffffffffffffffffffffffffffffffffffffffff1673ffffffffffffffffffffffffffffffffffffffff166395d89b416040518163ffffffff1660e01b815260040160006040518083038186803b158015620003e757600080fd5b505afa158015620003fc573d6000803e3d6000fd5b505050506040513d6000823e3d601f19601f8201168201806040525081019062000427919062000636565b600e60020190805190602001906200044192919062000506565b50600d60009054906101000a900473ffffffffffffffffffffffffffffffffffffffff1673ffffffffffffffffffffffffffffffffffffffff1663313ce5676040518163ffffffff1660e01b815260040160206040518083038186803b158015620004ab57600080fd5b505afa158015620004c0573d6000803e3d6000fd5b505050506040513d601f19601f82011682018060405250810190620004e691906200067b565b600e60000160006101000a81548160ff021916908360ff16021790555050565b828054600181600116156101000203166002900490600052602060002090601f016020900481019282601f106200054957805160ff19168380011785556200057a565b828001600101855582156200057a579182015b82811115620005795782518255916020019190600101906200055c565b5b5090506200058991906200059b565b5090565b6115478062005a1b83390190565b620005c091905b80821115620005bc576000816000905550600101620005a2565b5090565b90565b600082601f830112620005d557600080fd5b8151620005ec620005e68262000767565b62000739565b915080825260208301602083018583830111156200060957600080fd5b62000616838284620007e6565b50505092915050565b60008151905062000630816200081c565b92915050565b6000602082840312156200064957600080fd5b600082015167ffffffffffffffff8111156200066457600080fd5b6200067284828501620005c3565b91505092915050565b6000602082840312156200068e57600080fd5b60006200069e848285016200061f565b91505092915050565b620006b281620007a5565b82525050565b6000620006c7601c8362000794565b91507f4552433136353a20696e76616c696420696e74657266616365206964000000006000830152602082019050919050565b6000602082019050620007116000830184620006a7565b92915050565b600060208201905081810360008301526200073281620006b8565b9050919050565b6000604051905081810181811067ffffffffffffffff821117156200075d57600080fd5b8060405250919050565b600067ffffffffffffffff8211156200077f57600080fd5b601f19601f8301169050602081019050919050565b600082825260208201905092915050565b6000620007b282620007b9565b9050919050565b600073ffffffffffffffffffffffffffffffffffffffff82169050919050565b600060ff82169050919050565b60005b8381101562000806578082015181840152602081019050620007e9565b8381111562000816576000848401525b50505050565b6200082781620007d9565b81146200083357600080fd5b50565b6151d580620008466000396000f3fe6080604052600436106101ee5760003560e01c80636352211e1161010d578063a770e501116100a0578063c79cbbdc1161006f578063c79cbbdc14610761578063c87b56dd1461079e578063d9548e53146107db578063e68d356914610818578063e985e9c514610836576101ee565b8063a770e501146106a7578063a846c2fd146106e4578063abd70aa21461070d578063b88d4fde14610738576101ee565b80638349d6be116100dc5780638349d6be146105d9578063934dafd71461061657806395d89b4114610653578063a22cb4651461067e576101ee565b80636352211e146105075780636addb663146105445780636c0360eb1461057157806370a082311461059c576101ee565b806325845d111161018557806343baccdb1161015457806343baccdb146104255780634f6ccce714610462578063560593391461049f5780635eb6b48d146104dc576101ee565b806325845d111461036b5780632f745c5914610396578063415f1240146103d357806342842e0e146103fc576101ee565b8063121ed2a7116101c1578063121ed2a7146102c157806318160ddd146102ec57806323b872dd14610317578063247ab5d814610340576101ee565b806301ffc9a7146101f357806306fdde0314610230578063081812fc1461025b578063095ea7b314610298575b600080fd5b3480156101ff57600080fd5b5061021a60048036038101906102159190613a54565b610873565b6040516102279190614997565b60405180910390f35b34801561023c57600080fd5b506102456108db565b60405161025291906149b2565b60405180910390f35b34801561026757600080fd5b50610282600480360381019061027d9190613aa6565b61097d565b60405161028f91906148ae565b60405180910390f35b3480156102a457600080fd5b506102bf60048036038101906102ba91906139ae565b610a02565b005b3480156102cd57600080fd5b506102d6610b63565b6040516102e39190614975565b60405180910390f35b3480156102f857600080fd5b50610301610c46565b60405161030e9190614def565b60405180910390f35b34801561032357600080fd5b5061033e600480360381019061033991906138a8565b610c57565b005b34801561034c57600080fd5b50610355610d00565b6040516103629190614975565b60405180910390f35b34801561037757600080fd5b50610380610ded565b60405161038d91906148ae565b60405180910390f35b3480156103a257600080fd5b506103bd60048036038101906103b891906139ae565b610e13565b6040516103ca9190614def565b60405180910390f35b3480156103df57600080fd5b506103fa60048036038101906103f59190613aa6565b610e6e565b005b34801561040857600080fd5b50610423600480360381019061041e91906138a8565b6110b7565b005b34801561043157600080fd5b5061044c60048036038101906104479190613aa6565b611120565b6040516104599190614def565b60405180910390f35b34801561046e57600080fd5b5061048960048036038101906104849190613aa6565b611152565b6040516104969190614def565b60405180910390f35b3480156104ab57600080fd5b506104c660048036038101906104c19190613aa6565b611175565b6040516104d39190614def565b60405180910390f35b3480156104e857600080fd5b506104f16111b6565b6040516104fe9190614e4f565b60405180910390f35b34801561051357600080fd5b5061052e60048036038101906105299190613aa6565b6111c9565b60405161053b91906148ae565b60405180910390f35b34801561055057600080fd5b50610559611200565b60405161056893929190614e6a565b60405180910390f35b34801561057d57600080fd5b50610586611355565b60405161059391906149b2565b60405180910390f35b3480156105a857600080fd5b506105c360048036038101906105be9190613843565b6113f7565b6040516105d09190614def565b60405180910390f35b3480156105e557600080fd5b5061060060048036038101906105fb9190613aa6565b6114b6565b60405161060d9190614dd4565b60405180910390f35b34801561062257600080fd5b5061063d60048036038101906106389190613aa6565b611598565b60405161064a9190614def565b60405180910390f35b34801561065f57600080fd5b506106686115d9565b60405161067591906149b2565b60405180910390f35b34801561068a57600080fd5b506106a560048036038101906106a09190613972565b61167b565b005b3480156106b357600080fd5b506106ce60048036038101906106c991906139ea565b6117fc565b6040516106db9190614997565b60405180910390f35b3480156106f057600080fd5b5061070b60048036038101906107069190613aa6565b611899565b005b34801561071957600080fd5b50610722611b1c565b60405161072f9190614def565b60405180910390f35b34801561074457600080fd5b5061075f600480360381019061075a91906138f7565b611bd3565b005b34801561076d57600080fd5b5061078860048036038101906107839190613aa6565b611c7e565b6040516107959190614def565b60405180910390f35b3480156107aa57600080fd5b506107c560048036038101906107c09190613aa6565b611cb0565b6040516107d291906149b2565b60405180910390f35b3480156107e757600080fd5b5061080260048036038101906107fd9190613aa6565b611e3b565b60405161080f9190614997565b60405180910390f35b610820611f64565b60405161082d9190614def565b60405180910390f35b34801561084257600080fd5b5061085d6004803603810190610858919061386c565b612132565b60405161086a9190614997565b60405180910390f35b600060016000837bffffffffffffffffffffffffffffffffffffffffffffffffffffffff19167bffffffffffffffffffffffffffffffffffffffffffffffffffffffff1916815260200190815260200160002060009054906101000a900460ff169050919050565b606060078054600181600116156101000203166002900480601f0160208091040260200160405190810160405280929190818152602001828054600181600116156101000203166002900480156109735780601f1061094857610100808354040283529160200191610973565b820191906000526020600020905b81548152906001019060200180831161095657829003601f168201915b5050505050905090565b6000610988826121c6565b6109c7576040517f08c379a00000000000000000000000000000000000000000000000000000000081526004016109be90614c74565b60405180910390fd5b6005600083815260200190815260200160002060009054906101000a900473ffffffffffffffffffffffffffffffffffffffff169050919050565b610a0b81611e3b565b15610a4b576040517f08c379a0000000000000000000000000000000000000000000000000000000008152600401610a4290614bd4565b60405180910390fd5b6000610a56826111c9565b90508073ffffffffffffffffffffffffffffffffffffffff168373ffffffffffffffffffffffffffffffffffffffff161415610ac7576040517f08c379a0000000000000000000000000000000000000000000000000000000008152600401610abe90614cd4565b60405180910390fd5b8073ffffffffffffffffffffffffffffffffffffffff16610ae66121e3565b73ffffffffffffffffffffffffffffffffffffffff161480610b155750610b1481610b0f6121e3565b612132565b5b610b54576040517f08c379a0000000000000000000000000000000000000000000000000000000008152600401610b4b90614b74565b60405180910390fd5b610b5e83836121eb565b505050565b606080610b6e6122a4565b67ffffffffffffffff81118015610b8457600080fd5b50604051908082528060200260200182016040528015610bb35781602001602082028036833780820191505090505b50905060008090505b600b80549050811015610c3e573373ffffffffffffffffffffffffffffffffffffffff16610be9826111c9565b73ffffffffffffffffffffffffffffffffffffffff16148015610c125750610c1081611e3b565b155b15610c315780828281518110610c2457fe5b6020026020010181815250505b8080600101915050610bbc565b508091505090565b6000610c526003612324565b905090565b610c6081611e3b565b15610ca0576040517f08c379a0000000000000000000000000000000000000000000000000000000008152600401610c9790614a54565b60405180910390fd5b610cb1610cab6121e3565b82612339565b610cf0576040517f08c379a0000000000000000000000000000000000000000000000000000000008152600401610ce790614d14565b60405180910390fd5b610cfb838383612417565b505050565b60606000610d0c61262e565b905060018111610d51576040517f08c379a0000000000000000000000000000000000000000000000000000000008152600401610d4890614cf4565b60405180910390fd5b60608167ffffffffffffffff81118015610d6a57600080fd5b50604051908082528060200260200182016040528015610d995781602001602082028036833780820191505090505b50905060008090505b600b80549050811015610de457610db881611e3b565b15610dd75780828281518110610dca57fe5b6020026020010181815250505b8080600101915050610da2565b50809250505090565b600d60009054906101000a900473ffffffffffffffffffffffffffffffffffffffff1681565b6000610e6682600260008673ffffffffffffffffffffffffffffffffffffffff1673ffffffffffffffffffffffffffffffffffffffff16815260200190815260200160002061267f90919063ffffffff16565b905092915050565b610e77816121c6565b610eb6576040517f08c379a0000000000000000000000000000000000000000000000000000000008152600401610ead90614b34565b60405180910390fd5b6000610ec1826111c9565b9050610ecc82611e3b565b610f0b576040517f08c379a0000000000000000000000000000000000000000000000000000000008152600401610f0290614d54565b60405180910390fd5b6000600d60009054906101000a900473ffffffffffffffffffffffffffffffffffffffff169050610f3a61364b565b610f43846114b6565b90508173ffffffffffffffffffffffffffffffffffffffff166323b872dd333084600001516040518463ffffffff1660e01b8152600401610f86939291906148c9565b602060405180830381600087803b158015610fa057600080fd5b505af1158015610fb4573d6000803e3d6000fd5b505050506040513d601f19601f82011682018060405250810190610fd89190613a2b565b50600b8481548110610fe657fe5b906000526020600020906003020160008082016000905560018201600090556002820160009055505061101884612699565b3373ffffffffffffffffffffffffffffffffffffffff166108fc82602001519081150290604051600060405180830381858888f19350505050158015611062573d6000803e3d6000fd5b508273ffffffffffffffffffffffffffffffffffffffff167fa5ee7a2b0254fce91deed604506790ed7fa072d0b14cba4859c3bc8955b9caac856040516110a99190614def565b60405180910390a250505050565b6110c081611e3b565b15611100576040517f08c379a00000000000000000000000000000000000000000000000000000000081526004016110f790614a54565b60405180910390fd5b61111b83838360405180602001604052806000815250611bd3565b505050565b6000806111476000809054906101000a900460ff1660ff16846127d390919063ffffffff16565b905080915050919050565b60008061116983600361284390919063ffffffff16565b50905080915050919050565b60008061118183611c7e565b905060006111aa600060019054906101000a900460ff1660ff168361287290919063ffffffff16565b90508092505050919050565b600060019054906101000a900460ff1681565b60006111f9826040518060600160405280602981526020016151776029913960036128a29092919063ffffffff16565b9050919050565b600e8060000160009054906101000a900460ff1690806001018054600181600116156101000203166002900480601f0160208091040260200160405190810160405280929190818152602001828054600181600116156101000203166002900480156112ad5780601f10611282576101008083540402835291602001916112ad565b820191906000526020600020905b81548152906001019060200180831161129057829003601f168201915b505050505090806002018054600181600116156101000203166002900480601f01602080910402602001604051908101604052809291908181526020018280546001816001161561010002031660029004801561134b5780601f106113205761010080835404028352916020019161134b565b820191906000526020600020905b81548152906001019060200180831161132e57829003601f168201915b5050505050905083565b6060600a8054600181600116156101000203166002900480601f0160208091040260200160405190810160405280929190818152602001828054600181600116156101000203166002900480156113ed5780601f106113c2576101008083540402835291602001916113ed565b820191906000526020600020905b8154815290600101906020018083116113d057829003601f168201915b5050505050905090565b60008073ffffffffffffffffffffffffffffffffffffffff168273ffffffffffffffffffffffffffffffffffffffff161415611468576040517f08c379a000000000000000000000000000000000000000000000000000000000815260040161145f90614b94565b60405180910390fd5b6114af600260008473ffffffffffffffffffffffffffffffffffffffff1673ffffffffffffffffffffffffffffffffffffffff1681526020019081526020016000206128c1565b9050919050565b6114be61364b565b600b805490508210611505576040517f08c379a00000000000000000000000000000000000000000000000000000000081526004016114fc90614d94565b60405180910390fd5b61150e826121c6565b61154d576040517f08c379a000000000000000000000000000000000000000000000000000000000815260040161154490614d74565b60405180910390fd5b600b828154811061155a57fe5b906000526020600020906003020160405180606001604052908160008201548152602001600182015481526020016002820154815250509050919050565b6000806115a483611120565b905060006115cd600060019054906101000a900460ff1660ff16836128d690919063ffffffff16565b90508092505050919050565b606060088054600181600116156101000203166002900480601f0160208091040260200160405190810160405280929190818152602001828054600181600116156101000203166002900480156116715780601f1061164657610100808354040283529160200191611671565b820191906000526020600020905b81548152906001019060200180831161165457829003601f168201915b5050505050905090565b6116836121e3565b73ffffffffffffffffffffffffffffffffffffffff168273ffffffffffffffffffffffffffffffffffffffff1614156116f1576040517f08c379a00000000000000000000000000000000000000000000000000000000081526004016116e890614af4565b60405180910390fd5b80600660006116fe6121e3565b73ffffffffffffffffffffffffffffffffffffffff1673ffffffffffffffffffffffffffffffffffffffff16815260200190815260200160002060008473ffffffffffffffffffffffffffffffffffffffff1673ffffffffffffffffffffffffffffffffffffffff16815260200190815260200160002060006101000a81548160ff0219169083151502179055508173ffffffffffffffffffffffffffffffffffffffff166117ab6121e3565b73ffffffffffffffffffffffffffffffffffffffff167f17307eab39ab6107e8899845ad3d59bd9653f200f220920489ca2b5937696c31836040516117f09190614997565b60405180910390a35050565b6000600b8054905082511115611847576040517f08c379a000000000000000000000000000000000000000000000000000000000815260040161183e90614b54565b60405180910390fd5b600080600090505b835181101561188f5761187484828151811061186757fe5b6020026020010151611e3b565b15611882576001915061188f565b808060010191505061184f565b5080915050919050565b6118a33382612339565b6118e2576040517f08c379a00000000000000000000000000000000000000000000000000000000081526004016118d990614a34565b60405180910390fd5b6118eb81611e3b565b1561192b576040517f08c379a000000000000000000000000000000000000000000000000000000000815260040161192290614a94565b60405180910390fd5b6001611936336113f7565b1015611977576040517f08c379a000000000000000000000000000000000000000000000000000000000815260040161196e90614bb4565b60405180910390fd5b611980816121c6565b6119bf576040517f08c379a00000000000000000000000000000000000000000000000000000000081526004016119b690614d74565b60405180910390fd5b6000600d60009054906101000a900473ffffffffffffffffffffffffffffffffffffffff1690506119ee61364b565b6119f7836114b6565b90508173ffffffffffffffffffffffffffffffffffffffff166323b872dd333084600001516040518463ffffffff1660e01b8152600401611a3a939291906148c9565b602060405180830381600087803b158015611a5457600080fd5b505af1158015611a68573d6000803e3d6000fd5b505050506040513d601f19601f82011682018060405250810190611a8c9190613a2b565b50600b8381548110611a9a57fe5b9060005260206000209060030201600080820160009055600182016000905560028201600090555050611acc83612699565b3373ffffffffffffffffffffffffffffffffffffffff166108fc82602001519081150290604051600060405180830381858888f19350505050158015611b16573d6000803e3d6000fd5b50505050565b600080600d60009054906101000a900473ffffffffffffffffffffffffffffffffffffffff1690508073ffffffffffffffffffffffffffffffffffffffff166370a08231306040518263ffffffff1660e01b8152600401611b7d91906148ae565b60206040518083038186803b158015611b9557600080fd5b505afa158015611ba9573d6000803e3d6000fd5b505050506040513d601f19601f82011682018060405250810190611bcd9190613acf565b91505090565b611bdc82611e3b565b15611c1c576040517f08c379a0000000000000000000000000000000000000000000000000000000008152600401611c1390614db4565b60405180910390fd5b611c2d611c276121e3565b83612339565b611c6c576040517f08c379a0000000000000000000000000000000000000000000000000000000008152600401611c6390614d14565b60405180910390fd5b611c7884848484612906565b50505050565b600080611ca56000809054906101000a900460ff1660ff168461296290919063ffffffff16565b905080915050919050565b6060611cbb826121c6565b611cfa576040517f08c379a0000000000000000000000000000000000000000000000000000000008152600401611cf190614cb4565b60405180910390fd5b6060600960008481526020019081526020016000208054600181600116156101000203166002900480601f016020809104026020016040519081016040528092919081815260200182805460018160011615610100020316600290048015611da35780601f10611d7857610100808354040283529160200191611da3565b820191906000526020600020905b815481529060010190602001808311611d8657829003601f168201915b505050505090506000600a8054600181600116156101000203166002900490501415611dd25780915050611e36565b600081511115611e0757600a81604051602001611df092919061488a565b604051602081830303815290604052915050611e36565b600a611e12846129ac565b604051602001611e2392919061488a565b6040516020818303038152906040529150505b919050565b6000600b805490508210611e84576040517f08c379a0000000000000000000000000000000000000000000000000000000008152600401611e7b90614d94565b60405180910390fd5b6000600b8381548110611e9357fe5b9060005260206000209060030201600201541415611ee6576040517f08c379a0000000000000000000000000000000000000000000000000000000008152600401611edd906149f4565b60405180910390fd5b611eef826121c6565b611f2e576040517f08c379a0000000000000000000000000000000000000000000000000000000008152600401611f2590614d74565b60405180910390fd5b600b8281548110611f3b57fe5b9060005260206000209060030201600201544211611f5a576000611f5d565b60015b9050919050565b600080611f7034611598565b9050611f7a611b1c565b8110611fbb576040517f08c379a0000000000000000000000000000000000000000000000000000000008152600401611fb290614bf4565b60405180910390fd5b6000600d60009054906101000a900473ffffffffffffffffffffffffffffffffffffffff1690508073ffffffffffffffffffffffffffffffffffffffff1663a9059cbb33846040518363ffffffff1660e01b815260040161201d92919061494c565b602060405180830381600087803b15801561203757600080fd5b505af115801561204b573d6000803e3d6000fd5b505050506040513d601f19601f8201168201806040525081019061206f9190613a2b565b50600061208660058461287290919063ffffffff16565b9050600061209d8285612af390919063ffffffff16565b905060006120c082346120bb42600c54612af390919063ffffffff16565b612b48565b90503373ffffffffffffffffffffffffffffffffffffffff167f04074d3222dae133379f5d478e841f42f76914bc8ca39d25e0cd120b226710e682843461211242600c54612af390919063ffffffff16565b6040516121229493929190614e0a565b60405180910390a2505050505090565b6000600660008473ffffffffffffffffffffffffffffffffffffffff1673ffffffffffffffffffffffffffffffffffffffff16815260200190815260200160002060008373ffffffffffffffffffffffffffffffffffffffff1673ffffffffffffffffffffffffffffffffffffffff16815260200190815260200160002060009054906101000a900460ff16905092915050565b60006121dc826003612bd290919063ffffffff16565b9050919050565b600033905090565b816005600083815260200190815260200160002060006101000a81548173ffffffffffffffffffffffffffffffffffffffff021916908373ffffffffffffffffffffffffffffffffffffffff160217905550808273ffffffffffffffffffffffffffffffffffffffff1661225e836111c9565b73ffffffffffffffffffffffffffffffffffffffff167f8c5be1e5ebec7d5bd14f71427d1e84f3dd0314c0f7b2291e5b200ac8c7c3b92560405160405180910390a45050565b60008060008090505b600b8054905081101561231c573373ffffffffffffffffffffffffffffffffffffffff166122da826111c9565b73ffffffffffffffffffffffffffffffffffffffff16148015612303575061230181611e3b565b155b1561230f576001820191505b80806001019150506122ad565b508091505090565b600061233282600001612bec565b9050919050565b6000612344826121c6565b612383576040517f08c379a000000000000000000000000000000000000000000000000000000000815260040161237a90614b14565b60405180910390fd5b600061238e836111c9565b90508073ffffffffffffffffffffffffffffffffffffffff168473ffffffffffffffffffffffffffffffffffffffff1614806123fd57508373ffffffffffffffffffffffffffffffffffffffff166123e58461097d565b73ffffffffffffffffffffffffffffffffffffffff16145b8061240e575061240d8185612132565b5b91505092915050565b8273ffffffffffffffffffffffffffffffffffffffff16612437826111c9565b73ffffffffffffffffffffffffffffffffffffffff161461248d576040517f08c379a000000000000000000000000000000000000000000000000000000000815260040161248490614c94565b60405180910390fd5b600073ffffffffffffffffffffffffffffffffffffffff168273ffffffffffffffffffffffffffffffffffffffff1614156124fd576040517f08c379a00000000000000000000000000000000000000000000000000000000081526004016124f490614ad4565b60405180910390fd5b612508838383612bfd565b6125136000826121eb565b61256481600260008673ffffffffffffffffffffffffffffffffffffffff1673ffffffffffffffffffffffffffffffffffffffff168152602001908152602001600020612c0290919063ffffffff16565b506125b681600260008573ffffffffffffffffffffffffffffffffffffffff1673ffffffffffffffffffffffffffffffffffffffff168152602001908152602001600020612c1c90919063ffffffff16565b506125cd81836003612c369092919063ffffffff16565b50808273ffffffffffffffffffffffffffffffffffffffff168473ffffffffffffffffffffffffffffffffffffffff167fddf252ad1be2c89b69c2b068fc378daa952ba7f163c4a11628f55a4df523b3ef60405160405180910390a4505050565b60008060008090505b600b805490508110156126775761264d81611e3b565b801561265e575061265d816121c6565b5b1561266a576001820191505b8080600101915050612637565b508091505090565b600061268e8360000183612c6b565b60001c905092915050565b60006126a4826111c9565b90506126b281600084612bfd565b6126bd6000836121eb565b6000600960008481526020019081526020016000208054600181600116156101000203166002900490501461270c5760096000838152602001908152602001600020600061270b919061366c565b5b61275d82600260008473ffffffffffffffffffffffffffffffffffffffff1673ffffffffffffffffffffffffffffffffffffffff168152602001908152602001600020612c0290919063ffffffff16565b50612772826003612cd890919063ffffffff16565b5081600073ffffffffffffffffffffffffffffffffffffffff168273ffffffffffffffffffffffffffffffffffffffff167fddf252ad1be2c89b69c2b068fc378daa952ba7f163c4a11628f55a4df523b3ef60405160405180910390a45050565b6000808314156127e6576000905061283d565b60008284029050828482816127f757fe5b0414612838576040517f08c379a000000000000000000000000000000000000000000000000000000000815260040161282f90614c54565b60405180910390fd5b809150505b92915050565b6000806000806128568660000186612cf2565b915091508160001c8160001c8090509350935050509250929050565b600061289a606461288c84866127d390919063ffffffff16565b61296290919063ffffffff16565b905092915050565b60006128b5846000018460001b84612d75565b60001c90509392505050565b60006128cf82600001612e06565b9050919050565b60006128fe60646128f0848661296290919063ffffffff16565b6127d390919063ffffffff16565b905092915050565b612911848484612417565b61291d84848484612e17565b61295c576040517f08c379a000000000000000000000000000000000000000000000000000000000815260040161295390614a14565b60405180910390fd5b50505050565b60006129a483836040518060400160405280601a81526020017f536166654d6174683a206469766973696f6e206279207a65726f000000000000815250612f7b565b905092915050565b606060008214156129f4576040518060400160405280600181526020017f30000000000000000000000000000000000000000000000000000000000000008152509050612aee565b600082905060005b60008214612a1e578080600101915050600a8281612a1657fe5b0491506129fc565b60608167ffffffffffffffff81118015612a3757600080fd5b506040519080825280601f01601f191660200182016040528015612a6a5781602001600182028036833780820191505090505b50905060006001830390508593505b60008414612ae657600a8481612a8b57fe5b0660300160f81b82828060019003935081518110612aa557fe5b60200101907effffffffffffffffffffffffffffffffffffffffffffffffffffffffffffff1916908160001a905350600a8481612ade57fe5b049350612a79565b819450505050505b919050565b600080828401905083811015612b3e576040517f08c379a0000000000000000000000000000000000000000000000000000000008152600401612b3590614ab4565b60405180910390fd5b8091505092915050565b6000600b6040518060600160405280868152602001858152602001848152509080600181540180825580915050600190039060005260206000209060030201600090919091909150600082015181600001556020820151816001015560408201518160020155505060006001600b80549050039050612bc73382612fdc565b809150509392505050565b6000612be4836000018360001b61316a565b905092915050565b600081600001805490509050919050565b505050565b6000612c14836000018360001b61318d565b905092915050565b6000612c2e836000018360001b613275565b905092915050565b6000612c62846000018460001b8473ffffffffffffffffffffffffffffffffffffffff1660001b6132e5565b90509392505050565b600081836000018054905011612cb6576040517f08c379a0000000000000000000000000000000000000000000000000000000008152600401612cad906149d4565b60405180910390fd5b826000018281548110612cc557fe5b9060005260206000200154905092915050565b6000612cea836000018360001b6133c1565b905092915050565b60008082846000018054905011612d3e576040517f08c379a0000000000000000000000000000000000000000000000000000000008152600401612d3590614c14565b60405180910390fd5b6000846000018481548110612d4f57fe5b906000526020600020906002020190508060000154816001015492509250509250929050565b60008084600101600085815260200190815260200160002054905060008114158390612dd7576040517f08c379a0000000000000000000000000000000000000000000000000000000008152600401612dce91906149b2565b60405180910390fd5b50846000016001820381548110612dea57fe5b9060005260206000209060020201600101549150509392505050565b600081600001805490509050919050565b6000612e388473ffffffffffffffffffffffffffffffffffffffff166134da565b612e455760019050612f73565b6060612f0c63150b7a0260e01b612e5a6121e3565b888787604051602401612e709493929190614900565b604051602081830303815290604052907bffffffffffffffffffffffffffffffffffffffffffffffffffffffff19166020820180517bffffffffffffffffffffffffffffffffffffffffffffffffffffffff8381831617835250505050604051806060016040528060328152602001615145603291398773ffffffffffffffffffffffffffffffffffffffff166134ed9092919063ffffffff16565b9050600081806020019051810190612f249190613a7d565b905063150b7a0260e01b7bffffffffffffffffffffffffffffffffffffffffffffffffffffffff1916817bffffffffffffffffffffffffffffffffffffffffffffffffffffffff191614925050505b949350505050565b60008083118290612fc2576040517f08c379a0000000000000000000000000000000000000000000000000000000008152600401612fb991906149b2565b60405180910390fd5b506000838581612fce57fe5b049050809150509392505050565b600073ffffffffffffffffffffffffffffffffffffffff168273ffffffffffffffffffffffffffffffffffffffff16141561304c576040517f08c379a000000000000000000000000000000000000000000000000000000000815260040161304390614c34565b60405180910390fd5b613055816121c6565b15613095576040517f08c379a000000000000000000000000000000000000000000000000000000000815260040161308c90614a74565b60405180910390fd5b6130a160008383612bfd565b6130f281600260008573ffffffffffffffffffffffffffffffffffffffff1673ffffffffffffffffffffffffffffffffffffffff168152602001908152602001600020612c1c90919063ffffffff16565b5061310981836003612c369092919063ffffffff16565b50808273ffffffffffffffffffffffffffffffffffffffff16600073ffffffffffffffffffffffffffffffffffffffff167fddf252ad1be2c89b69c2b068fc378daa952ba7f163c4a11628f55a4df523b3ef60405160405180910390a45050565b600080836001016000848152602001908152602001600020541415905092915050565b6000808360010160008481526020019081526020016000205490506000811461326957600060018203905060006001866000018054905003905060008660000182815481106131d857fe5b90600052602060002001549050808760000184815481106131f557fe5b906000526020600020018190555060018301876001016000838152602001908152602001600020819055508660000180548061322d57fe5b6001900381819060005260206000200160009055905586600101600087815260200190815260200160002060009055600194505050505061326f565b60009150505b92915050565b60006132818383613505565b6132da5782600001829080600181540180825580915050600190039060005260206000200160009091909190915055826000018054905083600101600084815260200190815260200160002081905550600190506132df565b600090505b92915050565b600080846001016000858152602001908152602001600020549050600081141561338c578460000160405180604001604052808681526020018581525090806001815401808255809150506001900390600052602060002090600202016000909190919091506000820151816000015560208201518160010155505084600001805490508560010160008681526020019081526020016000208190555060019150506133ba565b8285600001600183038154811061339f57fe5b90600052602060002090600202016001018190555060009150505b9392505050565b600080836001016000848152602001908152602001600020549050600081146134ce576000600182039050600060018660000180549050039050600086600001828154811061340c57fe5b906000526020600020906002020190508087600001848154811061342c57fe5b906000526020600020906002020160008201548160000155600182015481600101559050506001830187600101600083600001548152602001908152602001600020819055508660000180548061347f57fe5b60019003818190600052602060002090600202016000808201600090556001820160009055505090558660010160008781526020019081526020016000206000905560019450505050506134d4565b60009150505b92915050565b600080823b905060008111915050919050565b60606134fc8484600085613528565b90509392505050565b600080836001016000848152602001908152602001600020541415905092915050565b6060613533856134da565b613572576040517f08c379a000000000000000000000000000000000000000000000000000000000815260040161356990614d34565b60405180910390fd5b600060608673ffffffffffffffffffffffffffffffffffffffff16858760405161359c9190614873565b60006040518083038185875af1925050503d80600081146135d9576040519150601f19603f3d011682016040523d82523d6000602084013e6135de565b606091505b509150915081156135f3578092505050613643565b6000815111156136065780518082602001fd5b836040517f08c379a000000000000000000000000000000000000000000000000000000000815260040161363a91906149b2565b60405180910390fd5b949350505050565b60405180606001604052806000815260200160008152602001600081525090565b50805460018160011615610100020316600290046000825580601f1061369257506136b1565b601f0160209004906000526020600020908101906136b091906136b4565b5b50565b6136d691905b808211156136d25760008160009055506001016136ba565b5090565b90565b6000813590506136e8816150e8565b92915050565b600082601f8301126136ff57600080fd5b813561371261370d82614edc565b614eaf565b9150818183526020840193506020810190508385602084028201111561373757600080fd5b60005b83811015613767578161374d8882613819565b84526020840193506020830192505060018101905061373a565b5050505092915050565b600081359050613780816150ff565b92915050565b600081519050613795816150ff565b92915050565b6000813590506137aa81615116565b92915050565b6000815190506137bf81615116565b92915050565b600082601f8301126137d657600080fd5b81356137e96137e482614f04565b614eaf565b9150808252602083016020830185838301111561380557600080fd5b613810838284615095565b50505092915050565b6000813590506138288161512d565b92915050565b60008151905061383d8161512d565b92915050565b60006020828403121561385557600080fd5b6000613863848285016136d9565b91505092915050565b6000806040838503121561387f57600080fd5b600061388d858286016136d9565b925050602061389e858286016136d9565b9150509250929050565b6000806000606084860312156138bd57600080fd5b60006138cb868287016136d9565b93505060206138dc868287016136d9565b92505060406138ed86828701613819565b9150509250925092565b6000806000806080858703121561390d57600080fd5b600061391b878288016136d9565b945050602061392c878288016136d9565b935050604061393d87828801613819565b925050606085013567ffffffffffffffff81111561395a57600080fd5b613966878288016137c5565b91505092959194509250565b6000806040838503121561398557600080fd5b6000613993858286016136d9565b92505060206139a485828601613771565b9150509250929050565b600080604083850312156139c157600080fd5b60006139cf858286016136d9565b92505060206139e085828601613819565b9150509250929050565b6000602082840312156139fc57600080fd5b600082013567ffffffffffffffff811115613a1657600080fd5b613a22848285016136ee565b91505092915050565b600060208284031215613a3d57600080fd5b6000613a4b84828501613786565b91505092915050565b600060208284031215613a6657600080fd5b6000613a748482850161379b565b91505092915050565b600060208284031215613a8f57600080fd5b6000613a9d848285016137b0565b91505092915050565b600060208284031215613ab857600080fd5b6000613ac684828501613819565b91505092915050565b600060208284031215613ae157600080fd5b6000613aef8482850161382e565b91505092915050565b6000613b048383614846565b60208301905092915050565b613b198161505f565b82525050565b613b2881614fde565b82525050565b613b3781614fcc565b82525050565b6000613b4882614f55565b613b528185614f83565b9350613b5d83614f30565b8060005b83811015613b8e578151613b758882613af8565b9750613b8083614f76565b925050600181019050613b61565b5085935050505092915050565b613ba481614ff0565b82525050565b6000613bb582614f60565b613bbf8185614f94565b9350613bcf8185602086016150a4565b613bd8816150d7565b840191505092915050565b6000613bee82614f60565b613bf88185614fa5565b9350613c088185602086016150a4565b80840191505092915050565b6000613c1f82614f6b565b613c298185614fb0565b9350613c398185602086016150a4565b613c42816150d7565b840191505092915050565b6000613c5882614f6b565b613c628185614fc1565b9350613c728185602086016150a4565b80840191505092915050565b600081546001811660008114613c9b5760018114613cc057613d04565b607f6002830416613cac8187614fc1565b955060ff1983168652808601935050613d04565b60028204613cce8187614fc1565b9550613cd985614f40565b60005b82811015613cfb57815481890152600182019150602081019050613cdc565b82880195505050505b505092915050565b6000613d19602283614fb0565b91507f456e756d657261626c655365743a20696e646578206f7574206f6620626f756e60008301527f64730000000000000000000000000000000000000000000000000000000000006020830152604082019050919050565b6000613d7f602083614fb0565b91507f4572726f723a20636f6c6c61746572616c20646f6573206e6f742065786973746000830152602082019050919050565b6000613dbf603283614fb0565b91507f4552433732313a207472616e7366657220746f206e6f6e20455243373231526560008301527f63656976657220696d706c656d656e74657200000000000000000000000000006020830152604082019050919050565b6000613e25602e83614fb0565b91507f4572726f7220636f6c6c61746572616c20646f65736e742062656c6f6e67207460008301527f6f207468697320616464726573730000000000000000000000000000000000006020830152604082019050919050565b6000613e8b602783614fb0565b91507f4572726f723a2063616e74207472616e73666572206578706972656420636f6c60008301527f6c61746572616c000000000000000000000000000000000000000000000000006020830152604082019050919050565b6000613ef1601c83614fb0565b91507f4552433732313a20746f6b656e20616c7265616479206d696e746564000000006000830152602082019050919050565b6000613f31601f83614fb0565b91507f4572726f722063616e74207061796261636b2065787069726564206c6f616e006000830152602082019050919050565b6000613f71601b83614fb0565b91507f536166654d6174683a206164646974696f6e206f766572666c6f7700000000006000830152602082019050919050565b6000613fb1602483614fb0565b91507f4552433732313a207472616e7366657220746f20746865207a65726f2061646460008301527f72657373000000000000000000000000000000000000000000000000000000006020830152604082019050919050565b6000614017601983614fb0565b91507f4552433732313a20617070726f766520746f2063616c6c6572000000000000006000830152602082019050919050565b6000614057602c83614fb0565b91507f4552433732313a206f70657261746f7220717565727920666f72206e6f6e657860008301527f697374656e7420746f6b656e00000000000000000000000000000000000000006020830152604082019050919050565b60006140bd602c83614fb0565b91507f4572726f722063616e74206c69717564617465206c6f616e207468617420646f60008301527f6573206e6f7420657869737400000000000000000000000000000000000000006020830152604082019050919050565b6000614123603c83614fb0565b91507f4572726f723a206e756d626572206f6620696420706172616d6574657273206560008301527f786365656473206e756d626572206f6620636f6c6c61746572616c73000000006020830152604082019050919050565b6000614189603883614fb0565b91507f4552433732313a20617070726f76652063616c6c6572206973206e6f74206f7760008301527f6e6572206e6f7220617070726f76656420666f7220616c6c00000000000000006020830152604082019050919050565b60006141ef602a83614fb0565b91507f4552433732313a2062616c616e636520717565727920666f7220746865207a6560008301527f726f2061646472657373000000000000000000000000000000000000000000006020830152604082019050919050565b6000614255602083614fb0565b91507f796f7520646f206e6f74206861766520616e792065786974696e67206c6f616e6000830152602082019050919050565b6000614295603383614fb0565b91507f4572726f723a2063616e7420617070726f7665206578706972656420636f6c6c60008301527f61746572616c20666f72207472616e73666572000000000000000000000000006020830152604082019050919050565b60006142fb602483614fb0565b91507f63616e7420626f72726f77206d6f7265207468616e20706f6f6c206c6971756960008301527f64697479000000000000000000000000000000000000000000000000000000006020830152604082019050919050565b6000614361602283614fb0565b91507f456e756d657261626c654d61703a20696e646578206f7574206f6620626f756e60008301527f64730000000000000000000000000000000000000000000000000000000000006020830152604082019050919050565b60006143c7602083614fb0565b91507f4552433732313a206d696e7420746f20746865207a65726f20616464726573736000830152602082019050919050565b6000614407602183614fb0565b91507f536166654d6174683a206d756c7469706c69636174696f6e206f766572666c6f60008301527f77000000000000000000000000000000000000000000000000000000000000006020830152604082019050919050565b600061446d602c83614fb0565b91507f4552433732313a20617070726f76656420717565727920666f72206e6f6e657860008301527f697374656e7420746f6b656e00000000000000000000000000000000000000006020830152604082019050919050565b60006144d3602983614fb0565b91507f4552433732313a207472616e73666572206f6620746f6b656e2074686174206960008301527f73206e6f74206f776e00000000000000000000000000000000000000000000006020830152604082019050919050565b6000614539602f83614fb0565b91507f4552433732314d657461646174613a2055524920717565727920666f72206e6f60008301527f6e6578697374656e7420746f6b656e00000000000000000000000000000000006020830152604082019050919050565b600061459f602183614fb0565b91507f4552433732313a20617070726f76616c20746f2063757272656e74206f776e6560008301527f72000000000000000000000000000000000000000000000000000000000000006020830152604082019050919050565b6000614605601c83614fb0565b91507f4572726f72204e6f2045787069726564206c6f616e7320666f756e64000000006000830152602082019050919050565b6000614645603183614fb0565b91507f4552433732313a207472616e736665722063616c6c6572206973206e6f74206f60008301527f776e6572206e6f7220617070726f7665640000000000000000000000000000006020830152604082019050919050565b60006146ab601d83614fb0565b91507f416464726573733a2063616c6c20746f206e6f6e2d636f6e74726163740000006000830152602082019050919050565b60006146eb601b83614fb0565b91507f4572726f723a206c6f616e20686173206e6f74206578706972656400000000006000830152602082019050919050565b600061472b601d83614fb0565b91507f4572726f723a206c6f616e20696420646f6573206e6f742065786973740000006000830152602082019050919050565b600061476b601683614fb0565b91507f4572726f723a20696e76616c6964206c6f616e206964000000000000000000006000830152602082019050919050565b60006147ab602c83614fb0565b91507f4572726f723a2063616e74207472616e73666572206578706972656420636f6c60008301527f6c61746572616c20666f722000000000000000000000000000000000000000006020830152604082019050919050565b60608201600082015161481a6000850182614846565b50602082015161482d6020850182614846565b5060408201516148406040850182614846565b50505050565b61484f81615048565b82525050565b61485e81615048565b82525050565b61486d81615052565b82525050565b600061487f8284613be3565b915081905092915050565b60006148968285613c7e565b91506148a28284613c4d565b91508190509392505050565b60006020820190506148c36000830184613b2e565b92915050565b60006060820190506148de6000830186613b10565b6148eb6020830185613b2e565b6148f86040830184614855565b949350505050565b60006080820190506149156000830187613b1f565b6149226020830186613b2e565b61492f6040830185614855565b81810360608301526149418184613baa565b905095945050505050565b60006040820190506149616000830185613b10565b61496e6020830184614855565b9392505050565b6000602082019050818103600083015261498f8184613b3d565b905092915050565b60006020820190506149ac6000830184613b9b565b92915050565b600060208201905081810360008301526149cc8184613c14565b905092915050565b600060208201905081810360008301526149ed81613d0c565b9050919050565b60006020820190508181036000830152614a0d81613d72565b9050919050565b60006020820190508181036000830152614a2d81613db2565b9050919050565b60006020820190508181036000830152614a4d81613e18565b9050919050565b60006020820190508181036000830152614a6d81613e7e565b9050919050565b60006020820190508181036000830152614a8d81613ee4565b9050919050565b60006020820190508181036000830152614aad81613f24565b9050919050565b60006020820190508181036000830152614acd81613f64565b9050919050565b60006020820190508181036000830152614aed81613fa4565b9050919050565b60006020820190508181036000830152614b0d8161400a565b9050919050565b60006020820190508181036000830152614b2d8161404a565b9050919050565b60006020820190508181036000830152614b4d816140b0565b9050919050565b60006020820190508181036000830152614b6d81614116565b9050919050565b60006020820190508181036000830152614b8d8161417c565b9050919050565b60006020820190508181036000830152614bad816141e2565b9050919050565b60006020820190508181036000830152614bcd81614248565b9050919050565b60006020820190508181036000830152614bed81614288565b9050919050565b60006020820190508181036000830152614c0d816142ee565b9050919050565b60006020820190508181036000830152614c2d81614354565b9050919050565b60006020820190508181036000830152614c4d816143ba565b9050919050565b60006020820190508181036000830152614c6d816143fa565b9050919050565b60006020820190508181036000830152614c8d81614460565b9050919050565b60006020820190508181036000830152614cad816144c6565b9050919050565b60006020820190508181036000830152614ccd8161452c565b9050919050565b60006020820190508181036000830152614ced81614592565b9050919050565b60006020820190508181036000830152614d0d816145f8565b9050919050565b60006020820190508181036000830152614d2d81614638565b9050919050565b60006020820190508181036000830152614d4d8161469e565b9050919050565b60006020820190508181036000830152614d6d816146de565b9050919050565b60006020820190508181036000830152614d8d8161471e565b9050919050565b60006020820190508181036000830152614dad8161475e565b9050919050565b60006020820190508181036000830152614dcd8161479e565b9050919050565b6000606082019050614de96000830184614804565b92915050565b6000602082019050614e046000830184614855565b92915050565b6000608082019050614e1f6000830187614855565b614e2c6020830186614855565b614e396040830185614855565b614e466060830184614855565b95945050505050565b6000602082019050614e646000830184614864565b92915050565b6000606082019050614e7f6000830186614864565b8181036020830152614e918185613c14565b90508181036040830152614ea58184613c14565b9050949350505050565b6000604051905081810181811067ffffffffffffffff82111715614ed257600080fd5b8060405250919050565b600067ffffffffffffffff821115614ef357600080fd5b602082029050602081019050919050565b600067ffffffffffffffff821115614f1b57600080fd5b601f19601f8301169050602081019050919050565b6000819050602082019050919050565b60008190508160005260206000209050919050565b600081519050919050565b600081519050919050565b600081519050919050565b6000602082019050919050565b600082825260208201905092915050565b600082825260208201905092915050565b600081905092915050565b600082825260208201905092915050565b600081905092915050565b6000614fd782615028565b9050919050565b6000614fe982615028565b9050919050565b60008115159050919050565b60007fffffffff0000000000000000000000000000000000000000000000000000000082169050919050565b600073ffffffffffffffffffffffffffffffffffffffff82169050919050565b6000819050919050565b600060ff82169050919050565b600061506a82615071565b9050919050565b600061507c82615083565b9050919050565b600061508e82615028565b9050919050565b82818337600083830152505050565b60005b838110156150c25780820151818401526020810190506150a7565b838111156150d1576000848401525b50505050565b6000601f19601f8301169050919050565b6150f181614fcc565b81146150fc57600080fd5b50565b61510881614ff0565b811461511357600080fd5b50565b61511f81614ffc565b811461512a57600080fd5b50565b61513681615048565b811461514157600080fd5b5056fe4552433732313a207472616e7366657220746f206e6f6e20455243373231526563656976657220696d706c656d656e7465724552433732313a206f776e657220717565727920666f72206e6f6e6578697374656e7420746f6b656ea26469706673582212203b6c2a76c91be404cd547ab99d434ec300d2acf92b962a13632113154ac7cd5f64736f6c6343000606003360806040523480156200001157600080fd5b506040516200154738038062001547833981810160405260208110156200003757600080fd5b81019080805190602001909291905050506040518060400160405280600e81526020017f426f72726f77656420546f6b656e0000000000000000000000000000000000008152506040518060400160405280600381526020017f42525400000000000000000000000000000000000000000000000000000000008152508160039080519060200190620000cc92919062000397565b508060049080519060200190620000e592919062000397565b506012600560006101000a81548160ff021916908360ff16021790555050506200012481670de0b6b3a7640000633b9aca00026200012b60201b60201c565b5062000446565b600073ffffffffffffffffffffffffffffffffffffffff168273ffffffffffffffffffffffffffffffffffffffff161415620001cf576040517f08c379a000000000000000000000000000000000000000000000000000000000815260040180806020018281038252601f8152602001807f45524332303a206d696e7420746f20746865207a65726f20616464726573730081525060200191505060405180910390fd5b620001e3600083836200030960201b60201c565b620001ff816002546200030e60201b62000f2d1790919060201c565b6002819055506200025d816000808573ffffffffffffffffffffffffffffffffffffffff1673ffffffffffffffffffffffffffffffffffffffff168152602001908152602001600020546200030e60201b62000f2d1790919060201c565b6000808473ffffffffffffffffffffffffffffffffffffffff1673ffffffffffffffffffffffffffffffffffffffff168152602001908152602001600020819055508173ffffffffffffffffffffffffffffffffffffffff16600073ffffffffffffffffffffffffffffffffffffffff167fddf252ad1be2c89b69c2b068fc378daa952ba7f163c4a11628f55a4df523b3ef836040518082815260200191505060405180910390a35050565b505050565b6000808284019050838110156200038d576040517f08c379a000000000000000000000000000000000000000000000000000000000815260040180806020018281038252601b8152602001807f536166654d6174683a206164646974696f6e206f766572666c6f77000000000081525060200191505060405180910390fd5b8091505092915050565b828054600181600116156101000203166002900490600052602060002090601f016020900481019282601f10620003da57805160ff19168380011785556200040b565b828001600101855582156200040b579182015b828111156200040a578251825591602001919060010190620003ed565b5b5090506200041a91906200041e565b5090565b6200044391905b808211156200043f57600081600090555060010162000425565b5090565b90565b6110f180620004566000396000f3fe608060405234801561001057600080fd5b50600436106100a95760003560e01c80633950935111610071578063395093511461025f57806370a08231146102c557806395d89b411461031d578063a457c2d7146103a0578063a9059cbb14610406578063dd62ed3e1461046c576100a9565b806306fdde03146100ae578063095ea7b31461013157806318160ddd1461019757806323b872dd146101b5578063313ce5671461023b575b600080fd5b6100b66104e4565b6040518080602001828103825283818151815260200191508051906020019080838360005b838110156100f65780820151818401526020810190506100db565b50505050905090810190601f1680156101235780820380516001836020036101000a031916815260200191505b509250505060405180910390f35b61017d6004803603604081101561014757600080fd5b81019080803573ffffffffffffffffffffffffffffffffffffffff16906020019092919080359060200190929190505050610586565b604051808215151515815260200191505060405180910390f35b61019f6105a4565b6040518082815260200191505060405180910390f35b610221600480360360608110156101cb57600080fd5b81019080803573ffffffffffffffffffffffffffffffffffffffff169060200190929190803573ffffffffffffffffffffffffffffffffffffffff169060200190929190803590602001909291905050506105ae565b604051808215151515815260200191505060405180910390f35b610243610687565b604051808260ff1660ff16815260200191505060405180910390f35b6102ab6004803603604081101561027557600080fd5b81019080803573ffffffffffffffffffffffffffffffffffffffff1690602001909291908035906020019092919050505061069e565b604051808215151515815260200191505060405180910390f35b610307600480360360208110156102db57600080fd5b81019080803573ffffffffffffffffffffffffffffffffffffffff169060200190929190505050610751565b6040518082815260200191505060405180910390f35b610325610799565b6040518080602001828103825283818151815260200191508051906020019080838360005b8381101561036557808201518184015260208101905061034a565b50505050905090810190601f1680156103925780820380516001836020036101000a031916815260200191505b509250505060405180910390f35b6103ec600480360360408110156103b657600080fd5b81019080803573ffffffffffffffffffffffffffffffffffffffff1690602001909291908035906020019092919050505061083b565b604051808215151515815260200191505060405180910390f35b6104526004803603604081101561041c57600080fd5b81019080803573ffffffffffffffffffffffffffffffffffffffff16906020019092919080359060200190929190505050610908565b604051808215151515815260200191505060405180910390f35b6104ce6004803603604081101561048257600080fd5b81019080803573ffffffffffffffffffffffffffffffffffffffff169060200190929190803573ffffffffffffffffffffffffffffffffffffffff169060200190929190505050610926565b6040518082815260200191505060405180910390f35b606060038054600181600116156101000203166002900480601f01602080910402602001604051908101604052809291908181526020018280546001816001161561010002031660029004801561057c5780601f106105515761010080835404028352916020019161057c565b820191906000526020600020905b81548152906001019060200180831161055f57829003601f168201915b5050505050905090565b600061059a6105936109ad565b84846109b5565b6001905092915050565b6000600254905090565b60006105bb848484610bac565b61067c846105c76109ad565b6106778560405180606001604052806028815260200161102660289139600160008b73ffffffffffffffffffffffffffffffffffffffff1673ffffffffffffffffffffffffffffffffffffffff168152602001908152602001600020600061062d6109ad565b73ffffffffffffffffffffffffffffffffffffffff1673ffffffffffffffffffffffffffffffffffffffff16815260200190815260200160002054610e6d9092919063ffffffff16565b6109b5565b600190509392505050565b6000600560009054906101000a900460ff16905090565b60006107476106ab6109ad565b8461074285600160006106bc6109ad565b73ffffffffffffffffffffffffffffffffffffffff1673ffffffffffffffffffffffffffffffffffffffff16815260200190815260200160002060008973ffffffffffffffffffffffffffffffffffffffff1673ffffffffffffffffffffffffffffffffffffffff16815260200190815260200160002054610f2d90919063ffffffff16565b6109b5565b6001905092915050565b60008060008373ffffffffffffffffffffffffffffffffffffffff1673ffffffffffffffffffffffffffffffffffffffff168152602001908152602001600020549050919050565b606060048054600181600116156101000203166002900480601f0160208091040260200160405190810160405280929190818152602001828054600181600116156101000203166002900480156108315780601f1061080657610100808354040283529160200191610831565b820191906000526020600020905b81548152906001019060200180831161081457829003601f168201915b5050505050905090565b60006108fe6108486109ad565b846108f98560405180606001604052806025815260200161109760259139600160006108726109ad565b73ffffffffffffffffffffffffffffffffffffffff1673ffffffffffffffffffffffffffffffffffffffff16815260200190815260200160002060008a73ffffffffffffffffffffffffffffffffffffffff1673ffffffffffffffffffffffffffffffffffffffff16815260200190815260200160002054610e6d9092919063ffffffff16565b6109b5565b6001905092915050565b600061091c6109156109ad565b8484610bac565b6001905092915050565b6000600160008473ffffffffffffffffffffffffffffffffffffffff1673ffffffffffffffffffffffffffffffffffffffff16815260200190815260200160002060008373ffffffffffffffffffffffffffffffffffffffff1673ffffffffffffffffffffffffffffffffffffffff16815260200190815260200160002054905092915050565b600033905090565b600073ffffffffffffffffffffffffffffffffffffffff168373ffffffffffffffffffffffffffffffffffffffff161415610a3b576040517f08c379a00000000000000000000000000000000000000000000000000000000081526004018080602001828103825260248152602001806110736024913960400191505060405180910390fd5b600073ffffffffffffffffffffffffffffffffffffffff168273ffffffffffffffffffffffffffffffffffffffff161415610ac1576040517f08c379a0000000000000000000000000000000000000000000000000000000008152600401808060200182810382526022815260200180610fde6022913960400191505060405180910390fd5b80600160008573ffffffffffffffffffffffffffffffffffffffff1673ffffffffffffffffffffffffffffffffffffffff16815260200190815260200160002060008473ffffffffffffffffffffffffffffffffffffffff1673ffffffffffffffffffffffffffffffffffffffff168152602001908152602001600020819055508173ffffffffffffffffffffffffffffffffffffffff168373ffffffffffffffffffffffffffffffffffffffff167f8c5be1e5ebec7d5bd14f71427d1e84f3dd0314c0f7b2291e5b200ac8c7c3b925836040518082815260200191505060405180910390a3505050565b600073ffffffffffffffffffffffffffffffffffffffff168373ffffffffffffffffffffffffffffffffffffffff161415610c32576040517f08c379a000000000000000000000000000000000000000000000000000000000815260040180806020018281038252602581526020018061104e6025913960400191505060405180910390fd5b600073ffffffffffffffffffffffffffffffffffffffff168273ffffffffffffffffffffffffffffffffffffffff161415610cb8576040517f08c379a0000000000000000000000000000000000000000000000000000000008152600401808060200182810382526023815260200180610fbb6023913960400191505060405180910390fd5b610cc3838383610fb5565b610d2e81604051806060016040528060268152602001611000602691396000808773ffffffffffffffffffffffffffffffffffffffff1673ffffffffffffffffffffffffffffffffffffffff16815260200190815260200160002054610e6d9092919063ffffffff16565b6000808573ffffffffffffffffffffffffffffffffffffffff1673ffffffffffffffffffffffffffffffffffffffff16815260200190815260200160002081905550610dc1816000808573ffffffffffffffffffffffffffffffffffffffff1673ffffffffffffffffffffffffffffffffffffffff16815260200190815260200160002054610f2d90919063ffffffff16565b6000808473ffffffffffffffffffffffffffffffffffffffff1673ffffffffffffffffffffffffffffffffffffffff168152602001908152602001600020819055508173ffffffffffffffffffffffffffffffffffffffff168373ffffffffffffffffffffffffffffffffffffffff167fddf252ad1be2c89b69c2b068fc378daa952ba7f163c4a11628f55a4df523b3ef836040518082815260200191505060405180910390a3505050565b6000838311158290610f1a576040517f08c379a00000000000000000000000000000000000000000000000000000000081526004018080602001828103825283818151815260200191508051906020019080838360005b83811015610edf578082015181840152602081019050610ec4565b50505050905090810190601f168015610f0c5780820380516001836020036101000a031916815260200191505b509250505060405180910390fd5b5060008385039050809150509392505050565b600080828401905083811015610fab576040517f08c379a000000000000000000000000000000000000000000000000000000000815260040180806020018281038252601b8152602001807f536166654d6174683a206164646974696f6e206f766572666c6f77000000000081525060200191505060405180910390fd5b8091505092915050565b50505056fe45524332303a207472616e7366657220746f20746865207a65726f206164647265737345524332303a20617070726f766520746f20746865207a65726f206164647265737345524332303a207472616e7366657220616d6f756e7420657863656564732062616c616e636545524332303a207472616e7366657220616d6f756e74206578636565647320616c6c6f77616e636545524332303a207472616e736665722066726f6d20746865207a65726f206164647265737345524332303a20617070726f76652066726f6d20746865207a65726f206164647265737345524332303a2064656372656173656420616c6c6f77616e63652062656c6f77207a65726fa26469706673582212206c5f3bf9b0c6e8eaf7e34da2b190720c13b21c88348a6492dadfb019ce5a017b64736f6c63430006060033",
  "source": "// https://rinkeby.etherscan.io/address/0x695E0CBFc5765CC01699A081827ef5c39aA0B5dB\r\n// https://ropsten.etherscan.io/address/0x0c893Cd203DfCbD54426A5A530A57e08eEC24918\r\n// https://kovan.etherscan.io/address/0x695E0CBFc5765CC01699A081827ef5c39aA0B5dB\r\n// https://goerli.etherscan.io/address/0x11facd2747Ded4ac1D1aC2134f52d428a0A71648\r\npragma solidity ^0.6.0;\r\npragma experimental ABIEncoderV2;\r\nimport '@openzeppelin/contracts/math/SafeMath.sol';\r\nimport './tokens/BRT.sol';\r\nimport './libraries/SafePercentage.sol';\r\nimport './BRTPOOLUTILS.SOL';\r\nimport './tokens/CollateralRedemptionToken.sol';\r\ncontract BRTPOOL is BRTPOOLUTILS ,CollateralRedemptionToken{\r\n    address public brtAddr;\r\n    struct BrtTokenInfo{\r\n        uint8 decimals;\r\n        string name;\r\n        string symbol;\r\n\r\n    }\r\n    BrtTokenInfo public tokenInfo;\r\n    using SafePercentage for uint;\r\n    using SafeMath for uint;\r\n\r\n    constructor() public{\r\n      _createBrtTokenAndAddLiquidityToPool();\r\n     \r\n\r\n    }\r\n    \r\n    event Borrowed(address indexed borrower,uint loanId,  uint redemptionPrice,uint collateral,uint expires);\r\n    event Liquidated(address indexed borrower,uint  loanId);\r\n   \r\n    function borrow() public  payable\r\n    returns(uint)\r\n    {\r\n        uint loan = calculateLoan(msg.value);\r\n        require(loan < getPoolBalance(),'cant borrow more than pool liquidity');\r\n        BRT brtToken=BRT(brtAddr);\r\n        brtToken.transfer(msg.sender,loan); \r\n        uint fee=loan.percentMul(5);\r\n        uint redemptionPrice =loan.add(fee);\r\n        uint id = _issueCollateralToken(redemptionPrice, msg.value, borrowTime.add(block.timestamp));\r\n        emit Borrowed(msg.sender,id,redemptionPrice,msg.value,borrowTime.add(block.timestamp));\r\n    }\r\n\r\n  \r\n\r\n    function payback(uint loanId) external{\r\n         require(_isApprovedOrOwner(msg.sender, loanId),'Error collateral doesnt belong to this address');\r\n         require(!isExpired(loanId),'Error cant payback expired loan');\r\n         require(balanceOf(msg.sender) >= 1,'you do not have any exiting loan');\r\n         require(_exists(loanId),'Error: loan id does not exist');\r\n         BRT brtToken=BRT(brtAddr);\r\n         Collateral memory _loanInfo= loanInfo(loanId);\r\n         brtToken.transferFrom(msg.sender,address(this),_loanInfo.redemptionPrice);\r\n         delete _collaterals[loanId];\r\n         _burn(loanId);\r\n         msg.sender.transfer(_loanInfo.collateral);\r\n    }  \r\n    // function getOutstandingLoansBy(address owner) public view\r\n    // returns(Collateral[] memory)\r\n    // {   \r\n    //     require(balanceOf(owner) > 0,'address has no outstanding Loans');\r\n    //     Collateral[] memory _loansForAddr = new Collateral[](balanceOf(owner));\r\n    //     for(uint i = 0;i < _collaterals.length ; i++){\r\n    //       if(ownerOf(i) == owner && !isExpired(i)){\r\n    //           _loansForAddr[i] = _collaterals[i];\r\n    //       }\r\n       \r\n    //     }\r\n    //     return _loansForAddr;\r\n    // }\r\n\r\n    // function getOutstandingLoans() public view\r\n    // returns(Collateral[] memory)\r\n    // {\r\n    //   return getOutstandingLoansBy(msg.sender);\r\n    // }\r\n    function getActiveLoans() external view\r\n    returns(uint[] memory)\r\n    {  \r\n       uint[] memory _loans= new uint[](_loanCounter());\r\n       for(uint i =0;i < _collaterals.length;i++){\r\n         if(ownerOf(i) == msg.sender && !isExpired(i)){\r\n            _loans[i]=i;\r\n         }\r\n       }\r\n       return _loans;\r\n    }\r\n\r\n    function _loanCounter() private view\r\n    returns(uint)\r\n    {\r\n       uint _count;\r\n       for(uint i =0;i < _collaterals.length;i++){\r\n         if(ownerOf(i) == msg.sender && !isExpired(i)){\r\n            _count = _count + 1;\r\n         }\r\n       }\r\n       return _count;\r\n\r\n    }\r\n\r\n\r\n    function isExpired(uint loanId) public view\r\n    returns(bool)\r\n    {\r\n       require(loanId < _collaterals.length,'Error: invalid loan id');\r\n       require(_collaterals[loanId].expires != 0,'Error: collateral does not exist');\r\n       require(_exists(loanId),'Error: loan id does not exist');\r\n\r\n       return block.timestamp > _collaterals[loanId].expires  ? true:false;\r\n\r\n    }\r\n     \r\n\r\n    function isAnyExpired(uint[] memory _loanIds) public view\r\n    returns(bool)\r\n    { \r\n      require(_loanIds.length <= _collaterals.length,'Error: number of id parameters exceeds number of collaterals');\r\n      bool _isExpired;\r\n      for(uint i =0;i < _loanIds.length;i++){\r\n          if(isExpired(_loanIds[i])){\r\n              _isExpired =true;\r\n              break;\r\n          }\r\n      }\r\n      return _isExpired;\r\n    } \r\n\r\n    function getExpiredLoanIds() public view\r\n    returns(uint[] memory)\r\n    {\r\n       uint _numberOfExpiredLoans =_expiredLoanCounter();\r\n       require(_numberOfExpiredLoans > 1,'Error No Expired loans found');\r\n       uint[] memory _expiredLoanIds = new uint[](_numberOfExpiredLoans);\r\n       for(uint i = 0; i < _collaterals.length; i++){\r\n           if(isExpired(i)){\r\n             _expiredLoanIds[i] = i;\r\n           }\r\n       }\r\n       return _expiredLoanIds;\r\n    }\r\n   \r\n\r\n   function liquidate(uint loanId) external {\r\n       require(_exists(loanId),'Error cant liqudate loan that does not exist');\r\n       address _previousOwner=ownerOf(loanId);\r\n       require(isExpired(loanId),'Error: loan has not expired');\r\n      \r\n     \r\n       BRT brtToken =BRT(brtAddr);\r\n       Collateral memory _loanInfo=loanInfo(loanId);\r\n       brtToken.transferFrom(msg.sender,address(this),_loanInfo.redemptionPrice);\r\n       delete _collaterals[loanId];\r\n       _burn(loanId);\r\n       msg.sender.transfer(_loanInfo.collateral);\r\n       emit Liquidated(_previousOwner,loanId);\r\n   }\r\n\r\n    \r\n\r\n    function loanInfo(uint loanId) public view\r\n    returns(Collateral memory)\r\n    {  \r\n       require(loanId < _collaterals.length,'Error: invalid loan id');\r\n       require(_exists(loanId),'Error: loan id does not exist');\r\n       return _collaterals[loanId];\r\n    }\r\n    function getPoolBalance() public view\r\n    returns(uint)\r\n    {\r\n        BRT brtToken  = BRT(brtAddr);\r\n        return brtToken.balanceOf(address(this));\r\n    }\r\n    \r\n     function _expiredLoanCounter() internal view\r\n    returns(uint)\r\n    {\r\n        uint _count;\r\n        for(uint i = 0; i < _collaterals.length; i++){\r\n           if(isExpired(i) && _exists(i)){\r\n             _count =_count +1;\r\n           }\r\n        }\r\n       return _count;\r\n       \r\n   }\r\n\r\n    function _createBrtTokenAndAddLiquidityToPool ()private{\r\n        BRT brtToken = new BRT(address(this));\r\n        brtAddr = address(brtToken);\r\n        tokenInfo.name = BRT(brtAddr).name();\r\n        tokenInfo.symbol = BRT(brtAddr).symbol();\r\n        tokenInfo.decimals = BRT(brtAddr).decimals();\r\n    }\r\n     \r\n\r\n\r\n\r\n\r\n\r\n\r\n\r\n\r\n\r\n\r\n\r\n\r\n\r\n\r\n    //  CUSTOM ERC20 IMPLEMETATION THAT PREVENTS TRANSFER AND APPROVAL OF EXPIRED LOAN\r\n\r\n     function approve(address to, uint256 tokenId) public virtual override {\r\n        require(!isExpired(tokenId),'Error: cant approve expired collateral for transfer');\r\n        address owner = ownerOf(tokenId);\r\n        require(to != owner, \"ERC721: approval to current owner\");\r\n\r\n        require(_msgSender() == owner || isApprovedForAll(owner, _msgSender()),\r\n            \"ERC721: approve caller is not owner nor approved for all\"\r\n        );\r\n\r\n        _approve(to, tokenId);\r\n    }\r\n    function transferFrom(address from, address to, uint256 tokenId) public virtual override {\r\n        require(!isExpired(tokenId),'Error: cant transfer expired collateral');\r\n        //solhint-disable-next-line max-line-length\r\n        require(_isApprovedOrOwner(_msgSender(), tokenId), \"ERC721: transfer caller is not owner nor approved\");\r\n\r\n        _transfer(from, to, tokenId);\r\n    }\r\n     function safeTransferFrom(address from, address to, uint256 tokenId) public virtual override {\r\n        require(!isExpired(tokenId),'Error: cant transfer expired collateral');\r\n        safeTransferFrom(from, to, tokenId, \"\");\r\n    }\r\n\r\n    /**\r\n     * @dev See {IERC721-safeTransferFrom}.\r\n     */\r\n    function safeTransferFrom(address from, address to, uint256 tokenId, bytes memory _data) public virtual override{\r\n        require(!isExpired(tokenId),'Error: cant transfer expired collateral for ');\r\n        require(_isApprovedOrOwner(_msgSender(), tokenId), \"ERC721: transfer caller is not owner nor approved\");\r\n        _safeTransfer(from, to, tokenId, _data);\r\n    }\r\n    \r\n   \r\n\r\n    \r\n    \r\n}",
  "sourcePath": "C:/Users/osasola/Desktop/js-projects/blockchain/lending/contracts/BRTPOOL.sol",
  "compiler": {
    "name": "solc",
    "version": "0.6.6+commit.6c089d02.Emscripten.clang"
  },
  "schemaVersion": "3.0.22",
  "updatedAt": "2020-10-13T17:53:16.337Z",
  "devdoc": {
    "methods": {
      "balanceOf(address)": {
        "details": "See {IERC721-balanceOf}."
      },
      "baseURI()": {
        "details": "Returns the base URI set via {_setBaseURI}. This will be automatically added as a prefix in {tokenURI} to each token's URI, or to the token ID if no specific URI is set for that token ID."
      },
      "getApproved(uint256)": {
        "details": "See {IERC721-getApproved}."
      },
      "isApprovedForAll(address,address)": {
        "details": "See {IERC721-isApprovedForAll}."
      },
      "name()": {
        "details": "See {IERC721Metadata-name}."
      },
      "ownerOf(uint256)": {
        "details": "See {IERC721-ownerOf}."
      },
      "safeTransferFrom(address,address,uint256,bytes)": {
        "details": "See {IERC721-safeTransferFrom}."
      },
      "setApprovalForAll(address,bool)": {
        "details": "See {IERC721-setApprovalForAll}."
      },
      "supportsInterface(bytes4)": {
        "details": "See {IERC165-supportsInterface}.     * Time complexity O(1), guaranteed to always use less than 30 000 gas."
      },
      "symbol()": {
        "details": "See {IERC721Metadata-symbol}."
      },
      "tokenByIndex(uint256)": {
        "details": "See {IERC721Enumerable-tokenByIndex}."
      },
      "tokenOfOwnerByIndex(address,uint256)": {
        "details": "See {IERC721Enumerable-tokenOfOwnerByIndex}."
      },
      "tokenURI(uint256)": {
        "details": "See {IERC721Metadata-tokenURI}."
      },
      "totalSupply()": {
        "details": "See {IERC721Enumerable-totalSupply}."
      }
    }
  },
  "userdoc": {
    "methods": {}
  }
}