{
  "contractName": "BRTPOOL",
  "abi": [
    {
      "inputs": [],
      "stateMutability": "nonpayable",
      "type": "constructor"
    },
    {
      "anonymous": false,
      "inputs": [
        {
          "indexed": true,
          "internalType": "address",
          "name": "owner",
          "type": "address"
        },
        {
          "indexed": true,
          "internalType": "address",
          "name": "approved",
          "type": "address"
        },
        {
          "indexed": true,
          "internalType": "uint256",
          "name": "tokenId",
          "type": "uint256"
        }
      ],
      "name": "Approval",
      "type": "event"
    },
    {
      "anonymous": false,
      "inputs": [
        {
          "indexed": true,
          "internalType": "address",
          "name": "owner",
          "type": "address"
        },
        {
          "indexed": true,
          "internalType": "address",
          "name": "operator",
          "type": "address"
        },
        {
          "indexed": false,
          "internalType": "bool",
          "name": "approved",
          "type": "bool"
        }
      ],
      "name": "ApprovalForAll",
      "type": "event"
    },
    {
      "anonymous": false,
      "inputs": [
        {
          "indexed": true,
          "internalType": "address",
          "name": "borrower",
          "type": "address"
        },
        {
          "indexed": false,
          "internalType": "uint256",
          "name": "loanId",
          "type": "uint256"
        },
        {
          "indexed": false,
          "internalType": "uint256",
          "name": "redemptionPrice",
          "type": "uint256"
        },
        {
          "indexed": false,
          "internalType": "uint256",
          "name": "collateral",
          "type": "uint256"
        },
        {
          "indexed": false,
          "internalType": "uint256",
          "name": "expires",
          "type": "uint256"
        }
      ],
      "name": "Borrowed",
      "type": "event"
    },
    {
      "anonymous": false,
      "inputs": [
        {
          "indexed": true,
          "internalType": "address",
          "name": "borrower",
          "type": "address"
        },
        {
          "indexed": false,
          "internalType": "uint256",
          "name": "loanId",
          "type": "uint256"
        }
      ],
      "name": "Liquidated",
      "type": "event"
    },
    {
      "anonymous": false,
      "inputs": [
        {
          "indexed": true,
          "internalType": "address",
          "name": "from",
          "type": "address"
        },
        {
          "indexed": true,
          "internalType": "address",
          "name": "to",
          "type": "address"
        },
        {
          "indexed": true,
          "internalType": "uint256",
          "name": "tokenId",
          "type": "uint256"
        }
      ],
      "name": "Transfer",
      "type": "event"
    },
    {
      "inputs": [
        {
          "internalType": "address",
          "name": "owner",
          "type": "address"
        }
      ],
      "name": "balanceOf",
      "outputs": [
        {
          "internalType": "uint256",
          "name": "",
          "type": "uint256"
        }
      ],
      "stateMutability": "view",
      "type": "function",
      "constant": true
    },
    {
      "inputs": [],
      "name": "baseURI",
      "outputs": [
        {
          "internalType": "string",
          "name": "",
          "type": "string"
        }
      ],
      "stateMutability": "view",
      "type": "function",
      "constant": true
    },
    {
      "inputs": [],
      "name": "brtAddr",
      "outputs": [
        {
          "internalType": "address",
          "name": "",
          "type": "address"
        }
      ],
      "stateMutability": "view",
      "type": "function",
      "constant": true
    },
    {
      "inputs": [
        {
          "internalType": "uint256",
          "name": "_loanInBrt",
          "type": "uint256"
        }
      ],
      "name": "calculateCollateral",
      "outputs": [
        {
          "internalType": "uint256",
          "name": "",
          "type": "uint256"
        }
      ],
      "stateMutability": "view",
      "type": "function",
      "constant": true
    },
    {
      "inputs": [
        {
          "internalType": "uint256",
          "name": "_collateralInEth",
          "type": "uint256"
        }
      ],
      "name": "calculateLoan",
      "outputs": [
        {
          "internalType": "uint256",
          "name": "",
          "type": "uint256"
        }
      ],
      "stateMutability": "view",
      "type": "function",
      "constant": true
    },
    {
      "inputs": [],
      "name": "collaterizationRatio",
      "outputs": [
        {
          "internalType": "uint8",
          "name": "",
          "type": "uint8"
        }
      ],
      "stateMutability": "view",
      "type": "function",
      "constant": true
    },
    {
      "inputs": [
        {
          "internalType": "uint256",
          "name": "priceInEth",
          "type": "uint256"
        }
      ],
      "name": "convertToBrtFromEth",
      "outputs": [
        {
          "internalType": "uint256",
          "name": "",
          "type": "uint256"
        }
      ],
      "stateMutability": "view",
      "type": "function",
      "constant": true
    },
    {
      "inputs": [
        {
          "internalType": "uint256",
          "name": "priceInBrt",
          "type": "uint256"
        }
      ],
      "name": "convertToEthFromBrt",
      "outputs": [
        {
          "internalType": "uint256",
          "name": "",
          "type": "uint256"
        }
      ],
      "stateMutability": "view",
      "type": "function",
      "constant": true
    },
    {
      "inputs": [
        {
          "internalType": "uint256",
          "name": "tokenId",
          "type": "uint256"
        }
      ],
      "name": "getApproved",
      "outputs": [
        {
          "internalType": "address",
          "name": "",
          "type": "address"
        }
      ],
      "stateMutability": "view",
      "type": "function",
      "constant": true
    },
    {
      "inputs": [
        {
          "internalType": "address",
          "name": "owner",
          "type": "address"
        },
        {
          "internalType": "address",
          "name": "operator",
          "type": "address"
        }
      ],
      "name": "isApprovedForAll",
      "outputs": [
        {
          "internalType": "bool",
          "name": "",
          "type": "bool"
        }
      ],
      "stateMutability": "view",
      "type": "function",
      "constant": true
    },
    {
      "inputs": [],
      "name": "name",
      "outputs": [
        {
          "internalType": "string",
          "name": "",
          "type": "string"
        }
      ],
      "stateMutability": "view",
      "type": "function",
      "constant": true
    },
    {
      "inputs": [
        {
          "internalType": "uint256",
          "name": "tokenId",
          "type": "uint256"
        }
      ],
      "name": "ownerOf",
      "outputs": [
        {
          "internalType": "address",
          "name": "",
          "type": "address"
        }
      ],
      "stateMutability": "view",
      "type": "function",
      "constant": true
    },
    {
      "inputs": [
        {
          "internalType": "address",
          "name": "operator",
          "type": "address"
        },
        {
          "internalType": "bool",
          "name": "approved",
          "type": "bool"
        }
      ],
      "name": "setApprovalForAll",
      "outputs": [],
      "stateMutability": "nonpayable",
      "type": "function"
    },
    {
      "inputs": [
        {
          "internalType": "bytes4",
          "name": "interfaceId",
          "type": "bytes4"
        }
      ],
      "name": "supportsInterface",
      "outputs": [
        {
          "internalType": "bool",
          "name": "",
          "type": "bool"
        }
      ],
      "stateMutability": "view",
      "type": "function",
      "constant": true
    },
    {
      "inputs": [],
      "name": "symbol",
      "outputs": [
        {
          "internalType": "string",
          "name": "",
          "type": "string"
        }
      ],
      "stateMutability": "view",
      "type": "function",
      "constant": true
    },
    {
      "inputs": [
        {
          "internalType": "uint256",
          "name": "index",
          "type": "uint256"
        }
      ],
      "name": "tokenByIndex",
      "outputs": [
        {
          "internalType": "uint256",
          "name": "",
          "type": "uint256"
        }
      ],
      "stateMutability": "view",
      "type": "function",
      "constant": true
    },
    {
      "inputs": [],
      "name": "tokenInfo",
      "outputs": [
        {
          "internalType": "uint8",
          "name": "decimals",
          "type": "uint8"
        },
        {
          "internalType": "string",
          "name": "name",
          "type": "string"
        },
        {
          "internalType": "string",
          "name": "symbol",
          "type": "string"
        }
      ],
      "stateMutability": "view",
      "type": "function",
      "constant": true
    },
    {
      "inputs": [
        {
          "internalType": "address",
          "name": "owner",
          "type": "address"
        },
        {
          "internalType": "uint256",
          "name": "index",
          "type": "uint256"
        }
      ],
      "name": "tokenOfOwnerByIndex",
      "outputs": [
        {
          "internalType": "uint256",
          "name": "",
          "type": "uint256"
        }
      ],
      "stateMutability": "view",
      "type": "function",
      "constant": true
    },
    {
      "inputs": [
        {
          "internalType": "uint256",
          "name": "tokenId",
          "type": "uint256"
        }
      ],
      "name": "tokenURI",
      "outputs": [
        {
          "internalType": "string",
          "name": "",
          "type": "string"
        }
      ],
      "stateMutability": "view",
      "type": "function",
      "constant": true
    },
    {
      "inputs": [],
      "name": "totalSupply",
      "outputs": [
        {
          "internalType": "uint256",
          "name": "",
          "type": "uint256"
        }
      ],
      "stateMutability": "view",
      "type": "function",
      "constant": true
    },
    {
      "inputs": [],
      "name": "borrow",
      "outputs": [
        {
          "internalType": "uint256",
          "name": "",
          "type": "uint256"
        }
      ],
      "stateMutability": "payable",
      "type": "function",
      "payable": true
    },
    {
      "inputs": [
        {
          "internalType": "uint256",
          "name": "loanId",
          "type": "uint256"
        }
      ],
      "name": "payback",
      "outputs": [],
      "stateMutability": "nonpayable",
      "type": "function"
    },
    {
      "inputs": [
        {
          "internalType": "address",
          "name": "owner",
          "type": "address"
        }
      ],
      "name": "getOutstandingLoansBy",
      "outputs": [
        {
          "components": [
            {
              "internalType": "uint256",
              "name": "redemptionPrice",
              "type": "uint256"
            },
            {
              "internalType": "uint256",
              "name": "collateral",
              "type": "uint256"
            },
            {
              "internalType": "uint256",
              "name": "expires",
              "type": "uint256"
            }
          ],
          "internalType": "struct EtherBackedCollateral.Collateral[]",
          "name": "",
          "type": "tuple[]"
        }
      ],
      "stateMutability": "view",
      "type": "function",
      "constant": true
    },
    {
      "inputs": [],
      "name": "getOutstandingLoans",
      "outputs": [
        {
          "components": [
            {
              "internalType": "uint256",
              "name": "redemptionPrice",
              "type": "uint256"
            },
            {
              "internalType": "uint256",
              "name": "collateral",
              "type": "uint256"
            },
            {
              "internalType": "uint256",
              "name": "expires",
              "type": "uint256"
            }
          ],
          "internalType": "struct EtherBackedCollateral.Collateral[]",
          "name": "",
          "type": "tuple[]"
        }
      ],
      "stateMutability": "view",
      "type": "function",
      "constant": true
    },
    {
      "inputs": [
        {
          "internalType": "uint256",
          "name": "loanId",
          "type": "uint256"
        }
      ],
      "name": "isExpired",
      "outputs": [
        {
          "internalType": "bool",
          "name": "",
          "type": "bool"
        }
      ],
      "stateMutability": "view",
      "type": "function",
      "constant": true
    },
    {
      "inputs": [
        {
          "internalType": "uint256[]",
          "name": "_loanIds",
          "type": "uint256[]"
        }
      ],
      "name": "isAnyExpired",
      "outputs": [
        {
          "internalType": "bool",
          "name": "",
          "type": "bool"
        }
      ],
      "stateMutability": "view",
      "type": "function",
      "constant": true
    },
    {
      "inputs": [],
      "name": "getExpiredLoanIds",
      "outputs": [
        {
          "internalType": "uint256[]",
          "name": "",
          "type": "uint256[]"
        }
      ],
      "stateMutability": "view",
      "type": "function",
      "constant": true
    },
    {
      "inputs": [
        {
          "internalType": "uint256",
          "name": "loanId",
          "type": "uint256"
        }
      ],
      "name": "liquidate",
      "outputs": [],
      "stateMutability": "nonpayable",
      "type": "function"
    },
    {
      "inputs": [
        {
          "internalType": "uint256",
          "name": "loanId",
          "type": "uint256"
        }
      ],
      "name": "loanInfo",
      "outputs": [
        {
          "components": [
            {
              "internalType": "uint256",
              "name": "redemptionPrice",
              "type": "uint256"
            },
            {
              "internalType": "uint256",
              "name": "collateral",
              "type": "uint256"
            },
            {
              "internalType": "uint256",
              "name": "expires",
              "type": "uint256"
            }
          ],
          "internalType": "struct EtherBackedCollateral.Collateral",
          "name": "",
          "type": "tuple"
        }
      ],
      "stateMutability": "view",
      "type": "function",
      "constant": true
    },
    {
      "inputs": [],
      "name": "getPoolBalance",
      "outputs": [
        {
          "internalType": "uint256",
          "name": "",
          "type": "uint256"
        }
      ],
      "stateMutability": "view",
      "type": "function",
      "constant": true
    },
    {
      "inputs": [
        {
          "internalType": "address",
          "name": "to",
          "type": "address"
        },
        {
          "internalType": "uint256",
          "name": "tokenId",
          "type": "uint256"
        }
      ],
      "name": "approve",
      "outputs": [],
      "stateMutability": "nonpayable",
      "type": "function"
    },
    {
      "inputs": [
        {
          "internalType": "address",
          "name": "from",
          "type": "address"
        },
        {
          "internalType": "address",
          "name": "to",
          "type": "address"
        },
        {
          "internalType": "uint256",
          "name": "tokenId",
          "type": "uint256"
        }
      ],
      "name": "transferFrom",
      "outputs": [],
      "stateMutability": "nonpayable",
      "type": "function"
    },
    {
      "inputs": [
        {
          "internalType": "address",
          "name": "from",
          "type": "address"
        },
        {
          "internalType": "address",
          "name": "to",
          "type": "address"
        },
        {
          "internalType": "uint256",
          "name": "tokenId",
          "type": "uint256"
        }
      ],
      "name": "safeTransferFrom",
      "outputs": [],
      "stateMutability": "nonpayable",
      "type": "function"
    },
    {
      "inputs": [
        {
          "internalType": "address",
          "name": "from",
          "type": "address"
        },
        {
          "internalType": "address",
          "name": "to",
          "type": "address"
        },
        {
          "internalType": "uint256",
          "name": "tokenId",
          "type": "uint256"
        },
        {
          "internalType": "bytes",
          "name": "_data",
          "type": "bytes"
        }
      ],
      "name": "safeTransferFrom",
      "outputs": [],
      "stateMutability": "nonpayable",
      "type": "function"
    }
  ],
  "bytecode": "0x6080604052607d6000806101000a81548160ff021916908360ff1602179055506096600060016101000a81548160ff021916908360ff1602179055506078600c553480156200004d57600080fd5b506040518060400160405280601781526020017f4574686572204261636b656420436f6c6c61746572616c0000000000000000008152506040518060400160405280600381526020017f4542430000000000000000000000000000000000000000000000000000000000815250620000d26301ffc9a760e01b6200016460201b60201c565b8160079080519060200190620000ea92919062000506565b5080600890805190602001906200010392919062000506565b506200011c6380ac58cd60e01b6200016460201b60201c565b62000134635b5e139f60e01b6200016460201b60201c565b6200014c63780e9d6360e01b6200016460201b60201c565b50506200015e6200023c60201b60201c565b62000836565b63ffffffff60e01b817bffffffffffffffffffffffffffffffffffffffffffffffffffffffff19161415620001d0576040517f08c379a0000000000000000000000000000000000000000000000000000000008152600401620001c79062000717565b60405180910390fd5b6001806000837bffffffffffffffffffffffffffffffffffffffffffffffffffffffff19167bffffffffffffffffffffffffffffffffffffffffffffffffffffffff1916815260200190815260200160002060006101000a81548160ff02191690831515021790555050565b6000306040516200024d906200058d565b620002599190620006fa565b604051809103906000f08015801562000276573d6000803e3d6000fd5b50905080600d60006101000a81548173ffffffffffffffffffffffffffffffffffffffff021916908373ffffffffffffffffffffffffffffffffffffffff160217905550600d60009054906101000a900473ffffffffffffffffffffffffffffffffffffffff1673ffffffffffffffffffffffffffffffffffffffff166306fdde036040518163ffffffff1660e01b815260040160006040518083038186803b1580156200032357600080fd5b505afa15801562000338573d6000803e3d6000fd5b505050506040513d6000823e3d601f19601f8201168201806040525081019062000363919062000636565b600e60010190805190602001906200037d92919062000506565b50600d60009054906101000a900473ffffffffffffffffffffffffffffffffffffffff1673ffffffffffffffffffffffffffffffffffffffff166395d89b416040518163ffffffff1660e01b815260040160006040518083038186803b158015620003e757600080fd5b505afa158015620003fc573d6000803e3d6000fd5b505050506040513d6000823e3d601f19601f8201168201806040525081019062000427919062000636565b600e60020190805190602001906200044192919062000506565b50600d60009054906101000a900473ffffffffffffffffffffffffffffffffffffffff1673ffffffffffffffffffffffffffffffffffffffff1663313ce5676040518163ffffffff1660e01b815260040160206040518083038186803b158015620004ab57600080fd5b505afa158015620004c0573d6000803e3d6000fd5b505050506040513d601f19601f82011682018060405250810190620004e691906200067b565b600e60000160006101000a81548160ff021916908360ff16021790555050565b828054600181600116156101000203166002900490600052602060002090601f016020900481019282601f106200054957805160ff19168380011785556200057a565b828001600101855582156200057a579182015b82811115620005795782518255916020019190600101906200055c565b5b5090506200058991906200059b565b5090565b6115478062005c0283390190565b620005c091905b80821115620005bc576000816000905550600101620005a2565b5090565b90565b600082601f830112620005d557600080fd5b8151620005ec620005e68262000767565b62000739565b915080825260208301602083018583830111156200060957600080fd5b62000616838284620007e6565b50505092915050565b60008151905062000630816200081c565b92915050565b6000602082840312156200064957600080fd5b600082015167ffffffffffffffff8111156200066457600080fd5b6200067284828501620005c3565b91505092915050565b6000602082840312156200068e57600080fd5b60006200069e848285016200061f565b91505092915050565b620006b281620007a5565b82525050565b6000620006c7601c8362000794565b91507f4552433136353a20696e76616c696420696e74657266616365206964000000006000830152602082019050919050565b6000602082019050620007116000830184620006a7565b92915050565b600060208201905081810360008301526200073281620006b8565b9050919050565b6000604051905081810181811067ffffffffffffffff821117156200075d57600080fd5b8060405250919050565b600067ffffffffffffffff8211156200077f57600080fd5b601f19601f8301169050602081019050919050565b600082825260208201905092915050565b6000620007b282620007b9565b9050919050565b600073ffffffffffffffffffffffffffffffffffffffff82169050919050565b600060ff82169050919050565b60005b8381101562000806578082015181840152602081019050620007e9565b8381111562000816576000848401525b50505050565b6200082781620007d9565b81146200083357600080fd5b50565b6153bc80620008466000396000f3fe6080604052600436106101f95760003560e01c80636c0360eb1161010d578063a846c2fd116100a0578063c7d1a7ef1161006f578063c7d1a7ef146107bb578063c87b56dd146107e6578063d9548e5314610823578063e68d356914610860578063e985e9c51461087e576101f9565b8063a846c2fd14610701578063abd70aa21461072a578063b88d4fde14610755578063c79cbbdc1461077e576101f9565b8063934dafd7116100dc578063934dafd71461063357806395d89b4114610670578063a22cb4651461069b578063a770e501146106c4576101f9565b80636c0360eb146105515780636fee93001461057c57806370a08231146105b95780638349d6be146105f6576101f9565b80632f745c59116101905780634f6ccce71161015f5780634f6ccce714610442578063560593391461047f5780635eb6b48d146104bc5780636352211e146104e75780636addb66314610524576101f9565b80632f745c5914610376578063415f1240146103b357806342842e0e146103dc57806343baccdb14610405576101f9565b806318160ddd116101cc57806318160ddd146102cc57806323b872dd146102f7578063247ab5d81461032057806325845d111461034b576101f9565b806301ffc9a7146101fe57806306fdde031461023b578063081812fc14610266578063095ea7b3146102a3575b600080fd5b34801561020a57600080fd5b5061022560048036038101906102209190613ac8565b6108bb565b6040516102329190614b25565b60405180910390f35b34801561024757600080fd5b50610250610923565b60405161025d9190614b40565b60405180910390f35b34801561027257600080fd5b5061028d60048036038101906102889190613b1a565b6109c5565b60405161029a9190614a1a565b60405180910390f35b3480156102af57600080fd5b506102ca60048036038101906102c59190613a22565b610a4a565b005b3480156102d857600080fd5b506102e1610bab565b6040516102ee9190614f9d565b60405180910390f35b34801561030357600080fd5b5061031e6004803603810190610319919061391c565b610bbc565b005b34801561032c57600080fd5b50610335610c65565b6040516103429190614b03565b60405180910390f35b34801561035757600080fd5b50610360610d52565b60405161036d9190614a1a565b60405180910390f35b34801561038257600080fd5b5061039d60048036038101906103989190613a22565b610d78565b6040516103aa9190614f9d565b60405180910390f35b3480156103bf57600080fd5b506103da60048036038101906103d59190613b1a565b610dd3565b005b3480156103e857600080fd5b5061040360048036038101906103fe919061391c565b61101c565b005b34801561041157600080fd5b5061042c60048036038101906104279190613b1a565b611085565b6040516104399190614f9d565b60405180910390f35b34801561044e57600080fd5b5061046960048036038101906104649190613b1a565b6110b7565b6040516104769190614f9d565b60405180910390f35b34801561048b57600080fd5b506104a660048036038101906104a19190613b1a565b6110da565b6040516104b39190614f9d565b60405180910390f35b3480156104c857600080fd5b506104d161111b565b6040516104de9190614ffd565b60405180910390f35b3480156104f357600080fd5b5061050e60048036038101906105099190613b1a565b61112e565b60405161051b9190614a1a565b60405180910390f35b34801561053057600080fd5b50610539611165565b60405161054893929190615018565b60405180910390f35b34801561055d57600080fd5b506105666112ba565b6040516105739190614b40565b60405180910390f35b34801561058857600080fd5b506105a3600480360381019061059e91906138b7565b61135c565b6040516105b09190614ae1565b60405180910390f35b3480156105c557600080fd5b506105e060048036038101906105db91906138b7565b6114db565b6040516105ed9190614f9d565b60405180910390f35b34801561060257600080fd5b5061061d60048036038101906106189190613b1a565b61159a565b60405161062a9190614f82565b60405180910390f35b34801561063f57600080fd5b5061065a60048036038101906106559190613b1a565b61167c565b6040516106679190614f9d565b60405180910390f35b34801561067c57600080fd5b506106856116bd565b6040516106929190614b40565b60405180910390f35b3480156106a757600080fd5b506106c260048036038101906106bd91906139e6565b61175f565b005b3480156106d057600080fd5b506106eb60048036038101906106e69190613a5e565b6118e0565b6040516106f89190614b25565b60405180910390f35b34801561070d57600080fd5b5061072860048036038101906107239190613b1a565b61197d565b005b34801561073657600080fd5b5061073f611c00565b60405161074c9190614f9d565b60405180910390f35b34801561076157600080fd5b5061077c6004803603810190610777919061396b565b611cb7565b005b34801561078a57600080fd5b506107a560048036038101906107a09190613b1a565b611d62565b6040516107b29190614f9d565b60405180910390f35b3480156107c757600080fd5b506107d0611d94565b6040516107dd9190614ae1565b60405180910390f35b3480156107f257600080fd5b5061080d60048036038101906108089190613b1a565b611da4565b60405161081a9190614b40565b60405180910390f35b34801561082f57600080fd5b5061084a60048036038101906108459190613b1a565b611f2f565b6040516108579190614b25565b60405180910390f35b610868612058565b6040516108759190614f9d565b60405180910390f35b34801561088a57600080fd5b506108a560048036038101906108a091906138e0565b612226565b6040516108b29190614b25565b60405180910390f35b600060016000837bffffffffffffffffffffffffffffffffffffffffffffffffffffffff19167bffffffffffffffffffffffffffffffffffffffffffffffffffffffff1916815260200190815260200160002060009054906101000a900460ff169050919050565b606060078054600181600116156101000203166002900480601f0160208091040260200160405190810160405280929190818152602001828054600181600116156101000203166002900480156109bb5780601f10610990576101008083540402835291602001916109bb565b820191906000526020600020905b81548152906001019060200180831161099e57829003601f168201915b5050505050905090565b60006109d0826122ba565b610a0f576040517f08c379a0000000000000000000000000000000000000000000000000000000008152600401610a0690614e02565b60405180910390fd5b6005600083815260200190815260200160002060009054906101000a900473ffffffffffffffffffffffffffffffffffffffff169050919050565b610a5381611f2f565b15610a93576040517f08c379a0000000000000000000000000000000000000000000000000000000008152600401610a8a90614d62565b60405180910390fd5b6000610a9e8261112e565b90508073ffffffffffffffffffffffffffffffffffffffff168373ffffffffffffffffffffffffffffffffffffffff161415610b0f576040517f08c379a0000000000000000000000000000000000000000000000000000000008152600401610b0690614e82565b60405180910390fd5b8073ffffffffffffffffffffffffffffffffffffffff16610b2e6122d7565b73ffffffffffffffffffffffffffffffffffffffff161480610b5d5750610b5c81610b576122d7565b612226565b5b610b9c576040517f08c379a0000000000000000000000000000000000000000000000000000000008152600401610b9390614d02565b60405180910390fd5b610ba683836122df565b505050565b6000610bb76003612398565b905090565b610bc581611f2f565b15610c05576040517f08c379a0000000000000000000000000000000000000000000000000000000008152600401610bfc90614be2565b60405180910390fd5b610c16610c106122d7565b826123ad565b610c55576040517f08c379a0000000000000000000000000000000000000000000000000000000008152600401610c4c90614ec2565b60405180910390fd5b610c6083838361248b565b505050565b60606000610c716126a2565b905060018111610cb6576040517f08c379a0000000000000000000000000000000000000000000000000000000008152600401610cad90614ea2565b60405180910390fd5b60608167ffffffffffffffff81118015610ccf57600080fd5b50604051908082528060200260200182016040528015610cfe5781602001602082028036833780820191505090505b50905060008090505b600b80549050811015610d4957610d1d81611f2f565b15610d3c5780828281518110610d2f57fe5b6020026020010181815250505b8080600101915050610d07565b50809250505090565b600d60009054906101000a900473ffffffffffffffffffffffffffffffffffffffff1681565b6000610dcb82600260008673ffffffffffffffffffffffffffffffffffffffff1673ffffffffffffffffffffffffffffffffffffffff1681526020019081526020016000206126f390919063ffffffff16565b905092915050565b610ddc816122ba565b610e1b576040517f08c379a0000000000000000000000000000000000000000000000000000000008152600401610e1290614cc2565b60405180910390fd5b6000610e268261112e565b9050610e3182611f2f565b610e70576040517f08c379a0000000000000000000000000000000000000000000000000000000008152600401610e6790614f02565b60405180910390fd5b6000600d60009054906101000a900473ffffffffffffffffffffffffffffffffffffffff169050610e9f6136bf565b610ea88461159a565b90508173ffffffffffffffffffffffffffffffffffffffff166323b872dd333084600001516040518463ffffffff1660e01b8152600401610eeb93929190614a35565b602060405180830381600087803b158015610f0557600080fd5b505af1158015610f19573d6000803e3d6000fd5b505050506040513d601f19601f82011682018060405250810190610f3d9190613a9f565b50600b8481548110610f4b57fe5b9060005260206000209060030201600080820160009055600182016000905560028201600090555050610f7d8461270d565b3373ffffffffffffffffffffffffffffffffffffffff166108fc82602001519081150290604051600060405180830381858888f19350505050158015610fc7573d6000803e3d6000fd5b508273ffffffffffffffffffffffffffffffffffffffff167fa5ee7a2b0254fce91deed604506790ed7fa072d0b14cba4859c3bc8955b9caac8560405161100e9190614f9d565b60405180910390a250505050565b61102581611f2f565b15611065576040517f08c379a000000000000000000000000000000000000000000000000000000000815260040161105c90614be2565b60405180910390fd5b61108083838360405180602001604052806000815250611cb7565b505050565b6000806110ac6000809054906101000a900460ff1660ff168461284790919063ffffffff16565b905080915050919050565b6000806110ce8360036128b790919063ffffffff16565b50905080915050919050565b6000806110e683611d62565b9050600061110f600060019054906101000a900460ff1660ff16836128e690919063ffffffff16565b90508092505050919050565b600060019054906101000a900460ff1681565b600061115e8260405180606001604052806029815260200161535e6029913960036129169092919063ffffffff16565b9050919050565b600e8060000160009054906101000a900460ff1690806001018054600181600116156101000203166002900480601f0160208091040260200160405190810160405280929190818152602001828054600181600116156101000203166002900480156112125780601f106111e757610100808354040283529160200191611212565b820191906000526020600020905b8154815290600101906020018083116111f557829003601f168201915b505050505090806002018054600181600116156101000203166002900480601f0160208091040260200160405190810160405280929190818152602001828054600181600116156101000203166002900480156112b05780601f10611285576101008083540402835291602001916112b0565b820191906000526020600020905b81548152906001019060200180831161129357829003601f168201915b5050505050905083565b6060600a8054600181600116156101000203166002900480601f0160208091040260200160405190810160405280929190818152602001828054600181600116156101000203166002900480156113525780601f1061132757610100808354040283529160200191611352565b820191906000526020600020905b81548152906001019060200180831161133557829003601f168201915b5050505050905090565b60606000611369836114db565b116113a9576040517f08c379a00000000000000000000000000000000000000000000000000000000081526004016113a090614e62565b60405180910390fd5b60606113b4836114db565b67ffffffffffffffff811180156113ca57600080fd5b5060405190808252806020026020018201604052801561140457816020015b6113f16136bf565b8152602001906001900390816113e95790505b50905060008090505b600b805490508110156114d1578373ffffffffffffffffffffffffffffffffffffffff1661143a8261112e565b73ffffffffffffffffffffffffffffffffffffffff16148015611463575061146181611f2f565b155b156114c457600b818154811061147557fe5b906000526020600020906003020160405180606001604052908160008201548152602001600182015481526020016002820154815250508282815181106114b857fe5b60200260200101819052505b808060010191505061140d565b5080915050919050565b60008073ffffffffffffffffffffffffffffffffffffffff168273ffffffffffffffffffffffffffffffffffffffff16141561154c576040517f08c379a000000000000000000000000000000000000000000000000000000000815260040161154390614d22565b60405180910390fd5b611593600260008473ffffffffffffffffffffffffffffffffffffffff1673ffffffffffffffffffffffffffffffffffffffff168152602001908152602001600020612935565b9050919050565b6115a26136bf565b600b8054905082106115e9576040517f08c379a00000000000000000000000000000000000000000000000000000000081526004016115e090614f42565b60405180910390fd5b6115f2826122ba565b611631576040517f08c379a000000000000000000000000000000000000000000000000000000000815260040161162890614f22565b60405180910390fd5b600b828154811061163e57fe5b906000526020600020906003020160405180606001604052908160008201548152602001600182015481526020016002820154815250509050919050565b60008061168883611085565b905060006116b1600060019054906101000a900460ff1660ff168361294a90919063ffffffff16565b90508092505050919050565b606060088054600181600116156101000203166002900480601f0160208091040260200160405190810160405280929190818152602001828054600181600116156101000203166002900480156117555780601f1061172a57610100808354040283529160200191611755565b820191906000526020600020905b81548152906001019060200180831161173857829003601f168201915b5050505050905090565b6117676122d7565b73ffffffffffffffffffffffffffffffffffffffff168273ffffffffffffffffffffffffffffffffffffffff1614156117d5576040517f08c379a00000000000000000000000000000000000000000000000000000000081526004016117cc90614c82565b60405180910390fd5b80600660006117e26122d7565b73ffffffffffffffffffffffffffffffffffffffff1673ffffffffffffffffffffffffffffffffffffffff16815260200190815260200160002060008473ffffffffffffffffffffffffffffffffffffffff1673ffffffffffffffffffffffffffffffffffffffff16815260200190815260200160002060006101000a81548160ff0219169083151502179055508173ffffffffffffffffffffffffffffffffffffffff1661188f6122d7565b73ffffffffffffffffffffffffffffffffffffffff167f17307eab39ab6107e8899845ad3d59bd9653f200f220920489ca2b5937696c31836040516118d49190614b25565b60405180910390a35050565b6000600b805490508251111561192b576040517f08c379a000000000000000000000000000000000000000000000000000000000815260040161192290614ce2565b60405180910390fd5b600080600090505b83518110156119735761195884828151811061194b57fe5b6020026020010151611f2f565b156119665760019150611973565b8080600101915050611933565b5080915050919050565b61198733826123ad565b6119c6576040517f08c379a00000000000000000000000000000000000000000000000000000000081526004016119bd90614bc2565b60405180910390fd5b6119cf81611f2f565b15611a0f576040517f08c379a0000000000000000000000000000000000000000000000000000000008152600401611a0690614c22565b60405180910390fd5b6001611a1a336114db565b1015611a5b576040517f08c379a0000000000000000000000000000000000000000000000000000000008152600401611a5290614d42565b60405180910390fd5b611a64816122ba565b611aa3576040517f08c379a0000000000000000000000000000000000000000000000000000000008152600401611a9a90614f22565b60405180910390fd5b6000600d60009054906101000a900473ffffffffffffffffffffffffffffffffffffffff169050611ad26136bf565b611adb8361159a565b90508173ffffffffffffffffffffffffffffffffffffffff166323b872dd333084600001516040518463ffffffff1660e01b8152600401611b1e93929190614a35565b602060405180830381600087803b158015611b3857600080fd5b505af1158015611b4c573d6000803e3d6000fd5b505050506040513d601f19601f82011682018060405250810190611b709190613a9f565b50600b8381548110611b7e57fe5b9060005260206000209060030201600080820160009055600182016000905560028201600090555050611bb08361270d565b3373ffffffffffffffffffffffffffffffffffffffff166108fc82602001519081150290604051600060405180830381858888f19350505050158015611bfa573d6000803e3d6000fd5b50505050565b600080600d60009054906101000a900473ffffffffffffffffffffffffffffffffffffffff1690508073ffffffffffffffffffffffffffffffffffffffff166370a08231306040518263ffffffff1660e01b8152600401611c619190614a1a565b60206040518083038186803b158015611c7957600080fd5b505afa158015611c8d573d6000803e3d6000fd5b505050506040513d601f19601f82011682018060405250810190611cb19190613b43565b91505090565b611cc082611f2f565b15611d00576040517f08c379a0000000000000000000000000000000000000000000000000000000008152600401611cf790614f62565b60405180910390fd5b611d11611d0b6122d7565b836123ad565b611d50576040517f08c379a0000000000000000000000000000000000000000000000000000000008152600401611d4790614ec2565b60405180910390fd5b611d5c8484848461297a565b50505050565b600080611d896000809054906101000a900460ff1660ff16846129d690919063ffffffff16565b905080915050919050565b6060611d9f3361135c565b905090565b6060611daf826122ba565b611dee576040517f08c379a0000000000000000000000000000000000000000000000000000000008152600401611de590614e42565b60405180910390fd5b6060600960008481526020019081526020016000208054600181600116156101000203166002900480601f016020809104026020016040519081016040528092919081815260200182805460018160011615610100020316600290048015611e975780601f10611e6c57610100808354040283529160200191611e97565b820191906000526020600020905b815481529060010190602001808311611e7a57829003601f168201915b505050505090506000600a8054600181600116156101000203166002900490501415611ec65780915050611f2a565b600081511115611efb57600a81604051602001611ee49291906149f6565b604051602081830303815290604052915050611f2a565b600a611f0684612a20565b604051602001611f179291906149f6565b6040516020818303038152906040529150505b919050565b6000600b805490508210611f78576040517f08c379a0000000000000000000000000000000000000000000000000000000008152600401611f6f90614f42565b60405180910390fd5b6000600b8381548110611f8757fe5b9060005260206000209060030201600201541415611fda576040517f08c379a0000000000000000000000000000000000000000000000000000000008152600401611fd190614b82565b60405180910390fd5b611fe3826122ba565b612022576040517f08c379a000000000000000000000000000000000000000000000000000000000815260040161201990614f22565b60405180910390fd5b600b828154811061202f57fe5b906000526020600020906003020160020154421161204e576000612051565b60015b9050919050565b6000806120643461167c565b905061206e611c00565b81106120af576040517f08c379a00000000000000000000000000000000000000000000000000000000081526004016120a690614d82565b60405180910390fd5b6000600d60009054906101000a900473ffffffffffffffffffffffffffffffffffffffff1690508073ffffffffffffffffffffffffffffffffffffffff1663a9059cbb33846040518363ffffffff1660e01b8152600401612111929190614ab8565b602060405180830381600087803b15801561212b57600080fd5b505af115801561213f573d6000803e3d6000fd5b505050506040513d601f19601f820116820180604052508101906121639190613a9f565b50600061217a6005846128e690919063ffffffff16565b905060006121918285612b6790919063ffffffff16565b905060006121b482346121af42600c54612b6790919063ffffffff16565b612bbc565b90503373ffffffffffffffffffffffffffffffffffffffff167f04074d3222dae133379f5d478e841f42f76914bc8ca39d25e0cd120b226710e682843461220642600c54612b6790919063ffffffff16565b6040516122169493929190614fb8565b60405180910390a2505050505090565b6000600660008473ffffffffffffffffffffffffffffffffffffffff1673ffffffffffffffffffffffffffffffffffffffff16815260200190815260200160002060008373ffffffffffffffffffffffffffffffffffffffff1673ffffffffffffffffffffffffffffffffffffffff16815260200190815260200160002060009054906101000a900460ff16905092915050565b60006122d0826003612c4690919063ffffffff16565b9050919050565b600033905090565b816005600083815260200190815260200160002060006101000a81548173ffffffffffffffffffffffffffffffffffffffff021916908373ffffffffffffffffffffffffffffffffffffffff160217905550808273ffffffffffffffffffffffffffffffffffffffff166123528361112e565b73ffffffffffffffffffffffffffffffffffffffff167f8c5be1e5ebec7d5bd14f71427d1e84f3dd0314c0f7b2291e5b200ac8c7c3b92560405160405180910390a45050565b60006123a682600001612c60565b9050919050565b60006123b8826122ba565b6123f7576040517f08c379a00000000000000000000000000000000000000000000000000000000081526004016123ee90614ca2565b60405180910390fd5b60006124028361112e565b90508073ffffffffffffffffffffffffffffffffffffffff168473ffffffffffffffffffffffffffffffffffffffff16148061247157508373ffffffffffffffffffffffffffffffffffffffff16612459846109c5565b73ffffffffffffffffffffffffffffffffffffffff16145b8061248257506124818185612226565b5b91505092915050565b8273ffffffffffffffffffffffffffffffffffffffff166124ab8261112e565b73ffffffffffffffffffffffffffffffffffffffff1614612501576040517f08c379a00000000000000000000000000000000000000000000000000000000081526004016124f890614e22565b60405180910390fd5b600073ffffffffffffffffffffffffffffffffffffffff168273ffffffffffffffffffffffffffffffffffffffff161415612571576040517f08c379a000000000000000000000000000000000000000000000000000000000815260040161256890614c62565b60405180910390fd5b61257c838383612c71565b6125876000826122df565b6125d881600260008673ffffffffffffffffffffffffffffffffffffffff1673ffffffffffffffffffffffffffffffffffffffff168152602001908152602001600020612c7690919063ffffffff16565b5061262a81600260008573ffffffffffffffffffffffffffffffffffffffff1673ffffffffffffffffffffffffffffffffffffffff168152602001908152602001600020612c9090919063ffffffff16565b5061264181836003612caa9092919063ffffffff16565b50808273ffffffffffffffffffffffffffffffffffffffff168473ffffffffffffffffffffffffffffffffffffffff167fddf252ad1be2c89b69c2b068fc378daa952ba7f163c4a11628f55a4df523b3ef60405160405180910390a4505050565b60008060008090505b600b805490508110156126eb576126c181611f2f565b80156126d257506126d1816122ba565b5b156126de576001820191505b80806001019150506126ab565b508091505090565b60006127028360000183612cdf565b60001c905092915050565b60006127188261112e565b905061272681600084612c71565b6127316000836122df565b600060096000848152602001908152602001600020805460018160011615610100020316600290049050146127805760096000838152602001908152602001600020600061277f91906136e0565b5b6127d182600260008473ffffffffffffffffffffffffffffffffffffffff1673ffffffffffffffffffffffffffffffffffffffff168152602001908152602001600020612c7690919063ffffffff16565b506127e6826003612d4c90919063ffffffff16565b5081600073ffffffffffffffffffffffffffffffffffffffff168273ffffffffffffffffffffffffffffffffffffffff167fddf252ad1be2c89b69c2b068fc378daa952ba7f163c4a11628f55a4df523b3ef60405160405180910390a45050565b60008083141561285a57600090506128b1565b600082840290508284828161286b57fe5b04146128ac576040517f08c379a00000000000000000000000000000000000000000000000000000000081526004016128a390614de2565b60405180910390fd5b809150505b92915050565b6000806000806128ca8660000186612d66565b915091508160001c8160001c8090509350935050509250929050565b600061290e6064612900848661284790919063ffffffff16565b6129d690919063ffffffff16565b905092915050565b6000612929846000018460001b84612de9565b60001c90509392505050565b600061294382600001612e7a565b9050919050565b6000612972606461296484866129d690919063ffffffff16565b61284790919063ffffffff16565b905092915050565b61298584848461248b565b61299184848484612e8b565b6129d0576040517f08c379a00000000000000000000000000000000000000000000000000000000081526004016129c790614ba2565b60405180910390fd5b50505050565b6000612a1883836040518060400160405280601a81526020017f536166654d6174683a206469766973696f6e206279207a65726f000000000000815250612fef565b905092915050565b60606000821415612a68576040518060400160405280600181526020017f30000000000000000000000000000000000000000000000000000000000000008152509050612b62565b600082905060005b60008214612a92578080600101915050600a8281612a8a57fe5b049150612a70565b60608167ffffffffffffffff81118015612aab57600080fd5b506040519080825280601f01601f191660200182016040528015612ade5781602001600182028036833780820191505090505b50905060006001830390508593505b60008414612b5a57600a8481612aff57fe5b0660300160f81b82828060019003935081518110612b1957fe5b60200101907effffffffffffffffffffffffffffffffffffffffffffffffffffffffffffff1916908160001a905350600a8481612b5257fe5b049350612aed565b819450505050505b919050565b600080828401905083811015612bb2576040517f08c379a0000000000000000000000000000000000000000000000000000000008152600401612ba990614c42565b60405180910390fd5b8091505092915050565b6000600b6040518060600160405280868152602001858152602001848152509080600181540180825580915050600190039060005260206000209060030201600090919091909150600082015181600001556020820151816001015560408201518160020155505060006001600b80549050039050612c3b3382613050565b809150509392505050565b6000612c58836000018360001b6131de565b905092915050565b600081600001805490509050919050565b505050565b6000612c88836000018360001b613201565b905092915050565b6000612ca2836000018360001b6132e9565b905092915050565b6000612cd6846000018460001b8473ffffffffffffffffffffffffffffffffffffffff1660001b613359565b90509392505050565b600081836000018054905011612d2a576040517f08c379a0000000000000000000000000000000000000000000000000000000008152600401612d2190614b62565b60405180910390fd5b826000018281548110612d3957fe5b9060005260206000200154905092915050565b6000612d5e836000018360001b613435565b905092915050565b60008082846000018054905011612db2576040517f08c379a0000000000000000000000000000000000000000000000000000000008152600401612da990614da2565b60405180910390fd5b6000846000018481548110612dc357fe5b906000526020600020906002020190508060000154816001015492509250509250929050565b60008084600101600085815260200190815260200160002054905060008114158390612e4b576040517f08c379a0000000000000000000000000000000000000000000000000000000008152600401612e429190614b40565b60405180910390fd5b50846000016001820381548110612e5e57fe5b9060005260206000209060020201600101549150509392505050565b600081600001805490509050919050565b6000612eac8473ffffffffffffffffffffffffffffffffffffffff1661354e565b612eb95760019050612fe7565b6060612f8063150b7a0260e01b612ece6122d7565b888787604051602401612ee49493929190614a6c565b604051602081830303815290604052907bffffffffffffffffffffffffffffffffffffffffffffffffffffffff19166020820180517bffffffffffffffffffffffffffffffffffffffffffffffffffffffff838183161783525050505060405180606001604052806032815260200161532c603291398773ffffffffffffffffffffffffffffffffffffffff166135619092919063ffffffff16565b9050600081806020019051810190612f989190613af1565b905063150b7a0260e01b7bffffffffffffffffffffffffffffffffffffffffffffffffffffffff1916817bffffffffffffffffffffffffffffffffffffffffffffffffffffffff191614925050505b949350505050565b60008083118290613036576040517f08c379a000000000000000000000000000000000000000000000000000000000815260040161302d9190614b40565b60405180910390fd5b50600083858161304257fe5b049050809150509392505050565b600073ffffffffffffffffffffffffffffffffffffffff168273ffffffffffffffffffffffffffffffffffffffff1614156130c0576040517f08c379a00000000000000000000000000000000000000000000000000000000081526004016130b790614dc2565b60405180910390fd5b6130c9816122ba565b15613109576040517f08c379a000000000000000000000000000000000000000000000000000000000815260040161310090614c02565b60405180910390fd5b61311560008383612c71565b61316681600260008573ffffffffffffffffffffffffffffffffffffffff1673ffffffffffffffffffffffffffffffffffffffff168152602001908152602001600020612c9090919063ffffffff16565b5061317d81836003612caa9092919063ffffffff16565b50808273ffffffffffffffffffffffffffffffffffffffff16600073ffffffffffffffffffffffffffffffffffffffff167fddf252ad1be2c89b69c2b068fc378daa952ba7f163c4a11628f55a4df523b3ef60405160405180910390a45050565b600080836001016000848152602001908152602001600020541415905092915050565b600080836001016000848152602001908152602001600020549050600081146132dd576000600182039050600060018660000180549050039050600086600001828154811061324c57fe5b906000526020600020015490508087600001848154811061326957fe5b90600052602060002001819055506001830187600101600083815260200190815260200160002081905550866000018054806132a157fe5b600190038181906000526020600020016000905590558660010160008781526020019081526020016000206000905560019450505050506132e3565b60009150505b92915050565b60006132f58383613579565b61334e578260000182908060018154018082558091505060019003906000526020600020016000909190919091505582600001805490508360010160008481526020019081526020016000208190555060019050613353565b600090505b92915050565b60008084600101600085815260200190815260200160002054905060008114156134005784600001604051806040016040528086815260200185815250908060018154018082558091505060019003906000526020600020906002020160009091909190915060008201518160000155602082015181600101555050846000018054905085600101600086815260200190815260200160002081905550600191505061342e565b8285600001600183038154811061341357fe5b90600052602060002090600202016001018190555060009150505b9392505050565b60008083600101600084815260200190815260200160002054905060008114613542576000600182039050600060018660000180549050039050600086600001828154811061348057fe5b90600052602060002090600202019050808760000184815481106134a057fe5b90600052602060002090600202016000820154816000015560018201548160010155905050600183018760010160008360000154815260200190815260200160002081905550866000018054806134f357fe5b6001900381819060005260206000209060020201600080820160009055600182016000905550509055866001016000878152602001908152602001600020600090556001945050505050613548565b60009150505b92915050565b600080823b905060008111915050919050565b6060613570848460008561359c565b90509392505050565b600080836001016000848152602001908152602001600020541415905092915050565b60606135a78561354e565b6135e6576040517f08c379a00000000000000000000000000000000000000000000000000000000081526004016135dd90614ee2565b60405180910390fd5b600060608673ffffffffffffffffffffffffffffffffffffffff16858760405161361091906149df565b60006040518083038185875af1925050503d806000811461364d576040519150601f19603f3d011682016040523d82523d6000602084013e613652565b606091505b509150915081156136675780925050506136b7565b60008151111561367a5780518082602001fd5b836040517f08c379a00000000000000000000000000000000000000000000000000000000081526004016136ae9190614b40565b60405180910390fd5b949350505050565b60405180606001604052806000815260200160008152602001600081525090565b50805460018160011615610100020316600290046000825580601f106137065750613725565b601f0160209004906000526020600020908101906137249190613728565b5b50565b61374a91905b8082111561374657600081600090555060010161372e565b5090565b90565b60008135905061375c816152cf565b92915050565b600082601f83011261377357600080fd5b81356137866137818261508a565b61505d565b915081818352602084019350602081019050838560208402820111156137ab57600080fd5b60005b838110156137db57816137c1888261388d565b8452602084019350602083019250506001810190506137ae565b5050505092915050565b6000813590506137f4816152e6565b92915050565b600081519050613809816152e6565b92915050565b60008135905061381e816152fd565b92915050565b600081519050613833816152fd565b92915050565b600082601f83011261384a57600080fd5b813561385d613858826150b2565b61505d565b9150808252602083016020830185838301111561387957600080fd5b61388483828461527c565b50505092915050565b60008135905061389c81615314565b92915050565b6000815190506138b181615314565b92915050565b6000602082840312156138c957600080fd5b60006138d78482850161374d565b91505092915050565b600080604083850312156138f357600080fd5b60006139018582860161374d565b92505060206139128582860161374d565b9150509250929050565b60008060006060848603121561393157600080fd5b600061393f8682870161374d565b93505060206139508682870161374d565b92505060406139618682870161388d565b9150509250925092565b6000806000806080858703121561398157600080fd5b600061398f8782880161374d565b94505060206139a08782880161374d565b93505060406139b18782880161388d565b925050606085013567ffffffffffffffff8111156139ce57600080fd5b6139da87828801613839565b91505092959194509250565b600080604083850312156139f957600080fd5b6000613a078582860161374d565b9250506020613a18858286016137e5565b9150509250929050565b60008060408385031215613a3557600080fd5b6000613a438582860161374d565b9250506020613a548582860161388d565b9150509250929050565b600060208284031215613a7057600080fd5b600082013567ffffffffffffffff811115613a8a57600080fd5b613a9684828501613762565b91505092915050565b600060208284031215613ab157600080fd5b6000613abf848285016137fa565b91505092915050565b600060208284031215613ada57600080fd5b6000613ae88482850161380f565b91505092915050565b600060208284031215613b0357600080fd5b6000613b1184828501613824565b91505092915050565b600060208284031215613b2c57600080fd5b6000613b3a8482850161388d565b91505092915050565b600060208284031215613b5557600080fd5b6000613b63848285016138a2565b91505092915050565b6000613b78838361492e565b60608301905092915050565b6000613b9083836149b2565b60208301905092915050565b613ba581615246565b82525050565b613bb4816151c5565b82525050565b613bc3816151b3565b82525050565b6000613bd482615113565b613bde8185615159565b9350613be9836150de565b8060005b83811015613c1a578151613c018882613b6c565b9750613c0c8361513f565b925050600181019050613bed565b5085935050505092915050565b6000613c328261511e565b613c3c818561516a565b9350613c47836150ee565b8060005b83811015613c78578151613c5f8882613b84565b9750613c6a8361514c565b925050600181019050613c4b565b5085935050505092915050565b613c8e816151d7565b82525050565b6000613c9f82615129565b613ca9818561517b565b9350613cb981856020860161528b565b613cc2816152be565b840191505092915050565b6000613cd882615129565b613ce2818561518c565b9350613cf281856020860161528b565b80840191505092915050565b6000613d0982615134565b613d138185615197565b9350613d2381856020860161528b565b613d2c816152be565b840191505092915050565b6000613d4282615134565b613d4c81856151a8565b9350613d5c81856020860161528b565b80840191505092915050565b600081546001811660008114613d855760018114613daa57613dee565b607f6002830416613d9681876151a8565b955060ff1983168652808601935050613dee565b60028204613db881876151a8565b9550613dc3856150fe565b60005b82811015613de557815481890152600182019150602081019050613dc6565b82880195505050505b505092915050565b6000613e03602283615197565b91507f456e756d657261626c655365743a20696e646578206f7574206f6620626f756e60008301527f64730000000000000000000000000000000000000000000000000000000000006020830152604082019050919050565b6000613e69602083615197565b91507f4572726f723a20636f6c6c61746572616c20646f6573206e6f742065786973746000830152602082019050919050565b6000613ea9603283615197565b91507f4552433732313a207472616e7366657220746f206e6f6e20455243373231526560008301527f63656976657220696d706c656d656e74657200000000000000000000000000006020830152604082019050919050565b6000613f0f602e83615197565b91507f4572726f7220636f6c6c61746572616c20646f65736e742062656c6f6e67207460008301527f6f207468697320616464726573730000000000000000000000000000000000006020830152604082019050919050565b6000613f75602783615197565b91507f4572726f723a2063616e74207472616e73666572206578706972656420636f6c60008301527f6c61746572616c000000000000000000000000000000000000000000000000006020830152604082019050919050565b6000613fdb601c83615197565b91507f4552433732313a20746f6b656e20616c7265616479206d696e746564000000006000830152602082019050919050565b600061401b601f83615197565b91507f4572726f722063616e74207061796261636b2065787069726564206c6f616e006000830152602082019050919050565b600061405b601b83615197565b91507f536166654d6174683a206164646974696f6e206f766572666c6f7700000000006000830152602082019050919050565b600061409b602483615197565b91507f4552433732313a207472616e7366657220746f20746865207a65726f2061646460008301527f72657373000000000000000000000000000000000000000000000000000000006020830152604082019050919050565b6000614101601983615197565b91507f4552433732313a20617070726f766520746f2063616c6c6572000000000000006000830152602082019050919050565b6000614141602c83615197565b91507f4552433732313a206f70657261746f7220717565727920666f72206e6f6e657860008301527f697374656e7420746f6b656e00000000000000000000000000000000000000006020830152604082019050919050565b60006141a7602c83615197565b91507f4572726f722063616e74206c69717564617465206c6f616e207468617420646f60008301527f6573206e6f7420657869737400000000000000000000000000000000000000006020830152604082019050919050565b600061420d603c83615197565b91507f4572726f723a206e756d626572206f6620696420706172616d6574657273206560008301527f786365656473206e756d626572206f6620636f6c6c61746572616c73000000006020830152604082019050919050565b6000614273603883615197565b91507f4552433732313a20617070726f76652063616c6c6572206973206e6f74206f7760008301527f6e6572206e6f7220617070726f76656420666f7220616c6c00000000000000006020830152604082019050919050565b60006142d9602a83615197565b91507f4552433732313a2062616c616e636520717565727920666f7220746865207a6560008301527f726f2061646472657373000000000000000000000000000000000000000000006020830152604082019050919050565b600061433f602083615197565b91507f796f7520646f206e6f74206861766520616e792065786974696e67206c6f616e6000830152602082019050919050565b600061437f603383615197565b91507f4572726f723a2063616e7420617070726f7665206578706972656420636f6c6c60008301527f61746572616c20666f72207472616e73666572000000000000000000000000006020830152604082019050919050565b60006143e5602483615197565b91507f63616e7420626f72726f77206d6f7265207468616e20706f6f6c206c6971756960008301527f64697479000000000000000000000000000000000000000000000000000000006020830152604082019050919050565b600061444b602283615197565b91507f456e756d657261626c654d61703a20696e646578206f7574206f6620626f756e60008301527f64730000000000000000000000000000000000000000000000000000000000006020830152604082019050919050565b60006144b1602083615197565b91507f4552433732313a206d696e7420746f20746865207a65726f20616464726573736000830152602082019050919050565b60006144f1602183615197565b91507f536166654d6174683a206d756c7469706c69636174696f6e206f766572666c6f60008301527f77000000000000000000000000000000000000000000000000000000000000006020830152604082019050919050565b6000614557602c83615197565b91507f4552433732313a20617070726f76656420717565727920666f72206e6f6e657860008301527f697374656e7420746f6b656e00000000000000000000000000000000000000006020830152604082019050919050565b60006145bd602983615197565b91507f4552433732313a207472616e73666572206f6620746f6b656e2074686174206960008301527f73206e6f74206f776e00000000000000000000000000000000000000000000006020830152604082019050919050565b6000614623602f83615197565b91507f4552433732314d657461646174613a2055524920717565727920666f72206e6f60008301527f6e6578697374656e7420746f6b656e00000000000000000000000000000000006020830152604082019050919050565b6000614689602083615197565b91507f6164647265737320686173206e6f206f75747374616e64696e67204c6f616e736000830152602082019050919050565b60006146c9602183615197565b91507f4552433732313a20617070726f76616c20746f2063757272656e74206f776e6560008301527f72000000000000000000000000000000000000000000000000000000000000006020830152604082019050919050565b600061472f601c83615197565b91507f4572726f72204e6f2045787069726564206c6f616e7320666f756e64000000006000830152602082019050919050565b600061476f603183615197565b91507f4552433732313a207472616e736665722063616c6c6572206973206e6f74206f60008301527f776e6572206e6f7220617070726f7665640000000000000000000000000000006020830152604082019050919050565b60006147d5601d83615197565b91507f416464726573733a2063616c6c20746f206e6f6e2d636f6e74726163740000006000830152602082019050919050565b6000614815601b83615197565b91507f4572726f723a206c6f616e20686173206e6f74206578706972656400000000006000830152602082019050919050565b6000614855601d83615197565b91507f4572726f723a206c6f616e20696420646f6573206e6f742065786973740000006000830152602082019050919050565b6000614895601683615197565b91507f4572726f723a20696e76616c6964206c6f616e206964000000000000000000006000830152602082019050919050565b60006148d5602c83615197565b91507f4572726f723a2063616e74207472616e73666572206578706972656420636f6c60008301527f6c61746572616c20666f722000000000000000000000000000000000000000006020830152604082019050919050565b60608201600082015161494460008501826149b2565b50602082015161495760208501826149b2565b50604082015161496a60408501826149b2565b50505050565b60608201600082015161498660008501826149b2565b50602082015161499960208501826149b2565b5060408201516149ac60408501826149b2565b50505050565b6149bb8161522f565b82525050565b6149ca8161522f565b82525050565b6149d981615239565b82525050565b60006149eb8284613ccd565b915081905092915050565b6000614a028285613d68565b9150614a0e8284613d37565b91508190509392505050565b6000602082019050614a2f6000830184613bba565b92915050565b6000606082019050614a4a6000830186613b9c565b614a576020830185613bba565b614a6460408301846149c1565b949350505050565b6000608082019050614a816000830187613bab565b614a8e6020830186613bba565b614a9b60408301856149c1565b8181036060830152614aad8184613c94565b905095945050505050565b6000604082019050614acd6000830185613b9c565b614ada60208301846149c1565b9392505050565b60006020820190508181036000830152614afb8184613bc9565b905092915050565b60006020820190508181036000830152614b1d8184613c27565b905092915050565b6000602082019050614b3a6000830184613c85565b92915050565b60006020820190508181036000830152614b5a8184613cfe565b905092915050565b60006020820190508181036000830152614b7b81613df6565b9050919050565b60006020820190508181036000830152614b9b81613e5c565b9050919050565b60006020820190508181036000830152614bbb81613e9c565b9050919050565b60006020820190508181036000830152614bdb81613f02565b9050919050565b60006020820190508181036000830152614bfb81613f68565b9050919050565b60006020820190508181036000830152614c1b81613fce565b9050919050565b60006020820190508181036000830152614c3b8161400e565b9050919050565b60006020820190508181036000830152614c5b8161404e565b9050919050565b60006020820190508181036000830152614c7b8161408e565b9050919050565b60006020820190508181036000830152614c9b816140f4565b9050919050565b60006020820190508181036000830152614cbb81614134565b9050919050565b60006020820190508181036000830152614cdb8161419a565b9050919050565b60006020820190508181036000830152614cfb81614200565b9050919050565b60006020820190508181036000830152614d1b81614266565b9050919050565b60006020820190508181036000830152614d3b816142cc565b9050919050565b60006020820190508181036000830152614d5b81614332565b9050919050565b60006020820190508181036000830152614d7b81614372565b9050919050565b60006020820190508181036000830152614d9b816143d8565b9050919050565b60006020820190508181036000830152614dbb8161443e565b9050919050565b60006020820190508181036000830152614ddb816144a4565b9050919050565b60006020820190508181036000830152614dfb816144e4565b9050919050565b60006020820190508181036000830152614e1b8161454a565b9050919050565b60006020820190508181036000830152614e3b816145b0565b9050919050565b60006020820190508181036000830152614e5b81614616565b9050919050565b60006020820190508181036000830152614e7b8161467c565b9050919050565b60006020820190508181036000830152614e9b816146bc565b9050919050565b60006020820190508181036000830152614ebb81614722565b9050919050565b60006020820190508181036000830152614edb81614762565b9050919050565b60006020820190508181036000830152614efb816147c8565b9050919050565b60006020820190508181036000830152614f1b81614808565b9050919050565b60006020820190508181036000830152614f3b81614848565b9050919050565b60006020820190508181036000830152614f5b81614888565b9050919050565b60006020820190508181036000830152614f7b816148c8565b9050919050565b6000606082019050614f976000830184614970565b92915050565b6000602082019050614fb260008301846149c1565b92915050565b6000608082019050614fcd60008301876149c1565b614fda60208301866149c1565b614fe760408301856149c1565b614ff460608301846149c1565b95945050505050565b600060208201905061501260008301846149d0565b92915050565b600060608201905061502d60008301866149d0565b818103602083015261503f8185613cfe565b905081810360408301526150538184613cfe565b9050949350505050565b6000604051905081810181811067ffffffffffffffff8211171561508057600080fd5b8060405250919050565b600067ffffffffffffffff8211156150a157600080fd5b602082029050602081019050919050565b600067ffffffffffffffff8211156150c957600080fd5b601f19601f8301169050602081019050919050565b6000819050602082019050919050565b6000819050602082019050919050565b60008190508160005260206000209050919050565b600081519050919050565b600081519050919050565b600081519050919050565b600081519050919050565b6000602082019050919050565b6000602082019050919050565b600082825260208201905092915050565b600082825260208201905092915050565b600082825260208201905092915050565b600081905092915050565b600082825260208201905092915050565b600081905092915050565b60006151be8261520f565b9050919050565b60006151d08261520f565b9050919050565b60008115159050919050565b60007fffffffff0000000000000000000000000000000000000000000000000000000082169050919050565b600073ffffffffffffffffffffffffffffffffffffffff82169050919050565b6000819050919050565b600060ff82169050919050565b600061525182615258565b9050919050565b60006152638261526a565b9050919050565b60006152758261520f565b9050919050565b82818337600083830152505050565b60005b838110156152a957808201518184015260208101905061528e565b838111156152b8576000848401525b50505050565b6000601f19601f8301169050919050565b6152d8816151b3565b81146152e357600080fd5b50565b6152ef816151d7565b81146152fa57600080fd5b50565b615306816151e3565b811461531157600080fd5b50565b61531d8161522f565b811461532857600080fd5b5056fe4552433732313a207472616e7366657220746f206e6f6e20455243373231526563656976657220696d706c656d656e7465724552433732313a206f776e657220717565727920666f72206e6f6e6578697374656e7420746f6b656ea2646970667358221220a789054dd76a0d826a52f2b0f25b35f3ecc103b95f1b86915f03e0417fe7ff7a64736f6c6343000606003360806040523480156200001157600080fd5b506040516200154738038062001547833981810160405260208110156200003757600080fd5b81019080805190602001909291905050506040518060400160405280600e81526020017f426f72726f77656420546f6b656e0000000000000000000000000000000000008152506040518060400160405280600381526020017f42525400000000000000000000000000000000000000000000000000000000008152508160039080519060200190620000cc92919062000397565b508060049080519060200190620000e592919062000397565b506012600560006101000a81548160ff021916908360ff16021790555050506200012481670de0b6b3a7640000633b9aca00026200012b60201b60201c565b5062000446565b600073ffffffffffffffffffffffffffffffffffffffff168273ffffffffffffffffffffffffffffffffffffffff161415620001cf576040517f08c379a000000000000000000000000000000000000000000000000000000000815260040180806020018281038252601f8152602001807f45524332303a206d696e7420746f20746865207a65726f20616464726573730081525060200191505060405180910390fd5b620001e3600083836200030960201b60201c565b620001ff816002546200030e60201b62000f2d1790919060201c565b6002819055506200025d816000808573ffffffffffffffffffffffffffffffffffffffff1673ffffffffffffffffffffffffffffffffffffffff168152602001908152602001600020546200030e60201b62000f2d1790919060201c565b6000808473ffffffffffffffffffffffffffffffffffffffff1673ffffffffffffffffffffffffffffffffffffffff168152602001908152602001600020819055508173ffffffffffffffffffffffffffffffffffffffff16600073ffffffffffffffffffffffffffffffffffffffff167fddf252ad1be2c89b69c2b068fc378daa952ba7f163c4a11628f55a4df523b3ef836040518082815260200191505060405180910390a35050565b505050565b6000808284019050838110156200038d576040517f08c379a000000000000000000000000000000000000000000000000000000000815260040180806020018281038252601b8152602001807f536166654d6174683a206164646974696f6e206f766572666c6f77000000000081525060200191505060405180910390fd5b8091505092915050565b828054600181600116156101000203166002900490600052602060002090601f016020900481019282601f10620003da57805160ff19168380011785556200040b565b828001600101855582156200040b579182015b828111156200040a578251825591602001919060010190620003ed565b5b5090506200041a91906200041e565b5090565b6200044391905b808211156200043f57600081600090555060010162000425565b5090565b90565b6110f180620004566000396000f3fe608060405234801561001057600080fd5b50600436106100a95760003560e01c80633950935111610071578063395093511461025f57806370a08231146102c557806395d89b411461031d578063a457c2d7146103a0578063a9059cbb14610406578063dd62ed3e1461046c576100a9565b806306fdde03146100ae578063095ea7b31461013157806318160ddd1461019757806323b872dd146101b5578063313ce5671461023b575b600080fd5b6100b66104e4565b6040518080602001828103825283818151815260200191508051906020019080838360005b838110156100f65780820151818401526020810190506100db565b50505050905090810190601f1680156101235780820380516001836020036101000a031916815260200191505b509250505060405180910390f35b61017d6004803603604081101561014757600080fd5b81019080803573ffffffffffffffffffffffffffffffffffffffff16906020019092919080359060200190929190505050610586565b604051808215151515815260200191505060405180910390f35b61019f6105a4565b6040518082815260200191505060405180910390f35b610221600480360360608110156101cb57600080fd5b81019080803573ffffffffffffffffffffffffffffffffffffffff169060200190929190803573ffffffffffffffffffffffffffffffffffffffff169060200190929190803590602001909291905050506105ae565b604051808215151515815260200191505060405180910390f35b610243610687565b604051808260ff1660ff16815260200191505060405180910390f35b6102ab6004803603604081101561027557600080fd5b81019080803573ffffffffffffffffffffffffffffffffffffffff1690602001909291908035906020019092919050505061069e565b604051808215151515815260200191505060405180910390f35b610307600480360360208110156102db57600080fd5b81019080803573ffffffffffffffffffffffffffffffffffffffff169060200190929190505050610751565b6040518082815260200191505060405180910390f35b610325610799565b6040518080602001828103825283818151815260200191508051906020019080838360005b8381101561036557808201518184015260208101905061034a565b50505050905090810190601f1680156103925780820380516001836020036101000a031916815260200191505b509250505060405180910390f35b6103ec600480360360408110156103b657600080fd5b81019080803573ffffffffffffffffffffffffffffffffffffffff1690602001909291908035906020019092919050505061083b565b604051808215151515815260200191505060405180910390f35b6104526004803603604081101561041c57600080fd5b81019080803573ffffffffffffffffffffffffffffffffffffffff16906020019092919080359060200190929190505050610908565b604051808215151515815260200191505060405180910390f35b6104ce6004803603604081101561048257600080fd5b81019080803573ffffffffffffffffffffffffffffffffffffffff169060200190929190803573ffffffffffffffffffffffffffffffffffffffff169060200190929190505050610926565b6040518082815260200191505060405180910390f35b606060038054600181600116156101000203166002900480601f01602080910402602001604051908101604052809291908181526020018280546001816001161561010002031660029004801561057c5780601f106105515761010080835404028352916020019161057c565b820191906000526020600020905b81548152906001019060200180831161055f57829003601f168201915b5050505050905090565b600061059a6105936109ad565b84846109b5565b6001905092915050565b6000600254905090565b60006105bb848484610bac565b61067c846105c76109ad565b6106778560405180606001604052806028815260200161102660289139600160008b73ffffffffffffffffffffffffffffffffffffffff1673ffffffffffffffffffffffffffffffffffffffff168152602001908152602001600020600061062d6109ad565b73ffffffffffffffffffffffffffffffffffffffff1673ffffffffffffffffffffffffffffffffffffffff16815260200190815260200160002054610e6d9092919063ffffffff16565b6109b5565b600190509392505050565b6000600560009054906101000a900460ff16905090565b60006107476106ab6109ad565b8461074285600160006106bc6109ad565b73ffffffffffffffffffffffffffffffffffffffff1673ffffffffffffffffffffffffffffffffffffffff16815260200190815260200160002060008973ffffffffffffffffffffffffffffffffffffffff1673ffffffffffffffffffffffffffffffffffffffff16815260200190815260200160002054610f2d90919063ffffffff16565b6109b5565b6001905092915050565b60008060008373ffffffffffffffffffffffffffffffffffffffff1673ffffffffffffffffffffffffffffffffffffffff168152602001908152602001600020549050919050565b606060048054600181600116156101000203166002900480601f0160208091040260200160405190810160405280929190818152602001828054600181600116156101000203166002900480156108315780601f1061080657610100808354040283529160200191610831565b820191906000526020600020905b81548152906001019060200180831161081457829003601f168201915b5050505050905090565b60006108fe6108486109ad565b846108f98560405180606001604052806025815260200161109760259139600160006108726109ad565b73ffffffffffffffffffffffffffffffffffffffff1673ffffffffffffffffffffffffffffffffffffffff16815260200190815260200160002060008a73ffffffffffffffffffffffffffffffffffffffff1673ffffffffffffffffffffffffffffffffffffffff16815260200190815260200160002054610e6d9092919063ffffffff16565b6109b5565b6001905092915050565b600061091c6109156109ad565b8484610bac565b6001905092915050565b6000600160008473ffffffffffffffffffffffffffffffffffffffff1673ffffffffffffffffffffffffffffffffffffffff16815260200190815260200160002060008373ffffffffffffffffffffffffffffffffffffffff1673ffffffffffffffffffffffffffffffffffffffff16815260200190815260200160002054905092915050565b600033905090565b600073ffffffffffffffffffffffffffffffffffffffff168373ffffffffffffffffffffffffffffffffffffffff161415610a3b576040517f08c379a00000000000000000000000000000000000000000000000000000000081526004018080602001828103825260248152602001806110736024913960400191505060405180910390fd5b600073ffffffffffffffffffffffffffffffffffffffff168273ffffffffffffffffffffffffffffffffffffffff161415610ac1576040517f08c379a0000000000000000000000000000000000000000000000000000000008152600401808060200182810382526022815260200180610fde6022913960400191505060405180910390fd5b80600160008573ffffffffffffffffffffffffffffffffffffffff1673ffffffffffffffffffffffffffffffffffffffff16815260200190815260200160002060008473ffffffffffffffffffffffffffffffffffffffff1673ffffffffffffffffffffffffffffffffffffffff168152602001908152602001600020819055508173ffffffffffffffffffffffffffffffffffffffff168373ffffffffffffffffffffffffffffffffffffffff167f8c5be1e5ebec7d5bd14f71427d1e84f3dd0314c0f7b2291e5b200ac8c7c3b925836040518082815260200191505060405180910390a3505050565b600073ffffffffffffffffffffffffffffffffffffffff168373ffffffffffffffffffffffffffffffffffffffff161415610c32576040517f08c379a000000000000000000000000000000000000000000000000000000000815260040180806020018281038252602581526020018061104e6025913960400191505060405180910390fd5b600073ffffffffffffffffffffffffffffffffffffffff168273ffffffffffffffffffffffffffffffffffffffff161415610cb8576040517f08c379a0000000000000000000000000000000000000000000000000000000008152600401808060200182810382526023815260200180610fbb6023913960400191505060405180910390fd5b610cc3838383610fb5565b610d2e81604051806060016040528060268152602001611000602691396000808773ffffffffffffffffffffffffffffffffffffffff1673ffffffffffffffffffffffffffffffffffffffff16815260200190815260200160002054610e6d9092919063ffffffff16565b6000808573ffffffffffffffffffffffffffffffffffffffff1673ffffffffffffffffffffffffffffffffffffffff16815260200190815260200160002081905550610dc1816000808573ffffffffffffffffffffffffffffffffffffffff1673ffffffffffffffffffffffffffffffffffffffff16815260200190815260200160002054610f2d90919063ffffffff16565b6000808473ffffffffffffffffffffffffffffffffffffffff1673ffffffffffffffffffffffffffffffffffffffff168152602001908152602001600020819055508173ffffffffffffffffffffffffffffffffffffffff168373ffffffffffffffffffffffffffffffffffffffff167fddf252ad1be2c89b69c2b068fc378daa952ba7f163c4a11628f55a4df523b3ef836040518082815260200191505060405180910390a3505050565b6000838311158290610f1a576040517f08c379a00000000000000000000000000000000000000000000000000000000081526004018080602001828103825283818151815260200191508051906020019080838360005b83811015610edf578082015181840152602081019050610ec4565b50505050905090810190601f168015610f0c5780820380516001836020036101000a031916815260200191505b509250505060405180910390fd5b5060008385039050809150509392505050565b600080828401905083811015610fab576040517f08c379a000000000000000000000000000000000000000000000000000000000815260040180806020018281038252601b8152602001807f536166654d6174683a206164646974696f6e206f766572666c6f77000000000081525060200191505060405180910390fd5b8091505092915050565b50505056fe45524332303a207472616e7366657220746f20746865207a65726f206164647265737345524332303a20617070726f766520746f20746865207a65726f206164647265737345524332303a207472616e7366657220616d6f756e7420657863656564732062616c616e636545524332303a207472616e7366657220616d6f756e74206578636565647320616c6c6f77616e636545524332303a207472616e736665722066726f6d20746865207a65726f206164647265737345524332303a20617070726f76652066726f6d20746865207a65726f206164647265737345524332303a2064656372656173656420616c6c6f77616e63652062656c6f77207a65726fa26469706673582212206c5f3bf9b0c6e8eaf7e34da2b190720c13b21c88348a6492dadfb019ce5a017b64736f6c63430006060033",
  "source": "pragma solidity ^0.6.0;\r\npragma experimental ABIEncoderV2;\r\nimport '@openzeppelin/contracts/math/SafeMath.sol';\r\nimport './tokens/BRT.sol';\r\nimport './libraries/SafePercentage.sol';\r\nimport './BRTPOOLUTILS.SOL';\r\nimport './tokens/EtherBackedCollateral.sol';\r\ncontract BRTPOOL is BRTPOOLUTILS ,EtherBackedCollateral{\r\n    address public brtAddr;\r\n    struct BrtTokenInfo{\r\n        uint8 decimals;\r\n        string name;\r\n        string symbol;\r\n\r\n    }\r\n    BrtTokenInfo public tokenInfo;\r\n    using SafePercentage for uint;\r\n    using SafeMath for uint;\r\n\r\n    constructor() public{\r\n      _createBrtTokenAndAddLiquidityToPool();\r\n     \r\n\r\n    }\r\n    \r\n    event Borrowed(address indexed borrower,uint loanId,  uint redemptionPrice,uint collateral,uint expires);\r\n    event Liquidated(address indexed borrower,uint  loanId);\r\n   \r\n    function borrow() public  payable\r\n    returns(uint)\r\n    {\r\n        uint loan = calculateLoan(msg.value);\r\n        require(loan < getPoolBalance(),'cant borrow more than pool liquidity');\r\n        BRT brtToken=BRT(brtAddr);\r\n        brtToken.transfer(msg.sender,loan); \r\n        uint fee=loan.percentMul(5);\r\n        uint redemptionPrice =loan.add(fee);\r\n        uint id = _issueCollateralToken(redemptionPrice, msg.value, borrowTime.add(block.timestamp));\r\n        emit Borrowed(msg.sender,id,redemptionPrice,msg.value,borrowTime.add(block.timestamp));\r\n    }\r\n\r\n  \r\n\r\n    function payback(uint loanId) external{\r\n         require(_isApprovedOrOwner(msg.sender, loanId),'Error collateral doesnt belong to this address');\r\n         require(!isExpired(loanId),'Error cant payback expired loan');\r\n         require(balanceOf(msg.sender) >= 1,'you do not have any exiting loan');\r\n         require(_exists(loanId),'Error: loan id does not exist');\r\n         BRT brtToken=BRT(brtAddr);\r\n         Collateral memory _loanInfo= loanInfo(loanId);\r\n         brtToken.transferFrom(msg.sender,address(this),_loanInfo.redemptionPrice);\r\n         delete _collaterals[loanId];\r\n         _burn(loanId);\r\n         msg.sender.transfer(_loanInfo.collateral);\r\n    }  \r\n    function getOutstandingLoansBy(address owner) public view\r\n    returns(Collateral[] memory)\r\n    {   \r\n        require(balanceOf(owner) > 0,'address has no outstanding Loans');\r\n        Collateral[] memory _loansForAddr = new Collateral[](balanceOf(owner));\r\n        for(uint i = 0;i < _collaterals.length ; i++){\r\n          if(ownerOf(i) == owner && !isExpired(i)){\r\n              _loansForAddr[i] = _collaterals[i];\r\n          }\r\n       \r\n        }\r\n        return _loansForAddr;\r\n    }\r\n\r\n    function getOutstandingLoans() public view\r\n    returns(Collateral[] memory)\r\n    {\r\n      return getOutstandingLoansBy(msg.sender);\r\n    }\r\n    \r\n    function isExpired(uint loanId) public view\r\n    returns(bool)\r\n    {\r\n       require(loanId < _collaterals.length,'Error: invalid loan id');\r\n       require(_collaterals[loanId].expires != 0,'Error: collateral does not exist');\r\n       require(_exists(loanId),'Error: loan id does not exist');\r\n\r\n       return block.timestamp > _collaterals[loanId].expires  ? true:false;\r\n\r\n    }\r\n     \r\n\r\n    function isAnyExpired(uint[] memory _loanIds) public view\r\n    returns(bool)\r\n    { \r\n      require(_loanIds.length <= _collaterals.length,'Error: number of id parameters exceeds number of collaterals');\r\n      bool _isExpired;\r\n      for(uint i =0;i < _loanIds.length;i++){\r\n          if(isExpired(_loanIds[i])){\r\n              _isExpired =true;\r\n              break;\r\n          }\r\n      }\r\n      return _isExpired;\r\n    } \r\n\r\n    function getExpiredLoanIds() public view\r\n    returns(uint[] memory)\r\n    {\r\n       uint _numberOfExpiredLoans =_expiredLoanCounter();\r\n       require(_numberOfExpiredLoans > 1,'Error No Expired loans found');\r\n       uint[] memory _expiredLoanIds = new uint[](_numberOfExpiredLoans);\r\n       for(uint i = 0; i < _collaterals.length; i++){\r\n           if(isExpired(i)){\r\n             _expiredLoanIds[i] = i;\r\n           }\r\n       }\r\n       return _expiredLoanIds;\r\n    }\r\n   \r\n\r\n   function liquidate(uint loanId) external {\r\n       require(_exists(loanId),'Error cant liqudate loan that does not exist');\r\n       address _previousOwner=ownerOf(loanId);\r\n       require(isExpired(loanId),'Error: loan has not expired');\r\n      \r\n     \r\n       BRT brtToken =BRT(brtAddr);\r\n       Collateral memory _loanInfo=loanInfo(loanId);\r\n       brtToken.transferFrom(msg.sender,address(this),_loanInfo.redemptionPrice);\r\n       delete _collaterals[loanId];\r\n       _burn(loanId);\r\n       msg.sender.transfer(_loanInfo.collateral);\r\n       emit Liquidated(_previousOwner,loanId);\r\n   }\r\n\r\n    \r\n\r\n    function loanInfo(uint loanId) public view\r\n    returns(Collateral memory)\r\n    {  \r\n       require(loanId < _collaterals.length,'Error: invalid loan id');\r\n       require(_exists(loanId),'Error: loan id does not exist');\r\n       return _collaterals[loanId];\r\n    }\r\n    function getPoolBalance() public view\r\n    returns(uint)\r\n    {\r\n        BRT brtToken  = BRT(brtAddr);\r\n        return brtToken.balanceOf(address(this));\r\n    }\r\n    \r\n     function _expiredLoanCounter() internal view\r\n    returns(uint)\r\n    {\r\n        uint _count;\r\n        for(uint i = 0; i < _collaterals.length; i++){\r\n           if(isExpired(i) && _exists(i)){\r\n             _count =_count +1;\r\n           }\r\n        }\r\n       return _count;\r\n       \r\n   }\r\n\r\n    function _createBrtTokenAndAddLiquidityToPool ()private{\r\n        BRT brtToken = new BRT(address(this));\r\n        brtAddr = address(brtToken);\r\n        tokenInfo.name = BRT(brtAddr).name();\r\n        tokenInfo.symbol = BRT(brtAddr).symbol();\r\n        tokenInfo.decimals = BRT(brtAddr).decimals();\r\n    }\r\n     \r\n\r\n\r\n\r\n\r\n\r\n\r\n\r\n\r\n\r\n\r\n\r\n\r\n\r\n\r\n    //  CUSTOM ERC20 IMPLEMETATION THAT PREVENTS TRANSFER AND APPROVAL OF EXPIRED LOAN\r\n\r\n     function approve(address to, uint256 tokenId) public virtual override {\r\n        require(!isExpired(tokenId),'Error: cant approve expired collateral for transfer');\r\n        address owner = ownerOf(tokenId);\r\n        require(to != owner, \"ERC721: approval to current owner\");\r\n\r\n        require(_msgSender() == owner || isApprovedForAll(owner, _msgSender()),\r\n            \"ERC721: approve caller is not owner nor approved for all\"\r\n        );\r\n\r\n        _approve(to, tokenId);\r\n    }\r\n    function transferFrom(address from, address to, uint256 tokenId) public virtual override {\r\n        require(!isExpired(tokenId),'Error: cant transfer expired collateral');\r\n        //solhint-disable-next-line max-line-length\r\n        require(_isApprovedOrOwner(_msgSender(), tokenId), \"ERC721: transfer caller is not owner nor approved\");\r\n\r\n        _transfer(from, to, tokenId);\r\n    }\r\n     function safeTransferFrom(address from, address to, uint256 tokenId) public virtual override {\r\n        require(!isExpired(tokenId),'Error: cant transfer expired collateral');\r\n        safeTransferFrom(from, to, tokenId, \"\");\r\n    }\r\n\r\n    /**\r\n     * @dev See {IERC721-safeTransferFrom}.\r\n     */\r\n    function safeTransferFrom(address from, address to, uint256 tokenId, bytes memory _data) public virtual override{\r\n        require(!isExpired(tokenId),'Error: cant transfer expired collateral for ');\r\n        require(_isApprovedOrOwner(_msgSender(), tokenId), \"ERC721: transfer caller is not owner nor approved\");\r\n        _safeTransfer(from, to, tokenId, _data);\r\n    }\r\n    \r\n   \r\n\r\n    \r\n    \r\n}",
  "sourcePath": "C:/Users/osasola/Desktop/js-projects/blockchain/lending/contracts/BRTPOOL.sol",
  "compiler": {
    "name": "solc",
    "version": "0.6.6+commit.6c089d02.Emscripten.clang"
  },
  "schemaVersion": "3.0.22",
  "updatedAt": "2020-09-30T06:18:39.666Z",
  "networkType": "ethereum",
  "devdoc": {
    "methods": {
      "balanceOf(address)": {
        "details": "See {IERC721-balanceOf}."
      },
      "baseURI()": {
        "details": "Returns the base URI set via {_setBaseURI}. This will be automatically added as a prefix in {tokenURI} to each token's URI, or to the token ID if no specific URI is set for that token ID."
      },
      "getApproved(uint256)": {
        "details": "See {IERC721-getApproved}."
      },
      "isApprovedForAll(address,address)": {
        "details": "See {IERC721-isApprovedForAll}."
      },
      "name()": {
        "details": "See {IERC721Metadata-name}."
      },
      "ownerOf(uint256)": {
        "details": "See {IERC721-ownerOf}."
      },
      "safeTransferFrom(address,address,uint256,bytes)": {
        "details": "See {IERC721-safeTransferFrom}."
      },
      "setApprovalForAll(address,bool)": {
        "details": "See {IERC721-setApprovalForAll}."
      },
      "supportsInterface(bytes4)": {
        "details": "See {IERC165-supportsInterface}.     * Time complexity O(1), guaranteed to always use less than 30 000 gas."
      },
      "symbol()": {
        "details": "See {IERC721Metadata-symbol}."
      },
      "tokenByIndex(uint256)": {
        "details": "See {IERC721Enumerable-tokenByIndex}."
      },
      "tokenOfOwnerByIndex(address,uint256)": {
        "details": "See {IERC721Enumerable-tokenOfOwnerByIndex}."
      },
      "tokenURI(uint256)": {
        "details": "See {IERC721Metadata-tokenURI}."
      },
      "totalSupply()": {
        "details": "See {IERC721Enumerable-totalSupply}."
      }
    }
  },
  "userdoc": {
    "methods": {}
  }
}