{
  "contractName": "BorrowingInfo",
  "abi": [
    {
      "inputs": [
        {
          "internalType": "uint256",
          "name": "_loanInDai",
          "type": "uint256"
        }
      ],
      "name": "calculateCollateral",
      "outputs": [
        {
          "internalType": "uint256",
          "name": "",
          "type": "uint256"
        }
      ],
      "stateMutability": "view",
      "type": "function"
    },
    {
      "inputs": [
        {
          "internalType": "uint256",
          "name": "_collateralInEth",
          "type": "uint256"
        }
      ],
      "name": "calculateLoan",
      "outputs": [
        {
          "internalType": "uint256",
          "name": "",
          "type": "uint256"
        }
      ],
      "stateMutability": "view",
      "type": "function"
    }
  ],
  "bytecode": "0x608060405260c860005534801561001557600080fd5b506103b2806100256000396000f3fe608060405234801561001057600080fd5b50600436106100365760003560e01c8063560593391461003b578063934dafd71461007d575b600080fd5b6100676004803603602081101561005157600080fd5b81019080803590602001909291905050506100bf565b6040518082815260200191505060405180910390f35b6100a96004803603602081101561009357600080fd5b81019080803590602001909291905050506100ef565b6040518082815260200191505060405180910390f35b6000806100cb8361011f565b905060006100e360968361014290919063ffffffff16565b90508092505050919050565b6000806100fb83610172565b9050600061011360968361019590919063ffffffff16565b90508092505050919050565b600080610137600054846101c590919063ffffffff16565b905080915050919050565b600061016a606461015c848661020f90919063ffffffff16565b6101c590919063ffffffff16565b905092915050565b60008061018a6000548461020f90919063ffffffff16565b905080915050919050565b60006101bd60646101af84866101c590919063ffffffff16565b61020f90919063ffffffff16565b905092915050565b600061020783836040518060400160405280601a81526020017f536166654d6174683a206469766973696f6e206279207a65726f000000000000815250610295565b905092915050565b600080831415610222576000905061028f565b600082840290508284828161023357fe5b041461028a576040517f08c379a000000000000000000000000000000000000000000000000000000000815260040180806020018281038252602181526020018061035c6021913960400191505060405180910390fd5b809150505b92915050565b60008083118290610341576040517f08c379a00000000000000000000000000000000000000000000000000000000081526004018080602001828103825283818151815260200191508051906020019080838360005b838110156103065780820151818401526020810190506102eb565b50505050905090810190601f1680156103335780820380516001836020036101000a031916815260200191505b509250505060405180910390fd5b50600083858161034d57fe5b04905080915050939250505056fe536166654d6174683a206d756c7469706c69636174696f6e206f766572666c6f77a26469706673582212204d0de4c61abb2f8f4e5c64f6c786555f081dc436b4e51fca2a717cc195841c6764736f6c63430006060033",
  "source": "pragma solidity ^0.6.0;\r\nimport '@openzeppelin/contracts/math/SafeMath.sol';\r\nimport'./libraries/SafePercentage.sol';\r\n\r\ncontract BorrowingInfo{\r\n    using SafeMath for uint;\r\n    using SafeMath for uint8;\r\n    using SafePercentage for uint;\r\n    uint ethDaiExchangeRateCurrent =200;\r\n    \r\n    \r\n    \r\n    function calculateCollateral(uint _loanInDai) public view\r\n    returns(uint)\r\n    \r\n    {\r\n        uint _loan = _toEthFromDai(_loanInDai);\r\n        uint _collateral = _loan.percentMul(150);\r\n        return _collateral;\r\n        \r\n        \r\n        \r\n    }\r\n    \r\n    \r\n    function calculateLoan(uint _collateralInEth) public view \r\n    returns(uint)\r\n    {\r\n      \r\n      uint _collateral=_toDaiFromEth(_collateralInEth);\r\n      uint _loan =_collateral.percentDiv(150);\r\n      return _loan;\r\n    }\r\n    \r\n    \r\n    \r\n    function _toDaiFromEth(uint _eth) private view\r\n    returns(uint)\r\n    {\r\n        uint _priceInDai= _eth.mul(ethDaiExchangeRateCurrent);\r\n        return _priceInDai;\r\n    }\r\n    \r\n    function _toEthFromDai(uint _dai) private view\r\n    returns(uint)\r\n    {\r\n        uint _priceInEth =_dai.div(ethDaiExchangeRateCurrent);\r\n        return _priceInEth;\r\n    }\r\n    \r\n    \r\n    \r\n  \r\n\r\n    \r\n}",
  "sourcePath": "C:/Users/osasola/Desktop/js-projects/blockchain/lending/contracts/BorrowingInfo.sol",
  "compiler": {
    "name": "solc",
    "version": "0.6.6+commit.6c089d02.Emscripten.clang"
  },
  "schemaVersion": "3.0.22",
  "updatedAt": "2020-09-21T18:02:37.623Z",
  "devdoc": {
    "methods": {}
  },
  "userdoc": {
    "methods": {}
  }
}