{
  "contractName": "BRTPOOLUTILS",
  "abi": [
    {
      "inputs": [],
      "name": "collaterizationRatio",
      "outputs": [
        {
          "internalType": "uint8",
          "name": "",
          "type": "uint8"
        }
      ],
      "stateMutability": "view",
      "type": "function"
    },
    {
      "inputs": [
        {
          "internalType": "uint256",
          "name": "priceInEth",
          "type": "uint256"
        }
      ],
      "name": "convertToBrtFromEth",
      "outputs": [
        {
          "internalType": "uint256",
          "name": "",
          "type": "uint256"
        }
      ],
      "stateMutability": "view",
      "type": "function"
    },
    {
      "inputs": [
        {
          "internalType": "uint256",
          "name": "priceInBrt",
          "type": "uint256"
        }
      ],
      "name": "convertToEthFromBrt",
      "outputs": [
        {
          "internalType": "uint256",
          "name": "",
          "type": "uint256"
        }
      ],
      "stateMutability": "view",
      "type": "function"
    },
    {
      "inputs": [
        {
          "internalType": "uint256",
          "name": "_loanInBrt",
          "type": "uint256"
        }
      ],
      "name": "calculateCollateral",
      "outputs": [
        {
          "internalType": "uint256",
          "name": "",
          "type": "uint256"
        }
      ],
      "stateMutability": "view",
      "type": "function"
    },
    {
      "inputs": [
        {
          "internalType": "uint256",
          "name": "_collateralInEth",
          "type": "uint256"
        }
      ],
      "name": "calculateLoan",
      "outputs": [
        {
          "internalType": "uint256",
          "name": "",
          "type": "uint256"
        }
      ],
      "stateMutability": "view",
      "type": "function"
    }
  ],
  "bytecode": "0x6080604052607d6000806101000a81548160ff021916908360ff1602179055506096600060016101000a81548160ff021916908360ff16021790555034801561004757600080fd5b506104ce806100576000396000f3fe608060405234801561001057600080fd5b50600436106100575760003560e01c806343baccdb1461005c578063560593391461009e5780635eb6b48d146100e0578063934dafd714610104578063c79cbbdc14610146575b600080fd5b6100886004803603602081101561007257600080fd5b8101908080359060200190929190505050610188565b6040518082815260200191505060405180910390f35b6100ca600480360360208110156100b457600080fd5b81019080803590602001909291905050506101ba565b6040518082815260200191505060405180910390f35b6100e86101fb565b604051808260ff1660ff16815260200191505060405180910390f35b6101306004803603602081101561011a57600080fd5b810190808035906020019092919050505061020e565b6040518082815260200191505060405180910390f35b6101726004803603602081101561015c57600080fd5b810190808035906020019092919050505061024f565b6040518082815260200191505060405180910390f35b6000806101af6000809054906101000a900460ff1660ff168461028190919063ffffffff16565b905080915050919050565b6000806101c68361024f565b905060006101ef600060019054906101000a900460ff1660ff168361030790919063ffffffff16565b90508092505050919050565b600060019054906101000a900460ff1681565b60008061021a83610188565b90506000610243600060019054906101000a900460ff1660ff168361033790919063ffffffff16565b90508092505050919050565b6000806102766000809054906101000a900460ff1660ff168461036790919063ffffffff16565b905080915050919050565b6000808314156102945760009050610301565b60008284029050828482816102a557fe5b04146102fc576040517f08c379a00000000000000000000000000000000000000000000000000000000081526004018080602001828103825260218152602001806104786021913960400191505060405180910390fd5b809150505b92915050565b600061032f6064610321848661028190919063ffffffff16565b61036790919063ffffffff16565b905092915050565b600061035f6064610351848661036790919063ffffffff16565b61028190919063ffffffff16565b905092915050565b60006103a983836040518060400160405280601a81526020017f536166654d6174683a206469766973696f6e206279207a65726f0000000000008152506103b1565b905092915050565b6000808311829061045d576040517f08c379a00000000000000000000000000000000000000000000000000000000081526004018080602001828103825283818151815260200191508051906020019080838360005b83811015610422578082015181840152602081019050610407565b50505050905090810190601f16801561044f5780820380516001836020036101000a031916815260200191505b509250505060405180910390fd5b50600083858161046957fe5b04905080915050939250505056fe536166654d6174683a206d756c7469706c69636174696f6e206f766572666c6f77a2646970667358221220ed9d0dd0ec53eb41b6a1ab78d4485fb416bceddf6437d37736861c028c3e07e964736f6c63430006060033",
  "source": "pragma solidity ^ 0.6.0;\r\nimport '@openzeppelin/contracts/math/SafeMath.sol';\r\nimport './libraries/SafePercentage.sol';\r\ncontract BRTPOOLUTILS{\r\n     uint8 internal _ethBrtExchangeRate =125;\r\n     uint8 public collaterizationRatio =150;\r\n     using SafeMath for uint;\r\n     using SafePercentage for uint;\r\n\r\n      function convertToBrtFromEth(uint priceInEth) public view\r\n    returns(uint)\r\n    {   \r\n        uint priceInBrt = priceInEth.mul(uint(_ethBrtExchangeRate));\r\n        return  priceInBrt;\r\n    }\r\n\r\n    function convertToEthFromBrt(uint priceInBrt) public view \r\n    returns(uint)\r\n    {\r\n        uint priceInEth =priceInBrt.div(uint(_ethBrtExchangeRate));\r\n        return priceInEth;\r\n    }\r\n\r\n\r\n    function calculateCollateral(uint _loanInBrt) public view\r\n    returns(uint)\r\n    {\r\n       uint _loan = convertToEthFromBrt(_loanInBrt);\r\n       uint collateral = _loan.percentMul(collaterizationRatio);\r\n       return collateral;\r\n    }\r\n\r\n    function calculateLoan(uint _collateralInEth) public view\r\n    returns(uint)\r\n    {\r\n\r\n        uint _collateral = convertToBrtFromEth(_collateralInEth); \r\n        uint loan =_collateral.percentDiv(collaterizationRatio);\r\n        return loan;\r\n\r\n    }\r\n\r\n}",
  "sourcePath": "C:/Users/osasola/Desktop/js-projects/blockchain/lending/contracts/BRTPOOLUTILS.sol",
  "compiler": {
    "name": "solc",
    "version": "0.6.6+commit.6c089d02.Emscripten.clang"
  },
  "schemaVersion": "3.0.22",
  "updatedAt": "2020-09-26T21:06:11.054Z",
  "devdoc": {
    "methods": {}
  },
  "userdoc": {
    "methods": {}
  }
}