{
  "contractName": "BRTPOOL",
  "abi": [
    {
      "inputs": [],
      "stateMutability": "nonpayable",
      "type": "constructor"
    },
    {
      "anonymous": false,
      "inputs": [
        {
          "indexed": true,
          "internalType": "address",
          "name": "owner",
          "type": "address"
        },
        {
          "indexed": true,
          "internalType": "address",
          "name": "approved",
          "type": "address"
        },
        {
          "indexed": true,
          "internalType": "uint256",
          "name": "tokenId",
          "type": "uint256"
        }
      ],
      "name": "Approval",
      "type": "event"
    },
    {
      "anonymous": false,
      "inputs": [
        {
          "indexed": true,
          "internalType": "address",
          "name": "owner",
          "type": "address"
        },
        {
          "indexed": true,
          "internalType": "address",
          "name": "operator",
          "type": "address"
        },
        {
          "indexed": false,
          "internalType": "bool",
          "name": "approved",
          "type": "bool"
        }
      ],
      "name": "ApprovalForAll",
      "type": "event"
    },
    {
      "anonymous": false,
      "inputs": [
        {
          "indexed": true,
          "internalType": "address",
          "name": "borrower",
          "type": "address"
        },
        {
          "indexed": false,
          "internalType": "uint256",
          "name": "loanId",
          "type": "uint256"
        },
        {
          "indexed": false,
          "internalType": "uint256",
          "name": "redemptionPrice",
          "type": "uint256"
        },
        {
          "indexed": false,
          "internalType": "uint256",
          "name": "collateral",
          "type": "uint256"
        },
        {
          "indexed": false,
          "internalType": "uint256",
          "name": "expires",
          "type": "uint256"
        }
      ],
      "name": "Borrowed",
      "type": "event"
    },
    {
      "anonymous": false,
      "inputs": [
        {
          "indexed": true,
          "internalType": "address",
          "name": "from",
          "type": "address"
        },
        {
          "indexed": true,
          "internalType": "address",
          "name": "to",
          "type": "address"
        },
        {
          "indexed": true,
          "internalType": "uint256",
          "name": "tokenId",
          "type": "uint256"
        }
      ],
      "name": "Transfer",
      "type": "event"
    },
    {
      "inputs": [
        {
          "internalType": "address",
          "name": "owner",
          "type": "address"
        }
      ],
      "name": "balanceOf",
      "outputs": [
        {
          "internalType": "uint256",
          "name": "",
          "type": "uint256"
        }
      ],
      "stateMutability": "view",
      "type": "function"
    },
    {
      "inputs": [],
      "name": "baseURI",
      "outputs": [
        {
          "internalType": "string",
          "name": "",
          "type": "string"
        }
      ],
      "stateMutability": "view",
      "type": "function"
    },
    {
      "inputs": [],
      "name": "brtAddr",
      "outputs": [
        {
          "internalType": "address",
          "name": "",
          "type": "address"
        }
      ],
      "stateMutability": "view",
      "type": "function"
    },
    {
      "inputs": [
        {
          "internalType": "uint256",
          "name": "_loanInBrt",
          "type": "uint256"
        }
      ],
      "name": "calculateCollateral",
      "outputs": [
        {
          "internalType": "uint256",
          "name": "",
          "type": "uint256"
        }
      ],
      "stateMutability": "view",
      "type": "function"
    },
    {
      "inputs": [
        {
          "internalType": "uint256",
          "name": "_collateralInEth",
          "type": "uint256"
        }
      ],
      "name": "calculateLoan",
      "outputs": [
        {
          "internalType": "uint256",
          "name": "",
          "type": "uint256"
        }
      ],
      "stateMutability": "view",
      "type": "function"
    },
    {
      "inputs": [],
      "name": "collaterizationRatio",
      "outputs": [
        {
          "internalType": "uint8",
          "name": "",
          "type": "uint8"
        }
      ],
      "stateMutability": "view",
      "type": "function"
    },
    {
      "inputs": [
        {
          "internalType": "uint256",
          "name": "priceInEth",
          "type": "uint256"
        }
      ],
      "name": "convertToBrtFromEth",
      "outputs": [
        {
          "internalType": "uint256",
          "name": "",
          "type": "uint256"
        }
      ],
      "stateMutability": "view",
      "type": "function"
    },
    {
      "inputs": [
        {
          "internalType": "uint256",
          "name": "priceInBrt",
          "type": "uint256"
        }
      ],
      "name": "convertToEthFromBrt",
      "outputs": [
        {
          "internalType": "uint256",
          "name": "",
          "type": "uint256"
        }
      ],
      "stateMutability": "view",
      "type": "function"
    },
    {
      "inputs": [
        {
          "internalType": "uint256",
          "name": "tokenId",
          "type": "uint256"
        }
      ],
      "name": "getApproved",
      "outputs": [
        {
          "internalType": "address",
          "name": "",
          "type": "address"
        }
      ],
      "stateMutability": "view",
      "type": "function"
    },
    {
      "inputs": [
        {
          "internalType": "address",
          "name": "owner",
          "type": "address"
        },
        {
          "internalType": "address",
          "name": "operator",
          "type": "address"
        }
      ],
      "name": "isApprovedForAll",
      "outputs": [
        {
          "internalType": "bool",
          "name": "",
          "type": "bool"
        }
      ],
      "stateMutability": "view",
      "type": "function"
    },
    {
      "inputs": [],
      "name": "name",
      "outputs": [
        {
          "internalType": "string",
          "name": "",
          "type": "string"
        }
      ],
      "stateMutability": "view",
      "type": "function"
    },
    {
      "inputs": [
        {
          "internalType": "uint256",
          "name": "tokenId",
          "type": "uint256"
        }
      ],
      "name": "ownerOf",
      "outputs": [
        {
          "internalType": "address",
          "name": "",
          "type": "address"
        }
      ],
      "stateMutability": "view",
      "type": "function"
    },
    {
      "inputs": [
        {
          "internalType": "address",
          "name": "operator",
          "type": "address"
        },
        {
          "internalType": "bool",
          "name": "approved",
          "type": "bool"
        }
      ],
      "name": "setApprovalForAll",
      "outputs": [],
      "stateMutability": "nonpayable",
      "type": "function"
    },
    {
      "inputs": [
        {
          "internalType": "bytes4",
          "name": "interfaceId",
          "type": "bytes4"
        }
      ],
      "name": "supportsInterface",
      "outputs": [
        {
          "internalType": "bool",
          "name": "",
          "type": "bool"
        }
      ],
      "stateMutability": "view",
      "type": "function"
    },
    {
      "inputs": [],
      "name": "symbol",
      "outputs": [
        {
          "internalType": "string",
          "name": "",
          "type": "string"
        }
      ],
      "stateMutability": "view",
      "type": "function"
    },
    {
      "inputs": [
        {
          "internalType": "uint256",
          "name": "index",
          "type": "uint256"
        }
      ],
      "name": "tokenByIndex",
      "outputs": [
        {
          "internalType": "uint256",
          "name": "",
          "type": "uint256"
        }
      ],
      "stateMutability": "view",
      "type": "function"
    },
    {
      "inputs": [],
      "name": "tokenInfo",
      "outputs": [
        {
          "internalType": "uint8",
          "name": "decimals",
          "type": "uint8"
        },
        {
          "internalType": "string",
          "name": "name",
          "type": "string"
        },
        {
          "internalType": "string",
          "name": "symbol",
          "type": "string"
        }
      ],
      "stateMutability": "view",
      "type": "function"
    },
    {
      "inputs": [
        {
          "internalType": "address",
          "name": "owner",
          "type": "address"
        },
        {
          "internalType": "uint256",
          "name": "index",
          "type": "uint256"
        }
      ],
      "name": "tokenOfOwnerByIndex",
      "outputs": [
        {
          "internalType": "uint256",
          "name": "",
          "type": "uint256"
        }
      ],
      "stateMutability": "view",
      "type": "function"
    },
    {
      "inputs": [
        {
          "internalType": "uint256",
          "name": "tokenId",
          "type": "uint256"
        }
      ],
      "name": "tokenURI",
      "outputs": [
        {
          "internalType": "string",
          "name": "",
          "type": "string"
        }
      ],
      "stateMutability": "view",
      "type": "function"
    },
    {
      "inputs": [],
      "name": "totalSupply",
      "outputs": [
        {
          "internalType": "uint256",
          "name": "",
          "type": "uint256"
        }
      ],
      "stateMutability": "view",
      "type": "function"
    },
    {
      "inputs": [],
      "name": "borrow",
      "outputs": [
        {
          "internalType": "uint256",
          "name": "",
          "type": "uint256"
        }
      ],
      "stateMutability": "payable",
      "type": "function"
    },
    {
      "inputs": [
        {
          "internalType": "uint256",
          "name": "loanId",
          "type": "uint256"
        }
      ],
      "name": "payback",
      "outputs": [],
      "stateMutability": "nonpayable",
      "type": "function"
    },
    {
      "inputs": [
        {
          "internalType": "address",
          "name": "owner",
          "type": "address"
        }
      ],
      "name": "getOutstandingLoansBy",
      "outputs": [
        {
          "components": [
            {
              "internalType": "uint256",
              "name": "redemptionPrice",
              "type": "uint256"
            },
            {
              "internalType": "uint256",
              "name": "collateral",
              "type": "uint256"
            },
            {
              "internalType": "uint256",
              "name": "expires",
              "type": "uint256"
            }
          ],
          "internalType": "struct EtherBackedCollateral.Collateral[]",
          "name": "",
          "type": "tuple[]"
        }
      ],
      "stateMutability": "view",
      "type": "function"
    },
    {
      "inputs": [],
      "name": "getOutstandingLoans",
      "outputs": [
        {
          "components": [
            {
              "internalType": "uint256",
              "name": "redemptionPrice",
              "type": "uint256"
            },
            {
              "internalType": "uint256",
              "name": "collateral",
              "type": "uint256"
            },
            {
              "internalType": "uint256",
              "name": "expires",
              "type": "uint256"
            }
          ],
          "internalType": "struct EtherBackedCollateral.Collateral[]",
          "name": "",
          "type": "tuple[]"
        }
      ],
      "stateMutability": "view",
      "type": "function"
    },
    {
      "inputs": [
        {
          "internalType": "uint256",
          "name": "loanId",
          "type": "uint256"
        }
      ],
      "name": "isExpired",
      "outputs": [
        {
          "internalType": "bool",
          "name": "",
          "type": "bool"
        }
      ],
      "stateMutability": "view",
      "type": "function"
    },
    {
      "inputs": [
        {
          "internalType": "uint256[]",
          "name": "_loanIds",
          "type": "uint256[]"
        }
      ],
      "name": "isAnyExpired",
      "outputs": [
        {
          "internalType": "bool",
          "name": "",
          "type": "bool"
        }
      ],
      "stateMutability": "view",
      "type": "function"
    },
    {
      "inputs": [],
      "name": "getExpiredLoanIds",
      "outputs": [
        {
          "internalType": "uint256[]",
          "name": "",
          "type": "uint256[]"
        }
      ],
      "stateMutability": "view",
      "type": "function"
    },
    {
      "inputs": [
        {
          "internalType": "uint256",
          "name": "loanId",
          "type": "uint256"
        }
      ],
      "name": "liquidate",
      "outputs": [],
      "stateMutability": "nonpayable",
      "type": "function"
    },
    {
      "inputs": [
        {
          "internalType": "uint256",
          "name": "loanId",
          "type": "uint256"
        }
      ],
      "name": "loanInfo",
      "outputs": [
        {
          "components": [
            {
              "internalType": "uint256",
              "name": "redemptionPrice",
              "type": "uint256"
            },
            {
              "internalType": "uint256",
              "name": "collateral",
              "type": "uint256"
            },
            {
              "internalType": "uint256",
              "name": "expires",
              "type": "uint256"
            }
          ],
          "internalType": "struct EtherBackedCollateral.Collateral",
          "name": "",
          "type": "tuple"
        }
      ],
      "stateMutability": "view",
      "type": "function"
    },
    {
      "inputs": [],
      "name": "getPoolBalance",
      "outputs": [
        {
          "internalType": "uint256",
          "name": "",
          "type": "uint256"
        }
      ],
      "stateMutability": "view",
      "type": "function"
    },
    {
      "inputs": [
        {
          "internalType": "address",
          "name": "to",
          "type": "address"
        },
        {
          "internalType": "uint256",
          "name": "tokenId",
          "type": "uint256"
        }
      ],
      "name": "approve",
      "outputs": [],
      "stateMutability": "nonpayable",
      "type": "function"
    },
    {
      "inputs": [
        {
          "internalType": "address",
          "name": "from",
          "type": "address"
        },
        {
          "internalType": "address",
          "name": "to",
          "type": "address"
        },
        {
          "internalType": "uint256",
          "name": "tokenId",
          "type": "uint256"
        }
      ],
      "name": "transferFrom",
      "outputs": [],
      "stateMutability": "nonpayable",
      "type": "function"
    },
    {
      "inputs": [
        {
          "internalType": "address",
          "name": "from",
          "type": "address"
        },
        {
          "internalType": "address",
          "name": "to",
          "type": "address"
        },
        {
          "internalType": "uint256",
          "name": "tokenId",
          "type": "uint256"
        }
      ],
      "name": "safeTransferFrom",
      "outputs": [],
      "stateMutability": "nonpayable",
      "type": "function"
    },
    {
      "inputs": [
        {
          "internalType": "address",
          "name": "from",
          "type": "address"
        },
        {
          "internalType": "address",
          "name": "to",
          "type": "address"
        },
        {
          "internalType": "uint256",
          "name": "tokenId",
          "type": "uint256"
        },
        {
          "internalType": "bytes",
          "name": "_data",
          "type": "bytes"
        }
      ],
      "name": "safeTransferFrom",
      "outputs": [],
      "stateMutability": "nonpayable",
      "type": "function"
    }
  ],
  "bytecode": "0x6080604052607d6000806101000a81548160ff021916908360ff1602179055506096600060016101000a81548160ff021916908360ff1602179055506078600c553480156200004d57600080fd5b506040518060400160405280601781526020017f4574686572204261636b656420436f6c6c61746572616c0000000000000000008152506040518060400160405280600381526020017f4542430000000000000000000000000000000000000000000000000000000000815250620000d26301ffc9a760e01b6200016460201b60201c565b8160079080519060200190620000ea92919062000506565b5080600890805190602001906200010392919062000506565b506200011c6380ac58cd60e01b6200016460201b60201c565b62000134635b5e139f60e01b6200016460201b60201c565b6200014c63780e9d6360e01b6200016460201b60201c565b50506200015e6200023c60201b60201c565b62000836565b63ffffffff60e01b817bffffffffffffffffffffffffffffffffffffffffffffffffffffffff19161415620001d0576040517f08c379a0000000000000000000000000000000000000000000000000000000008152600401620001c79062000717565b60405180910390fd5b6001806000837bffffffffffffffffffffffffffffffffffffffffffffffffffffffff19167bffffffffffffffffffffffffffffffffffffffffffffffffffffffff1916815260200190815260200160002060006101000a81548160ff02191690831515021790555050565b6000306040516200024d906200058d565b620002599190620006fa565b604051809103906000f08015801562000276573d6000803e3d6000fd5b50905080600d60006101000a81548173ffffffffffffffffffffffffffffffffffffffff021916908373ffffffffffffffffffffffffffffffffffffffff160217905550600d60009054906101000a900473ffffffffffffffffffffffffffffffffffffffff1673ffffffffffffffffffffffffffffffffffffffff166306fdde036040518163ffffffff1660e01b815260040160006040518083038186803b1580156200032357600080fd5b505afa15801562000338573d6000803e3d6000fd5b505050506040513d6000823e3d601f19601f8201168201806040525081019062000363919062000636565b600e60010190805190602001906200037d92919062000506565b50600d60009054906101000a900473ffffffffffffffffffffffffffffffffffffffff1673ffffffffffffffffffffffffffffffffffffffff166395d89b416040518163ffffffff1660e01b815260040160006040518083038186803b158015620003e757600080fd5b505afa158015620003fc573d6000803e3d6000fd5b505050506040513d6000823e3d601f19601f8201168201806040525081019062000427919062000636565b600e60020190805190602001906200044192919062000506565b50600d60009054906101000a900473ffffffffffffffffffffffffffffffffffffffff1673ffffffffffffffffffffffffffffffffffffffff1663313ce5676040518163ffffffff1660e01b815260040160206040518083038186803b158015620004ab57600080fd5b505afa158015620004c0573d6000803e3d6000fd5b505050506040513d601f19601f82011682018060405250810190620004e691906200067b565b600e60000160006101000a81548160ff021916908360ff16021790555050565b828054600181600116156101000203166002900490600052602060002090601f016020900481019282601f106200054957805160ff19168380011785556200057a565b828001600101855582156200057a579182015b82811115620005795782518255916020019190600101906200055c565b5b5090506200058991906200059b565b5090565b6115478062005a5a83390190565b620005c091905b80821115620005bc576000816000905550600101620005a2565b5090565b90565b600082601f830112620005d557600080fd5b8151620005ec620005e68262000767565b62000739565b915080825260208301602083018583830111156200060957600080fd5b62000616838284620007e6565b50505092915050565b60008151905062000630816200081c565b92915050565b6000602082840312156200064957600080fd5b600082015167ffffffffffffffff8111156200066457600080fd5b6200067284828501620005c3565b91505092915050565b6000602082840312156200068e57600080fd5b60006200069e848285016200061f565b91505092915050565b620006b281620007a5565b82525050565b6000620006c7601c8362000794565b91507f4552433136353a20696e76616c696420696e74657266616365206964000000006000830152602082019050919050565b6000602082019050620007116000830184620006a7565b92915050565b600060208201905081810360008301526200073281620006b8565b9050919050565b6000604051905081810181811067ffffffffffffffff821117156200075d57600080fd5b8060405250919050565b600067ffffffffffffffff8211156200077f57600080fd5b601f19601f8301169050602081019050919050565b600082825260208201905092915050565b6000620007b282620007b9565b9050919050565b600073ffffffffffffffffffffffffffffffffffffffff82169050919050565b600060ff82169050919050565b60005b8381101562000806578082015181840152602081019050620007e9565b8381111562000816576000848401525b50505050565b6200082781620007d9565b81146200083357600080fd5b50565b61521480620008466000396000f3fe6080604052600436106101f95760003560e01c80636c0360eb1161010d578063a846c2fd116100a0578063c7d1a7ef1161006f578063c7d1a7ef146107bb578063c87b56dd146107e6578063d9548e5314610823578063e68d356914610860578063e985e9c51461087e576101f9565b8063a846c2fd14610701578063abd70aa21461072a578063b88d4fde14610755578063c79cbbdc1461077e576101f9565b8063934dafd7116100dc578063934dafd71461063357806395d89b4114610670578063a22cb4651461069b578063a770e501146106c4576101f9565b80636c0360eb146105515780636fee93001461057c57806370a08231146105b95780638349d6be146105f6576101f9565b80632f745c59116101905780634f6ccce71161015f5780634f6ccce714610442578063560593391461047f5780635eb6b48d146104bc5780636352211e146104e75780636addb66314610524576101f9565b80632f745c5914610376578063415f1240146103b357806342842e0e146103dc57806343baccdb14610405576101f9565b806318160ddd116101cc57806318160ddd146102cc57806323b872dd146102f7578063247ab5d81461032057806325845d111461034b576101f9565b806301ffc9a7146101fe57806306fdde031461023b578063081812fc14610266578063095ea7b3146102a3575b600080fd5b34801561020a57600080fd5b5061022560048036038101906102209190613980565b6108bb565b604051610232919061499d565b60405180910390f35b34801561024757600080fd5b50610250610923565b60405161025d91906149b8565b60405180910390f35b34801561027257600080fd5b5061028d600480360381019061028891906139d2565b6109c5565b60405161029a9190614892565b60405180910390f35b3480156102af57600080fd5b506102ca60048036038101906102c591906138da565b610a4a565b005b3480156102d857600080fd5b506102e1610bab565b6040516102ee9190614df5565b60405180910390f35b34801561030357600080fd5b5061031e600480360381019061031991906137d4565b610bbc565b005b34801561032c57600080fd5b50610335610c65565b604051610342919061497b565b60405180910390f35b34801561035757600080fd5b50610360610d52565b60405161036d9190614892565b60405180910390f35b34801561038257600080fd5b5061039d600480360381019061039891906138da565b610d78565b6040516103aa9190614df5565b60405180910390f35b3480156103bf57600080fd5b506103da60048036038101906103d591906139d2565b610dd3565b005b3480156103e857600080fd5b5061040360048036038101906103fe91906137d4565b610f8a565b005b34801561041157600080fd5b5061042c600480360381019061042791906139d2565b610ff3565b6040516104399190614df5565b60405180910390f35b34801561044e57600080fd5b50610469600480360381019061046491906139d2565b611025565b6040516104769190614df5565b60405180910390f35b34801561048b57600080fd5b506104a660048036038101906104a191906139d2565b611048565b6040516104b39190614df5565b60405180910390f35b3480156104c857600080fd5b506104d1611089565b6040516104de9190614e55565b60405180910390f35b3480156104f357600080fd5b5061050e600480360381019061050991906139d2565b61109c565b60405161051b9190614892565b60405180910390f35b34801561053057600080fd5b506105396110d3565b60405161054893929190614e70565b60405180910390f35b34801561055d57600080fd5b50610566611228565b60405161057391906149b8565b60405180910390f35b34801561058857600080fd5b506105a3600480360381019061059e919061376f565b6112ca565b6040516105b09190614959565b60405180910390f35b3480156105c557600080fd5b506105e060048036038101906105db919061376f565b611449565b6040516105ed9190614df5565b60405180910390f35b34801561060257600080fd5b5061061d600480360381019061061891906139d2565b611508565b60405161062a9190614dda565b60405180910390f35b34801561063f57600080fd5b5061065a600480360381019061065591906139d2565b6115ea565b6040516106679190614df5565b60405180910390f35b34801561067c57600080fd5b5061068561162b565b60405161069291906149b8565b60405180910390f35b3480156106a757600080fd5b506106c260048036038101906106bd919061389e565b6116cd565b005b3480156106d057600080fd5b506106eb60048036038101906106e69190613916565b61184e565b6040516106f8919061499d565b60405180910390f35b34801561070d57600080fd5b50610728600480360381019061072391906139d2565b6118e8565b005b34801561073657600080fd5b5061073f611b62565b60405161074c9190614df5565b60405180910390f35b34801561076157600080fd5b5061077c60048036038101906107779190613823565b611c19565b005b34801561078a57600080fd5b506107a560048036038101906107a091906139d2565b611cc4565b6040516107b29190614df5565b60405180910390f35b3480156107c757600080fd5b506107d0611cf6565b6040516107dd9190614959565b60405180910390f35b3480156107f257600080fd5b5061080d600480360381019061080891906139d2565b611d06565b60405161081a91906149b8565b60405180910390f35b34801561082f57600080fd5b5061084a600480360381019061084591906139d2565b611e91565b604051610857919061499d565b60405180910390f35b610868611f10565b6040516108759190614df5565b60405180910390f35b34801561088a57600080fd5b506108a560048036038101906108a09190613798565b6120de565b6040516108b2919061499d565b60405180910390f35b600060016000837bffffffffffffffffffffffffffffffffffffffffffffffffffffffff19167bffffffffffffffffffffffffffffffffffffffffffffffffffffffff1916815260200190815260200160002060009054906101000a900460ff169050919050565b606060078054600181600116156101000203166002900480601f0160208091040260200160405190810160405280929190818152602001828054600181600116156101000203166002900480156109bb5780601f10610990576101008083540402835291602001916109bb565b820191906000526020600020905b81548152906001019060200180831161099e57829003601f168201915b5050505050905090565b60006109d082612172565b610a0f576040517f08c379a0000000000000000000000000000000000000000000000000000000008152600401610a0690614c5a565b60405180910390fd5b6005600083815260200190815260200160002060009054906101000a900473ffffffffffffffffffffffffffffffffffffffff169050919050565b610a5381611e91565b15610a93576040517f08c379a0000000000000000000000000000000000000000000000000000000008152600401610a8a90614bba565b60405180910390fd5b6000610a9e8261109c565b90508073ffffffffffffffffffffffffffffffffffffffff168373ffffffffffffffffffffffffffffffffffffffff161415610b0f576040517f08c379a0000000000000000000000000000000000000000000000000000000008152600401610b0690614cda565b60405180910390fd5b8073ffffffffffffffffffffffffffffffffffffffff16610b2e61218f565b73ffffffffffffffffffffffffffffffffffffffff161480610b5d5750610b5c81610b5761218f565b6120de565b5b610b9c576040517f08c379a0000000000000000000000000000000000000000000000000000000008152600401610b9390614b5a565b60405180910390fd5b610ba68383612197565b505050565b6000610bb76003612250565b905090565b610bc581611e91565b15610c05576040517f08c379a0000000000000000000000000000000000000000000000000000000008152600401610bfc90614a3a565b60405180910390fd5b610c16610c1061218f565b82612265565b610c55576040517f08c379a0000000000000000000000000000000000000000000000000000000008152600401610c4c90614d1a565b60405180910390fd5b610c60838383612343565b505050565b60606000610c7161255a565b905060018111610cb6576040517f08c379a0000000000000000000000000000000000000000000000000000000008152600401610cad90614cfa565b60405180910390fd5b60608167ffffffffffffffff81118015610ccf57600080fd5b50604051908082528060200260200182016040528015610cfe5781602001602082028036833780820191505090505b50905060008090505b600b80549050811015610d4957610d1d81611e91565b15610d3c5780828281518110610d2f57fe5b6020026020010181815250505b8080600101915050610d07565b50809250505090565b600d60009054906101000a900473ffffffffffffffffffffffffffffffffffffffff1681565b6000610dcb82600260008673ffffffffffffffffffffffffffffffffffffffff1673ffffffffffffffffffffffffffffffffffffffff1681526020019081526020016000206125ab90919063ffffffff16565b905092915050565b610ddc81611e91565b610e1b576040517f08c379a0000000000000000000000000000000000000000000000000000000008152600401610e1290614d5a565b60405180910390fd5b610e2481612172565b610e63576040517f08c379a0000000000000000000000000000000000000000000000000000000008152600401610e5a90614b1a565b60405180910390fd5b6000600d60009054906101000a900473ffffffffffffffffffffffffffffffffffffffff169050610e92613577565b610e9b83611508565b90508173ffffffffffffffffffffffffffffffffffffffff166323b872dd333084600001516040518463ffffffff1660e01b8152600401610ede939291906148ad565b602060405180830381600087803b158015610ef857600080fd5b505af1158015610f0c573d6000803e3d6000fd5b505050506040513d601f19601f82011682018060405250810190610f309190613957565b50610f3a836125c5565b3373ffffffffffffffffffffffffffffffffffffffff166108fc82602001519081150290604051600060405180830381858888f19350505050158015610f84573d6000803e3d6000fd5b50505050565b610f9381611e91565b15610fd3576040517f08c379a0000000000000000000000000000000000000000000000000000000008152600401610fca90614a3a565b60405180910390fd5b610fee83838360405180602001604052806000815250611c19565b505050565b60008061101a6000809054906101000a900460ff1660ff16846126ff90919063ffffffff16565b905080915050919050565b60008061103c83600361276f90919063ffffffff16565b50905080915050919050565b60008061105483611cc4565b9050600061107d600060019054906101000a900460ff1660ff168361279e90919063ffffffff16565b90508092505050919050565b600060019054906101000a900460ff1681565b60006110cc826040518060600160405280602981526020016151b66029913960036127ce9092919063ffffffff16565b9050919050565b600e8060000160009054906101000a900460ff1690806001018054600181600116156101000203166002900480601f0160208091040260200160405190810160405280929190818152602001828054600181600116156101000203166002900480156111805780601f1061115557610100808354040283529160200191611180565b820191906000526020600020905b81548152906001019060200180831161116357829003601f168201915b505050505090806002018054600181600116156101000203166002900480601f01602080910402602001604051908101604052809291908181526020018280546001816001161561010002031660029004801561121e5780601f106111f35761010080835404028352916020019161121e565b820191906000526020600020905b81548152906001019060200180831161120157829003601f168201915b5050505050905083565b6060600a8054600181600116156101000203166002900480601f0160208091040260200160405190810160405280929190818152602001828054600181600116156101000203166002900480156112c05780601f10611295576101008083540402835291602001916112c0565b820191906000526020600020905b8154815290600101906020018083116112a357829003601f168201915b5050505050905090565b606060006112d783611449565b11611317576040517f08c379a000000000000000000000000000000000000000000000000000000000815260040161130e90614cba565b60405180910390fd5b606061132283611449565b67ffffffffffffffff8111801561133857600080fd5b5060405190808252806020026020018201604052801561137257816020015b61135f613577565b8152602001906001900390816113575790505b50905060008090505b600b8054905081101561143f578373ffffffffffffffffffffffffffffffffffffffff166113a88261109c565b73ffffffffffffffffffffffffffffffffffffffff161480156113d157506113cf81611e91565b155b1561143257600b81815481106113e357fe5b9060005260206000209060030201604051806060016040529081600082015481526020016001820154815260200160028201548152505082828151811061142657fe5b60200260200101819052505b808060010191505061137b565b5080915050919050565b60008073ffffffffffffffffffffffffffffffffffffffff168273ffffffffffffffffffffffffffffffffffffffff1614156114ba576040517f08c379a00000000000000000000000000000000000000000000000000000000081526004016114b190614b7a565b60405180910390fd5b611501600260008473ffffffffffffffffffffffffffffffffffffffff1673ffffffffffffffffffffffffffffffffffffffff1681526020019081526020016000206127ed565b9050919050565b611510613577565b600b805490508210611557576040517f08c379a000000000000000000000000000000000000000000000000000000000815260040161154e90614d9a565b60405180910390fd5b61156082612172565b61159f576040517f08c379a000000000000000000000000000000000000000000000000000000000815260040161159690614d7a565b60405180910390fd5b600b82815481106115ac57fe5b906000526020600020906003020160405180606001604052908160008201548152602001600182015481526020016002820154815250509050919050565b6000806115f683610ff3565b9050600061161f600060019054906101000a900460ff1660ff168361280290919063ffffffff16565b90508092505050919050565b606060088054600181600116156101000203166002900480601f0160208091040260200160405190810160405280929190818152602001828054600181600116156101000203166002900480156116c35780601f10611698576101008083540402835291602001916116c3565b820191906000526020600020905b8154815290600101906020018083116116a657829003601f168201915b5050505050905090565b6116d561218f565b73ffffffffffffffffffffffffffffffffffffffff168273ffffffffffffffffffffffffffffffffffffffff161415611743576040517f08c379a000000000000000000000000000000000000000000000000000000000815260040161173a90614ada565b60405180910390fd5b806006600061175061218f565b73ffffffffffffffffffffffffffffffffffffffff1673ffffffffffffffffffffffffffffffffffffffff16815260200190815260200160002060008473ffffffffffffffffffffffffffffffffffffffff1673ffffffffffffffffffffffffffffffffffffffff16815260200190815260200160002060006101000a81548160ff0219169083151502179055508173ffffffffffffffffffffffffffffffffffffffff166117fd61218f565b73ffffffffffffffffffffffffffffffffffffffff167f17307eab39ab6107e8899845ad3d59bd9653f200f220920489ca2b5937696c3183604051611842919061499d565b60405180910390a35050565b6000600b8054905082511115611899576040517f08c379a000000000000000000000000000000000000000000000000000000000815260040161189090614b3a565b60405180910390fd5b600080600090505b83518110156118e1576118c68482815181106118b957fe5b6020026020010151611e91565b156118d457600191506118e1565b80806001019150506118a1565b5050919050565b3373ffffffffffffffffffffffffffffffffffffffff166119088261109c565b73ffffffffffffffffffffffffffffffffffffffff161461195e576040517f08c379a000000000000000000000000000000000000000000000000000000000815260040161195590614a1a565b60405180910390fd5b61196781611e91565b156119a7576040517f08c379a000000000000000000000000000000000000000000000000000000000815260040161199e90614a7a565b60405180910390fd5b60016119b233611449565b10156119f3576040517f08c379a00000000000000000000000000000000000000000000000000000000081526004016119ea90614b9a565b60405180910390fd5b6119fc81612172565b611a3b576040517f08c379a0000000000000000000000000000000000000000000000000000000008152600401611a3290614d7a565b60405180910390fd5b6000600d60009054906101000a900473ffffffffffffffffffffffffffffffffffffffff169050611a6a613577565b611a7383611508565b90508173ffffffffffffffffffffffffffffffffffffffff166323b872dd333084600001516040518463ffffffff1660e01b8152600401611ab6939291906148ad565b602060405180830381600087803b158015611ad057600080fd5b505af1158015611ae4573d6000803e3d6000fd5b505050506040513d601f19601f82011682018060405250810190611b089190613957565b50611b12836125c5565b3373ffffffffffffffffffffffffffffffffffffffff166108fc82602001519081150290604051600060405180830381858888f19350505050158015611b5c573d6000803e3d6000fd5b50505050565b600080600d60009054906101000a900473ffffffffffffffffffffffffffffffffffffffff1690508073ffffffffffffffffffffffffffffffffffffffff166370a08231306040518263ffffffff1660e01b8152600401611bc39190614892565b60206040518083038186803b158015611bdb57600080fd5b505afa158015611bef573d6000803e3d6000fd5b505050506040513d601f19601f82011682018060405250810190611c1391906139fb565b91505090565b611c2282611e91565b15611c62576040517f08c379a0000000000000000000000000000000000000000000000000000000008152600401611c5990614dba565b60405180910390fd5b611c73611c6d61218f565b83612265565b611cb2576040517f08c379a0000000000000000000000000000000000000000000000000000000008152600401611ca990614d1a565b60405180910390fd5b611cbe84848484612832565b50505050565b600080611ceb6000809054906101000a900460ff1660ff168461288e90919063ffffffff16565b905080915050919050565b6060611d01336112ca565b905090565b6060611d1182612172565b611d50576040517f08c379a0000000000000000000000000000000000000000000000000000000008152600401611d4790614c9a565b60405180910390fd5b6060600960008481526020019081526020016000208054600181600116156101000203166002900480601f016020809104026020016040519081016040528092919081815260200182805460018160011615610100020316600290048015611df95780601f10611dce57610100808354040283529160200191611df9565b820191906000526020600020905b815481529060010190602001808311611ddc57829003601f168201915b505050505090506000600a8054600181600116156101000203166002900490501415611e285780915050611e8c565b600081511115611e5d57600a81604051602001611e4692919061486e565b604051602081830303815290604052915050611e8c565b600a611e68846128d8565b604051602001611e7992919061486e565b6040516020818303038152906040529150505b919050565b6000600b805490508210611eda576040517f08c379a0000000000000000000000000000000000000000000000000000000008152600401611ed190614d9a565b60405180910390fd5b600b8281548110611ee757fe5b9060005260206000209060030201600201544211611f06576000611f09565b60015b9050919050565b600080611f1c346115ea565b9050611f26611b62565b8110611f67576040517f08c379a0000000000000000000000000000000000000000000000000000000008152600401611f5e90614bda565b60405180910390fd5b6000600d60009054906101000a900473ffffffffffffffffffffffffffffffffffffffff1690508073ffffffffffffffffffffffffffffffffffffffff1663a9059cbb33846040518363ffffffff1660e01b8152600401611fc9929190614930565b602060405180830381600087803b158015611fe357600080fd5b505af1158015611ff7573d6000803e3d6000fd5b505050506040513d601f19601f8201168201806040525081019061201b9190613957565b50600061203260058461279e90919063ffffffff16565b905060006120498285612a1f90919063ffffffff16565b9050600061206c823461206742600c54612a1f90919063ffffffff16565b612a74565b90503373ffffffffffffffffffffffffffffffffffffffff167f04074d3222dae133379f5d478e841f42f76914bc8ca39d25e0cd120b226710e68284346120be42600c54612a1f90919063ffffffff16565b6040516120ce9493929190614e10565b60405180910390a2505050505090565b6000600660008473ffffffffffffffffffffffffffffffffffffffff1673ffffffffffffffffffffffffffffffffffffffff16815260200190815260200160002060008373ffffffffffffffffffffffffffffffffffffffff1673ffffffffffffffffffffffffffffffffffffffff16815260200190815260200160002060009054906101000a900460ff16905092915050565b6000612188826003612afe90919063ffffffff16565b9050919050565b600033905090565b816005600083815260200190815260200160002060006101000a81548173ffffffffffffffffffffffffffffffffffffffff021916908373ffffffffffffffffffffffffffffffffffffffff160217905550808273ffffffffffffffffffffffffffffffffffffffff1661220a8361109c565b73ffffffffffffffffffffffffffffffffffffffff167f8c5be1e5ebec7d5bd14f71427d1e84f3dd0314c0f7b2291e5b200ac8c7c3b92560405160405180910390a45050565b600061225e82600001612b18565b9050919050565b600061227082612172565b6122af576040517f08c379a00000000000000000000000000000000000000000000000000000000081526004016122a690614afa565b60405180910390fd5b60006122ba8361109c565b90508073ffffffffffffffffffffffffffffffffffffffff168473ffffffffffffffffffffffffffffffffffffffff16148061232957508373ffffffffffffffffffffffffffffffffffffffff16612311846109c5565b73ffffffffffffffffffffffffffffffffffffffff16145b8061233a575061233981856120de565b5b91505092915050565b8273ffffffffffffffffffffffffffffffffffffffff166123638261109c565b73ffffffffffffffffffffffffffffffffffffffff16146123b9576040517f08c379a00000000000000000000000000000000000000000000000000000000081526004016123b090614c7a565b60405180910390fd5b600073ffffffffffffffffffffffffffffffffffffffff168273ffffffffffffffffffffffffffffffffffffffff161415612429576040517f08c379a000000000000000000000000000000000000000000000000000000000815260040161242090614aba565b60405180910390fd5b612434838383612b29565b61243f600082612197565b61249081600260008673ffffffffffffffffffffffffffffffffffffffff1673ffffffffffffffffffffffffffffffffffffffff168152602001908152602001600020612b2e90919063ffffffff16565b506124e281600260008573ffffffffffffffffffffffffffffffffffffffff1673ffffffffffffffffffffffffffffffffffffffff168152602001908152602001600020612b4890919063ffffffff16565b506124f981836003612b629092919063ffffffff16565b50808273ffffffffffffffffffffffffffffffffffffffff168473ffffffffffffffffffffffffffffffffffffffff167fddf252ad1be2c89b69c2b068fc378daa952ba7f163c4a11628f55a4df523b3ef60405160405180910390a4505050565b60008060008090505b600b805490508110156125a35761257981611e91565b801561258a575061258981612172565b5b15612596576001820191505b8080600101915050612563565b508091505090565b60006125ba8360000183612b97565b60001c905092915050565b60006125d08261109c565b90506125de81600084612b29565b6125e9600083612197565b60006009600084815260200190815260200160002080546001816001161561010002031660029004905014612638576009600083815260200190815260200160002060006126379190613598565b5b61268982600260008473ffffffffffffffffffffffffffffffffffffffff1673ffffffffffffffffffffffffffffffffffffffff168152602001908152602001600020612b2e90919063ffffffff16565b5061269e826003612c0490919063ffffffff16565b5081600073ffffffffffffffffffffffffffffffffffffffff168273ffffffffffffffffffffffffffffffffffffffff167fddf252ad1be2c89b69c2b068fc378daa952ba7f163c4a11628f55a4df523b3ef60405160405180910390a45050565b6000808314156127125760009050612769565b600082840290508284828161272357fe5b0414612764576040517f08c379a000000000000000000000000000000000000000000000000000000000815260040161275b90614c3a565b60405180910390fd5b809150505b92915050565b6000806000806127828660000186612c1e565b915091508160001c8160001c8090509350935050509250929050565b60006127c660646127b884866126ff90919063ffffffff16565b61288e90919063ffffffff16565b905092915050565b60006127e1846000018460001b84612ca1565b60001c90509392505050565b60006127fb82600001612d32565b9050919050565b600061282a606461281c848661288e90919063ffffffff16565b6126ff90919063ffffffff16565b905092915050565b61283d848484612343565b61284984848484612d43565b612888576040517f08c379a000000000000000000000000000000000000000000000000000000000815260040161287f906149fa565b60405180910390fd5b50505050565b60006128d083836040518060400160405280601a81526020017f536166654d6174683a206469766973696f6e206279207a65726f000000000000815250612ea7565b905092915050565b60606000821415612920576040518060400160405280600181526020017f30000000000000000000000000000000000000000000000000000000000000008152509050612a1a565b600082905060005b6000821461294a578080600101915050600a828161294257fe5b049150612928565b60608167ffffffffffffffff8111801561296357600080fd5b506040519080825280601f01601f1916602001820160405280156129965781602001600182028036833780820191505090505b50905060006001830390508593505b60008414612a1257600a84816129b757fe5b0660300160f81b828280600190039350815181106129d157fe5b60200101907effffffffffffffffffffffffffffffffffffffffffffffffffffffffffffff1916908160001a905350600a8481612a0a57fe5b0493506129a5565b819450505050505b919050565b600080828401905083811015612a6a576040517f08c379a0000000000000000000000000000000000000000000000000000000008152600401612a6190614a9a565b60405180910390fd5b8091505092915050565b6000600b6040518060600160405280868152602001858152602001848152509080600181540180825580915050600190039060005260206000209060030201600090919091909150600082015181600001556020820151816001015560408201518160020155505060006001600b80549050039050612af33382612f08565b809150509392505050565b6000612b10836000018360001b613096565b905092915050565b600081600001805490509050919050565b505050565b6000612b40836000018360001b6130b9565b905092915050565b6000612b5a836000018360001b6131a1565b905092915050565b6000612b8e846000018460001b8473ffffffffffffffffffffffffffffffffffffffff1660001b613211565b90509392505050565b600081836000018054905011612be2576040517f08c379a0000000000000000000000000000000000000000000000000000000008152600401612bd9906149da565b60405180910390fd5b826000018281548110612bf157fe5b9060005260206000200154905092915050565b6000612c16836000018360001b6132ed565b905092915050565b60008082846000018054905011612c6a576040517f08c379a0000000000000000000000000000000000000000000000000000000008152600401612c6190614bfa565b60405180910390fd5b6000846000018481548110612c7b57fe5b906000526020600020906002020190508060000154816001015492509250509250929050565b60008084600101600085815260200190815260200160002054905060008114158390612d03576040517f08c379a0000000000000000000000000000000000000000000000000000000008152600401612cfa91906149b8565b60405180910390fd5b50846000016001820381548110612d1657fe5b9060005260206000209060020201600101549150509392505050565b600081600001805490509050919050565b6000612d648473ffffffffffffffffffffffffffffffffffffffff16613406565b612d715760019050612e9f565b6060612e3863150b7a0260e01b612d8661218f565b888787604051602401612d9c94939291906148e4565b604051602081830303815290604052907bffffffffffffffffffffffffffffffffffffffffffffffffffffffff19166020820180517bffffffffffffffffffffffffffffffffffffffffffffffffffffffff8381831617835250505050604051806060016040528060328152602001615184603291398773ffffffffffffffffffffffffffffffffffffffff166134199092919063ffffffff16565b9050600081806020019051810190612e5091906139a9565b905063150b7a0260e01b7bffffffffffffffffffffffffffffffffffffffffffffffffffffffff1916817bffffffffffffffffffffffffffffffffffffffffffffffffffffffff191614925050505b949350505050565b60008083118290612eee576040517f08c379a0000000000000000000000000000000000000000000000000000000008152600401612ee591906149b8565b60405180910390fd5b506000838581612efa57fe5b049050809150509392505050565b600073ffffffffffffffffffffffffffffffffffffffff168273ffffffffffffffffffffffffffffffffffffffff161415612f78576040517f08c379a0000000000000000000000000000000000000000000000000000000008152600401612f6f90614c1a565b60405180910390fd5b612f8181612172565b15612fc1576040517f08c379a0000000000000000000000000000000000000000000000000000000008152600401612fb890614a5a565b60405180910390fd5b612fcd60008383612b29565b61301e81600260008573ffffffffffffffffffffffffffffffffffffffff1673ffffffffffffffffffffffffffffffffffffffff168152602001908152602001600020612b4890919063ffffffff16565b5061303581836003612b629092919063ffffffff16565b50808273ffffffffffffffffffffffffffffffffffffffff16600073ffffffffffffffffffffffffffffffffffffffff167fddf252ad1be2c89b69c2b068fc378daa952ba7f163c4a11628f55a4df523b3ef60405160405180910390a45050565b600080836001016000848152602001908152602001600020541415905092915050565b60008083600101600084815260200190815260200160002054905060008114613195576000600182039050600060018660000180549050039050600086600001828154811061310457fe5b906000526020600020015490508087600001848154811061312157fe5b906000526020600020018190555060018301876001016000838152602001908152602001600020819055508660000180548061315957fe5b6001900381819060005260206000200160009055905586600101600087815260200190815260200160002060009055600194505050505061319b565b60009150505b92915050565b60006131ad8383613431565b61320657826000018290806001815401808255809150506001900390600052602060002001600090919091909150558260000180549050836001016000848152602001908152602001600020819055506001905061320b565b600090505b92915050565b60008084600101600085815260200190815260200160002054905060008114156132b8578460000160405180604001604052808681526020018581525090806001815401808255809150506001900390600052602060002090600202016000909190919091506000820151816000015560208201518160010155505084600001805490508560010160008681526020019081526020016000208190555060019150506132e6565b828560000160018303815481106132cb57fe5b90600052602060002090600202016001018190555060009150505b9392505050565b600080836001016000848152602001908152602001600020549050600081146133fa576000600182039050600060018660000180549050039050600086600001828154811061333857fe5b906000526020600020906002020190508087600001848154811061335857fe5b90600052602060002090600202016000820154816000015560018201548160010155905050600183018760010160008360000154815260200190815260200160002081905550866000018054806133ab57fe5b6001900381819060005260206000209060020201600080820160009055600182016000905550509055866001016000878152602001908152602001600020600090556001945050505050613400565b60009150505b92915050565b600080823b905060008111915050919050565b60606134288484600085613454565b90509392505050565b600080836001016000848152602001908152602001600020541415905092915050565b606061345f85613406565b61349e576040517f08c379a000000000000000000000000000000000000000000000000000000000815260040161349590614d3a565b60405180910390fd5b600060608673ffffffffffffffffffffffffffffffffffffffff1685876040516134c89190614857565b60006040518083038185875af1925050503d8060008114613505576040519150601f19603f3d011682016040523d82523d6000602084013e61350a565b606091505b5091509150811561351f57809250505061356f565b6000815111156135325780518082602001fd5b836040517f08c379a000000000000000000000000000000000000000000000000000000000815260040161356691906149b8565b60405180910390fd5b949350505050565b60405180606001604052806000815260200160008152602001600081525090565b50805460018160011615610100020316600290046000825580601f106135be57506135dd565b601f0160209004906000526020600020908101906135dc91906135e0565b5b50565b61360291905b808211156135fe5760008160009055506001016135e6565b5090565b90565b60008135905061361481615127565b92915050565b600082601f83011261362b57600080fd5b813561363e61363982614ee2565b614eb5565b9150818183526020840193506020810190508385602084028201111561366357600080fd5b60005b8381101561369357816136798882613745565b845260208401935060208301925050600181019050613666565b5050505092915050565b6000813590506136ac8161513e565b92915050565b6000815190506136c18161513e565b92915050565b6000813590506136d681615155565b92915050565b6000815190506136eb81615155565b92915050565b600082601f83011261370257600080fd5b813561371561371082614f0a565b614eb5565b9150808252602083016020830185838301111561373157600080fd5b61373c8382846150d4565b50505092915050565b6000813590506137548161516c565b92915050565b6000815190506137698161516c565b92915050565b60006020828403121561378157600080fd5b600061378f84828501613605565b91505092915050565b600080604083850312156137ab57600080fd5b60006137b985828601613605565b92505060206137ca85828601613605565b9150509250929050565b6000806000606084860312156137e957600080fd5b60006137f786828701613605565b935050602061380886828701613605565b925050604061381986828701613745565b9150509250925092565b6000806000806080858703121561383957600080fd5b600061384787828801613605565b945050602061385887828801613605565b935050604061386987828801613745565b925050606085013567ffffffffffffffff81111561388657600080fd5b613892878288016136f1565b91505092959194509250565b600080604083850312156138b157600080fd5b60006138bf85828601613605565b92505060206138d08582860161369d565b9150509250929050565b600080604083850312156138ed57600080fd5b60006138fb85828601613605565b925050602061390c85828601613745565b9150509250929050565b60006020828403121561392857600080fd5b600082013567ffffffffffffffff81111561394257600080fd5b61394e8482850161361a565b91505092915050565b60006020828403121561396957600080fd5b6000613977848285016136b2565b91505092915050565b60006020828403121561399257600080fd5b60006139a0848285016136c7565b91505092915050565b6000602082840312156139bb57600080fd5b60006139c9848285016136dc565b91505092915050565b6000602082840312156139e457600080fd5b60006139f284828501613745565b91505092915050565b600060208284031215613a0d57600080fd5b6000613a1b8482850161375a565b91505092915050565b6000613a3083836147a6565b60608301905092915050565b6000613a48838361482a565b60208301905092915050565b613a5d8161509e565b82525050565b613a6c8161501d565b82525050565b613a7b8161500b565b82525050565b6000613a8c82614f6b565b613a968185614fb1565b9350613aa183614f36565b8060005b83811015613ad2578151613ab98882613a24565b9750613ac483614f97565b925050600181019050613aa5565b5085935050505092915050565b6000613aea82614f76565b613af48185614fc2565b9350613aff83614f46565b8060005b83811015613b30578151613b178882613a3c565b9750613b2283614fa4565b925050600181019050613b03565b5085935050505092915050565b613b468161502f565b82525050565b6000613b5782614f81565b613b618185614fd3565b9350613b718185602086016150e3565b613b7a81615116565b840191505092915050565b6000613b9082614f81565b613b9a8185614fe4565b9350613baa8185602086016150e3565b80840191505092915050565b6000613bc182614f8c565b613bcb8185614fef565b9350613bdb8185602086016150e3565b613be481615116565b840191505092915050565b6000613bfa82614f8c565b613c048185615000565b9350613c148185602086016150e3565b80840191505092915050565b600081546001811660008114613c3d5760018114613c6257613ca6565b607f6002830416613c4e8187615000565b955060ff1983168652808601935050613ca6565b60028204613c708187615000565b9550613c7b85614f56565b60005b82811015613c9d57815481890152600182019150602081019050613c7e565b82880195505050505b505092915050565b6000613cbb602283614fef565b91507f456e756d657261626c655365743a20696e646578206f7574206f6620626f756e60008301527f64730000000000000000000000000000000000000000000000000000000000006020830152604082019050919050565b6000613d21603283614fef565b91507f4552433732313a207472616e7366657220746f206e6f6e20455243373231526560008301527f63656976657220696d706c656d656e74657200000000000000000000000000006020830152604082019050919050565b6000613d87602e83614fef565b91507f4572726f7220636f6c6c61746572616c20646f65736e742062656c6f6e67207460008301527f6f207468697320616464726573730000000000000000000000000000000000006020830152604082019050919050565b6000613ded602783614fef565b91507f4572726f723a2063616e74207472616e73666572206578706972656420636f6c60008301527f6c61746572616c000000000000000000000000000000000000000000000000006020830152604082019050919050565b6000613e53601c83614fef565b91507f4552433732313a20746f6b656e20616c7265616479206d696e746564000000006000830152602082019050919050565b6000613e93601f83614fef565b91507f4572726f722063616e74207061796261636b2065787069726564206c6f616e006000830152602082019050919050565b6000613ed3601b83614fef565b91507f536166654d6174683a206164646974696f6e206f766572666c6f7700000000006000830152602082019050919050565b6000613f13602483614fef565b91507f4552433732313a207472616e7366657220746f20746865207a65726f2061646460008301527f72657373000000000000000000000000000000000000000000000000000000006020830152604082019050919050565b6000613f79601983614fef565b91507f4552433732313a20617070726f766520746f2063616c6c6572000000000000006000830152602082019050919050565b6000613fb9602c83614fef565b91507f4552433732313a206f70657261746f7220717565727920666f72206e6f6e657860008301527f697374656e7420746f6b656e00000000000000000000000000000000000000006020830152604082019050919050565b600061401f602c83614fef565b91507f4572726f722063616e74206c69717564617465206c6f616e207468617420646f60008301527f6573206e6f7420657869737400000000000000000000000000000000000000006020830152604082019050919050565b6000614085603c83614fef565b91507f4572726f723a206e756d626572206f6620696420706172616d6574657273206560008301527f786365656473206e756d626572206f6620636f6c6c61746572616c73000000006020830152604082019050919050565b60006140eb603883614fef565b91507f4552433732313a20617070726f76652063616c6c6572206973206e6f74206f7760008301527f6e6572206e6f7220617070726f76656420666f7220616c6c00000000000000006020830152604082019050919050565b6000614151602a83614fef565b91507f4552433732313a2062616c616e636520717565727920666f7220746865207a6560008301527f726f2061646472657373000000000000000000000000000000000000000000006020830152604082019050919050565b60006141b7602083614fef565b91507f796f7520646f206e6f74206861766520616e792065786974696e67206c6f616e6000830152602082019050919050565b60006141f7603383614fef565b91507f4572726f723a2063616e7420617070726f7665206578706972656420636f6c6c60008301527f61746572616c20666f72207472616e73666572000000000000000000000000006020830152604082019050919050565b600061425d602483614fef565b91507f63616e7420626f72726f77206d6f7265207468616e20706f6f6c206c6971756960008301527f64697479000000000000000000000000000000000000000000000000000000006020830152604082019050919050565b60006142c3602283614fef565b91507f456e756d657261626c654d61703a20696e646578206f7574206f6620626f756e60008301527f64730000000000000000000000000000000000000000000000000000000000006020830152604082019050919050565b6000614329602083614fef565b91507f4552433732313a206d696e7420746f20746865207a65726f20616464726573736000830152602082019050919050565b6000614369602183614fef565b91507f536166654d6174683a206d756c7469706c69636174696f6e206f766572666c6f60008301527f77000000000000000000000000000000000000000000000000000000000000006020830152604082019050919050565b60006143cf602c83614fef565b91507f4552433732313a20617070726f76656420717565727920666f72206e6f6e657860008301527f697374656e7420746f6b656e00000000000000000000000000000000000000006020830152604082019050919050565b6000614435602983614fef565b91507f4552433732313a207472616e73666572206f6620746f6b656e2074686174206960008301527f73206e6f74206f776e00000000000000000000000000000000000000000000006020830152604082019050919050565b600061449b602f83614fef565b91507f4552433732314d657461646174613a2055524920717565727920666f72206e6f60008301527f6e6578697374656e7420746f6b656e00000000000000000000000000000000006020830152604082019050919050565b6000614501602083614fef565b91507f6164647265737320686173206e6f206f75747374616e64696e67204c6f616e736000830152602082019050919050565b6000614541602183614fef565b91507f4552433732313a20617070726f76616c20746f2063757272656e74206f776e6560008301527f72000000000000000000000000000000000000000000000000000000000000006020830152604082019050919050565b60006145a7601c83614fef565b91507f4572726f72204e6f2045787069726564206c6f616e7320666f756e64000000006000830152602082019050919050565b60006145e7603183614fef565b91507f4552433732313a207472616e736665722063616c6c6572206973206e6f74206f60008301527f776e6572206e6f7220617070726f7665640000000000000000000000000000006020830152604082019050919050565b600061464d601d83614fef565b91507f416464726573733a2063616c6c20746f206e6f6e2d636f6e74726163740000006000830152602082019050919050565b600061468d601b83614fef565b91507f4572726f723a206c6f616e20686173206e6f74206578706972656400000000006000830152602082019050919050565b60006146cd601d83614fef565b91507f4572726f723a206c6f616e20696420646f6573206e6f742065786973740000006000830152602082019050919050565b600061470d601683614fef565b91507f4572726f723a20696e76616c6964206c6f616e206964000000000000000000006000830152602082019050919050565b600061474d602c83614fef565b91507f4572726f723a2063616e74207472616e73666572206578706972656420636f6c60008301527f6c61746572616c20666f722000000000000000000000000000000000000000006020830152604082019050919050565b6060820160008201516147bc600085018261482a565b5060208201516147cf602085018261482a565b5060408201516147e2604085018261482a565b50505050565b6060820160008201516147fe600085018261482a565b506020820151614811602085018261482a565b506040820151614824604085018261482a565b50505050565b61483381615087565b82525050565b61484281615087565b82525050565b61485181615091565b82525050565b60006148638284613b85565b915081905092915050565b600061487a8285613c20565b91506148868284613bef565b91508190509392505050565b60006020820190506148a76000830184613a72565b92915050565b60006060820190506148c26000830186613a54565b6148cf6020830185613a72565b6148dc6040830184614839565b949350505050565b60006080820190506148f96000830187613a63565b6149066020830186613a72565b6149136040830185614839565b81810360608301526149258184613b4c565b905095945050505050565b60006040820190506149456000830185613a54565b6149526020830184614839565b9392505050565b600060208201905081810360008301526149738184613a81565b905092915050565b600060208201905081810360008301526149958184613adf565b905092915050565b60006020820190506149b26000830184613b3d565b92915050565b600060208201905081810360008301526149d28184613bb6565b905092915050565b600060208201905081810360008301526149f381613cae565b9050919050565b60006020820190508181036000830152614a1381613d14565b9050919050565b60006020820190508181036000830152614a3381613d7a565b9050919050565b60006020820190508181036000830152614a5381613de0565b9050919050565b60006020820190508181036000830152614a7381613e46565b9050919050565b60006020820190508181036000830152614a9381613e86565b9050919050565b60006020820190508181036000830152614ab381613ec6565b9050919050565b60006020820190508181036000830152614ad381613f06565b9050919050565b60006020820190508181036000830152614af381613f6c565b9050919050565b60006020820190508181036000830152614b1381613fac565b9050919050565b60006020820190508181036000830152614b3381614012565b9050919050565b60006020820190508181036000830152614b5381614078565b9050919050565b60006020820190508181036000830152614b73816140de565b9050919050565b60006020820190508181036000830152614b9381614144565b9050919050565b60006020820190508181036000830152614bb3816141aa565b9050919050565b60006020820190508181036000830152614bd3816141ea565b9050919050565b60006020820190508181036000830152614bf381614250565b9050919050565b60006020820190508181036000830152614c13816142b6565b9050919050565b60006020820190508181036000830152614c338161431c565b9050919050565b60006020820190508181036000830152614c538161435c565b9050919050565b60006020820190508181036000830152614c73816143c2565b9050919050565b60006020820190508181036000830152614c9381614428565b9050919050565b60006020820190508181036000830152614cb38161448e565b9050919050565b60006020820190508181036000830152614cd3816144f4565b9050919050565b60006020820190508181036000830152614cf381614534565b9050919050565b60006020820190508181036000830152614d138161459a565b9050919050565b60006020820190508181036000830152614d33816145da565b9050919050565b60006020820190508181036000830152614d5381614640565b9050919050565b60006020820190508181036000830152614d7381614680565b9050919050565b60006020820190508181036000830152614d93816146c0565b9050919050565b60006020820190508181036000830152614db381614700565b9050919050565b60006020820190508181036000830152614dd381614740565b9050919050565b6000606082019050614def60008301846147e8565b92915050565b6000602082019050614e0a6000830184614839565b92915050565b6000608082019050614e256000830187614839565b614e326020830186614839565b614e3f6040830185614839565b614e4c6060830184614839565b95945050505050565b6000602082019050614e6a6000830184614848565b92915050565b6000606082019050614e856000830186614848565b8181036020830152614e978185613bb6565b90508181036040830152614eab8184613bb6565b9050949350505050565b6000604051905081810181811067ffffffffffffffff82111715614ed857600080fd5b8060405250919050565b600067ffffffffffffffff821115614ef957600080fd5b602082029050602081019050919050565b600067ffffffffffffffff821115614f2157600080fd5b601f19601f8301169050602081019050919050565b6000819050602082019050919050565b6000819050602082019050919050565b60008190508160005260206000209050919050565b600081519050919050565b600081519050919050565b600081519050919050565b600081519050919050565b6000602082019050919050565b6000602082019050919050565b600082825260208201905092915050565b600082825260208201905092915050565b600082825260208201905092915050565b600081905092915050565b600082825260208201905092915050565b600081905092915050565b600061501682615067565b9050919050565b600061502882615067565b9050919050565b60008115159050919050565b60007fffffffff0000000000000000000000000000000000000000000000000000000082169050919050565b600073ffffffffffffffffffffffffffffffffffffffff82169050919050565b6000819050919050565b600060ff82169050919050565b60006150a9826150b0565b9050919050565b60006150bb826150c2565b9050919050565b60006150cd82615067565b9050919050565b82818337600083830152505050565b60005b838110156151015780820151818401526020810190506150e6565b83811115615110576000848401525b50505050565b6000601f19601f8301169050919050565b6151308161500b565b811461513b57600080fd5b50565b6151478161502f565b811461515257600080fd5b50565b61515e8161503b565b811461516957600080fd5b50565b61517581615087565b811461518057600080fd5b5056fe4552433732313a207472616e7366657220746f206e6f6e20455243373231526563656976657220696d706c656d656e7465724552433732313a206f776e657220717565727920666f72206e6f6e6578697374656e7420746f6b656ea26469706673582212203c3a9b6c70b85fafbed37e255bcf7aaf3069f0eeb1540bd5253eb7e07a4df22f64736f6c6343000606003360806040523480156200001157600080fd5b506040516200154738038062001547833981810160405260208110156200003757600080fd5b81019080805190602001909291905050506040518060400160405280600e81526020017f426f72726f77656420546f6b656e0000000000000000000000000000000000008152506040518060400160405280600381526020017f42525400000000000000000000000000000000000000000000000000000000008152508160039080519060200190620000cc92919062000397565b508060049080519060200190620000e592919062000397565b506012600560006101000a81548160ff021916908360ff16021790555050506200012481670de0b6b3a7640000633b9aca00026200012b60201b60201c565b5062000446565b600073ffffffffffffffffffffffffffffffffffffffff168273ffffffffffffffffffffffffffffffffffffffff161415620001cf576040517f08c379a000000000000000000000000000000000000000000000000000000000815260040180806020018281038252601f8152602001807f45524332303a206d696e7420746f20746865207a65726f20616464726573730081525060200191505060405180910390fd5b620001e3600083836200030960201b60201c565b620001ff816002546200030e60201b62000f2d1790919060201c565b6002819055506200025d816000808573ffffffffffffffffffffffffffffffffffffffff1673ffffffffffffffffffffffffffffffffffffffff168152602001908152602001600020546200030e60201b62000f2d1790919060201c565b6000808473ffffffffffffffffffffffffffffffffffffffff1673ffffffffffffffffffffffffffffffffffffffff168152602001908152602001600020819055508173ffffffffffffffffffffffffffffffffffffffff16600073ffffffffffffffffffffffffffffffffffffffff167fddf252ad1be2c89b69c2b068fc378daa952ba7f163c4a11628f55a4df523b3ef836040518082815260200191505060405180910390a35050565b505050565b6000808284019050838110156200038d576040517f08c379a000000000000000000000000000000000000000000000000000000000815260040180806020018281038252601b8152602001807f536166654d6174683a206164646974696f6e206f766572666c6f77000000000081525060200191505060405180910390fd5b8091505092915050565b828054600181600116156101000203166002900490600052602060002090601f016020900481019282601f10620003da57805160ff19168380011785556200040b565b828001600101855582156200040b579182015b828111156200040a578251825591602001919060010190620003ed565b5b5090506200041a91906200041e565b5090565b6200044391905b808211156200043f57600081600090555060010162000425565b5090565b90565b6110f180620004566000396000f3fe608060405234801561001057600080fd5b50600436106100a95760003560e01c80633950935111610071578063395093511461025f57806370a08231146102c557806395d89b411461031d578063a457c2d7146103a0578063a9059cbb14610406578063dd62ed3e1461046c576100a9565b806306fdde03146100ae578063095ea7b31461013157806318160ddd1461019757806323b872dd146101b5578063313ce5671461023b575b600080fd5b6100b66104e4565b6040518080602001828103825283818151815260200191508051906020019080838360005b838110156100f65780820151818401526020810190506100db565b50505050905090810190601f1680156101235780820380516001836020036101000a031916815260200191505b509250505060405180910390f35b61017d6004803603604081101561014757600080fd5b81019080803573ffffffffffffffffffffffffffffffffffffffff16906020019092919080359060200190929190505050610586565b604051808215151515815260200191505060405180910390f35b61019f6105a4565b6040518082815260200191505060405180910390f35b610221600480360360608110156101cb57600080fd5b81019080803573ffffffffffffffffffffffffffffffffffffffff169060200190929190803573ffffffffffffffffffffffffffffffffffffffff169060200190929190803590602001909291905050506105ae565b604051808215151515815260200191505060405180910390f35b610243610687565b604051808260ff1660ff16815260200191505060405180910390f35b6102ab6004803603604081101561027557600080fd5b81019080803573ffffffffffffffffffffffffffffffffffffffff1690602001909291908035906020019092919050505061069e565b604051808215151515815260200191505060405180910390f35b610307600480360360208110156102db57600080fd5b81019080803573ffffffffffffffffffffffffffffffffffffffff169060200190929190505050610751565b6040518082815260200191505060405180910390f35b610325610799565b6040518080602001828103825283818151815260200191508051906020019080838360005b8381101561036557808201518184015260208101905061034a565b50505050905090810190601f1680156103925780820380516001836020036101000a031916815260200191505b509250505060405180910390f35b6103ec600480360360408110156103b657600080fd5b81019080803573ffffffffffffffffffffffffffffffffffffffff1690602001909291908035906020019092919050505061083b565b604051808215151515815260200191505060405180910390f35b6104526004803603604081101561041c57600080fd5b81019080803573ffffffffffffffffffffffffffffffffffffffff16906020019092919080359060200190929190505050610908565b604051808215151515815260200191505060405180910390f35b6104ce6004803603604081101561048257600080fd5b81019080803573ffffffffffffffffffffffffffffffffffffffff169060200190929190803573ffffffffffffffffffffffffffffffffffffffff169060200190929190505050610926565b6040518082815260200191505060405180910390f35b606060038054600181600116156101000203166002900480601f01602080910402602001604051908101604052809291908181526020018280546001816001161561010002031660029004801561057c5780601f106105515761010080835404028352916020019161057c565b820191906000526020600020905b81548152906001019060200180831161055f57829003601f168201915b5050505050905090565b600061059a6105936109ad565b84846109b5565b6001905092915050565b6000600254905090565b60006105bb848484610bac565b61067c846105c76109ad565b6106778560405180606001604052806028815260200161102660289139600160008b73ffffffffffffffffffffffffffffffffffffffff1673ffffffffffffffffffffffffffffffffffffffff168152602001908152602001600020600061062d6109ad565b73ffffffffffffffffffffffffffffffffffffffff1673ffffffffffffffffffffffffffffffffffffffff16815260200190815260200160002054610e6d9092919063ffffffff16565b6109b5565b600190509392505050565b6000600560009054906101000a900460ff16905090565b60006107476106ab6109ad565b8461074285600160006106bc6109ad565b73ffffffffffffffffffffffffffffffffffffffff1673ffffffffffffffffffffffffffffffffffffffff16815260200190815260200160002060008973ffffffffffffffffffffffffffffffffffffffff1673ffffffffffffffffffffffffffffffffffffffff16815260200190815260200160002054610f2d90919063ffffffff16565b6109b5565b6001905092915050565b60008060008373ffffffffffffffffffffffffffffffffffffffff1673ffffffffffffffffffffffffffffffffffffffff168152602001908152602001600020549050919050565b606060048054600181600116156101000203166002900480601f0160208091040260200160405190810160405280929190818152602001828054600181600116156101000203166002900480156108315780601f1061080657610100808354040283529160200191610831565b820191906000526020600020905b81548152906001019060200180831161081457829003601f168201915b5050505050905090565b60006108fe6108486109ad565b846108f98560405180606001604052806025815260200161109760259139600160006108726109ad565b73ffffffffffffffffffffffffffffffffffffffff1673ffffffffffffffffffffffffffffffffffffffff16815260200190815260200160002060008a73ffffffffffffffffffffffffffffffffffffffff1673ffffffffffffffffffffffffffffffffffffffff16815260200190815260200160002054610e6d9092919063ffffffff16565b6109b5565b6001905092915050565b600061091c6109156109ad565b8484610bac565b6001905092915050565b6000600160008473ffffffffffffffffffffffffffffffffffffffff1673ffffffffffffffffffffffffffffffffffffffff16815260200190815260200160002060008373ffffffffffffffffffffffffffffffffffffffff1673ffffffffffffffffffffffffffffffffffffffff16815260200190815260200160002054905092915050565b600033905090565b600073ffffffffffffffffffffffffffffffffffffffff168373ffffffffffffffffffffffffffffffffffffffff161415610a3b576040517f08c379a00000000000000000000000000000000000000000000000000000000081526004018080602001828103825260248152602001806110736024913960400191505060405180910390fd5b600073ffffffffffffffffffffffffffffffffffffffff168273ffffffffffffffffffffffffffffffffffffffff161415610ac1576040517f08c379a0000000000000000000000000000000000000000000000000000000008152600401808060200182810382526022815260200180610fde6022913960400191505060405180910390fd5b80600160008573ffffffffffffffffffffffffffffffffffffffff1673ffffffffffffffffffffffffffffffffffffffff16815260200190815260200160002060008473ffffffffffffffffffffffffffffffffffffffff1673ffffffffffffffffffffffffffffffffffffffff168152602001908152602001600020819055508173ffffffffffffffffffffffffffffffffffffffff168373ffffffffffffffffffffffffffffffffffffffff167f8c5be1e5ebec7d5bd14f71427d1e84f3dd0314c0f7b2291e5b200ac8c7c3b925836040518082815260200191505060405180910390a3505050565b600073ffffffffffffffffffffffffffffffffffffffff168373ffffffffffffffffffffffffffffffffffffffff161415610c32576040517f08c379a000000000000000000000000000000000000000000000000000000000815260040180806020018281038252602581526020018061104e6025913960400191505060405180910390fd5b600073ffffffffffffffffffffffffffffffffffffffff168273ffffffffffffffffffffffffffffffffffffffff161415610cb8576040517f08c379a0000000000000000000000000000000000000000000000000000000008152600401808060200182810382526023815260200180610fbb6023913960400191505060405180910390fd5b610cc3838383610fb5565b610d2e81604051806060016040528060268152602001611000602691396000808773ffffffffffffffffffffffffffffffffffffffff1673ffffffffffffffffffffffffffffffffffffffff16815260200190815260200160002054610e6d9092919063ffffffff16565b6000808573ffffffffffffffffffffffffffffffffffffffff1673ffffffffffffffffffffffffffffffffffffffff16815260200190815260200160002081905550610dc1816000808573ffffffffffffffffffffffffffffffffffffffff1673ffffffffffffffffffffffffffffffffffffffff16815260200190815260200160002054610f2d90919063ffffffff16565b6000808473ffffffffffffffffffffffffffffffffffffffff1673ffffffffffffffffffffffffffffffffffffffff168152602001908152602001600020819055508173ffffffffffffffffffffffffffffffffffffffff168373ffffffffffffffffffffffffffffffffffffffff167fddf252ad1be2c89b69c2b068fc378daa952ba7f163c4a11628f55a4df523b3ef836040518082815260200191505060405180910390a3505050565b6000838311158290610f1a576040517f08c379a00000000000000000000000000000000000000000000000000000000081526004018080602001828103825283818151815260200191508051906020019080838360005b83811015610edf578082015181840152602081019050610ec4565b50505050905090810190601f168015610f0c5780820380516001836020036101000a031916815260200191505b509250505060405180910390fd5b5060008385039050809150509392505050565b600080828401905083811015610fab576040517f08c379a000000000000000000000000000000000000000000000000000000000815260040180806020018281038252601b8152602001807f536166654d6174683a206164646974696f6e206f766572666c6f77000000000081525060200191505060405180910390fd5b8091505092915050565b50505056fe45524332303a207472616e7366657220746f20746865207a65726f206164647265737345524332303a20617070726f766520746f20746865207a65726f206164647265737345524332303a207472616e7366657220616d6f756e7420657863656564732062616c616e636545524332303a207472616e7366657220616d6f756e74206578636565647320616c6c6f77616e636545524332303a207472616e736665722066726f6d20746865207a65726f206164647265737345524332303a20617070726f76652066726f6d20746865207a65726f206164647265737345524332303a2064656372656173656420616c6c6f77616e63652062656c6f77207a65726fa26469706673582212206c5f3bf9b0c6e8eaf7e34da2b190720c13b21c88348a6492dadfb019ce5a017b64736f6c63430006060033",
  "source": "pragma solidity ^0.6.0;\r\npragma experimental ABIEncoderV2;\r\nimport '@openzeppelin/contracts/math/SafeMath.sol';\r\nimport './tokens/BRT.sol';\r\nimport './libraries/SafePercentage.sol';\r\nimport './BRTPOOLUTILS.SOL';\r\nimport './tokens/EtherBackedCollateral.sol';\r\ncontract BRTPOOL is BRTPOOLUTILS ,EtherBackedCollateral{\r\n    address public brtAddr;\r\n    struct BrtTokenInfo{\r\n        uint8 decimals;\r\n        string name;\r\n        string symbol;\r\n\r\n    }\r\n    BrtTokenInfo public tokenInfo;\r\n    using SafePercentage for uint;\r\n    using SafeMath for uint;\r\n\r\n    constructor() public{\r\n      _createBrtTokenAndAddLiquidityToPool();\r\n     \r\n\r\n    }\r\n    \r\n    event Borrowed(address indexed borrower,uint loanId,  uint redemptionPrice,uint collateral,uint expires);\r\n   \r\n    function borrow() public  payable\r\n    returns(uint)\r\n    {\r\n        uint loan = calculateLoan(msg.value);\r\n        require(loan < getPoolBalance(),'cant borrow more than pool liquidity');\r\n        BRT brtToken=BRT(brtAddr);\r\n        brtToken.transfer(msg.sender,loan); \r\n        uint fee=loan.percentMul(5);\r\n        uint redemptionPrice =loan.add(fee);\r\n        uint id = _issueCollateralToken(redemptionPrice, msg.value, borrowTime.add(block.timestamp));\r\n        emit Borrowed(msg.sender,id,redemptionPrice,msg.value,borrowTime.add(block.timestamp));\r\n    }\r\n\r\n  \r\n\r\n    function payback(uint loanId) external{\r\n         require(ownerOf(loanId) == msg.sender,'Error collateral doesnt belong to this address');\r\n         require(!isExpired(loanId),'Error cant payback expired loan');\r\n         require(balanceOf(msg.sender) >= 1,'you do not have any exiting loan');\r\n         require(_exists(loanId),'Error: loan id does not exist');\r\n         BRT brtToken=BRT(brtAddr);\r\n         Collateral memory _loanInfo= loanInfo(loanId);\r\n         brtToken.transferFrom(msg.sender,address(this),_loanInfo.redemptionPrice);\r\n         _burn(loanId);\r\n         msg.sender.transfer(_loanInfo.collateral);\r\n    }  \r\n    function getOutstandingLoansBy(address owner) public view\r\n    returns(Collateral[] memory)\r\n    {   \r\n        require(balanceOf(owner) > 0,'address has no outstanding Loans');\r\n        Collateral[] memory _loansForAddr = new Collateral[](balanceOf(owner));\r\n        for(uint i = 0;i < _collaterals.length ; i++){\r\n          if(ownerOf(i) == owner && !isExpired(i)){\r\n              _loansForAddr[i] = _collaterals[i];\r\n          }\r\n       \r\n        }\r\n        return _loansForAddr;\r\n    }\r\n\r\n    function getOutstandingLoans() public view\r\n    returns(Collateral[] memory)\r\n    {\r\n      return getOutstandingLoansBy(msg.sender);\r\n    }\r\n    \r\n    function isExpired(uint loanId) public view\r\n    returns(bool)\r\n    {\r\n       require(loanId < _collaterals.length,'Error: invalid loan id');\r\n      //  require(_exists(loanId),'Error: loan id does not exist');\r\n       return block.timestamp > _collaterals[loanId].expires  ? true:false;\r\n    }\r\n     \r\n\r\n    function isAnyExpired(uint[] memory _loanIds) public view\r\n    returns(bool)\r\n    { \r\n      require(_loanIds.length <= _collaterals.length,'Error: number of id parameters exceeds number of collaterals');\r\n      bool _isExpired;\r\n      for(uint i =0;i < _loanIds.length;i++){\r\n          if(isExpired(_loanIds[i])){\r\n              _isExpired =true;\r\n              break;\r\n          }\r\n      }\r\n    } \r\n\r\n    function getExpiredLoanIds() public view\r\n    returns(uint[] memory)\r\n    {\r\n       uint _numberOfExpiredLoans =_expiredLoanCounter();\r\n       require(_numberOfExpiredLoans > 1,'Error No Expired loans found');\r\n       uint[] memory _expiredLoanIds = new uint[](_numberOfExpiredLoans);\r\n       for(uint i = 0; i < _collaterals.length; i++){\r\n           if(isExpired(i)){\r\n             _expiredLoanIds[i] = i;\r\n           }\r\n       }\r\n       return _expiredLoanIds;\r\n    }\r\n    function _expiredLoanCounter() internal view\r\n    returns(uint)\r\n    {\r\n        uint _count;\r\n        for(uint i = 0; i < _collaterals.length; i++){\r\n           if(isExpired(i) && _exists(i)){\r\n             _count =_count +1;\r\n           }\r\n        }\r\n       return _count;\r\n       \r\n   }\r\n\r\n   function liquidate(uint loanId) external {\r\n       require(isExpired(loanId),'Error: loan has not expired');\r\n       require(_exists(loanId),'Error cant liqudate loan that does not exist');\r\n       BRT brtToken =BRT(brtAddr);\r\n       Collateral memory _loanInfo=loanInfo(loanId);\r\n       brtToken.transferFrom(msg.sender,address(this),_loanInfo.redemptionPrice);\r\n       _burn(loanId);\r\n       msg.sender.transfer(_loanInfo.collateral);\r\n       \r\n   }\r\n\r\n    \r\n\r\n    function loanInfo(uint loanId) public view\r\n    returns(Collateral memory)\r\n    {  \r\n       require(loanId < _collaterals.length,'Error: invalid loan id');\r\n       require(_exists(loanId),'Error: loan id does not exist');\r\n       return _collaterals[loanId];\r\n    }\r\n    function getPoolBalance() public view\r\n    returns(uint)\r\n    {\r\n        BRT brtToken  = BRT(brtAddr);\r\n        return brtToken.balanceOf(address(this));\r\n    }\r\n\r\n\r\n    function _createBrtTokenAndAddLiquidityToPool ()private{\r\n        BRT brtToken = new BRT(address(this));\r\n        brtAddr = address(brtToken);\r\n        tokenInfo.name = BRT(brtAddr).name();\r\n        tokenInfo.symbol = BRT(brtAddr).symbol();\r\n        tokenInfo.decimals = BRT(brtAddr).decimals();\r\n    }\r\n     \r\n\r\n\r\n\r\n\r\n\r\n\r\n\r\n\r\n\r\n\r\n\r\n\r\n\r\n\r\n    //  CUSTOM ERC20 IMPLEMETATION THAT PREVENTS TRANSFER AND APPROVAL OF EXPIRED LOAN\r\n\r\n     function approve(address to, uint256 tokenId) public virtual override {\r\n        require(!isExpired(tokenId),'Error: cant approve expired collateral for transfer');\r\n        address owner = ownerOf(tokenId);\r\n        require(to != owner, \"ERC721: approval to current owner\");\r\n\r\n        require(_msgSender() == owner || isApprovedForAll(owner, _msgSender()),\r\n            \"ERC721: approve caller is not owner nor approved for all\"\r\n        );\r\n\r\n        _approve(to, tokenId);\r\n    }\r\n    function transferFrom(address from, address to, uint256 tokenId) public virtual override {\r\n        require(!isExpired(tokenId),'Error: cant transfer expired collateral');\r\n        //solhint-disable-next-line max-line-length\r\n        require(_isApprovedOrOwner(_msgSender(), tokenId), \"ERC721: transfer caller is not owner nor approved\");\r\n\r\n        _transfer(from, to, tokenId);\r\n    }\r\n     function safeTransferFrom(address from, address to, uint256 tokenId) public virtual override {\r\n        require(!isExpired(tokenId),'Error: cant transfer expired collateral');\r\n        safeTransferFrom(from, to, tokenId, \"\");\r\n    }\r\n\r\n    /**\r\n     * @dev See {IERC721-safeTransferFrom}.\r\n     */\r\n    function safeTransferFrom(address from, address to, uint256 tokenId, bytes memory _data) public virtual override{\r\n        require(!isExpired(tokenId),'Error: cant transfer expired collateral for ');\r\n        require(_isApprovedOrOwner(_msgSender(), tokenId), \"ERC721: transfer caller is not owner nor approved\");\r\n        _safeTransfer(from, to, tokenId, _data);\r\n    }\r\n    \r\n   \r\n  \r\n\r\n    \r\n    \r\n}",
  "sourcePath": "C:/Users/osasola/Desktop/js-projects/blockchain/lending/contracts/BRTPOOL.sol",
  "compiler": {
    "name": "solc",
    "version": "0.6.6+commit.6c089d02.Emscripten.clang"
  },
  "schemaVersion": "3.0.22",
  "updatedAt": "2020-09-28T18:35:21.995Z",
  "devdoc": {
    "methods": {
      "balanceOf(address)": {
        "details": "See {IERC721-balanceOf}."
      },
      "baseURI()": {
        "details": "Returns the base URI set via {_setBaseURI}. This will be automatically added as a prefix in {tokenURI} to each token's URI, or to the token ID if no specific URI is set for that token ID."
      },
      "getApproved(uint256)": {
        "details": "See {IERC721-getApproved}."
      },
      "isApprovedForAll(address,address)": {
        "details": "See {IERC721-isApprovedForAll}."
      },
      "name()": {
        "details": "See {IERC721Metadata-name}."
      },
      "ownerOf(uint256)": {
        "details": "See {IERC721-ownerOf}."
      },
      "safeTransferFrom(address,address,uint256,bytes)": {
        "details": "See {IERC721-safeTransferFrom}."
      },
      "setApprovalForAll(address,bool)": {
        "details": "See {IERC721-setApprovalForAll}."
      },
      "supportsInterface(bytes4)": {
        "details": "See {IERC165-supportsInterface}.     * Time complexity O(1), guaranteed to always use less than 30 000 gas."
      },
      "symbol()": {
        "details": "See {IERC721Metadata-symbol}."
      },
      "tokenByIndex(uint256)": {
        "details": "See {IERC721Enumerable-tokenByIndex}."
      },
      "tokenOfOwnerByIndex(address,uint256)": {
        "details": "See {IERC721Enumerable-tokenOfOwnerByIndex}."
      },
      "tokenURI(uint256)": {
        "details": "See {IERC721Metadata-tokenURI}."
      },
      "totalSupply()": {
        "details": "See {IERC721Enumerable-totalSupply}."
      }
    }
  },
  "userdoc": {
    "methods": {}
  }
}